:020000040800F2
:100000000000022059090008550900082DA1000828
:1000100055090008550900085509000800000000AE
:10002000000000000000000000000000550900086A
:10003000550900080000000055090008B1A000089B
:100040005509000855090008550900085509000818
:100050005509000855090008550900085509000808
:10006000550900085509000855090008B99C000801
:10007000C59C0008ED7B0008D19C0008DD9C0008B1
:1000800019500108ED8700085509000855090008B6
:1000900055090008550900085509000855090008C8
:1000A00055090008550900085509000855090008B8
:1000B000ED430108F94301080544010821880008BF
:1000C000550900082D880008550900085D3C010805
:1000D000693C01084D4E01087D4E0108B14E0108F2
:1000E00055090008550900080000000055090008DE
:1000F0005509000855090008550900085509000868
:10010000550900085509000811440108753C01080B
:10011000E54E0108194F0108B97E0008550900088D
:10012000A17E0008AD7E0008993C0108CD3C010885
:100130004D500108550900085509000855090008E7
:1001400000000000000000000000000000000000AF
:100150005509000855090008550900084D4F0108C8
:100160003988000855090008C1A00008E5A000086A
:100170005509000809A1000855090008550900089B
:100180005509000855090008814F0108B14F0108C1
:10019000813C01088D3C01085509000855090008FB
:1001A00055090008550900085509000855090008B7
:1001B000D999000855090008550900085509000893
:1001C0005509000855090008550900085509000897
:1001D0005509000855090008550900085509000887
:1001E0005509000855090008550900085509000877
:1001F0005509000855090008550900085509000867
:100200005509000855090008550900085509000856
:100210005509000855090008550900085509000846
:10022000550900085509000855090008000000009C
:10023000550900085509000800000000550900088C
:100240005509000855090008550900085509000816
:100250005509000855090008550900085509000806
:1002600055090008550900085509000855090008F6
:100270005509000855090008E54F01080000000075
:10028000550900085509000855090008000000003C
:08029000000000005509000800
:1002980010B5054C237833B9044B13B10448AFF3B8
:1002A80000800123237010BD400A002400000000D4
:1002B80098A4010808B5034B1BB103490348AFF3E1
:1002C800008008BD00000000440A002498A401082A
:1002D80081F0004102E000BF83F0004330B54FEAEF
:1002E80041044FEA430594EA050F08BF90EA020F5C
:1002F8001FBF54EA000C55EA020C7FEA645C7FEAEF
:10030800655C00F0E2804FEA5454D4EB5555B8BF11
:100318006D420CDD2C4480EA020281EA030382EA82
:10032800000083EA010180EA020281EA0303362D14
:1003380088BF30BD11F0004F4FEA01314FF4801CE7
:100348004CEA113102D0404261EB410113F0004FF9
:100358004FEA03334CEA133302D0524263EB4303B0
:1003680094EA050F00F0A780A4F10104D5F1200E4E
:100378000DDB02FA0EFC22FA05F2801841F10001A9
:1003880003FA0EF2801843FA05F359410EE0A5F17D
:1003980020050EF1200E012A03FA0EFC28BF4CF0AE
:1003A800020C43FA05F3C01851EBE37101F0004564
:1003B80007D54FF0000EDCF1000C7EEB00006EEB71
:1003C8000101B1F5801F1BD3B1F5001F0CD34908FB
:1003D8005FEA30004FEA3C0C04F101044FEA445252
:1003E80012F5800F80F09A80BCF1004F08BF5FEAD9
:1003F800500C50F1000041EB045141EA050130BDB9
:100408005FEA4C0C404141EB0101013C28BFB1F5CA
:10041800801FE9D291F0000F04BF01460020B1FA15
:1004280081F308BF2033A3F10B03B3F120020CDAE8
:100438000C3208DD02F1140CC2F10C0201FA0CF0C6
:1004480021FA02F10CE002F11402D8BFC2F1200C2B
:1004580001FA02F120FA0CFCDCBF41EA0C019040E1
:10046800E41AA2BF01EB0451294330BD6FEA04042A
:100478001F3C1CDA0C340EDC04F11404C4F1200215
:1004880020FA04F001FA02F340EA030021FA04F327
:1004980045EA030130BDC4F10C04C4F1200220FA7E
:1004A80002F001FA04F340EA0300294630BD21FABC
:1004B80004F0294630BD94F0000F83F4801306BF82
:1004C80081F480110134013D4EE77FEA645C18BF76
:1004D8007FEA655C29D094EA050F08BF90EA020F0D
:1004E80005D054EA000C04BF1946104630BD91EA05
:1004F800030F1EBF0021002030BD5FEA545C05D108
:100508004000494128BF41F0004130BD14F5800446
:100518003CBF01F5801130BD01F0004545F0FE41BA
:1005280041F470014FF0000030BD7FEA645C1ABFEF
:10053800194610467FEA655C1CBF0B46024650EA26
:10054800013406BF52EA033591EA030F41F4002152
:1005580030BD00BF90F0000F04BF0021704730B5D8
:100568004FF4806404F132044FF000054FF00001AD
:1005780050E700BF90F0000F04BF0021704730B56E
:100588004FF4806404F1320410F0004548BF404243
:100598004FF000013EE700BF42004FEAE2014FEA98
:1005A80031014FEA02701FBF12F07F4393F07F4F73
:1005B80081F06051704732F07F4208BF704793F076
:1005C8007F4F04BF41F40021704730B54FF4607489
:1005D80001F0004521F000411CE700BF50EA01028C
:1005E80008BF704730B54FF000050AE050EA010235
:1005F80008BF704730B511F0004502D5404261EBA5
:1006080041014FF4806404F132045FEA915C3FF4E5
:10061800D8AE4FF003025FEADC0C18BF03325FEA82
:10062800DC0C18BF033202EBDC02C2F1200300FA33
:1006380003FC20FA02F001FA03FE40EA0E0021FA58
:1006480002F11444BDE600BF53B94AB9002908BFF6
:1006580000281CBF4FF0FF314FF0FF3000F074B995
:10066800ADF1080C6DE904CE00F006F8DDF804E001
:10067800DDE9022304B070472DE9F047089D0446E0
:100688008E46002B4DD18A42944669D9B2FA82F23D
:1006980052B101FA02F3C2F1200120FA01F10CFA79
:1006A80002FC41EA030E94404FEA1C48210CBEFBB1
:1006B800F8F61FFA8CF708FB16E341EA034306FB3A
:1006C80007F199420AD91CEB030306F1FF3080F0C9
:1006D8001F81994240F21C81023E63445B1AA4B216
:1006E800B3FBF8F008FB103344EA034400FB07F7B8
:1006F800A7420AD91CEB040400F1FF3380F00A81F9
:10070800A74240F207816444023840EA0640E41BED
:1007180000261DB1D4400023C5E900433146BDE899
:10072800F0878B4209D9002D00F0EF800026C5E93B
:10073800000130463146BDE8F087B3FA83F6002E53
:100748004AD18B4202D3824200F2F980841A61EBCB
:10075800030301209E46002DE0D0C5E9004EDDE7E9
:1007680002B9FFDEB2FA82F2002A40F09280A1EBD1
:100778000C014FEA1C471FFA8CFE0126200CB1FB26
:10078800F7F307FB131140EA01410EFB03F088421F
:1007980008D91CEB010103F1FF3802D2884200F2AC
:1007A800CB804346091AA4B2B1FBF7F007FB10113E
:1007B80044EA01440EFB00FEA64508D91CEB0404DC
:1007C80000F1FF3102D2A64500F2BB800846A4EB37
:1007D8000E0440EA03409CE7C6F12007B34022FA22
:1007E80007FC4CEA030C20FA07F401FA06F31C4351
:1007F800F9404FEA1C4900FA06F3B1FBF9F8200C5E
:100808001FFA8CFE09FB181140EA014108FB0EF0A3
:10081800884202FA06F20BD91CEB010108F1FF3AF3
:1008280080F08880884240F28580A8F102086144FF
:10083800091AA4B2B1FBF9F009FB101144EA01410D
:1008480000FB0EFE8E4508D91CEB010100F1FF34B8
:100858006CD28E456AD90238614440EA0840A0FB50
:100868000294A1EB0E01A142C846A64656D353D026
:100878005DB1B3EB080261EB0E0101FA07F722FA4A
:1008880006F3F1401F43C5E9007100263146BDE873
:10089800F087C2F12003D8400CFA02FC21FA03F3D6
:1008A800914001434FEA1C471FFA8CFEB3FBF7F057
:1008B80007FB10360B0C43EA064300FB0EF69E427C
:1008C80004FA02F408D91CEB030300F1FF382FD215
:1008D8009E422DD9023863449B1B89B2B3FBF7F6BD
:1008E80007FB163341EA034106FB0EF38B4208D996
:1008F8001CEB010106F1FF3816D28B4214D9023ED7
:100908006144C91A46EA004638E72E46284605E7F4
:100918000646E3E61846F8E64B45A9D2B9EB0208C5
:1009280064EB0C0E0138A3E74646EAE7204694E755
:100938004046D1E7D0467BE7023B614432E7304688
:1009480009E76444023842E7704700BFFEE7000049
:1009580009480A4A0A49121A17F014FB09480A4AB0
:100968000021121A17F036FB09F008FE17F0DEFA1C
:1009780000F07EFDFEE700BF000000243C0A0024D2
:10098800CCA40108400A0024C854032470477047C7
:1009980070477047704770477047704710B5029CA2
:1009A800D0ED026A90ED037A013C12D390ED016A12
:1009B800F1EC017AE6EE477A90ED006AE6EE076A16
:1009C80077EEE67AE2EC016AA6EE277AE3EC017AA2
:1009D800EAE7C0ED026A80ED037A10BDF7B500F1D1
:1009E8006405164613460446D0ED027A2A46013BB2
:1009F80019D3F1EC016AB0EEE67A37EE677AB5EE14
:100A0800C07AF1EE10FACCBF94ED006A94ED016A59
:100A1800E7EE067A94ED037A37EE877A86EE876AF0
:100A2800A2EC016AE3E704F5927704F5F27329462C
:100A380004F120003A46C4ED027A0096FFF7AEFFB3
:100A48002A4639463B4604F110000096FFF7A6FFF8
:100A58009FED4C7A04F130010022F0EE476A04233E
:100A680091ED096A0020DFED477A1341B04216D2B2
:100A780005EB8007F0EE465A184497ED005AD5EE7C
:100A8800055AF5EEC05AF1EE10FACCBF91ED005AB6
:100A980091ED035AA5EE256A77EE867AE6E7F1EE40
:100AA800E75A07EE903A81ED096A91ED066A01323C
:100AB800F8EEE77A0431032A05F1C00567EEA57A56
:100AC80037EEC66AC1ED057A37EE277AF0EEC65AD8
:100AD80035EE866A76EE866AC1D1D4ED187A9FED36
:100AE8002A6A76EEE76AE6EE867AD4EDAA6A94ED8B
:100AF800A96AC4ED187A77EEE67AE7EE866AC4ED5D
:100B0800AA6AD4EDAB6AF0EE665AD7EEA75AE6EEBB
:100B1800256AC4EDAB6AF1EEE66AF4EEE76AF1EE37
:100B280010FA1FD5DFED196AF4EEE67AF1EE10FA45
:100B3800CCBF01200020D4EDAC7AD4F8BC3298B1F7
:100B4800F4EEC77AF1EE10FA0ED86BB9F7EE087A20
:100B5800D4F8B832C4F8BC3227EE277A84EDAC7AE0
:100B680003B0F0BD0020E6E794EDAD7AE7EEC77A72
:100B7800C4EDAC7A23B1013B0020C4F8BC32EFE7E6
:100B88001846EDE700000000CDCC4C3D0AD7233CC9
:100B980038B505461C46084619B105F10C00FFF7A3
:100BA8001DFFA37894ED027AAA68B3B1E37883B9FC
:100BB800D5ED007ADFED116A77EE677AF0EEE77A25
:100BC800F4EEE67AF1EE10FACCBF0123002323708D
:100BD80003E0637853B9920020706B6843B1013B1E
:100BE8006B600023237085ED007A38BD0023EEE7A3
:100BF8002378002BF7D06A60F5E700BFCDCCCC3E58
:100C08000B220270FF2242700022C0E90122C2605A
:100C18007047000010B5837A0446FF2B0AD109F00B
:100C2800F1FA07EE900AB8EE670AD4ED037A30EECF
:100C3800670A10BD9FED010AFBE700BF0000000036
:100C480010B50446142116F06CFE204610BD0000B5
:100C58001FB50024384B0122009458781978234690
:100C680041EA0021354807F08FFA354B00940122FC
:100C780058781978234641EA0021324807F084FA67
:100C8800314B0094012258781978234641EA002113
:100C98002E4807F079FA2E4B0094012258781978DB
:100CA800234641EA00212B4807F06EFA2A4B0094AC
:100CB800012258781978234641EA0021274807F08D
:100CC80063FA274B0094012258781978234641EAA1
:100CD8000021244807F058FA234B00940122587841
:100CE8001978234641EA0021204807F04DFA204BA5
:100CF8000094012258781978234641EA00211D48BA
:100D080007F042FA1C4B9FED1D0A1A7859781C48C7
:100D180042EA01218DED030A06F0BEFC194B9DED58
:100D2800030A1A785978184842EA012104B0BDE844
:100D3800104006F0B1BC00BF2A0B0024F40A0024BE
:100D48001C0B0024080B0024200B0024CC0A0024D0
:100D58001E0B0024E00A0024220B00245C0A002455
:100D6800240B0024700A0024280B0024840A002481
:100D7800260B0024980A00249C9E0108000000000D
:100D8800AC0A0024D09E0108BC0A002408B5002142
:100D9800084807F0DFFA0021074807F0DBFA0021CE
:100DA800064807F0D7FA00210548BDE8084007F0D3
:100DB800D1BA00BFF40A0024080B0024CC0A00248E
:100DC800E00A00242DE9F04FB1480E46B14CB24D6F
:100DD800B24F2DED028B83B005F0EAFAAC4805F06E
:100DE800F3FA204606F072FC284606F06FFCAB7A50
:100DF800AB4DFF2BAB4B0CBF012200221A7040F009
:100E0800C8800021A84809F0A7FD2046FFF702FF87
:100E1800DFEDA67AB4EEE70AF1EE10FA0ADB2B78DA
:100E2800012B04D0012300222B70A14B1A73F7EE7B
:100E3800007A39E02046FFF7EDFEDFED9E7AB4EE4A
:100E4800E70AF1EE10FA07DB2B78022B04D0022315
:100E58002B70DFED997A27E095F80090B9F1010F32
:100E680034D104218A4805F0B1FA23798DED010ABD
:100E780023B1A37AA3F17F04634263418C4C0DF143
:100E8800030201A98DF80330204604F053FF48B14E
:100E98008A4B22685A6262681A620122884B1A7069
:100EA80000232B70D4ED057A2B78002B40F0AC8012
:100EB8007B68013307EE903A824BB8EEE77AD3EDC0
:100EC800006AF8EEE66AC7EE267A9DE0B9F1020FED
:100ED80040D1B6EE008A00216D4805F077FADFF8B8
:100EE800DC81B4EEC80A01216948F1EE10FACCBFE2
:100EF8000123002388F8283005F068FAB4EEC80A00
:100F080049466348F1EE10FACCBF0123002388F864
:100F1800293005F05BFAB4EEC80AF1EE10FACCBF3E
:100F28000123002388F82A3009F06CF9F7EE007ADB
:100F380010F0800F9FED607A237947FE277A002B07
:100F4800B2D0A37A7F2BAFD1002301222B705C4B48
:100F58001A70A9E72379002B3FF47BAFA37A7F2B84
:100F68007FF477AF7B68574A0133126893420ADBF4
:100F780000214A4809F0F0FC7A68504B1A630122B4
:100F88004F4B1A7065E700220121444809F056FCCE
:100F9800F2E70121444809F0DFFC2046FFF73AFE5A
:100FA800DFED447ADFF84081B4EEE70AF1EE10FA9B
:100FB80011DB98F800305BB9404A92F82B3083F087
:100FC800010382F82B3001233D4A88F80030137062
:100FD800237933B909E023793BB1A37A7F2B00F059
:100FE8008580A37A802B00F0BA8098F80030002B17
:100FF80000F0B88009F006F9F7EE007A10F0800FDB
:101008009FED2D7A47FE277A2B78012B00F0C080C0
:10101800022B00F0C880FFF7B9FE234A2A4B0521AE
:10102800526807207D685A62284A294F52689A6296
:10103800284A5268DA62284A52681A630622C3E9C3
:101048000D120822C3E90F023B68244AAB4200F0A4
:10105800D7801069012300F5D641AB403131042B0C
:1010680002EB8101A8BF04231361834240F3A480EB
:1010780007EE900A1A4C9FED1B7A0130F8EEE76AEA
:10108800D4ED007AE6EE877AE1EC017AEDE700BF6D
:10109800D00C0024AC0A0024BC0A00248CC1012412
:1010A800A0C10224A1C10224280C002400409C45B0
:1010B800FC0B002400803B4500000000A4C1022472
:1010C80041CD022454000024640C0024500C002458
:1010D800780F00243C0C0024140C00243C1000243D
:1010E80000BD0124CDCC4C3D40CD0224DFF890A1B9
:1010F800DFF8B0B19AF82B20D2B1DFF888915E4AB8
:10110800D9F804301268013393420BDB00214846BA
:1011180009F022FCD9F80430CAF8343001238BF8DE
:10112800003055E700220121484609F087FBF1E726
:10113800DFF854915149D9F80430096801338B42DA
:1011480008DB1146484609F007FCD9F80430CAF80C
:101158002C30E3E70121484609F070FBF5E700234E
:1011680088F80030464B93F82B3043B1454B5B6809
:10117800013307EE903A404BB8EEE77A9FE6424BD0
:101188005B68013307EE903A3C4BB8EEE77A96E697
:10119800F5EE407A3D48F1EE10FA14BF0121002126
:1011A80007F0D8F837E7F5EE407A3948F1EE10FA4B
:1011B80014BF01210021F3E7012151703549D1F80D
:1011C8009006C1F89036984213DA07EE900A324C2E
:1011D8009FED327AF8EEE76AD4ED007A4424E6EE21
:1011E800877A04FB0014013004F59064C4ED007A9A
:1011F800E9E7D1F888069842A4BF0023C1F88836E9
:10120800214B91781B79234899423D6090F89816B4
:101218001EBF93700123537003221A4B1C79B4FB31
:10122800F2F3B1FBF2F203EB430380F8984602EBCA
:101238004202E31A8A1ADBB2D2B293421CBF0123DC
:1012480080F890380E4B164893F8292082F0010256
:10125800F27093F82A2093F8283082F0010283F084
:1012680001037270B37006F001FA307003B0BDEC80
:10127800028BBDE8F08F00BF4C0000245000002412
:10128800A4C10224BC0C0024640F0024840A002496
:10129800980A0024E0C1022460C602240AD7233C2D
:1012A800800E002441CD022470B58EB006460D464E
:1012B800144609A905A8FFF785FD3E4B05A909AA0B
:1012C8003D4804F097FD3D4B3D4993F82B3073BBE7
:1012D800A3425BD03268DFED3B6A02EB8302DFEDAD
:1012E8003A5A013392ED007A384AD2ED007AB0EEDC
:1012F800676A97EE076AB5EEC06AF1EE10FA76FEF5
:10130800A56AE6EE867ADFED326AF4EEE67AC2ED99
:10131800007AF1EE10FA96BFDFED2E6AF7EE007A4A
:1013280067EEA67A67EE877AE1EC017AD0E70023C8
:10133800A34207D0326802EB83020133126841F8F6
:10134800042BF5E709AB224600212348FFF720FCD0
:10135800224B05AA09A90193214B22480093029424
:10136800174B04F03FF91E4800231C49A3421FD025
:101378002A6850F8046B02EB830216606A6851F819
:10138800046B02EB830201331660EFE709AB2246D8
:101398000B491148FFF7FCFB104B05AA09A901935B
:1013A8000F4B114800930294054B01F0DDFDDAE77D
:1013B8000EB070BDFC0B0024640C0024A4C10224F0
:1013C800A40E0024CDCCCC3D17B7D138A00E0024F4
:1013D80082A8FB375635024774CA02243C0B002406
:1013E8007C0F0024E0C102243C10002470B5836BFC
:1013F80088B000F120060446019302AD0FCE0FC558
:1014080096E8030085E80300D4E9000108F022FA11
:1014180094ED087AD0ED017AB4EE677AF1EE10FA1D
:1014280018D194ED097AD0ED027AB4EE677AF1EE2C
:1014380010FA0FD1A26AC3689A420BD1E26A036913
:101448009A4207D1226B43699A4203D1626B83693E
:101458009A420BD06168206801F11C0208F010F96B
:1014680001AB1C22D4E9000108F006F908B070BDF0
:10147800F8B56C4800276C4C6C4D04F108062DED4E
:10148800028B04F01BFE3021664804F059FF6548C2
:1014980004F086FF6348F0EE408A04F07BFF08EE14
:1014A800100A04F02DFCFFF7D3FB9FED617AB8EE2C
:1014B800488A604B6049B2EE046A60480022C8EE70
:1014C800887A99615E49D862D9614FF080415D4858
:1014D800196219635C495A619964D96419659A62F9
:1014E8005A629A635A6367EE877A1A66B7EE007A89
:1014F8005A669A665A65C7EE276A9FED547A9A65C6
:10150800DA65C3F8B422C3F8B822FDEEE77AC3F867
:10151800BC22DA664E4A17EE901AC3EDB17AD86348
:1015280018645864C3F8C8724A4826EE877AC3ED2F
:10153800B06A26EE866A83ED047A83ED036A83ED4A
:10154800AC7AC3E9017144491A6002F05FF8424974
:10155800424803F0DBFD67600FCD0FC6A5F1100C04
:1015680095E8030086E80300BCE80F0004F12006B4
:101578000FC695E8030086E803003946206808F09E
:1015880069F903685A1E012A40D901232046A3633A
:10159800FFF72CFFA36B012B0CD1314DA5F11806D9
:1015A8000FCE0FC596E8030085E80300A5F13000CB
:1015B800FFF71CFF2B4B226A616A5A6001221960EF
:1015C8001A72216B284809F0C7F9616B274809F09E
:1015D800C3F9E16A264809F0BFF9264804F0F1FB8F
:1015E800104804F0E1FE24490E4804F0A5FE234DFE
:1015F800012008F009FE2B78002BF8D002230A48B6
:10160800A363FFF7F3FE00232B70F0E7051D04F139
:101618002006A3630FCD0FC695E8030086E80300F4
:10162800B8E700BFD00C0024A4C10224180000248D
:101638000AD7233C74CA0224CDCCCC3C5177563E01
:10164800A792AB3C0E745A3B3EC32E38CDCC4C3DD2
:1016580000008A423C100024A0C10124E0C10224F9
:10166800C4C10224FC0B00248CC10124BC0C00243E
:10167800640F0024640C0024B112000841CD022438
:101688002DE9F04786480025FFF7BAFA8548FFF7A5
:10169800B7FA8548FFF7B4FA8448FFF7B1FA8448E7
:1016A800FFF7AEFA8348FFF7ABFA8348FFF7A8FACB
:1016B8008248FFF7A5FA824A824B4FF00208128847
:1016C800814C1A8019785A78804B814E5A70814A19
:1016D80019701288804B81481A8019785A78804B83
:1016E800804F5A70804A19701288804BDFF8A09298
:1016F8001A8019785A787E4BDFF898A25A707D4A7A
:10170800197012887C4B1A8019785A787B4B5A705A
:101718007B4A197012887B4B1A805A7819787A4B51
:101728005A707A4A19701288794B1A8019785A783F
:10173800784B5A70784A19701288784B1A80197841
:101748005A78774B5A70774A19701288764B1A80F4
:1017580019785A78754B19705A702246744916F0E0
:10176800DBF822467249734816F0D6F83562B5623E
:10177800224671493046C6E9035516F0CDF80023D4
:101788006E4822466E490C3603604360057280F845
:101798000C8016F0C1F822466A496B4816F0BCF86E
:1017A80022466A496A4816F0B7F8224669496A48E3
:1017B80016F0B2F822466949694816F0ADF829468C
:1017C800182207F10800C7E9006516F003FC29464E
:1017D800182207F1200016F0FDFBBD63614F0123BD
:1017E800614E5046B9F80020394609F09DF8504638
:1017F800DFF8A4A12246314616F08EF84346B9F820
:1018080000203946DFF89481504609F08DF82246C9
:101818003146504616F080F80323B9F800203946BF
:10182800404609F081F84046DFF874812246314687
:1018380016F072F80423B9F80020394640464B4F99
:1018480009F072F822463146404616F065F8484AD3
:101858002B4648491288384609F066F82246314630
:10186800384616F059F8444F444A2B4644493846FE
:10187800128809F059F822463146384616F04CF8D5
:10188800404F414A2B4641493846128809F04CF8E6
:10189800224631463846BDE8F04716F03DB800BF4D
:1018A800F40A0024080B0024CC0A0024E00A0024CF
:1018B8005C0A0024700A0024840A0024980A002480
:1018C800C89E01083A0B0024000000242A0B0024BB
:1018D800D00C0024A09E01082C0B0024AC0A002484
:1018E8001C0B0024A4C10224B49E0108300B002460
:1018F800200B0024B09E01082E0B00241E0B002490
:10190800B89E0108320B0024220B0024C49E010853
:10191800380B0024280B0024BC9E0108340B00243B
:10192800240B0024C09E0108360B0024260B00243B
:101938009B090008BC0A0024A3090008FC0B00242A
:10194800A10900089F090008640C002495090008F3
:101958003C10002499090008E0C1022497090008F6
:1019680074CA0224040000249D0900088CC10124C3
:101978005400002470000024640F00245000002448
:1019880058000024BC0C00244C0000243000002423
:1019980048000024280C0024500C00243C0C00248F
:1019A800140C0024F1EE007A9FED117A30EE270A2C
:1019B800DFED107A20EE270ABCEEC00A10EE103ACE
:1019C80000EBC3000C4B020D03EB820103EB820317
:1019D80091ED000A010307EE901AF8EE677A67EEB8
:1019E800877A93ED017A37EE407AA7EE870A704737
:1019F8000000802F0000004E44CD0224DFED0E7A57
:101A08000E4A30EE270AFDEEC07AB8EEE77A17EEF6
:101A1800901A30EE470ABEEECC0A10EE103A02EBEE
:101A28008302074B03EB810392ED000AD3ED007AA2
:101A380020EE270A704700BF000000439496010873
:101A4800989A01084FF07C521F490023DFED1F7A56
:101A580042608260C26002610262426200220160EA
:101A68008161C1611A49F1EEE77AC0E90F22194A8A
:101A7800C0ED1D7A82644FF08042DFED177AC264B0
:101A8800C265164AF1EEE77A9FED157A43618362E3
:101A9800C362036343638363436503654366036605
:101AA80081658266C0ED1B7A8267B1EEC77AC0EDA8
:101AB8001F7A80ED1C7AC0F88030C0F88430C0F8F6
:101AC8008830C0F88C307047C92F963B7D2115357A
:101AD8005177563EA792AB3C5404E9380E745A3BF2
:101AE8008988883CD0ED037A9FEDF27A9FEDF20A5F
:101AF800F4EEC77A27EE800A2DE9F047F1EE10FAE6
:101B080004460F4616461D4658BFB2EE047A2DED20
:101B1800088BB7EE008ADFEDE98A84B0DFEDE89A3A
:101B280058BF38EE67AADDF850804CBFB0EE48AA1F
:101B38002AEE07AAFFF762FF20EE280A60EE290ABC
:101B48009FEDE00AC8EE200A15F0F2FEDFEDDE7A1E
:101B580038EE409A94ED030A20EE270AFFF74EFF6D
:101B680020EE280A60EE290A9FEDD60AC8EE200A60
:101B780015F0DEFE9FEDD57AD4ED017AD44BD4ED85
:101B880000AA67EE877A78EE409ABDEEE77A17EEFC
:101B9800102AB8EEC77A03EB820177EEC77A91ED87
:101BA800000A91ED017A37EE407AA7EE870AFFF72F
:101BB80025FFF6EE006A2AEE800A94ED056A07EE24
:101BC800908A94ED084A36EE666A94ED027AB4EE8D
:101BD800660A94ED063AF8EE677AD4ED072A37EEEE
:101BE800447AD4ED0A5AF1EE10FAD4ED113A36EEF1
:101BF800066AC7EE270A36FE800A7AEEC3AA30EED6
:101C0800620A36EE657ACAEEA71A80EE271A87EEC0
:101C1800272AD4E90FA9B8F10108C0F03981B7EC37
:101C2800017A01AB94ED195A04F16800D4ED177AE2
:101C380004F17402D4ED164AA5EE677AD4ED187A49
:101C4800E5EE247A37EE677AC4ED187AA4EE875A5F
:101C58008DED037A94ED137AD4ED124A84ED195A76
:101C680094ED155AE5EE477A94ED147AA5EE247AA8
:101C780077EEC77A84ED147A8DED017AA4EEA75A2F
:101C8800CDED027ADFED937AF0EE67AAF0EE674ABF
:101C980084ED155AB3EC015A043090ED057AB0EE94
:101CA800C55A35EE475AB5EEC05AF1EE10FACCBF18
:101CB80010ED010A90ED020AA5EE007A80ED057A92
:101CC8008242E4EE87AA77EE877A74EEA64AE1D1DB
:101CD800DFED7C4AB0EE00BA94ED237A34EE204A68
:101CE80037EEA45A8AEE850A9FED7B5AD4ED0EAAE8
:101CF80030EE470AB5EEC00AF1EE10FA75FE244A36
:101D0800A0EE247A7BEE674A37EEA70A20EE240A73
:101D1800D4ED0B4A84ED237A77EEE47AF5EEC07AB7
:101D2800F1EE10FA35FE095AE5EE274AD4ED0C7AA1
:101D3800B0EE675A10EE075A9FED687AB0EE660A61
:101D4800C4ED0B4AB5EEC05AF1EE10FA37FE297A07
:101D5800E7EE057A24EE045AB4EEE65A35EE057A33
:101D6800C4ED0C7A77EEE67AF1EE10FAA7EE8A0A5D
:101D780056BF37EE485A9FED575AB7EE007AA7EE8E
:101D8800005AB0EE6A0A95EE0B0A9FED55BA9FED20
:101D9800555AF0EE4B7AE7EE057AB4EEE70AF1EE23
:101DA80010FA07DCF1EE677AF4EEC07AF1EE10FA79
:101DB80077FE807AB5EEC06A7AEEA7AAB0EE485AE6
:101DC800F1EE10FA75EE825AC4ED0EAA72EE812A6F
:101DD8004CBF66EE267ADFED3F7AF5EEC05A33EE59
:101DE800213A48BF67EE867AF1EE10FA74EEC84AD7
:101DF800A3EEA75ADFED3C7ACCBFB5EE000A9FED03
:101E0800350A22EEA77A63EE277AC8BF25EE800A44
:101E180027EE057AFCEEE77AC8BF20EE250ABCEE6D
:101E2800C77A23EE800A17EE103A994417EE903AD3
:101E38009A444846FFF7B6FDB0EE405A50462AEE9F
:101E4800800AFFF7AFFD30EE637AF0EE407A94ED4A
:101E58000D0A25EE265AE7EE283AB0EE487A75EED6
:101E6800277AA4EE8A7ADFED214AAAEEA4BA37EEE1
:101E7800407AABEE070A67EE807A84ED0D0AE6EC4D
:101E8800017A94ED0D0A20EE055AA5EC015AC2E636
:101E9800C4E90FA9C4ED113AC4ED0A5A84ED084A01
:101EA800C4ED072A84ED063A04B0BDEC088BBDE802
:101EB800F08700BF6666663F0000C042CDCCCC3DCF
:101EC80000803B476F12833A0000A842000000439D
:101ED8009094010800000000CDCC4C3D0AD7233C6B
:101EE8000AD7A33B8FC2753C0000804FEC51383DA8
:101EF800531E03EBD373F0B55D100B469D424FEABA
:101F0800830414DD5E1C044400EBC607730097EDE0
:101F1800007A57ED017AB4EEE77AF1EE10FA48BF8D
:101F280003F1FF3300EB830636682660E6E7D50742
:101F38000ED4023A02EBD272B3EB620F08D101332E
:101F480004445A0000EBC30353F8043C2360531EB7
:101F58005A1E02EBD2725210994200EB830410DA37
:101F680000EB8203D3ED007AB4EEE70AF1EE10FA43
:101F780007DD531EC4ED007A03EBD37413466210D9
:101F8800EAE784ED000AF0BD034610468B4203D011
:101F9800CA1A194616F004B87047F8B504460D4633
:101FA80016462B1B402B1BDD9F10D6B9B91E4910B6
:101FB8004E1C04EB860636ED010A3A462046FFF72A
:101FC80097FF09B10139F6E735ED010A00212368C9
:101FD80020462E1B2B60B210FFF78AFF042EF3DC7D
:101FE800F8BDDB10D4ED016A013E211D04EB83032B
:101FF80055ED017A226893ED007AF4EEC76AF1EEA6
:1020080010FA30D5B4EEE77AF1EE10FA21D584ED66
:10201800007A1A600B4629461F46D4ED006AF3EC95
:10202800017AF4EEE67AF1EE10FAF5D40A4612EDEA
:10203800017A043AF4EEC76A1146F1EE10FAF6D4C2
:1020480097421FD32946324638463D46FFF7A5FF3B
:10205800A7E7F4EEE76AF1EE10FA09D5C4ED007AC5
:1020680045F8042CD6E7F4EEE76AF1EE10FA03D54A
:10207800C4ED006A6260CDE7B4EEE77AF1EE10FADB
:10208800C5D5EBE703ED017AC2ED007AC4E78842D3
:1020980070B504460E462DED028B25D0051DAE42C7
:1020A80022D095ED008AD4ED007AB4EEE78AF1EEFD
:1020B80010FA0AD5AC4204D02A1B2146201D15F07F
:1020C8006FFF84ED008A0435E9E72B461A4673ED65
:1020D800017AB4EEE78AF1EE10FA02D5C3ED017A7F
:1020E800F4E782ED008AEEE7BDEC028B70BD0000DC
:1020F800D0ED0D7A90ED0E4AD0ED0C3AD0ED0A4AAB
:1021080090ED0B3A90ED0F5AD0ED105AF0B5013B17
:10211800C0F0CD810468B6EE007A90ED022A651E03
:1021280090ED061A49BF04F5FF4405607F3404604A
:10213800D0E9004514F01F0F40F0B481D0ED036AD8
:1021480090ED046AC0ED026A96EE862A90ED086A60
:1021580080ED032A36EE872AD0ED076A96EE861AB6
:10216800C0ED066A80ED071A36EE871A04F1950667
:10217800D1ED002A92ED007AC4F30E07C6F30E06DD
:10218800DFEDCD6A32EE877A35F9166006EE106A11
:10219800E7EE036A9FEDC97AB8EEC66A26EE076ACB
:1021A800E7EE866AF0EE661AA7EEE66AFEEEE81A31
:1021B80011EE906A06F30F0625F8176004F5B67657
:1021C800C6F30E0635F9166006EE906A04F1970616
:1021D800F8EEE66AC6F30E0666EE876AA7EEA66A0A
:1021E800F0EE461AE7EEC66AFEEEE81A11EE907AAD
:1021F80007F30F0725F8167004F52B76C6F30E06BD
:1022080035F9166006EE106A04F5B776B8EEC66AB8
:10221800C6F30E0626EE076AE7EE866AF0EE661A41
:10222800A7EEE66AFEEEE81A11EE907A07F30F07BA
:1022380025F8167004F2BC46C6F30E0635F916608A
:1022480006EE906A04F2AE26F8EEE66AC6F30E06CB
:1022580066EE876AA7EEA66AF0EE461AE7EEC66A49
:102268009FED976AFEEEE81A11EE907ADFED951A67
:1022780007F30F07E1EE061A25F8167043F6D23772
:10228800BDEEE16A16EE106AB8EEC61A264431EEC3
:10229800C11A06EB070C06F56F561336CCF30E0C75
:1022A800C6F30E0635F91CC035F9166006EE10CADD
:1022B80001EE906AB8EEC66A04F64356F8EEE11AE3
:1022C800C6F30E0661EE871A35F91660E6EE471A70
:1022D80061EE211AE6EE071AB0EE666AA3EEA16A6D
:1022E80036EE456AA4EE065A06EE106A04F2BE46B9
:1022F800B8EEC66AC6F30E0626EE076AF0EE451A71
:10230800E7EEC61AB0EE611AA7EEA16ABEEEE81AA9
:1023180011EE10CA0CF30F0C25F816C004F5BE56C2
:102328000636C6F30E0635F9166001EE906A04F615
:102338004556F8EEE11AC6F30E0661EE871AA7EEC7
:10234800A16AE7EEC61AB0EE461ABEEEE81AB0EE7B
:10235800616A11EE10CAB0EE001A0CF30F0CBEEE53
:10236800E86A25F816C041F2C87C16EE10EAB0EE0D
:10237800626A04EB0C060EF30F0E91EE816AC6F347
:102388000E0625F816E0E6EE242A9FED4F6AE1ECEA
:10239800012ADFED4E2AE2EE062ABDEEE26A16EECB
:1023A800106AB8EEC62A264432EEC22AB44406F5AC
:1023B800BE560936CCF30E0CC6F30E0635F91CC012
:1023C80035F9166006EE10CA02EE906AB8EEC66AD3
:1023D80004F54C56F8EEE22A3A3662EE872AC6F33E
:1023E8000E0635F91660E6EE472A62EE222AE6EE78
:1023F800072AE3EEA26A76EEE56AE4EE265A06EECE
:10240800906A04F52556F8EEE66A1E3666EE876A87
:10241800C6F30E06B0EE656AA7EEA66AF0EE462A87
:10242800E7EEC66AFEEEE82A12EE90CA0CF30F0C2D
:1024380025F816C004F56F561036C6F30E0635F9A2
:10244800166006EE106A04F54C563C44B8EEC66AAF
:102458003C36C4F30E04C6F30E0626EE077AE7EE02
:10246800C76AA7EEA67AB0EE666ABEEEE86AF0EE34
:10247800476A16EE10CA0CF30F0CFEEEE86A25F850
:1024880016C016EE906AD2ED006A06F30F06B0EE9B
:10249800666A25F8146097EE016AE6EE246AE2ECB3
:1024A800016A34E632EE072A31EE071A5EE680ED5D
:1024B8000F5AC0ED105AF0BD0000000000000038AF
:1024C8000000484200A8C3450000204200608B4538
:1024D800F2EE087A594BF0B530EEE77A8FB070EE2D
:1024E800A77A07460C4615468DED067A01AE9FED94
:1024F800547ACDED0A7A70EEC76ADFED527A30EE83
:10250800877A8DED050A70EEA77ACDED080ACDED34
:10251800076AF0EE006A8DED097ACDED0B7AF3EEDD
:10252800087AB4EEE61A70EEA77AF1EE10FA0FCB3D
:10253800CDED0C7ACDED0D7A86E80F0018DB71EE43
:10254800666A3B690B22013BFDEEE66A16EE901ABD
:1025580002FB03133C4A02EB431303EB8505AB4232
:1025680069D0F3EC017A77EEA07AE4EC017AF6E729
:102578006A1E0023A5EB520204EB820093425AD054
:10258800002B46D0F7EE007A9FED306AB1EE0C7A58
:1025980077EEC17A21EE077AA7EE861AFDEEC77AA2
:1025A800F6EE005A17EE901AF8EEE77A37EE677AE9
:1025B800B4EEE57A77EE077AF1EE10FA2CD567EEED
:1025C800A77A67EEA77A67EEA77A67EEA77A27EE6B
:1025D800A56A0EAE06EB810616ED097A0EAE06EB7D
:1025E800810151ED087A991877EEC77A8D42A7EEE6
:1025F800867AA4EC017A09D903F0030106EB81017C
:1026080051ED0D7A37EE877A80ED007A0133043088
:10261800B4E7B0EE087AC1E776EEE77AB7EE006A7B
:1026280067EEA77A67EEA77A67EEA77A67EEE77A8A
:10263800A7EEA56ACDE70FB0F0BD00BFA0800108E6
:1026480027A0E0400A28984194000024CDCC4C3EB5
:10265800F0B49025044657784D43049E05F5CC30D8
:1026680000F5B27020446FB1A7688F420AD1127882
:1026780042B162194FF07E5502F5CC32C2F8905142
:10268800C2F89451902202FB01411A6801F5CC313D
:10269800C1F868215A6881ED590AC1F86C21DA68D5
:1026A8009B68C1F878210022C1F8703104F5D8334D
:1026B800C1F8742104F5D73204F5D63104964833AD
:1026C80002F5C47201F5A471F0BCFFF70BBA000063
:1026D8009FED0E7ADFED0E7A20EE077AE0EE077AAC
:1026E800B7EE007AC7EE206A20EE270AF0EE477AA6
:1026F80080ED000AE6EE807AC0ED016AE0EE007A2D
:10270800C7EE276AC0ED026A704700BFD757394144
:10271800DB0F494038B504460025DFED0C0A9FED74
:102728000C0AFFF7D5FF4FF4806204F11C00256105
:10273800E560002115F04EFC00230122C4F81C348A
:10274800C4E9053204F58464256038BD0000C84238
:102758000AD7233C90ED037A90ED046A013B20D31D
:10276800D0ED016AF1EC017AD0ED025AE6EEC77AB3
:10277800D0ED006AE6EEC77A77EEC67A67EEA57AFC
:10278800A6EEA77AF0EE475AA6EEA77AF0EE467ABA
:10279800E6EEA57AB0EE676AE2EC017AA6EEA56AE3
:1027A800DCE780ED037A80ED046A7047F0B51E46D9
:1027B800537805460C462DED028B83B0F0EE408A27
:1027C800B0EE608A0A9FD3B183688B4217D1137821
:1027D800ABB1F3EE087A20EEA00A20EE270AFFF745
:1027E8000DF9F5EE007A05F5D63220EE270A92EDBE
:1027F800527AC0EE087A77EE877AC2ED527A1420C0
:1028080005F5D6313B4600FB045001F5A47100F5EF
:10281800CD300A46019100F5D270FFF79BFF40F2D8
:102828001C5033684443D6ED017A01992A1967EEA2
:10283800A77A14349361F3682819C2ED058A1362E4
:10284800B368C2ED077A936205F5D83305F5D73238
:102858000A97483302F5C47203B0BDEC028BBDE899
:10286800F04001F08DB800002DE9F84300F2244350
:10287800DFF8D4C00F4601EB820893ED005A00F54B
:1028880084634FF0000ED3ED005ADCF80030474562
:1028980047D0D0F81C44002C40D0274EB0EE006A38
:1028A800264D013C4FF0010E06FB0353C0F81C44B3
:1028B80007EE903AF8EE676ADFED217A66EEA76ACE
:1028C800FFEE007AE6EE867AB0EE677AFDEEE57AFC
:1028D800466917EE904AF8EEE77AA51900EB8604E8
:1028E80075EEE77AFF365FFA85F90135F6B2EDB293
:1028F80000EB890900EB8505D9ED076A95ED076AB4
:1029080036EE666AE7EE866AF0EE477AE5EE267AF4
:10291800E7EC017AC4ED077A4661B8E79FED097ADA
:10292800D4E7BEF1000F01D0CCF8003013460A46B8
:10293800FFF710FFBDE8F8830D6619005FF36E3CE2
:102948000000802F00000000140600242DE9F04F3D
:102958009846837804460D46012B17462DED068BC5
:1029680091B0F0EE408AB0EE608ADDF880A001D028
:10297800042B42D1012B05F5D64322694FF00801FB
:1029880003F1300318BFD7ED047A97ED010A08AEBA
:1029980004EB83031CBFB8EEE71AF0EE007A4FF0A1
:1029A8000009D3ED010A204608BF98ED001A70EE21
:1029B800200A18BF31EE271AD7ED037A91FBF2F2FD
:1029C800029270EEA70A30EE270A029A08A9FFF7CA
:1029D8007FFD029B994514DADFED667A09F101095A
:1029E80096ED000A30EE670AFFF708F8DFED627A25
:1029F80020EE270AA6EC010AEBE701238DED080A71
:102A08000293A36804F5D636AB4206F5A4761BD12B
:102A1800DDED027AF7EE006A04EB8A033246F8EE3F
:102A2800E77A03F5D63377EEA77A03F5A473F1EEC8
:102A3800E77A86EEA77A9A4206D0D2ED007A67EE58
:102A4800877AE2EC017AF6E714205346324631469B
:102A580000FB054000F5CD3000F5D270FFF77AFE97
:102A68007B78002B6AD04FF48563A2686B43AA4237
:102A780003F5CE3000F12400204447D13A78002AEB
:102A880044D0D8ED035AF2EE006A9FED437A23440E
:102A9800DFED3A7A68EE266A03F5D033E5EE877AF9
:102AA800B7EE007AB0EE676AC7EE287A67EE867AE4
:102AB800BCEEE76A83ED106A9FED316AF4EEC67AE0
:102AC800F1EE10FA04DBB6EE006A67EE867AF3E7F9
:102AD8004FF485639FED2B0A37EE657A039003FB6D
:102AE8000543F4EE406AF7EE000A03F5D033F1EE41
:102AF80010FAC3ED117ADFED247A30FE260A27EEAC
:102B0800277A83ED127AFFF7E3FD039804F5D731AE
:102B18005246C831FFF7A8FE334604EB8A0202F595
:102B2800D63202F5A472934208D0B3EC017AD3ED01
:102B38005F7A77EE877A43ED017AF4E70C23524601
:102B480003FB054303F5CD3393ED7E7AD3ED7F7A0E
:102B5800D3ED7D5A3346013A2ED3D3ED006AB0EE59
:102B6800666AA5EEA76A76EE477AB0EE667AE3EC77
:102B7800017AF0E700008A42C92F163CCDCC4C3DC3
:102B880000007F43EE7CFF3ECDCC4C3F8FC2753EAC
:102B9800DF4F85403333333F6666663F713D8A3E7B
:102BA800000010423333733FCDCC4C3EB81E853EF7
:102BB80009F9AC3F000000000AF5D7490C2304F5D9
:102BC800D73B002109F1620903FB05430BF5C47BE0
:102BD8001FED129A4FEA890903F5CD335846A9F536
:102BE800D732C3ED7F7A83ED7E7AA2F5C472039261
:102BF80015F0F0F904F5D833039A00214833184644
:102C080015F0E8F9D8ED007A0346F4EEC97AF1EE4A
:102C180010FA40F1D28077EEC97A1FED239A27EE99
:102C2800899A08AAA9F5C079039204EB09024FF022
:102C380000090492029A4A4540F3D380226943F27C
:102C48008C00B7EE000AD8ED018A02FB095298ED14
:102C580003AA04EB021C00FB02400CF5C8310CF57A
:102C6800CC3C00F5A45001F6E80E01F6E401DCEDD9
:102C78003B6A0430D1ED007A9EED007AD7EE267AD1
:102C8800DDED026AF8EEE69A06EE909AF8EEE66A4C
:102C9800CEED007A81ED007AC6EEA9AAA178D8ED2A
:102CA800027A052909BFB0EE008AB0EE678A38EECD
:102CB800678A28EE278AB9F1000F00F08D807978AD
:102CC800002900F08980F0EE006A1FED4E8A059316
:102CD80036EEE86ACDE9062066EE288A1FED526ACC
:102CE80076EEE86A66EEA88A5FED546AA7EEA68AD1
:102CF800F6EE006A38EEC00A76EECA7A37EE267A21
:102D0800F0EEE77A76EEE77A67EE867AA7EE87AA9C
:102D18005FED5D7A20EE270AFEF770FE04F5D73ED8
:102D280007980EF1080EDDE9053243F28C0C039981
:102D380005930CFB0242B1EC017A02F5A45C039105
:102D480071468CED029A02F5A45CDCED017A37EE4F
:102D5800677AE0EE077ACCED017A02F5A45C5FEDC4
:102D68006F7ACCED038A02F5A45C77EEC87A02F597
:102D7800A4528CED05AAA7EEAA8A82ED048A5A46C7
:102D8800CDF800A001F0E2FB059BB9F1000F25D1B9
:102D98005FED7B7A04F5D73287EEA97A0832049979
:102DA80091421BD0D2ED607AD2ED906A77EEE67A46
:102DB80067EE877AE2EC017AF1E71FED849AF4EE88
:102DC800C97AF1EE10FA04DD77EEC97A1FED889A18
:102DD80025E71FED889A24E7B646A6E709F1010919
:102DE80028E711B0BDEC068BBDE8F08FB5EE006AA0
:102DF800F6EE006A30EE460AB5EEC00AF1EE10FAB9
:102E080018D5B1EE400AF3EE007A20EE277AC0ED2D
:102E1800016AF0EE005AF7EE007AE0EE657A67EEA6
:102E2800277AC0ED027A67EE867AC0ED037AC0EDA4
:102E3800007A7047B4EEE60AF1EE10FA02DD30EEE1
:102E4800660AE0E7FBEE007ADFE700002DE9F043D1
:102E580090F8018089B00446B8F1000F73D08378E8
:102E6800052B68D8DFE803F011262603262600F58F
:102E7800CC35002605F5B2752369B3425BDD2846DB
:102E880001369035FEF7DEFDF6E70369402500F1CF
:102E98001406002795FBF3F5043D2369BB424ADD80
:102EA8003046013700F066FC25F00103B36106F2F5
:102EB8001C56F2E7002300F5CC3600F5A4556F4602
:102EC80007934FF07C53E436043500931F4BB1460B
:102ED80001931F4B02931F4B03931F4B04931F4BEC
:102EE80005931F4B0693A178022922D04B1F594204
:102EF8005941284605F5425500F0F0FDB7EC010AA6
:102F0800DFED187A0C353046103620EE270AFFF729
:102F18006DFF4D45E7D104F5CE35002624352369EC
:102F2800B34208DD2846013605F58565FFF7F2FB53
:102F3800F5E74146DDE7A26823699A424FF00003AE
:102F4800A8BFA360637009B0BDE8F083CDCCCC3EC8
:102F58003333B33E1F856B3E6210583ECDCC4C3E9A
:102F6800A01A2F3E6F12833A2DE9F04F2DED048BF6
:102F78008DB009EE903A044688461C9B924603930E
:102F88009B0002930378DDE91A97A3B1029919EE21
:102F9800903A4A4619EE900A19440291FEF7F4FF56
:102FA8003A46029919EE900A0DB0BDEC048BBDE8C3
:102FB800F04FFEF7E9BFFFF749FF04F5D03298ED6F
:102FC800028A04F5D63502F6D4419FEDD69A05F16A
:102FD800D40305F1E40BD1ED047A78EE677AF0EECC
:102FE800E77AF4EEC97AF1EE10FA00F3BC8198F8AA
:102FF8000000002840F0B781D835ABEB030BED1A81
:103008004FEAAB00AD10C5EBAB06B54240F02D81E1
:1030180002F6D842086815680D60106004F5D036CD
:1030280019465A4608A806F6D44585ED038A14F0D1
:10303800A9FF04220CA908A8FEF7AFFF0CA908A84D
:10304800FFF725F8D5ED047ADDED0A6AF6EE005AA9
:103058009DED097A95ED186A37EE267AD6F8EC3C9C
:10306800F0EE676A06EB83020F33D7EE256A95ED1B
:10307800057AD5ED1B5A02F6F44203F00F0375EEFC
:10308800C65AE6EE267AD5ED196AC5ED047A77EECA
:10309800C77AA6EEA77AD5ED1C7AA7EEA56A85EDC4
:1030A800057A85ED186A37EEE66AE7EE866AC5EDB9
:1030B800196A82ED007AC6F8EC3C04F5D03303F6C1
:1030C800D442D2F810C098F800202AB3D3F8EC1CE8
:1030D800D3F8F00CA2680144266902F5D64501F040
:1030E8000F01012E05F1300503EB810304EB850583
:1030F80003F6F4431B686B6040F34E81F30740F11D
:103108004B81E368884A03F00701013352F8212014
:1031180003F00703A260E360A3680021029A48460F
:1031280003F5D643CDF8149004F5CD3B3E46303335
:1031380000250BF5D27B04EB8303C3F804C014F01D
:1031480049FF029A0021384614F044FF04F5D633AB
:10315800C4330493029B4B4407932369AB4240F367
:103168006D81B0EE008A9AED010A049BDFED6F8A4B
:1031780038EE408AF3EC017A049328EE008A98ED41
:10318800010A77EE807A98ED030A77EE807A9FED50
:10319800680A37EEC00AFEF731FC98F8013060EE95
:1031A800288A0693002B00F0FE80B6EE000A38EE5F
:1031B800408A9FED600A28EE000AFEF71FFC20EE09
:1031C800288AA368AB4240F0FB80DFED5B7AB4EE5F
:1031D800678AF1EE10FA37FE888A069BF7EE080A2E
:1031E800DFED567A5846002BB0EE480A47FEA00A93
:1031F800FFF76EFAA36804F5D630AB4200F5A47069
:1032080000F0E180029A002114F0E4FEA378002B7C
:1032180040F0E380039BF0EE480AB0EE680A4246AD
:103228000093294653462046FFF7C0FA2369012B2D
:1032380040F0E58004F5D73339464A4603F5C473B0
:103248000798904200F0F680B3EC017AD2ED007A4C
:1032580077EE877AE2EC017A91ED007AD3ED2F7A56
:1032680077EE877AE1EC017AEAE71E461DE006EB85
:10327800850CB64600218A4209DDDEED007A01316F
:103288009CED007AAEEC017AECEC017AF3E722EAE5
:10329800E27206EB820690FBF5F205FB12000028AD
:1032A8003FF4BCAE2A462D1A1046421B954212DA4C
:1032B800012DDCD1314606EB80058200F1EC018A54
:1032C800A94205D0043A3046049314F069FE049BE1
:1032D80045ED018AA2E6012A10D100F180400138AB
:1032E800820006EB80008642056805D03146301D15
:1032F800049314F055FE049B35608FE606EB8001BD
:103308004FF0000CA1EB8206B64665451EDD7EED4A
:10331800017A0CF1010C31ED017A8EED007AC1EDE4
:10332800007AF2E7CDCCCC3EA0810108C92F163C2B
:1033380000008A420000C042EE7CFF3ECDCC4C3FEC
:103348000000D8420E745A39CDCCCC3D25EAE5753B
:103358006FF0030101FB056690FBF2F502FB150512
:10336800002DA1D15AE602F6D443996E83ED008A66
:103378001966D96E83ED048A83ED058A596602F6CB
:10338800D84383ED008A02F6DC4302F54E6283EDF2
:10339800008A82ED008A90E6013292FBF6F306FB82
:1033A8001322A260B8E6B7EE000A38EE408A1FED95
:1033B8001C0A28EE000AFEF721FB20EE098A00E726
:1033C8001FED208A09E719EE903A0299024619EE94
:1033D800900A5918FEF7D8FD18E7032B039BF0EE67
:1033E800480A42460093B0EE680A534629462046EA
:1033F80002D1FFF72DF919E7FFF7A8FA16E715F03C
:10340800010F04F5D832029914BF3B464B464832A7
:10341800581898420ED0114652ED307A93ED007A42
:103428000432D1ED006A77EEE67A77EE877AE3EC3C
:10343800017AEEE701350BF1140B8EE6A378052B24
:1034480056D13B46079A05998A421CD0F7EE007A76
:10345800DAED035AD3ED006A0A4691ED006A37EEB9
:10346800E57A27EE267AA5EE867AA2EC017A9AED1D
:10347800037A059277EEC77A67EE867AE7EE267AC0
:10348800E3EC017ADEE7F6EE006A9AED027A5FED88
:10349800527A04F5D830534B4946E7EE267ADFEDE9
:1034A800526AC0F83C313A46504B00F58470C3620A
:1034B800039BC0ED0A7ADFED4E7AE7EE267ADAED65
:1034C800016A9FED4C7AC0ED0C7ADFED4B7AE6EE9F
:1034D800877AC0ED0E7AFEF70BFE02993944B142A5
:1034E80006D0D6ED007AF1EE677AE6EC017AF6E7D7
:1034F800A278424B03EB820393ED004A039B013B06
:103508000393013368D0D9ED006A04F5D83397EDF9
:10351800007A64EE266A9FED3A5A24EE077ADFEDC8
:10352800394AF0EEE67AF0EEC75A37EE666AF4EEFC
:10353800657AB0EEC66AF1EE10FA48BFF0EE657A29
:10354800DFED315AB4EE676AF1EE10FA76FE277AAB
:1035580093ED536A77EEC67AF5EEC07AF1EE10FA7B
:1035680075FE855AA7EEA56AF7EE005AB4EEE56A2D
:1035780083ED536AF1EE10FA8CBFC5EE867AF0EE51
:10358800657AB3EE0B6AF2EE025AB0EE465AF0EEE6
:10359800463A66EEA76A67EE277AB0EE467A66EE96
:1035A800A46A67EEA47A26EEA53AA6EEA65AA7EE76
:1035B800A77A67EEA55AE6EE833AA7EEA56A26EE45
:1035C800855A27EE877AC5EE236AC7EE067AE9ECB4
:1035D800016AE7EC017A91E70DB0BDEC048BBDE818
:1035E800F08F00BF0000203FAE47213FCDCC4C3EBE
:1035F8003333B33E9A99193F9A99993E7C00002437
:10360800ACC5A737CDCC4C3FCDCC4C3D2DE9F84FC0
:10361800002500F5D63704468946856029461022DC
:1036280007F1C40014F0D6FCA57004F5CD350123CC
:1036380004F5CE3805F5D27605F5FA75236108F15B
:1036480024084FF48073AB4623804FF0000A3046BD
:10365800DFED330A14369FED330AFFF739F846F8E1
:1036680004AC46F808AC4046FFF754F82E4BB34577
:10367800C5F804A0C5F808A008F5856845F80C3B0E
:10368800E3D104F5D83500264FF480320021C5F87F
:103698000C91484614F09EFC05F588709FED230AAE
:1036A80004F5D034C5F808614FF07E59FFF79EFB4A
:1036B80005F590709FED1E0AFFF798FB1D4BDFF88C
:1036C80084804022C5F8403131461B4B07F1F40095
:1036D800C5F83C314FF07C53C5F84C3104F6D4455D
:1036E800164BC5F868902B67C5F86C8014F072FC0F
:1036F800042304F6D842C4F8EC6CC4F8F03C104B30
:10370800C5F860902B616B61C5F864802B6013600D
:1037180004F6DC4204F54E6413602360BDE8F88FBC
:103728000000C8420AD7233C59F27F3F3EC3AE3956
:1037380018B751393333333F0000203F0AD7A33C31
:1037480000008A42CDCCCC3D60EE200AFDEEE07A46
:1037580017EE903AF8EEE77A00EB830070EEE70A8E
:1037680090ED000A90ED017A37EE407AA7EE200A34
:1037780070470000034600F5A0610E4A14339A60B2
:103788000D4ADA600D4A1A6100229A615A6199421B
:10379800F3D10B4B026103604FF07A5343604FF053
:1037A8007C538360074B4361074BC36040238361AD
:1037B800704700BF22BA003D0AD7233CCAAA7F3F00
:1037C800C92F963B9A99993E77BE7F3F10B52DED4C
:1037D800048BD0ED018A0446DFED4A0A4A48B0EE70
:1037E800680AFFF7B1FF4948B0EE408ADFED450AA5
:1037F80094ED050AFFF7A8FFF7EE006ADFED447ABB
:103808009FED446A20EE270ADFED435A76EEE87A08
:10381800A369B0EE667A94ED009A402B67EEA77A1A
:10382800A8BF4023B0EE495A67EEA77A1A4600238C
:1038380067EEE77A1846A7EE867AD4ED027A27EE85
:10384800277AF0EE007A37EEC76A26EE077A9FED00
:10385800336AA7EE256A37EEE87ADFED317AF0EEC3
:10386800665A27EE287A27EE277A934246DA65EEDB
:10387800267ADFED2C4AB0EE653A9FED2B4A0133EC
:1038880076EE886AF4EEE47A143435EE095AF1EEED
:1038980010FAB5EEC08AA8BFF0EE647ADFED234ACD
:1038A800B8BF1846F1EE10FA67EEA73AA0EE273A2D
:1038B800A3EEA44ADFED1E4AE3EE844A85EE834A6E
:1038C80067EEA47AF0EE654AC4ED027AE4EE274A80
:1038D80084ED034AE7EEA74AC5EEA47AC4ED047A5C
:1038E8004CBFDFED147ADFED147A28EE278A75EEE7
:1038F800C67AA7EE876A20EE060AB6E7BDEC048B07
:1039080010BD00BF00008043888C0108848801082E
:103918000000FA43CDCC4C3E9A99593F9A99193EEA
:10392800CDCCCC3D48E1FA3E8FBA214149265F42D1
:10393800DB0F49407B146E3F48E17A3F90ED037AF4
:10394800D0ED017A90ED006AA7EEC70AD0ED046ABF
:10395800D0ED025AA7EE460A70EE667A67EEA57AAF
:10396800A6EE277AB0EE470AA6EE277AE6EE006AB8
:1039780080ED037AE6EE006AC0ED046A7047000045
:103988002DE9F84F2DED0A8B0446149D88461746FD
:103998001E46FFF71BFF94ED049A07EE105AD4ED6C
:1039A800037A8246B8EE477A77EEC97A87EE87CAF5
:1039B800002D5BD039EE0C9AF5EE008AB6EE00AA1F
:1039C80039EE687AB5EEC07AF1EE10FA3DD5B1EE6F
:1039D800477AB3EE008A67EE087AF8EC01AAF0EEAF
:1039E800006ADFED259AB7EE008A04F11C09B6EEED
:1039F80000BA4FF0000BF0EE69BAA7EE668A27EE20
:103A0800888AF4EE007A68EE288A6AEEA7AAD34577
:103A180026DAD8EE0B8A4846B0EE6A0A0BF1020B9A
:103A2800FFF78CFF7BEE0A7A09F1140009F12809E7
:103A3800E0EE27BAB0EE6A0AFFF780FF78EE8A7ADE
:103A480098EE28BAE0EE279AE1E7B4EECA7AF1EEEA
:103A580010FA02DD37EE4A7ABBE7BBEE008ABAE716
:103A6800E7EC01BA013DE6EC019AA1E784ED049A7E
:103A7800BDEC0A8BBDE8F88F00000000B7EE007AB5
:103A8800D0ED026AF6EE007A90ED005AF5EE004AA3
:103A9800D0ED045A36EE876A80ED000A37EE667A72
:103AA80026EE276AD0ED017A27EE247A80ED015AB6
:103AB80070EE277A67EE877A90ED037A37EE267AEA
:103AC800E5EE067A80ED027A90ED057A37EE257AF2
:103AD80025EEA70A80ED047A7047000070B5044609
:103AE80080F824104FF4005200214C30002514F0C7
:103AF80071FA012604F501504FF48052294614301A
:103B0800C4E9115614F066FA04F5405204F500535E
:103B18001749C3E91356D16600231649536511673F
:103B28001549936551671549D365136653669366BE
:103B3800D367936721604FF07A51A36161604FF0BA
:103B48007C51E361A1600E49A362E1600D492364E1
:103B580021610D49236263632363E363A3636161A6
:103B6800C2F88430C2F88830084BC2F8803070BD83
:103B780022BA003D0AD7233CCAAA7F3FC92F963BE9
:103B88009A99993ECDCC4C3F8C2E5A43B1E47F3F55
:103B980060EE007ADFED156A9FED157AA7EEA67A3A
:103BA800DFED146AE7EE876A9FED137AA7EEA67A2F
:103BB800DFED126AE7EE876A9FED117AA7EEA67A23
:103BC80020EE070AB7EE007A80ED000AC7EE206AF9
:103BD800F0EE477AE6EE807AC0ED016AE0EE007A10
:103BE800C7EE276AC0ED026A704700BF23FE2E4564
:103BF80090ECAC428F34214366482342A85D2541AE
:103C0800DB0F4940FDEEC07A0368F6EE005A17EE66
:103C1800902AF8EEE76A1A4470EE666A1346C2F311
:103C28000A0200EB820292ED020A03F60102C2F3D5
:103C38000A0200EB820292ED027A03F6020203F214
:103C4800FF73C2F30A02C3F30A0300EB820200EB1C
:103C5800830092ED025A90ED026A35EE405A37EE33
:103C6800466A30EE477AF0EE477AE6EE257A37EE86
:103C7800277AA5EE257A77EE877AD6EE877A67EEE9
:103C8800A67AE6EE257AA7EEA60A7047F0EE407A05
:103C980090ED037AD0ED016A90ED040AE6EEC77A5A
:103CA800D0ED006A90ED026AE7EE667A77EEC07AA8
:103CB80067EE867AA6EEA77AA6EE870AB0EE476A7E
:103CC800A6EEA76AF0EE407AE6EE877A80ED036A00
:103CD800C0ED047A7047FDEEC07A036817EE902AAB
:103CE800F8EEE77A134470EE677AC3F30A020133F9
:103CF800C3F30A0300EB820200EB8300D2ED026AF1
:103D080090ED027A37EE667AE7EE276AB0EE660A39
:103D1800704700002DE9F04F2DED0C8BF7EE009A5F
:103D2800D0ED00DAF1EE007A83B004460E4689EE53
:103D3800AD8A90461F46189DB4EEE78AF1EE10FA58
:103D480000F1FC80DFEDAB7AB4EE678AF1EE10FA91
:103D580037FE888A2DEE88AADFEDA77A94ED047ADB
:103D6800DFEDA66AB4EEE7AA94ED06CAF6EE007A8D
:103D7800D4ED038AD4ED05BAF1EE10FA9FEDA00A4E
:103D880037EE677AD4F81CA0A4BFC4ED0B9AB7EE3F
:103D980000AAB0EEC77AE7EE667A07EE105AF8EE98
:103DA80047CA38EE6B7A77EECC7A87EE2CBAC7EE34
:103DB800ACAAF0EE007A77EEE87A67EEA87A27EEFA
:103DC800800AFDF71BFEDFED8F7A28EE278ADFEDEC
:103DD8008E7A20EE270ADFED8D7A88EE0A7A60EE79
:103DE800277A87EE270ADFED8A7AB4EE670AF1EEC2
:103DF80010FA48BFB0EE670AFDF700FEF3EE087A46
:103E080068EEA86A9FED837A94ED028AB0EE409A34
:103E1800B0EE67DA28EE088AA6EE87DAA8EE27DA87
:103E2800DFED7D7AB4EE67DAF1EE10FA37FE8DDA5F
:103E3800B0EE4D0AFDF7E2FD2DEE800ADFED777A50
:103E4800B4EE670AF1EE10FA37FE800ADFED747AF5
:103E5800F4EEE78AF1EE10FA19DB78EEE78AF3EE72
:103E6800047A68EEA78A79EEC97AA7EEA89A79EE5D
:103E7800C87AA7EEA88ADFED6B7A77EEC07AA7EE4C
:103E8800A80ADFED697A77EECD7AA7EEA8DA04F50D
:103E9800415904F5405009F11409002D51D100236E
:103EA80080ED199A80ED178A8366036604F5415BF5
:103EB800F6EE000A0BF12C0B5846FFF769FEF7EEF9
:103EC800000AB0EE4D0A5948FFF73EFC39EEC00A29
:103ED80094ED088A30EE480AC0EE2C8A002D7CD07A
:103EE800D4ED0B7A7AEE277AF4EEE97AF1EE10FA4D
:103EF8003ADCC4ED0B7AD4ED0D7A043694ED0C7AE5
:103F0800013DD4ED0B6A37EE677AE6EE877AB8ECB6
:103F1800017A77EE277A48ED017AD4ED0F7A94ED9D
:103F28000E7AD4ED0B6A37EE677AE6EE877AB7EC4D
:103F3800017A77EE277A47ED017ACFE7B0EE678A04
:103F480008E7C9EEAC7A90ED197A39EE479A90ED08
:103F5800177A38EE478A29EE279A28EE278A80EDC5
:103F68001A9A80ED188AA1E777EEE97A04F14402FB
:103F78007BEE8BBA38EE288A1046BFEE000AC4EDF5
:103F88000B7A01923CEE2ACAA8EE2B0AFFF73AFEFA
:103F9800D6ED007A48462CEE2B9A30EE270AFFF72A
:103FA8006DFD5846FFF772FE636C019A04EB8301BE
:103FB80003F2FF731046C3F30A0381ED130A636427
:103FC800236B84ED0C0AB0EE490A6363A36BE363C9
:103FD800FFF781FE84ED0E0A8DE784ED088AC4F8A8
:103FE8001CA084ED06CAC4ED05BA03B0BDEC0C8B69
:103FF800BDE8F08F0080FF4472F97F3F48E17A3FC7
:104008000000C0420000F0C2295C8F3D00803B47A1
:104018000000FEC2000040420000A842EE7CFF3EC5
:104028003333733FE5F2FF3E000000438C900108F4
:104038002DE9F04F2DED108BB7EE00FAD0ED00FA18
:10404800F1EE009A83B004460E46CFEE2FAA9046B2
:104058001F46F4EEE9AAF1EE10FA00F11381DFED44
:10406800957AF4EE67AAF1EE10FA77FEAAAA2FEE77
:10407800AAAADFED917A94ED047AB0EE00BADFEDEA
:104088008F6AB4EEE7AA94ED069AF6EE007AD4EDBC
:1040980007EA94ED038AD4ED058AF1EE10FA37EEBB
:1040A800677A9FED870ADFED87DAA4BF84ED0BFA04
:1040B800B7EE00AAB0EEC77AE7EE667A9DED1C7AF5
:1040C8007AEEE86AF8EE47BAC6EEABCA77EEC97A76
:1040D80087EEABCAD4ED017A77EEEE7AC7EEAB7A0B
:1040E800CDED007A7BEE487A67EE887A27EE800A73
:1040F800FDF784FCDFED747A6AEEA7AADFED737A28
:1041080020EE270ADFED727ACAEE8A6A60EE277A15
:1041180086EEA70ADFED6F7AB4EE670AF1EE10FAC1
:1041280048BFB0EE670AFDF769FCB0EE40DA94EDDF
:10413800020A20EE00EA30EE4F0A20EE2D0AFDF7C3
:104148005DFCF3EE087A28EE086AF0EE40AAF0EE7D
:10415800676AE6EE2D6AEEEE276ADFED5F7AF4EE27
:10416800676AF1EE10FA77FEA6DAB0EE6D0AFDF78F
:1041780045FC2FEE800ADFED597AB4EE670AF1EEBE
:1041880010FA37FE800ADFED567AB4EEE78AF1EED0
:1041980010FA19DB38EE678AF3EE047A28EE278ADC
:1041A8007FEE4D7AA7EE88DA7FEE4E7AA7EE88EAA0
:1041B800DFED4C7A77EEC07AA7EE880ADFED4A7A0F
:1041C80077EEED7AE7EE88DA04F5415A1C9B04F5A0
:1041D800405B0AF1140A002B57D100238BED19DA42
:1041E8008BED17EACBF86830CBF8603004F541590D
:1041F800F6EE000A09F12C094846FFF7C9FCF7EE6C
:10420800000AB0EE6D0A3948FFF79EFA3FEE400A01
:10421800D4ED08FA30EE6F0A80EE2BDA1C9B002BE7
:1042280000F07081D4ED0B7A7AEE277AF4EECF7A2B
:10423800F1EE10FA5CDCC4ED0B7AD4ED0D7A04369D
:1042480094ED0C7AD4ED0B6A37EE677A1C9B013B30
:10425800E6EE877AB8EC017A1C9377EE277A48ED78
:10426800017AD4ED0F7A94ED0E7AD4ED0B6A37EE1D
:10427800677AE6EE877AB7EC017A77EE277A47ED28
:10428800017ACBE7F0EE69AAF1E6CFEE2B7ADBED07
:10429800196A3DEE66DAF0EE676A2DEE27DADBED95
:1042A800177A7EEE677A8BED1ADA67EEA67ACBED8F
:1042B800187A9BE70080FF4472F97F3F48E17A3F14
:1042C8000000C042000040420000F0C2295C8F3D5F
:1042D80000803B470000FEC20000A842EE7CFF3E83
:1042E8003333733FE5F2FF3E000000438C90010832
:1042F8008B4A77EECF7A8B48BFEE007A116878EE5A
:10430800AC8A894B7FEE8DFAC4ED0B7AB0EE470A82
:1043180000FB0133DFED856A9FED85EA39EE0C9AE3
:1043280007EE903AD4ED105AAFEEA80A04F144050E
:10433800F8EE677A136069EE28DA67EEA67AD4EDAC
:104348000A6AA7EE8B7ADFED7B7A7AEEA77A8FEE90
:10435800276AF0EE667AD6EE077AB0EE4F6AE7EE95
:10436800AA6ADDED007A7EEEA7EAF5EEC0EAC4EDB2
:104378000A6AF1EE10FA85BF3BEE6E8ADFED6E7ABF
:104388009FED6E8A28EE2E8A88BF28EE278AF6EEE1
:10439800087AF4EEE7EAF1EE10FAF5EEC0EACABFE1
:1043A8007EEEE77ADFED657A67EEA97AF1EE10FA2C
:1043B80067EEA77A4CBFF1EE6EBADFED60BA67EE32
:1043C8008E7AA6EEA76ADFED5E7A6BEEAB6A66EED2
:1043D800A76AF0EE467AE5EEE67A60EE277A28EEEE
:1043E800278AB4EEE98AF1EE10FAC0F2858037EE3A
:1043F800C80AB4EEE90AF1EE10FA7DDBF0EEEE7AC7
:104408009FED506ADFED506A28466EEEA66A77EE99
:10441800867A86EEA76A8DED016AFFF7F3FBFCEE5C
:10442800C87A04F50051F0EE406A9DED016ACA6C45
:1044380017EE900A1044C0F3090001EB8000D0ED9C
:10444800157A01EB820002F2FF32E6EE276AC2F328
:104458000902E6EEC67AC0ED156ACA64B0EE670ACC
:10446800F0EE407A9BED226ADBED206ABFEE087A17
:104478005046E6EE267ADBED216A8BED210A77EECF
:10448800E67ACBED227A77EEC07AA7EEAB0AB5EEE4
:10449800C00AF0EEC07AF1EE10FA77EECE7AB7EEF7
:1044A80000EA3EFE077AB0EEE7EA3EEE27EA2EEE95
:1044B80007EA84ED10EAD6ED007A30EE270AFFF716
:1044C800DDFA4846FFF7E2FB626C284604EB8201FE
:1044D80002F2FF72C2F30A0281ED130A6264226BD0
:1044E80084ED0C0AB0EE6D0A6263A26BE263FFF71B
:1044F800F2FB84ED0E0AA0E6B0EE670A2846FFF745
:1045080081FBADE7C4ED08FAC4ED07EA84ED069A2D
:10451800C4ED058A03B0BDEC108BBDE8F08F00BF79
:10452800140600240D6619005FF36E3C0000802F0E
:10453800CDCCCC3CCDCC4C3E3333F33E0000000018
:104548000AD7233C9A99193E3F351EBF37B5069CBA
:1045580090F8245000941DB1FFF76AFD03B030BDF8
:10456800FFF7D8FBFAE7531E03EBD373F0B55D10E2
:104578000B469D424FEA830414DD5E1C044400EBA5
:10458800C607730097ED007A57ED017AB4EEE77A23
:10459800F1EE10FA48BF03F1FF3300EB83063668EB
:1045A8002660E6E7D5070ED4023A02EBD272B3EBE7
:1045B800620F08D1013304445A0000EBC30353F8D7
:1045C800043C2360531E5A1E02EBD27252109942C9
:1045D80000EB830410DA00EB8203D3ED007AB4EE2B
:1045E800E70AF1EE10FA07DD531EC4ED007A03EB7B
:1045F800D37413466210EAE784ED000AF0BD0000A8
:10460800BDEEC07ADFED186AD0E9041317EE102A60
:10461800F8EEC77A1A4470EE677A134602F500621C
:1046280003F60103C2F30B02C3F30B0331F91220A3
:1046380031F9133007EE102A00EE103AB8EEC77AB7
:10464800B8EEC00A20EE260AA7EE660A27EE800A10
:10465800D0ED007AA7EE260AE0EE207A80ED010A76
:10466800C0ED007A704700BF00000038BDEEC07A88
:10467800DFED166AD0E9042317EE101AF8EEC77AB0
:10468800194470EE677A0B46C1F30B01013332F916
:104698001110C3F30B0307EE101A32F91330B8EEFA
:1046A800C77A00EE103AB8EEC00A20EE260AA7EE46
:1046B800660A27EE800AD0ED007AA7EE260AE0EE19
:1046C800207A80ED010AC0ED007A704700000038BA
:1046D800BDEEC07ADFED166AD0E9042317EE101A92
:1046E800F8EEC77A194470EE677A0B46C1F30A01EF
:1046F800013332F91110C3F30A0307EE101A32F925
:104708001330B8EEC77A00EE103AB8EEC00A20EEC1
:10471800260AA7EE660A27EE800AD0ED007AA7EEF1
:10472800260AE0EE207A80ED010AC0ED007A704793
:1047380000000038F8B504460D4616462B1B402BE2
:104748001BDD9F10D6B9B91E49104E1C04EB860616
:1047580036ED010A3A462046FFF705FF09B101394F
:10476800F6E735ED010A0021236820462E1B2B6051
:10477800B210FFF7F8FE042EF3DCF8BDDB10D4ED21
:10478800016A013E211D04EB830355ED017A22687D
:1047980093ED007AF4EEC76AF1EE10FA30D5B4EE74
:1047A800E77AF1EE10FA21D584ED007A1A600B460B
:1047B80029461F46D4ED006AF3EC017AF4EEE67A56
:1047C800F1EE10FAF5D40A4612ED017A043AF4EE45
:1047D800C76A1146F1EE10FAF6D497421FD329465C
:1047E800324638463D46FFF7A5FFA7E7F4EEE76AED
:1047F800F1EE10FA09D5C4ED007A45F8042CD6E795
:10480800F4EEE76AF1EE10FA03D5C4ED006A6260CF
:10481800CDE7B4EEE77AF1EE10FAC5D5EBE703ED94
:10482800017AC2ED007AC4E7884270B504460E46A4
:104838002DED028B25D0051DAE4222D095ED008AC4
:10484800D4ED007AB4EEE78AF1EE10FA0AD5AC425C
:1048580004D02A1B2146201D13F0A2FB84ED008AF8
:104868000435E9E72B461A4673ED017AB4EEE78A78
:10487800F1EE10FA02D5C3ED017AF4E782ED008A71
:10488800EEE7BDEC028B70BDD0ED017AB6EE000A02
:1048980090ED007AD0ED026A37EE800AC0ED007A1A
:1048A80096EEA77A80ED017A70470000F0B50446CD
:1048B80015461F460E462DED088B87B0002F00F0D9
:1048C800E4802368B6EE009ADFED728A5A1ECDEDB9
:1048D800008A4CBF03F2FF732260CDED018A48BF06
:1048E800236063680493236813F01F0F059340F057
:1048F800BF8004F10800FFF7C7FF04F118008DED31
:10490800020AFFF7C1FF8DED030AF7EE006AD4ED46
:104918000A7A94ED0C7AB5EE00BADFED5F0A013F32
:10492800B0EE668A5D48A7EEC98ADFED5D7A37EE9C
:10493800277AD4ED0D7AB4EEE67AF1EE10FAA8BF34
:1049480037EE667A84ED0C7A9FED567AD4ED0C9AA0
:1049580077EE877AB0EE690AF4EEE67AF1EE10FAAD
:10496800A8BF77EEE67AC4ED0D7AFEF7EDFEDFED2F
:104978004A0AF0EE40AA494839EE8B0AFEF7E4FEEF
:10498800D4ED0DBAF0EE409ADFED430A4348B0EE9D
:104998006B0AFEF7D9FEDFED400AB0EE40AA3F48A9
:1049A8003BEE8B0AFEF7D0FE96ED007ADDED007A3D
:1049B800B0EE406A059BF6EE000AE7EE097A95ED3F
:1049C800007A9FED395AC3F30A0304996846B0EE9A
:1049D800450ADFED365AE7EE097AB0EE677A67EEF8
:1049E800A87ABEEEE87A17EE102A02F30F0221F831
:1049F8001320CDED007AD4ED0B7AA7EEAA0AFFF7C3
:104A080067FEB0EE650AD4ED0B7AA7EE8A0AFFF7C7
:104A18005FFE9DED007AD4ED0A6A67EE287ACDED47
:104A2800007AF6EC017A68EE277AE6EE877A46EDA8
:104A3800017AD4ED0B7AE7EEA95AE6EE285AB0EEE1
:104A4800650AFFF745FED4ED0B7AA7EE865AB0EE5D
:104A5800450AFFF73DFED5ED007A94ED0A7A28EE77
:104A6800278ADDED007AA7EE278AA5EC018A25E7DB
:104A7800D4ED027A77EE897ACDED027AD4ED067A12
:104A880077EE897ACDED037A3FE707B0BDEC088B66
:104A9800F0BD00BF000000000000804544CD0224A6
:104AA80007EC8B36ADC3B536000096440000484489
:104AB8002DE9F0410446164698460F462DED028B27
:104AC80086B0B8F1000F00F012812368F6EE008A74
:104AD8009FED898A5A1E8DED008A4CBF03F6FF733D
:104AE80022608DED018A48BF2360636804932368C0
:104AF80013F01F0F059340F0ED8004F10800FFF755
:104B0800C3FE04F118008DED020AFFF7BDFE8DED1E
:104B1800030AF7EE006AD4ED0A7A94ED0C7A08F1EC
:104B2800FF38764BF0EE664A9FED754ADFED750A61
:104B3800E7EEE84ADFED747A37EE277AD4ED0D7A9E
:104B4800B4EEE67AF1EE10FAA8BF37EE667A84ED95
:104B58000C7A9FED6E7A77EE877AF4EEE67AF1EECC
:104B680010FAA8BF77EEE67AC4ED0D7AD4ED0C7A88
:104B7800B0EE677AD4ED0D7ABEEECA7A17EE100A57
:104B8800B0EE677ADFED627AC0F30B02BEEECA7A46
:104B980003EB820217EE105A94ED0B7AD2ED006AFD
:104BA80000F25552C5F30B0167EE277A00F6AA20EA
:104BB800C2F30B0203EB8101C0F30B0003EB82028B
:104BC80091ED005A05F2555105F6AA2503EB800030
:104BD800C1F30B0127EE855AC5F30B0503EB8101E1
:104BE80003EB8505A6EE875AD1ED005A95ED006ACC
:104BF80067EEA55AD2ED006A27EE866AD0ED007AF4
:104C0800E6EE875AA7EE876ADDED007A97ED007A1F
:104C180035EE045A37EE277AB0EE450AF0EE477AB9
:104C2800DDE90413FEEEE87AC3F30B0003F5006335
:104C380017EE902AD6ED007AC3F30B03E7EE087A55
:104C480002F30F0221F810206846B0EE677A67EE8B
:104C5800887ABEEEE87A17EE102A02F30F0221F8DE
:104C68001320CDED007AFFF701FD75EE845AB0EE02
:104C7800650AFFF7FBFC36EE046AB0EE460AFFF75A
:104C8800BFFCF7EC017A9DED007AB0EE450A64EEC0
:104C9800A77AD4ED0A6A27EE088AE6EE877A8DEDC0
:104CA800008A47ED017AFFF7ABFCB0EE650AFFF723
:104CB800A7FCB0EE460AFFF7D9FCD6ED007A94EDD2
:104CC8000A7A64EEA74ADDED007AE7EE274AE6ECB9
:104CD800014AF6E6D4ED027A77EEA87ACDED027AAB
:104CE800D4ED067A77EEA87ACDED037A11E706B00F
:104CF800BDEC028BBDE8F0810000000044CD022429
:104D080000008044C3F5A83E7EB38337A8A70F39B7
:104D1800CDCCCC3DDFED167A1822164B60EEA70AF3
:104D2800FDEEE07AB8EEE77A17EE900A02FB003360
:104D3800881870EEC70A0A469FED0F7AF3EC017ADD
:104D4800D3ED056A76EEE76AE6EEA07AE2EC017A40
:104D5800824237EE277AF1D1D1ED007A67EE807A78
:104D6800C7EE876AE1EC016A8142F5D1704700BF5E
:104D7800E7FB1F41C081010800000000F6EE007A41
:104D8800F8B5B4EEE70A054614460E46F1EE10FAF9
:104D98002DED028B54BF70EE677ADFED667AB0EEC8
:104DA800408A9FED650A58BF77EEA77A27EE800AFA
:104DB800FCF724FEF0EE408A9FED600A28EE000A18
:104DC800FCF71CFEDFED5E7A9FED5E7AF7EE006A77
:104DD80068EEA78ADFED5C7A20EE070A2146D5F84F
:104DE800907605F2844368EEA78A002420EE270A0D
:104DF800C6EEA84A86EE804AA74240F39880DFEDC7
:104E0800537A9FED4C7AB4EEE78AF1EE10FA77D434
:104E180078EE677A9FED4E6A67EE867AB7EE006A9B
:104E2800F4EE667AF1EE10FA66FE277A022283ED36
:104E3800007AC3ED016A9A86002283ED027ADA8647
:104E480083F820200122C3ED044A83ED054A83F844
:104E58002120325DB3F924C012F0010F4FEA041289
:104E680051D0BCF1020F14BFD86A0020986200200C
:104E7800988483ED0C7AB3F924C0443313ED057A92
:104E8800BCF1020F14BF10199FED2A5A224418BF13
:104E98006044624418BF00F5927002F2211218BFF4
:104EA80005EB800005EB820218BF90ED015A442003
:104EB80000FB04500134604490F8A404012805BFA5
:104EC80036EEC76AF0EE665AF0EE475A26EE066AE4
:104ED80037EE057A08BFE6EE465A03ED057A13ED7C
:104EE800077A92ED016A36EE476AA6EE257A36EE23
:104EF800C76A03ED067AA6EE277AA1EC017A7BE76A
:104F0800F0EE477A92E793ED0C6AB4EEE66AF1EEBA
:104F180010FAB0DB101960440CF1010C00F22110FA
:104F280005EB80004068A3F824C09862A1E7BDECB7
:104F3800028BF8BD000000000000C0420000A8423B
:104F48000AD7A33BEC51383E00007A4448E17A3F47
:104F580000005C422DE9F8430F46904601EB8309B7
:104F680006469D0000F5E26241463B462DED048B66
:104F7800B0EE408AF0EE608AB0EE419A4B4508D018
:104F8800F3EC017AB1EC017A77EE877AE2EC017AF8
:104F9800F4E72A460021384606F5B26413F01AF8F9
:104FA8002A460021404613F015F8F7EE005A9FED07
:104FB8004A0A0C23494905F5FA65C5EE894A0020D5
:104FC800354428EE000AFDEEC07AB8EEE77A17EE0F
:104FD800902A03FB021130EE470AF1EC017A06F53C
:104FE800FA62DFED3F6A91ED027A1346C4ED014A99
:104FF80037EE677AE7EE007A67EEA87A87EEA67A48
:10500800DFED386ADFED387A67EE266AE7EE267A52
:10501800D4ED036A67EE277AB0EE657AC4ED007ABC
:10502800A4EEA77AA7EEA77AC5EE877A94ED047A5C
:10503800C4ED027A95421CD094ED016A52ED307AA3
:1050480094ED025AE6EE667A94ED006AE6EEC67AC8
:1050580077EEC77A67EE857AE6EE276AB0EE665A8B
:10506800E6EE276AA6EE057AA2EC015AA6EE057AC4
:10507800E0E707EE900AC4ED036A84ED047AC446BB
:10508800F8EEE76A9FED197ADFED197A3A46A6EE4F
:10509800A77A4A4518D0D3ED006AB6EE006AD2ED79
:1050A800007A66EE876AE6EE867AE2EC017A75EEB9
:1050B800C77AB3EC015ADCED006A67EE857AE7EE51
:1050C800866AECEC016AE4E701301434032884D1E1
:1050D800BDEC048BBDE8F8839EEF7F40488801084B
:1050E80000803B47D7573941DB0F4940CDCC4C3E78
:1050F8009A99993E10B54FF48032044600214068D1
:1051080012F068FF0023236010BD000000232DE982
:10511800F047C0F888360446C0F8943601230E4696
:1051280000F59067C0F89036042380F89836034657
:105138001A4600210131002558484FF0000C032978
:105148005560906002F1200242F80C5C02F820CC15
:1051580042F8145C42F8105C42F8085C42F8045CBF
:10516800E8D16033BB42E3D104F5B2620027DFF82F
:105178005CC102214FF07E585F87443343F830CC3E
:1051880003F8207C0127DFF848C143F8445C23F882
:105198000C1C43F8405C43F83C8C43F8385C43F8FB
:1051A8002CCC03F81F7C23F81C1C43F8105C43F834
:1051B800185C43F8145C9A42D8D1134604F2CC59CF
:1051C800374A143343F8100C43F8142C354A43F883
:1051D800045C43F80C2C43F8085C9945F0D104F2C0
:1051E800046704F5D0634FF07C5A3846C3F800A032
:1051F800C4F80866FFF77EFF04F20C632A4A3046BB
:10520800C3F804A09A60294ADA601A6004F21C63A1
:10521800274AC3F804A09A60264ADA601A604FF455
:105228000052254BBB63254B7B63002704F5C963FC
:10523800C4F84C66C4F8487639461D635D63C4F803
:10524800D06512F0C7FE1E4EC4F8CC754022C9F8CE
:10525800305004F2BC60C9F8345004F29C65194B14
:105268003946C5F868802B67EE6612F0B3FE042352
:1052780004F5D462C4F8B476C4F8B836124BC5F84D
:1052880060802B616B616E662B60136004F2A46210
:1052980004F5D56413602360BDE8F0870AD7233C82
:1052A80022BA003DCAAA7F3FE2FFFF3FE2FFFF3E6E
:1052B800F5FFFF3FF5FFFF3E3333333F0000203F4C
:1052C800CDCC4C3E0AD7A33C00008A42CDCCCC3D85
:1052D8006F12833ADFED607AB4EEE70A2DED028BA8
:1052E800F1EE10FA11DBB5EE007AB4EEC70AF1EE72
:1052F80010FA80F2AE8070EE677AF2EE096AB7EEC5
:10530800007AA7EEE67A60EE870A90ED027A06EE5A
:10531800902A90ED064AD0ED073AF8EE666A30EE2C
:10532800470AD0ED017A70EEC40AD0ED042A31EEB6
:10533800631A90ED053A80EE268A037880EEA60A75
:10534800C1EE260AD0ED036A013A73D3DFED435A62
:1053580037EE087AB7EE006AB6EE005A77EE877A2B
:10536800002B61D1F4EEC57AF1EE10FA5CDB37EE72
:10537800C52A0123FEEE001AC2EE074A24EE852A4A
:10538800E4EE826A76EE644AB0EE652A64EEA11A0B
:10539800A4EEA12AF4EEC67AF1EE10FA47DB77EE16
:1053A800C67A0023FEEE004AC7EE871A36EE616A17
:1053B80021EE851A66EE244AE1EEC16AE1EEC12AC1
:1053C800A6EE642AE6EE645AF4EEC57A9FED236AE7
:1053D800F7EE004A76EEC56AF1EE10FAB0EE435ADF
:1053E80073EEA03A58BFB0EE646AF1EE004A34EEAC
:1053F800004A96EEA45A77EE076AA5EE263AB0EE72
:10540800005AFFEE006AE2EE856AB1EC015A77EEC7
:10541800A52A66EEA36AE3EE046A75EE266A41EDF4
:10542800016A72EE066A8FE7B0EE652AB2E7DFED31
:105438000B5AC9E70370C0ED017AC0ED036AC0EDED
:10544800042A80ED053AC0ED073A80ED064A80ED62
:10545800027ABDEC028B70477B142E3E00000000E0
:10546800DFED5E7AB4EEE70A10B5F1EE10FA2DED35
:10547800028B11DBB5EE007AB4EEC70AF1EE10FA32
:1054880080F2A88070EE677AF2EE096AB7EE007AC9
:10549800A7EEE67A60EE870AD0ED064A07EE102AF4
:1054A80090ED074A70EEE40AD0ED017AB8EE477A3B
:1054B800846831EE441AD0ED036A90ED043AC0EEE8
:1054C800871AD0ED053A0378C1EE070A013A73D37B
:1054D8009FED436A77EE807AB7EE007AB6EE005A0F
:1054E800002B63D1F4EEC57AF1EE10FA5EDB77EEAD
:1054F800C52A0123BEEE002AC2EE805A65EE852A2F
:10550800E5EEA26A77EE655AF0EE462A25EE822A83
:10551800E2EE252AF4EEC77AF1EE10FA49DB77EECF
:10552800C77A0023FEEE005A87EE802A37EE427AC9
:1055380022EE051A67EE255AE2EE416AA2EE413ADA
:10554800E7EE652AA7EE656AF4EEC57A9FED242A90
:10555800B7EE007AB0EE001AF1EE10FA34EE204AF7
:1055680074EEA14A58BFB0EE472ABFEE007AF0EEBB
:10557800475AA3EE017A37EE863AE6EE815A70EE84
:10558800006A27EE047A35EEE38AE8EE263AF1EC73
:10559800016A75EEE35A65EE855AA5EEA47A36EEF1
:1055A800877A72EE826A01ED017A8FE7F0EE462A79
:1055B800B0E79FED0B6AC7E70370C0ED017AC0ED55
:1055C800036A80ED043AC0ED053A80ED074AC0ED64
:1055D800064A8460BDEC028B10BD00BF7B142E3ED2
:1055E800000000002DE9F04F04468A4600219B4642
:1055F80004F29C652DED028BAFB00192D0F8902695
:105608000DA8DDE93A9812F0E5FC9AED028AD5ED8D
:10561800047A04F2AC639FEDC67A04F5D46278EE9E
:10562800677AF0EEE77AF4EEC77AF1EE10FA00F353
:10563800DF819AF80010002940F0DA81561B5B1BC5
:10564800B6109810C6EBA3018E4240F05F8129681E
:105658001068286011601A4629461EA885ED038A3D
:1056680012F090FC042222A91EA8FFF763F822A9D1
:105678001EA8FFF7D9F8D5ED047ADDED206AF6EE1D
:10568800005A9DED1F7A95ED186A37EE267AD4F800
:10569800B436F0EE676A04EB83020F33D7EE256A5F
:1056A80095ED057AD5ED1B5A02F2BC6203F00F03A3
:1056B80075EEC65AE6EE267AD5ED196AC5ED047A76
:1056C80077EEC77AA6EEA77AD5ED1C7AA7EEA56A7B
:1056D80085ED057A85ED186A37EEE66AE7EE866AA3
:1056E800C5ED196A82ED007AC4F8B43604F29C63F9
:1056F8001D699AF8003053B3D4F8B8164420D4F88A
:10570800B426D4F888360A44022100FB034002F08C
:105718000F0200F5906004EB820202F2BC6212688C
:10572800026003F1B80201336A4402F8841CD4F819
:10573800902693FBF2F102FB11330122C4F888365C
:10574800B8336B4403F8842C0323C4F89436D4F894
:105758009436002B00F06181013BC4F89436019B1C
:105768000EAA0DA9204693ED020AFFF707FB3C9B02
:105778009B00049309D01A465946404612F010FC83
:10578800049A5946484612F00BFCD4F890360C227D
:105798004FF0000B04F5906692FBF3F3082BCDF85D
:1057A80014B0A8BF082303930EAB0893D4F890361F
:1057B800059A934240F37C81089BF5EE007A12A982
:1057C8002046B3EC010A1EAF089320EE270A019B7E
:1057D800D3ED010AFFF79EFAD4F890063A46002165
:1057E8000138039B9942C0F23381602303FB0B43CA
:1057F80006930BEB4B03079300230293DDE9023278
:10580800934280F24E819FED4B0A18ABD6ED007A99
:1058180012A8D7ED016A194677EE807A9AED010A47
:10582800062277EE807A9AED030A77EE807A97ED72
:10583800000A77EE807AB0EC017A013A26EE877A90
:10584800A1EC017AF7D1D4F89026012A40F32781F8
:10585800029A022AB4BF02250325032D9DED1A7A68
:105868009DED1B6A0BD0DDED1C6A76EE876A9DED17
:105878001D7A37EE067ACDED1A6A8DED1B7A9FED0B
:105888002E0A0A9337EEC00A9FED2C8AFCF7B6F869
:10589800059B029A20EE088A06989A189DED191A17
:1058A800B0EE480ADDED180A12F0010F3C9A14BF59
:1058B800494641460991FFF70DFD069B03F120007B
:1058C800079B1D44DDE9091304EB451538EE088AEA
:1058D80093ED031AD3ED020A08333C9AB0EE480A56
:1058E8000B910A930990FFF7BBFD09982030854278
:1058F800DDE90A31EAD1029B083701330293069B9E
:1059080060330693079B0333079377E72F4625E019
:1059180007EB860CBE4600218A4211DDDEED007AD7
:1059280001319CED007AAEEC017AECEC017AF3E7F8
:10593800CDCCCC3E0000000000008A42C92F163CA6
:1059480022EAE27207EB820790FBF6F206FB1200EE
:1059580000283FF480AE3246361A1046821B964223
:1059680012DA012ED4D1394607EB80068200F1EC19
:10597800018AB14205D0043A3846029312F010FB6E
:10598800029B46ED018A66E6012A10D100F18040AB
:105998000138820007EB80008742066805D0394647
:1059A800381D029312F0FCFA029B3E6053E607EBA7
:1059B80080014FF0000CA1EB8207BE4666450ADD68
:1059C8007EED017A0CF1010C31ED017A8EED007A51
:1059D800C1ED007AF2E726EAE6766FF0030101FBF3
:1059E800067790FBF2F602FB1606002EB5D132E6DA
:1059F800AB6E85ED048A2B66EB6E85ED058A6B66CA
:105A080004F2A46385ED008A82ED008A83ED008AA2
:105A180004F5D56383ED008A68E6D4F88826442324
:105A280003FB024303F5906103F598630D60DAF810
:105A3800101043F8041C01990968196002F1B803B1
:105A48006B4413F8842C42F0040203F8842C86E695
:105A58000B25F36B05FB00339A4D01EBC30305EBF4
:105A68008303D3ED007AF5EEC07AC2ED007AF1EE49
:105A780010FA11DBB3EE017AF4EEC77A9FED927A51
:105A8800F7EE007AF1EE10FA88BFF0EE477AC2ED31
:105A9800017A01310832A4E6DFED8B7AF7E70325B6
:105AA800DBE6059B443601330593039B9B447DE667
:105AB80094F8903833B104F20460FFF71BFB00231D
:105AC80084F8903894F89836052B1AD8DFE803F054
