:020000040800F2
:100000000000022099060008950600081545000822
:1000100095060008950600089506000800000000F7
:10002000000000000000000000000000950600082D
:100030009506000800000000950600089944000895
:100040009506000895060008950600089506000824
:100050009506000895060008950600089506000814
:10006000950600089506000895060008A1400008BE
:10007000AD4000089D290008B9400008C5400008AF
:10008000290501088935000895060008950600082D
:1000900095060008950600089506000895060008D4
:1000A00095060008950600089506000895060008C4
:1000B000D1F80008DDF80008E9F80008BD350008AF
:1000C00095060008C93500089506000841F10008AA
:1000D0004DF100085D0301088D030108C10301080B
:1000E0009506000895060008000000009506000827
:1000F0009506000895060008950600089506000874
:100100009506000895060008F5F8000859F1000862
:10011000F503010829040108692C00089506000868
:10012000512C00085D2C00087DF10008B1F1000899
:100130005D0501089506000895060008950600086B
:1001400000000000000000000000000000000000AF
:100150009506000895060008950600085D0401084C
:10016000D535000895060008A9440008CD440008CC
:1001700095060008F1440008950600089506000859
:10018000950600089506000891040108C1040108BD
:1001900065F1000871F10008950600089506000851
:1001A00095060008950600089506000895060008C3
:1001B000C13D000895060008950600089506000850
:1001C0009506000895060008BD240008C92400080B
:1001D00095060008D5240008950600089506000835
:1001E0009506000895060008950600089506000883
:1001F0009506000895060008950600089506000873
:100200009506000895060008950600089506000862
:100210009506000895060008950600089506000852
:1002200095060008950600089506000800000000E5
:1002300095060008950600080000000095060008D5
:100240009506000895060008950600089506000822
:100250009506000895060008950600089506000812
:100260009506000895060008950600089506000802
:100270009506000895060008F50401080000000036
:100280009506000895060008950600080000000085
:080290000000000095060008C3
:1002A00010B5054C237833B9044B13B10448AFF3B0
:1002B00000800123237010BD780700240000000097
:1002C000B463010808B5034B1BB103490348AFF3FE
:1002D000008008BD000000007C070024B463010812
:1002E000034613F8012B002AFBD1181A0138704776
:1002F00001F0FF01102A2BDB10F0070F08D010F8D7
:10030000013B013A8B422DD010F0070F42B3F6D1DA
:10031000F0B441EA012141EA014122F007047FF0F3
:1003200000070023F0E80256083C85EA010586EA4A
:10033000010685FA47F5A3FA87F586FA47F6A5FA86
:1003400087F68EB9EED1F0BC01F0FF0102F0070292
:1003500032B110F8013B013A83EA010313B1F8D13D
:100360000020704701387047002D06BF354603381E
:10037000073815F0010F07D1013015F4807F02BF57
:10038000013015F4C03F0130F0BC0138704700BFA8
:1003900053B94AB9002908BF00281CBF4FF0FF31EC
:1003A0004FF0FF3000F074B9ADF1080C6DE904CEE8
:1003B00000F006F8DDF804E0DDE9022304B0704740
:1003C0002DE9F047089D04468E46002B4DD18A4208
:1003D000944669D9B2FA82F252B101FA02F3C2F13B
:1003E000200120FA01F10CFA02FC41EA030E9440CC
:1003F0004FEA1C48210CBEFBF8F61FFA8CF708FBED
:1004000016E341EA034306FB07F199420AD91CEBC4
:10041000030306F1FF3080F01F81994240F21C81F6
:10042000023E63445B1AA4B2B3FBF8F008FB10333E
:1004300044EA034400FB07F7A7420AD91CEB040473
:1004400000F1FF3380F00A81A74240F20781644443
:10045000023840EA0640E41B00261DB1D4400023C8
:10046000C5E900433146BDE8F0878B4209D9002D2C
:1004700000F0EF800026C5E9000130463146BDE8B6
:10048000F087B3FA83F6002E4AD18B4202D3824220
:1004900000F2F980841A61EB030301209E46002DCF
:1004A000E0D0C5E9004EDDE702B9FFDEB2FA82F224
:1004B000002A40F09280A1EB0C014FEA1C471FFA82
:1004C0008CFE0126200CB1FBF7F307FB131140EA69
:1004D00001410EFB03F0884208D91CEB010103F136
:1004E000FF3802D2884200F2CB804346091AA4B2F8
:1004F000B1FBF7F007FB101144EA01440EFB00FECC
:10050000A64508D91CEB040400F1FF3102D2A64530
:1005100000F2BB800846A4EB0E0440EA03409CE7CF
:10052000C6F12007B34022FA07FC4CEA030C20FA7C
:1005300007F401FA06F31C43F9404FEA1C4900FA9C
:1005400006F3B1FBF9F8200C1FFA8CFE09FB181119
:1005500040EA014108FB0EF0884202FA06F20BD98C
:100560001CEB010108F1FF3A80F08880884240F2DC
:100570008580A8F102086144091AA4B2B1FBF9F020
:1005800009FB101144EA014100FB0EFE8E4508D91B
:100590001CEB010100F1FF346CD28E456AD90238A0
:1005A000614440EA0840A0FB0294A1EB0E01A14285
:1005B000C846A64656D353D05DB1B3EB080261EBF3
:1005C0000E0101FA07F722FA06F3F1401F43C5E9CD
:1005D000007100263146BDE8F087C2F12003D84003
:1005E0000CFA02FC21FA03F3914001434FEA1C4745
:1005F0001FFA8CFEB3FBF7F007FB10360B0C43EA37
:10060000064300FB0EF69E4204FA02F408D91CEBE6
:10061000030300F1FF382FD29E422DD902386344E4
:100620009B1B89B2B3FBF7F607FB163341EA034184
:1006300006FB0EF38B4208D91CEB010106F1FF38D3
:1006400016D28B4214D9023E6144C91A46EA0046CA
:1006500038E72E46284605E70646E3E61846F8E65C
:100660004B45A9D2B9EB020864EB0C0E0138A3E7A5
:100670004646EAE7204694E74046D1E7D0467BE786
:10068000023B614432E7304609E76444023842E7FE
:10069000704700BFFEE700BF0B480C4A904203D0F2
:1006A000121A0B4912F01AFC0A480B4A904203D066
:1006B000121A002112F020FC04F064F912F0DAFBA7
:1006C00000F0B6F8FEE700BF000000247407002425
:1006D000EC63010878070024DC6D0024704700BF3C
:1006E000704700BFF8B5154607460C480E4600F0A7
:1006F000C9FB0A4800F0D2FB7DB13B6834687868DA
:1007000003EB850C716853F8042B44F8042B634504
:1007100050F8042B41F8042BF5D1F8BD94080024BF
:1007200010B52D4984B000240122096823462B48C6
:10073000009402F005FC2A49234601220968294851
:10074000009402F0FDFB284923460122096827484E
:10075000009402F0F5FB264923460122096825484A
:10076000009402F0EDFB2449234601220968234846
:10077000009402F0E5FB2249234601220968214842
:10078000009402F0DDFB20492346012209681F483E
:10079000009402F0D5FB1E492346012209681D483A
:1007A000009402F0CDFB1C4B9FED1C0A1A7859787F
:1007B0001B4842EA01218DED030A01F0D3FD194BDC
:1007C0009DED030A1A785978174842EA012104B0CE
:1007D000BDE8104001F0C6BD700800242C080024BC
:1007E00054080024400800245C0800240408002465
:1007F00058080024180800246008002494070024E6
:1008000064080024A80700246C080024BC07002406
:1008100068080024D0070024645D0108000000007F
:10082000E4070024985D0108F4070024000000009C
:1008300008B5334800F090F90421314800F0CEFAB1
:1008400003212F4800F0F4FA2E4CFFF769FF002037
:1008500001F052FD2C492A4800F0BCFA1CE0D4ED0E
:10086000027AB7EE004BF6EE006A2848B8EE677AD7
:100870009FED1F3BB7EEC77A87EE035B84EE057BE7
:10088000B7EEC77B67EE267A84ED007AB7EEE77A9B
:1008900053EC172B01F022FD1D4801F08FFC0028BE
:1008A000DDD003F0A9FE66680546B04205D3AD1B56
:1008B000A56003F0A1FE6060D1E704F011F807EE37
:1008C000900A9FED0B3BB8EE676B07EE905A9FEDD9
:1008D0000A4B86EE035BB8EE677B84EE056B36EE63
:1008E000077BFCEEC77B17EE905AE0E7AFF3008082
:1008F0000000000080842E410000E0FFFFFFEF4178
:1009000094080024640A0024E5060008585D0108E4
:10091000440A002438B5404A00244FF60B733F4880
:100920003F49C2E90034C2E902443E4AC2E9003408
:10093000C2E902443C4AC0E90034C2E90034C1E9DA
:100940000034C0E90244C1E90244C2E90244374824
:10095000374A38491360C0E90034C1E90034C1E9BD
:100960000244354B3549C0E90244C2E901443448E8
:10097000D4601D880988334B05801980324A01886C
:1009800032481180324900880D881988314B324A2B
:100990001980324B1580188012881D88304B3149E0
:1009A0001A80314BB1F800E0B3F800C02F4B30484B
:1009B0001988304B1A88304BA3F800E0B3F800E0F8
:1009C0002E4BA3F800C01B8803802D4B1980B3F871
:1009D00000C02C4B2C491A8018882C4B2C4A1D80A7
:1009E0002C4BA3F800E02C4BA3F800C02B4B188035
:1009F0002B4812F01DFA264A23492A4812F018FA09
:100A00002948234A046284622849C0E90344BDE8B6
:100A1000384012F00DBA00BF400800242C08002412
:100A20000408002418080024A807002494070024C0
:100A3000D0070024BC070024905D0108685D010810
:100A4000900800247408002470080024785D0108D0
:100A50007C5D0108540800247C08002478080024E8
:100A60005C080024805D01088C5D0108845D01083C
:100A70006C080024885D0108800800248C0800248C
:100A80008408002488080024DD0600085808002493
:100A90000000002460080024640800246808002482
:100AA000E4070024F407002494080024E106000869
:100AB00000294ED0274BF0B5D0E90024481E03F1A1
:100AC0000C0E951C03F1100C4E00AC4218BF05280B
:100AD00002EB41058CBF01200020624538BFAE45C6
:100AE0002CBF01270027384227D02644644538BF51
:100AF000B64522D39D890026D8894FEA510E65F369
:100B00000F06A44602EB8E0E65F31F46002560F328
:100B10000F0560F31F45104640F8046B70454CF814
:100B2000045BF9D121F00100C90705D5998922F8A4
:100B30001010DB8924F81030F0BD023A023C023D6F
:100B4000998922F8021FAA42D98924F8021FF7D1F5
:100B5000F0BD7047700A00242DE9F04140F2011306
:100B60008E4A012506462DED028BD8B0C0F8CC2167
:100B7000ADF81430002304958DF8163003F0B8FE5C
:100B8000002840F0FA80304604A903F007FE06F181
:100B9000080000F09BFA82490DF19408814B06F1A0
:100BA0000C00814ACDE92513012341462792ADF877
:100BB000A03002F081FF0322012300241AA902A819
:100BC00006F110051A9414AF0294CDE91E230022F9
:100BD0000123CDE9202301220023CDE92223734BF9
:100BE0001B9303F1007303F540731C934FF441739F
:100BF000ADF8743003F0E0FA01230AA903A80D94BC
:100C00000A930C93102303948DF83830684B0B93A0
:100C100002F0E6FC039906F1200000F055F94FF0D0
:100C20007E533021029A0893284609930323CDE985
:100C3000061306A901F03AF9284601F081F9284681
:100C4000B0EE408A01F06AF9D0ED007ABC46DFF8D8
:100C500080E14546F8EE677ABEE80F0088EE277A15
:100C6000ACE80F009EE803008CE8030086ED727A82
:100C700037F8141001342846113501F031FC0C2CE2
:100C8000F6D106F11407224604234146384606F100
:100C9000300500249FED478A01F030FC09E001F0A7
:100CA00027FE96ED720A01462846013401F0F6F956
:100CB0002035072CE1B23846F1D9E1B2013401F018
:100CC00017FE00230146F0EE480A28461A4696ED24
:100CD000720A01F0B1F90C2CEAD1374B01243046ED
:100CE0001B88F48520F82C3F02F010FA2246334985
:100CF00006F5D87001F058FA2246314906F2B710CD
:100D000001F052FA2F4B06F5DF70A6F8C0411B88A0
:100D1000A6F8BE3102F0FAF92B4B06F5E170A6F801
:100D2000C4411B88A6F8C23102F0F0F90223D6F8BC
:100D3000CC010FA910930023103013934BF680338E
:100D4000CDE911440F9302F027F8384601F0BAFDBF
:100D5000D6F8CC41237D04F11005DBB928461B4DA4
:100D60002368D4E90112009502F094F80123237559
:100D700058B0BDEC028BBDE8F081044604A93046B2
:100D80008DF8165003F00AFD072C7FF404AF0DF127
:100D9000940810E7284602F0B3F8DFE7700A002451
:100DA0000508050905070506050A060604020404E8
:100DB000010A010B6F12033B9C5D0108945D010861
:100DC000745D0108705D01086C5D0108B10A0008DE
:100DD0000C5D0108103001F0FBB800BFF8B500F160
:100DE0001007054600F1300400F5D87638462DEDA1
:100DF000028B01F097F8384601F0A2F83846B0EEC1
:100E0000408A01F08BF8D0ED007AF8EE677A88EE30
:100E1000270A85ED720A01E095ED720A204620341A
:100E200001F096F9B442F7D1BDEC028BF8BD00BFDA
:100E3000F8B500F11007054600F1300400F5D8764A
:100E400038462DED028B01F07FF8384601F078F836
:100E50003846B0EE408A01F061F8D0ED007AF8EE45
:100E6000677A88EE270A85ED720A01E095ED720A2D
:100E70002046203401F06CF9B442F7D1BDEC028B6E
:100E8000F8BD00BF38B500F1300400F5D875204634
:100E9000203401F039F9AC42F9D138BD704700BFB8
:100EA00007490022074B01F1600010B4302459605B
:100EB0001A611C601A755DF8044BC3E902027047A1
:100EC00000000030700A0024F0B58C2387B0016068
:100ED000002203710124FA26194605AB8DF814206F
:100EE00002964022009323460194054602F00EFC30
:100EF000002840F09B809DF814300DF11707402228
:100F0000284603F07F030097CDE901468DF81430A1
:100F10008DF817302346297902F01EFC002840F096
:100F20008580042003F06EFB05AB40222846009329
:100F30002346CDE90146297902F0E8FB002875D166
:100F40009DF8143040220097284603F0BF03CDE9F6
:100F500001468DF814308DF817302346297902F0B8
:100F6000FBFB002862D1042003F04CFB0DF11503BC
:100F70004322284600932346CDE90146297902F011
:100F8000C5FB002852D10DF11603482228460093D4
:100F90002346CDE90146297902F0B8FB002845D166
:100FA0009DF8153043220097284643F001038DF841
:100FB00015308DF817309DF8163043F00103CDE958
:100FC00001468DF816302346297902F0C5FB68BB2F
:100FD0009DF816304822009728468DF81730234692
:100FE000CDE90146297902F0B7FBF8B905AB4022FB
:100FF000284600932346CDE90146297902F086FB75
:10100000A0B99DF8142023460194284602F0CF048D
:1010100002960097402229798DF814408DF81740E8
:1010200002F09AFB003818BF012000E0012007B051
:10103000F0BD00BFF0B5102387B0234C012200257E
:101040000126002702A920460195CDE902234FF48D
:101050008052CDE904670BF081FA642004F086FA2F
:1010600002A94FF480522046CDE9046702261027DA
:10107000CDE902670BF072FA0322102302A9204681
:10108000CDE9022300230422CDE904234FF480524A
:101090000BF064FA40F23223042202A901931023D8
:1010A0002046CDE90223019A012305924FF4805294
:1010B00004930BF053FA40F6060120460BF06EFA4B
:1010C000284607B0F0BD00BF900A00241C4B002248
:1010D0001C494FF0400C30B5054689B002205960DC
:1010E00007219A601A620124DA620A224FF4006E24
:1010F000DC6006922022CDE9000104200821CDE920
:10110000020103201021CDE9040108206946C3E94A
:1011100004024FF4C072181DC3E906C24FF4805296
:10112000C3E909E20BF0F0F938B92846FFF782FF6E
:10113000003818BF012009B030BD204609B030BDCD
:101140008C0A002440410052614A0021D0B5136846
:101150008EB00A91002B40F0B9805E4B01214FF612
:1011600083700C2411600221D3F8D42000260327B9
:1011700042F48052C3F8D420D3F8D42002F4805231
:101180000092009AD3F8E02042F01002C3F8E02069
:10119000D3F8E02002F010020192019AD3F8E02087
:1011A00042F04002C3F8E020D3F8E02002F0400211
:1011B0000292029AD3F8E02042F00802C3F8E0203D
:1011C000D3F8E02002F008020392039AD3F8E0205B
:1011D00042F48072C3F8E020D3F8E02002F4807279
:1011E0000492049AD3F8E02042F08002C3F8E02091
:1011F000D3F8E02002F080020592059AD3F8E020AF
:1012000042F02002C3F8E020D3F8E02002F02002F0
:101210000692069AD3F8E02042F00402C3F8E020D8
:10122000D3F8E0300C9403F0040307930323079AE8
:101230000B93CDE9080108A9274806F003FB48F203
:101240003712022308A925480C94CDE90823CDE9DB
:101250000A6706F0F7FA4CF20372022308A9204845
:101260000C94CDE90823CDE90A6706F0EBFA40F2C9
:10127000FF62022308A91B480C94CDE90823CDE99D
:101280000A6706F0DFFA4FF60C72022308A9164827
:101290000C94CDE90823CDE90A6706F0D3FA4FF69E
:1012A0003F02022308A911480C94CDE90823CDE997
:1012B0000A6706F0C7FA2022022308A90A480C94FC
:1012C000CDE90A67CDE9082306F0BCFA0EB0D0BD1F
:1012D000880A0024004402580010025800180258DE
:1012E000000C025800200258001C0258001402583A
:1012F0002DE9F04FDFF8108406460D46144608F13C
:1013000018002DED028B89B000AF03F04DF8D8F82E
:10131000183073B3D8F81C30D8F80490002B436908
:101320000BBF4FF0080A4FF0100A4FF0020B4FF0BE
:10133000040BB9F1000F2AD0A200EA46012B02F1FA
:10134000070222F00702ADEB020D6846ADEB020D7D
:10135000694600F03F81022B00F0D680002B6FD051
:101360002246C847D5462437BD46BDEC028BBDE8B2
:10137000F08FD8F81C30002BF5D0D8F804904FF03F
:10138000080A4FF0020B4369B9F1000FD4D1FB6199
:10139000D8F80030BB61002BE5D0D54803F076F8D3
:1013A0006B46BBF1020F786108EE103AFB6900F062
:1013B00083816A465146A2EBC40295466200EA4622
:1013C000B2FBFBF2AAEBC40085460AEB8200EE46B4
:1013D000F861ADEB010DF8690EEB820CC7F810C097
:1013E000EC46ADEB010D00EB8201CCF80400CCF82B
:1013F000081001EB82013869E946CCF80C1000EBCB
:101400008201CCF800A001EB8202C9E900E0C9E941
:101410000212012B00F06483022B00F06C82002B7F
:1014200000F08081620849466046BB69984718EE23
:10143000103A24379D46BD46BDEC028BBDE8F08FC7
:10144000002C8DD01A46D8ED0C6A9FEDB27A8446F6
:10145000331D36F922E00CF1080C07EE90EA33F95F
:1014600022E00232F8EEE77A944267EE877A67EE7E
:10147000A67A4CED027A07EE90EAF8EEE77A67EE8C
:10148000877A67EEA67A4CED017AE2D8F9612246B6
:10149000C847984ED8ED0D6A0020F9692B1D9FEDC5
:1014A0009E7A9FED9E6ADFED9E5A22E0F4EEC67AA8
:1014B000F1EE10FAC0F2C88447F6FE72D1ED017A5F
:1014C00045F8202066EEA77AF4EEC77AF1EE10FA1E
:1014D00040F2F080F4EEC67AF1EE10FAC0F2D58454
:1014E00047F6FE7243F820200230083184427FF62E
:1014F00039AFD1ED007A66EEA77AF4EEC77AF1EE55
:1015000010FAD3D83246D9E7002C3FF429AFD8EDF2
:101510000C6A84469FED787A0022331D8E4656F879
:1015200022100CF1080C07EE901A53F82210023228
:10153000F8EEE77A944267EE877A67EEA67A4CED8A
:10154000027A07EE901AF8EEE77A67EE877A67EE8E
:10155000A67A4CED017AE2D871462246C7F81CE023
:10156000C847664ED8ED0D6A0020F9692B1D9FED26
:101570006A7A9FED6A6ADFF894C120E0F4EEC67AD9
:10158000F1EE10FAC0F279843246D1ED017A45F8D5
:10159000202066EEA77AF4EEC77AF1EE10FA40F258
:1015A0008780F4EEC67AF1EE10FAC0F25E8432461D
:1015B00043F820200230083184427FF6D3AED1EDCB
:1015C000007A66EEA77AF4EEC77AF1EE10FAD5D873
:1015D0006246DAE7002C3FF4C3AED8ED0C6A8646CB
:1015E0009FED477A4FF0000C331D56F82C200EF17A
:1015F000080E82F40002A2F5000207EE902A53F8CA
:101600002C200CF1020CF8EEE77A82F4000264451B
:10161000A2F5000267EE877A67EEA67A4EED027AAF
:1016200007EE902AF8EEE77A67EE877A67EEA67AF9
:101630004EED017AD9D8F9612246C847314ED8ED2E
:101640000D6A0020F9692B1D9FED337A9FED336AF7
:10165000DFF8BCC01FE0F4EEC67AF1EE10FAC0F27B
:10166000FC833246D1ED017A45F8202066EEA77A58
:10167000F4EEC77AF1EE10FA18D9F4EEC67AF1EE6C
:1016800010FAC0F2DA83324643F8202002300831E3
:1016900084427FF667AED1ED007A66EEA77AF4EE6B
:1016A000C77AF1EE10FAD6D86246DBE76246EBE77E
:1016B00062467DE7324615E7A100D646620807314B
:1016C00021F00701ADEB010DEA46ADEB010D6946D6
:1016D000ADEB0E0D0AEB8200EC46ADEB0E0D01EB0F
:1016E0008202F861E946CCE900A0C9E9001290E65F
:1016F000E00A00240280FFFF000000300082FF7F2C
:101700000000003482FF7F00C40A0024007E0080B5
:101710007E0080FF0000003804FF7FBF04FF7F3F92
:1017200000FEFF46002C00F0C982BBF1020FD8F882
:10173000242000F0FA827969C7F8049002EB810E48
:101740005FED0C5A8A00DCF808100EF104007A6193
:101750001A46DCF80C303B61331DD7F810903D6120
:10176000FD69C7E902CB8C46834636F92210D8EDD5
:101770000C7A06EE101A33F9221006EE901A3EF992
:101780002210B8EEC66A07EE101AF8EEE66A3BF9C8
:101790002210B8EEC77A26EE256A66EEA56A27EE15
:1017A000257A26EE276A66EEA76A27EE277A07EEE5
:1017B000901A51080232F8EEE77A0AEB810094425F
:1017C00080ED006A05EB810067EEA57AC0ED006A46
:1017D0000CEB810009EB810180ED007A98ED0C7A29
:1017E00067EE877AC1ED007ABFD8D7F804903D69DB
:1017F000D7E902CB60466208BB6949469847D8F8EA
:101800002C307A69D8ED0D6A1A441FED3D7A1FED30
:101810003D6A2B1D904602F1040A5FED3F5A0022FB
:10182000A84ED9E900EC51E0F4EEC67AF1EE10FAD8
:10183000C0F2C78247F6FE7045F822000CEB0100AB
:10184000D0ED007A66EEA77AF4EEC77AF1EE10FAE0
:101850004BD9F4EEC67AF1EE10FAC0F2BA8247F62E
:10186000FE70BBF1020F43F822002BD0D9F808001C
:101870000844D0ED007A66EEA77AF4EEC77AF1EE6E
:1018800010FA36D9F4EEC67AF1EE10FAC0F2CD8233
:1018900047F6FE7048F82200D9F80C000144D1ED5B
:1018A000007A66EEA77AF4EEC77AF1EE10FA1ED946
:1018B000F4EEC67AF1EE10FAC0F2AF8247F6FE718E
:1018C0004AF82210023294427FF6B1AD51080EEB75
:1018D00081008900D0ED007A66EEA77AF4EEC77A2F
:1018E000F1EE10FAA0D83046A6E73046B9E7314607
:1018F000E6E73046CEE7002C00F0E081BBF1020FB6
:10190000D8F8243000F0E1817A69DCF8081003EBA4
:10191000820EC7F804909300DFED6B5A0EF10400BD
:1019200000227B61DCF80C303B61331DD7F810904E
:101930003D61FD69C7E902CB8C46834656F822100B
:10194000D8ED0C7A07EE101A53F82210B8EEC76AD9
:1019500007EE101A5EF82210F8EEC76A07EE101AAA
:1019600026EE256A5BF82210B8EEC77A66EEA56A05
:1019700026EE276A27EE257A66EEA76A27EE277AF3
:1019800007EE901A51080232F8EEE77A0AEB81006E
:10199000944280ED006A05EB810067EEA57AC0ED08
:1019A000006A0CEB810009EB810180ED007A98ED73
:1019B0000C7A67EE877AC1ED007ABFD8D7F8049029
:1019C0003D69D7E902CB60466208BB694946984742
:1019D000D8F82C307A69D8ED0D6A1A449FED3E7A1A
:1019E0009FED3E6A131D9246DFF8E4C00022FB61C2
:1019F0002B1D364ED9E9008E4EE0F4EEC67AF1EE9C
:101A000010FAC0F2FC81304645F822000EEB0100CE
:101A1000D0ED007A66EEA77AF4EEC77AF1EE10FA0E
:101A200049D9F4EEC67AF1EE10FAC0F2EF813046F1
:101A3000BBF1020F43F822002AD0D9F8080008446D
:101A4000D0ED007A66EEA77AF4EEC77AF1EE10FADE
:101A500035D9F4EEC67AF1EE10FAC0F2C9813046FB
:101A60004AF82200D9F80C000144D1ED007A66EE64
:101A7000A77AF4EEC77AF1EE10FA1ED9F4EEC67A20
:101A8000F1EE10FAC0F2AD813146F86940F822104B
:101A9000023294427FF6CBAC510808EB81008900FA
:101AA000D0ED007A66EEA77AF4EEC77AF1EE10FA7E
:101AB000A3D86046A8E76046BAE76146E5E7604616
:101AC000CEE700BF0280FFFF000000300082FF7FF2
:101AD000007E00800000003404FF7FBF04FF7F3FD2
:101AE000002C00F0EB807A690021D8F82430C7F888
:101AF000109003EB820ED7F81C909300FD610EF15D
:101B000004021FED0C6A7B61331D154656F8212037
:101B10004808D8ED0C6ABBF1020F82F40002A2F56E
:101B2000000207EE902A53F8212082F40002B8EE5A
:101B3000E77AA2F5000227EE067A07EE902A0AEB72
:101B40008002F8EEE77A27EE267A67EE867A82ED53
:101B5000007A09EB80024FEA800067EEA67AC2EDB8
:101B6000007A27D05EF8212082F40002A2F500025C
:101B700007EE902A55F8212082F40002B8EEE77AA9
:101B8000A2F5000227EE067A07EE902ADCF808207C
:101B9000F8EEE77A024427EE267A67EE867A82ED3F
:101BA000007A98ED0C7ADCF80C2067EE877A024414
:101BB000C2ED007A02318C42A8D8D7F81090604666
:101BC0006208BB694946FD699847D8F82C307A69A4
:101BD000D8ED0D6A1A441FED407A1FED406A131DBF
:101BE0009246DFF8C4C20022FB612B1DAB4ED9E93F
:101BF000008E4EE0F4EEC67AF1EE10FAC0F2C58027
:101C0000304645F822000EEB0100D0ED007A66EE7A
:101C1000A77AF4EEC77AF1EE10FA49D9F4EEC67A53
:101C2000F1EE10FAC0F2BF803046BBF1020F43F86C
:101C300022002AD0D9F808000844D0ED007A66EED8
:101C4000A77AF4EEC77AF1EE10FA35D9F4EEC67A37
:101C5000F1EE10FAC0F2AE8030464AF82200D9F810
:101C60000C000144D1ED007A66EEA77AF4EEC77A53
:101C7000F1EE10FA1ED9F4EEC67AF1EE10FAC0F2C7
:101C80008B803146F86940F82210023294427FF688
:101C9000CEAB510808EB81008900D0ED007A66EEEA
:101CA000A77AF4EEC77AF1EE10FAA3D86046A8E757
:101CB0006046BAE76146E5E76046CEE72246494618
:101CC0006046BB699847FFF7B2BBC7F810B0002267
:101CD00098ED0C6A331DDFED726AD7F81CB0786995
:101CE00056F8221007EE901A53F82210B8EEE77A51
:101CF00007EE901A51080232F8EEE77A27EE267ABC
:101D00000AEB810E94420BEB810167EEA67A27EE77
:101D1000067A67EE867A8EED007AC1ED007ADFD81A
:101D20008300D7F810B07B614DE61A46C7F810B0B3
:101D300098ED0C6A331DDFED5B6AD7F81CB078694B
:101D400036F9221007EE101A33F9221007EE901A16
:101D5000B8EEC77A51080232F8EEE77A27EE267A13
:101D60000AEB810E94420BEB810167EEA67A27EE17
:101D7000067A67EE867A8EED007AC1ED007ADFD8BA
:101D80008300D7F810B07B6134E5F0EE675AFEEEC1
:101D9000E45A15EE900A34E7F0EE675AFEEEE45A84
:101DA00015EE901A6EE7F0EE675AFEEEE45A15EE65
:101DB000900A3AE7F0EE675AFEEEE45A15EE900A02
:101DC0004BE767EEA57AFDEEE77A17EE900A00B2D0
:101DD00032E567EEA57AFDEEE77A17EE900A00B2DB
:101DE0003FE5F0EE675AFEEEE05A15EE901A4CE62B
:101DF000F0EE675AFEEEE05A15EE900A30E6F0EE8D
:101E0000675AFEEEE05A15EE900AFDE5F0EE675ACD
:101E1000FEEEE05A15EE900A0AE667EEA57AFDEEB0
:101E2000E77A17EE901A09B24AE567EEA57AFDEE59
:101E3000E77A17EE900A00B22CE5F0EE675AFEEE54
:101E4000E45A15EE902A1FE467EEA57AFDEEE77AD4
:101E500017EE902A12B2FFF731BBF0EE675AFEEE92
:101E6000E45A15EE902AFFF7FDBBF0EE675AFEEE3E
:101E7000E05A15EE902AFFF79BBBF0EE675AFEEE94
:101E8000E05A15EE902AFFF780BB67EEA57AFDEECB
:101E9000E77A17EE902A12B2FFF724BB82FF7F0089
:101EA00000000030000000387E0080FF30B5184C84
:101EB000154685B0046004F1080EEC460FC98EE8A3
:101EC0000F00D4ED047AF5EEC07A8CE80F00F1EE45
:101ED00010FA1ADDB7EE006A94ED057A27EE277A3C
:101EE000C6EE276A84ED0D7AC4ED0C6A6DB120460A
:101EF00040F8185F02F058FA064903690020064AC4
:101F00002162A262E36005B030BD012005B030BDA2
:101F1000C40A0024C0200030C0000030006808302F
:101F2000704700BFB1F5807F03680A4628BF4FF4B1
:101F30008072B1F5807F9A6094BF002001207047C5
:101F40000068183002F090BA70B504688AB0A369CE
:101F5000E160CBB104F11805284602F025FA844669
:101F6000EE46E668BCE80F00AEE80F00BCE80F00E4
:101F7000AEE80F009CE803008EE80300694628469F
:101F8000049602F019F9F8B9E069D8B104F11C051A
:101F9000284602F009FA8446EE46E468BCE80F00E1
:101FA000AEE80F00BCE80F00AEE80F009CE80300AD
:101FB0008EE8030069462846049402F0FDF80038D4
:101FC00018BF01200AB070BD01200AB070BD00BF6B
:101FD00030B5046883B00D46E3694BB1A3680020B7
:101FE000E26A616A9B00009004F11C0002F0DEF9D5
:101FF000A3680748A26A9B00216A009004F11800B8
:1020000002F0D4F90020C4E9005003B030BD00BF95
:10201000F112000810B4074B4FF07E51302400221B
:10202000032019619C60D8605DF8044B5961C3E9D5
:1020300006227047C40A0024F6EE007A9FED166A65
:1020400020EE207A0160F7EE006A80ED036A80EDF1
:10205000020A27EE277AC6EE877AF4EEE67AF1EEE8
:1020600010FA11DDF0EE667A4FF07E514FF0000C61
:1020700002760022C0ED017AC0F814C001614376F7
:102080008276C0ED070A7047F4EEC67AF1EE10FAD8
:10209000EAD5F0EE467AE7E700000000DFED187AB7
:1020A000B6EE007AF7EE006A9FED166A60EE277AC8
:1020B000016080ED036A80ED020A67EE877A86EEA2
:1020C000A77AB4EEE67AF1EE10FA10DDB0EE667A99
:1020D0004FF0804C4FF07C514FF48072012380ED23
:1020E000017AC0F810C04161028383767047B4EE74
:1020F000C67AF1EE10FAEBD5B0EE467AE8E700BF0B
:102100006F12033B000000000268037E128807EE96
:10211000902AFBEEC87A1BB1B7EE007A77EE677AA9
:10212000D0ED056A90ED047A77EEE67A437E67EEAD
:10213000877A0BB1F1EE677A90ED030A90ED017AA0
:1021400077EEC07AA7EE270A80ED030A704700BF3A
:10215000837E80ED020AABB9D0ED077A27EE800AC4
:10216000F6EE007AB7EE007A20EE270AC7EE007A84
:10217000F4EEC77AF1EE10FA07DDF0EE477AC0ED23
:10218000017A7047DFED067AE8E7F5EEC07AF1EE06
:1021900010FAF4D5DFED037AC0ED017A704700BF85
:1021A0006F12033B0000000009884FF0000C8271A1
:1021B000C0F802C0018000F0A9BF00BF10B583794C
:1021C0000446427902715BB101F07CF8B0FA80F00C
:1021D0004009607118B12079B0FA80F0400910BD53
:1021E00001F070F8F5E700BF704700BFF8B5134F76
:1021F0003C687F2C07D98023114A42F224411C46B7
:102200003B60A2F87E100F4D2B68012B0AD90C4EB3
:102210000D4D22463146284600F046F90028F8D1F7
:102220003860F8BD22460649074800F03DF900280D
:10223000F7D12B68386001332B60F8BD000B002408
:10224000040B0024FC0A0024840B002430B4154C39
:102250002168F1B14B1E144DE81810F801298C4685
:1022600019460A2A01D00D2A02D14BB1013BF4E7ED
:102270000CF102037F2B10D98023236030BC704700
:102280000122022323600D200A236854AB5430BC82
:10229000704701220223044DF4E70CF1010261466C
:1022A000F0E700BF000B0024040B002410B5094C1C
:1022B00002460B46084821680844C1F1800111F02C
:1022C0000BFC236818442060FFF7C0FFFFF78EFF68
:1022D00010BD00BF000B0024040B00240FB400B598
:1022E00083B004A951F8040B0191FFF7DFFF03B09D
:1022F0005DF804EB04B0704710B5044600210A48AD
:1023000000F04CF8002C094B14BF022200220848B0
:102310001A60FFF7E3FF0748FFF7E0FF0A20BDE878
:10232000104002F06FB900BF840B0024FC0A0024A7
:10233000A05D0108B05D0108064A0749074808B5D5
:1023400010F076FD034A04490548BDE8084010F046
:102350006FBD00BF00000024E9210008840B0024A9
:10236000880B002470B5044682B0C1F30726CDB2B5
:10237000ADF8041002F03EF94FF480724FF00123E3
:102380002060A01DA571A280E671A36002B0BDE827
:10239000704000F0BBBE00BF704700BF012910B500
:1023A00006D0022915D051B1BDE8104007F0ECB9B4
:1023B0000A46344834490BF007FEE8B1FEE7334BD8
:1023C0000A46334C334934481C600BF0FDFD68B1BC
:1023D000FEE701222C492B480BF0F6FD00B1FEE789
:1023E0002E4928480BF012FEC0B1FEE72B492A48BF
:1023F0000BF00CFE60B1FEE7284922480BF006FE08
:1024000000B1FEE726491F480BF08EFD08B3FEE73A
:10241000244921480BF088FDA8B1FEE7204919485E
:102420000BF082FD00B1FEE716480BF005FE0246F8
:1024300040B9164B164C174917481C600BF0C4FDE9
:1024400068B1FEE7FEE714480BF0F6FD0028ABD0BC
:10245000FEE70C480BF0F0FD0028A5D0FEE70F4981
:102460000D480BF0D3FD00B1FEE70E490A480BF012
:102470005BFD00B1FEE708480BF0DEFD002893D0BD
:10248000FEE700BF280E0024A0000024C410002492
:1024900099230008840000248C0B002408010024E8
:1024A0006400002454000024084691B208B502F0EC
:1024B00059FB003818BF012008BD00BF014806F0D5
:1024C00041BC00BF183D0024014806F03BBC00BFE2
:1024D000183D0024014806F035BC00BF183D00241B
:1024E00082B04FF0000C0323ADF80410BDF80420B7
:1024F00080F810C00280438002B070472DE9F04F91
:10250000BE4E00258FB0BE4C037006F14003426002
:10251000074601928846202229463046C4F85831A1
:10252000C4F85461CDE90355CDE90555CDE907550A
:10253000CDE90955CDE90B5510F0DEFC20222946E6
:1025400004F59970C4F82151C4F82551C4F82951F3
:10255000C4F82D5110F0D0FC019B84F8385284F857
:1025600020317A68002A5FD02B464146B64604F5F2
:10257000907599464FF0010A03EB0310D1F800B0B3
:10258000D1F804800133D1F808C02218CE6844F88D
:1025900000B0C2F80480C2F808C0D660087C2EF8EB
:1025A000029B10740A7C05F8012F002A69D07A6812
:1025B000113184F838A29A42DED84FF48022914833
:1025C0009DF8043008214FF000084FF00009C4F8CE
:1025D00074310023C4E957020122C4F8643184F83D
:1025E0007031C4E95A2194F83812C4E9608981B382
:1025F000C4F88821002284F8713184F878313B785E
:10260000C4E96322A3B3012200200121013B84F825
:102610009421C4E96801082B2CD8DFE803F0ABB0A3
:10262000B5BABFC4C9CFD6009DF804300121C4F8A3
:102630006421C4F874314FF4802384F87021714A06
:10264000C4E9572308230022C4E95A130023C4E92C
:1026500060230123002284F87131002384F878314B
:102660000323C4F888313B78C4E96322002BCAD124
:1026700084F89431644803F0B1FB034638B1FFBEDF
:10268000FEE77A6811319A423FF676AF95E703A9E3
:102690005D48039303F000FD0546002868D102223F
:1026A00040F2FF73CDE9082300230422CDE90A2379
:1026B00094F82031002B00F0D5804FF0060921E07E
:1026C000022B00F08980012B40F0C4809AF8013081
:1026D000012B00F0C180002B4C4B18BF002306A932
:1026E0004948CDE9063902F0A5FF002840F0BF8037
:1026F000013594F82031EDB2AB4240F2B380444B47
:1027000053F825902FB207EB071704EB070A504642
:1027100000F0FCFC05EB051323441B7C042B7DDC43
:10272000022B00F3918000F08D806319002283F862
:102730001021E35D002BC3D19AF80130062B00F085
:102740008580072B00F08A80022B00F09680032BF7
:1027500000F09580002B00F09680012B00F0918016
:10276000042B00F09280052B2A4B18BF0023B6E7FC
:10277000FFBEFEE703224023C4E966237AE707226F
:102780006023C4E9662375E70F228023C4E966232A
:1027900070E71F22A023C4E966236BE73F22C02312
:1027A000C4E9662366E77F22E023C4E9662361E784
:1027B000FF224FF48073C4E966235BE740F2FF1207
:1027C0004FF49073C4E9662354E740F2FF324FF4AC
:1027D000A073C4E966234DE79AF80130042B37D083
:1027E000052B3DD0002B40D0012B42D0022B42D0F4
:1027F000032B094B18BF002371E700BFC040003016
:10280000D0100024002002402C1200240002B02529
:10281000C05D01080000B84F0020903603233E1D24
:1028200004EB05084FF0000B264488F810313046C1
:102830000BF1010B00F06AFC98F8103104365B458F
:10284000F5DC76E70123EAE70223E8E7104B46E7E9
:10285000104B44E7002342E70F4B40E70F4B3EE7A6
:102860000F4B3CE70FB0BDE8F08F0E4B37E7FFBED4
:10287000FEE70D4B33E70D4B31E70D4B2FE70D4BCB
:102880002DE70D4B2BE70D4B29E70D4B27E700BF3D
:102890000800900C1000C0102000F0148000501DA3
:1028A000000180210004002A0008302E0010603250
:1028B0000040C03A0080F03E000052470000214333
:1028C0000000844B38B5094C40F2FF724FF0011103
:1028D00004F5AE75284603F08DFB94F82021D4F85A
:1028E00054112846BDE8384003F0F8B8D010002451
:1028F000034B0F29D3F8540198BF00EB41007047F8
:10290000D0100024214B02689A4200D07047204A20
:1029100000232048D2F8D81030B51F4C41F02001D8
:1029200083B0C4F8C001092004F5E075C4E971035F
:102930004FF48060C2F8D810D2F8D8204FF400616C
:10294000C4E9733094F8380202F02002C4F8D411BC
:102950004FF40051984201922846C4F8D811C4E9B6
:102960007833019B14BF00234FF48073C4F8DC312B
:1029700003F090FF08B1FFBEFEE704F5AE73C4F8A4
:10298000A851C4F8F83103B030BD00BF00200240A8
:102990000044025840000240D0100024014804F0D6
:1029A000FFBB00BF9012002402682DE9F84F4B4B8B
:1029B0009A4201D0BDE8F88F494D95F83832002B86
:1029C000F8D095F82031002B77D0002405F10C09C0
:1029D00005F5997605F59077A04613E003F001011F
:1029E00017F811BCA9F1080000F07AFCBBF1010F47
:1029F00025D895F82031013409F111090236A2B227
:102A000093422BD917F8012F002AF4D0D5F854316E
:102A10000021327833F81400D5F8583103EB041351
:102A200023F81200338801339BB233805FFA83FAB4
:102A30003A789A42D2D88A46A6F80080D0E7CAF3FC
:102A40004001A9F1040000F04BFCBBF1020FCAF3F6
:102A50008001CED0484600F043FCCAE7002395F839
:102A60003802204909229842C5F8C8314FF48060E5
:102A7000C5F8C011C5F8C4214FF400614FF40052ED
:102A8000C5F8CC3108BF4FF48073C5F8D821C5E92B
:102A9000740100221448C5E97732C5F8E42103F037
:102AA000F9FE08B1FFBEFEE795F82021D5F85411D4
:102AB0000E48BDE8F84F03F011B80A4909224FF457
:102AC0008060C5F8C831C5E970124FF400614FF459
:102AD0000052C5E97330C5E97512DAE700200240FB
:102AE000D010002440000240901200242C12002438
:102AF000704700BF4F4B02689A4200D070474E4B60
:102B0000D3F8E81030B541F000514C4C85B0D4F802
:102B10004821C3F8E810D3F8E81001F00051019102
:102B20000199D3F8E01041F00101C3F8E010D3F8A7
:102B3000E03003F001030293029B32F002033DD028
:102B4000013A012A6BD9D4F84C31012B0AD000226A
:102B50003620114603F014FB362005B0BDE83040A6
:102B600003F04CBBD4F8483133F0020234D0013BBF
:102B7000012BECD8442240233149324DC4F88C104B
:102B800000212846C4F8B010C4E9242300224FF4E1
:102B90008063C4E926234FF400624FF40053C4E974
:102BA00028234FF480724FF48033C4E92A2303F0C2
:102BB00071FE80B9E560C4F8C440C8E74FF4806294
:102BC000032303A8ADF80C208DF80E3000F09EFA18
:102BD000D4F84821B4E7FEE71B4BA26343226361AC
:102BE00040231A4DC4E9062300224FF4806328468F
:102BF000C4E908234FF400624FF40053C4E90A23E8
:102C00004FF480724FF48033C4E90C2303F042FE8A
:102C100020B9D4F84831A560E464A8E7FEE74FF492
:102C2000A062032303A8ADF80C208DF80E3000F04D
:102C30006DFA88E700740040004402581013002425
:102C4000280402409C130024100402402413002492
:102C5000014804F0A5BA00BF24130024014804F081
:102C60009FBA00BF9C13002410B5054C204603F00A
:102C700041FC04F58270BDE8104009F03DBE00BF84
:102C800010130024164BD3F84821D3F85811022A08
:102C90004FEA510130B583B00CD088B2D3F85C2133
:102CA000D3F8644102EB400300930CB16846A0479F
:102CB00003B030BDD3F86021002AF9D088B2D3F830
:102CC0005C41D3F8645104EB400402EB4002CDE9CF
:102CD0000042002DECD06846A84703B030BD00BFCD
:102CE00010130024134BD3F84821022A10B582B0E8
:102CF0000CD0D3F85C11D3F86421009122B1D3F841
:102D0000581168464908904702B010BDD3F86021B9
:102D1000002AF9D0D3F85C11D3F86441CDE9001250
:102D2000002CF1D0D3F8581168464908A04702B0EA
:102D300010BD00BF10130024094BD3F84821022A0C
:102D40000DD000B5D3E9581283B0019122B1D3F868
:102D5000581101A84908904703B05DF804FB70477B
:102D6000101300240B4BD3F84821022A10D0D3F8BB
:102D7000581110B5D3E95824C1F34F0382B0490864
:102D800002EB430301930CB101A8A04702B010BDB0
:102D9000704700BF1013002430B58C463A4C3B4DB1
:102DA0008DB0046004F5A27EBCE80F00AEE80F0011
:102DB000DCF8003020462560CEF8003003F0ACFA95
:102DC0000023D4F84C510393C5B11622012D04926F
:102DD00017D00022D4F85411D4F848319142CDE9EB
:102DE000062218BF0222059233F0020235D0013BC1
:102DF000012B3CD9002528460DB030BD0223049399
:102E0000E7E7234A0093C4F80C31C4F81431C4F83E
:102E10000421C4F81C31CDE9013301F067FDD4F879
:102E200044314BF68032C4F80851002B08BF1346DA
:102E3000B0FBF3F304F58270C4F8103109F0C6FB5F
:102E40000028D8D120230290694604F582700093AF
:102E500009F00AFE0028BCD0CDE703A90A4803F018
:102E60007DFB78B9D4F84831013B012BC2D8102240
:102E700003A9054803F072FB051E18BF012528466B
:102E80000DB030BD0125B6E71013002400740040DA
:102E90000010004070B504681D4682B01046D4F89A
:102EA0004C31012B03D0D4F84831022B24D1D4F873
:102EB0005031069A002BC4F85C11C4F864212B46EB
:102EC0000CBF08260026C4F860010A46C4F8585111
:102ED00000212046009603F035FAD4F860212B46F5
:102EE00010212046009603F02DFA04F5827009F0B7
:102EF0000DFC002002B070BD012002B070BD00BF0B
:102F000010B50468D4F84C31012B09D1D4F84831FC
:102F100033F0020106D0013B012B0BD9002010BD7C
:102F2000012010BD204603F099FAD4F84831013B46
:102F3000012BF3D81021204603F090FA002010BD99
:102F400010B592B0ADF804100180C9B2149C0B29E1
:102F5000C460C0E901233FD090F801C0BCF10F0F5D
:102F60003AD8022A3FD0032A02D0012A00D00022F8
:102F70000E92012B02D0022B18BF0023022C0F93BC
:102F80002CD0032C2AD0012C28D000230A291093FE
:102F900027D85C4A02EB812202610A2914D8DFE8B3
:102FA00001F0A39587796B5D4F4133250600564BA1
:102FB000D3F8E01041F48061C3F8E010D3F8E030BA
:102FC00003F480630C930C9B01230DA9104603FAB4
:102FD0000CF30D9304F036FC12B010BD0A291094C6
:102FE000D7D90022D8E711220E92C2E7464BD3F878
:102FF000E01041F40071C3F8E010D3F8E03003F4BE
:1030000000730B930B9BDFE73F4BD3F8E01041F4C9
:103010008071C3F8E010D3F8E03003F480730A93B2
:103020000A9BD1E7384BD3F8E01041F08001C3F898
:10303000E010D3F8E03003F080030993099BC3E765
:10304000314BD3F8E01041F04001C3F8E010D3F861
:10305000E03003F040030893089BB5E72A4BD3F810
:10306000E01041F02001C3F8E010D3F8E03003F0A5
:1030700020030793079BA7E7234BD3F8E01041F009
:103080001001C3F8E010D3F8E03003F0100306930A
:10309000069B99E71C4BD3F8E01041F00801C3F8F8
:1030A000E010D3F8E03003F008030593059B8BE7AD
:1030B000154BD3F8E01041F00401C3F8E010D3F849
:1030C000E03003F004030493049B7DE70E4BD3F838
:1030D000E01041F00201C3F8E010D3F8E03003F053
:1030E00002030393039B6FE7074BD3F8E01041F013
:1030F0000101C3F8E010D3F8E03003F001030293BC
:10310000029B61E700000258004402588378022BBA
:1031100030B504468FB037D0032B33D0012B31D0DC
:1031200000230A93E378012B2AD0022B28D0002316
:103130000B93002320460C9302F0F6F80546204638
:1031400002F0FAF823780990082B13D8DFE803F08F
:103150001F3245586B7E91A40500594BD3F8E020EF
:1031600042F48072C3F8E020D3F8E03003F48073B7
:103170000893089B09A9284604F064FB0FB030BDF2
:103180000B93D6E70A93CDE711230A93CAE74C4B7A
:1031900009A92846D3F8E02042F00102C3F8E02054
:1031A000D3F8E03003F001030093009B04F04AFBE6
:1031B0000FB030BD424B09A92846D3F8E02042F0B9
:1031C0000202C3F8E020D3F8E03003F002030193D9
:1031D000019B04F037FB0FB030BD394B09A92846DD
:1031E000D3F8E02042F00402C3F8E020D3F8E03046
:1031F00003F004030293029B04F024FB0FB030BDE4
:103200002F4B09A92846D3F8E02042F00802C3F862
:10321000E020D3F8E03003F008030393039B04F0AD
:1032200011FB0FB030BD264B09A92846D3F8E0208A
:1032300042F01002C3F8E020D3F8E03003F01003AE
:103240000493049B04F0FEFA0FB030BD1C4B09A997
:103250002846D3F8E02042F02002C3F8E020D3F85B
:10326000E03003F020030593059B04F0EBFA0FB068
:1032700030BD134B09A92846D3F8E02042F04002A4
:10328000C3F8E020D3F8E03003F040030693069B38
:1032900004F0D8FA0FB030BD094B09A92846D3F87D
:1032A000E02042F08002C3F8E020D3F8E03003F0E1
:1032B00080030793079B04F0C5FA0FB030BD00BF31
:1032C0000044025838B5054602F02EF80446284658
:1032D00002F032F801462046BDE8384004F0BABC9E
:1032E00070B506460D4602F01FF80446304602F05F
:1032F00023F82A1E0146204618BF0122BDE870406F
:1033000004F0AEBC0023122270B586B0CDE90223D2
:1033100004930368032B01D804230593061D841D21
:10332000304602F001F80546304602F005F8034643
:1033300001A92846019304F085FA204601F0F4FF24
:10334000034620461C4601F0F7FF01A9034620462C
:10335000019304F077FA06B070BD00BF634A0368BA
:10336000934210B58CB028D0614A934258D0614A3C
:10337000934200F09480604A934201D00CB010BD9B
:103380005E4C5F48D4F8E03043F00203C4F8E0300C
:10339000D4F8E03003F002030A930A9BFFF7B2FF70
:1033A000D4F8F43043F08003C4F8F430D4F8F430A7
:1033B00003F080030B930B9BE0E7504C5148D4F88B
:1033C000E03043F00203C4F8E030D4F8E03003F01A
:1033D00002030193019BFFF795FFD4F8E830002228
:1033E0001F2043F400131146C4F8E830D4F8E83045
:1033F00003F400130293029BD4F8D83043F0010386
:10340000C4F8D830D4F8D83003F001030393039BF9
:1034100002F0B6FE1F200CB0BDE8104002F0EEBE78
:10342000364C3948D4F8E03043F08003C4F8E0303B
:10343000D4F8E03003F080030493049BD4F8E03028
:1034400043F00203C4F8E030D4F8E03003F00203A4
:103450000593059BFFF756FFD4F8E83000222120A2
:1034600043F480031146C4F8E830D4F8E83003F49C
:1034700080030693069BD4F8D83043F00103C4F8C8
:10348000D830D4F8D83003F001030793079B02F03B
:1034900077FE21200CB0BDE8104002F0AFBE1B4803
:1034A000FFF730FF154B00224820D3F8E8401146C3
:1034B00044F40004C3F8E840D3F8E84004F40004FE
:1034C0000894089CD3F8D84044F00104C3F8D840CD
:1034D000D3F8D83003F001030993099B02F050FEA2
:1034E00048200CB0BDE8104002F088BE00540040F7
:1034F00000580040005C0040001C00580044025886
:10350000041700247C140024541500242C160024D5
:103510002DE9F0431A4B87B000254FF010099E4665
:10352000EC46184BFF22E04667461A700EF118066B
:103530000EF13004CDE90055CDE90255ADF800900B
:10354000BCE80F00CDE90455AEE80F009CE803008D
:103550000095ADF800908EE80300B8E80F000FC6A4
:103560009CE803000095ADF8009086E803000FCFBB
:103570000FC49CE8030084E8030007B0BDE8F083B3
:10358000040000247814002410B5EFF3108472B600
:10359000084B1A78120602D504B962B610BD1B7822
:1035A000D82205485BB202FB0300143003F0F8FD9B
:1035B000F2E700BF781400247C140024014805F0D1
:1035C000A7BA00BF08150024014805F0A1BA00BF42
:1035D000E0150024014805F09BBA00BFB81600248E
:1035E0002DE9F0430F68D8243F4D85B007FB04F464
:1035F000032F05EB0403036040DCCB680E46012B70
:103600003CD84DD04FF0D808B646DFF8FC9008FB08
:103610000758BEE80F00C446ACE80F00DEF80030E3
:103620000DF1100ECCF80030D8F808C099E80F0062
:103630000EE90F000EEB8703BCF1010F53F8103CAD
:10364000C8F88C3031D0BCF1020F42D0BCF1000F71
:1036500035D0317C8C34D823002201202C4403FB4C
:1036600007534900C3E92602C3F894102046C3E972
:103670002822C3E92A2204F07DFF18B1012005B0F9
:10368000BDE8F0830146204605F04EFA0028F5D14A
:103690000146204605F072FA003818BF0120EEE717
:1036A0000B7C103B672BADD9E8E701F017F90F4B06
:1036B00098420CBF0E4B0F4BC8F89030C9E701F091
:1036C0000DF90A4B98420CBF0B4B0C4BC8F89030CD
:1036D000BFE701F003F9054B98420CBF084B094BBB
:1036E000C8F89030B5E700BF7C140024000E27070F
:1036F0002D0FB0303211D0205F4390608A62E030ED
:10370000200BA0101A098010245D01082DE9F0415A
:10371000046884B01E46E368BDF82C80C3B90D462A
:1037200017468C34204605F0FBF92028FAD12046B4
:103730000C9C33463A462946CDE901840A9C009404
:1037400005F098F8003818BF012004B0BDE8F081FA
:10375000012004B0BDE8F0812DE9F041046884B097
:103760001E46E368BDF82C80C3B90D4617468C345D
:10377000204605F0D5F92028FAD120460C9C334686
:103780003A462946CDE901840A9C009404F048FF9A
:10379000003818BF012004B0BDE8F081012004B05A
:1037A000BDE8F081044B10221A7483F8E82083F8F6
:1037B000C02183F8982270477C14002430B5002380
:1037C00095B04FF48071062204460B930692139332
:1037D000CDE90C13CDE90E33CDE9113301F088F8B2
:1037E00007282BD004F1100541F2883206A928469B
:1037F00006F016F928B10123184684F85C3015B09C
:1038000030BD0222022306A92846CDE9002310225A
:103810000123CDE9022300224FF48003CDE90423E4
:1038200005224FF0807306926A460F9341F2883367
:1038300006F062FA0028DED115B030BD0323012066
:1038400084F85C3015B030BD70B50023A4B04FF0E3
:1038500080724FF480750446ADF806300D93CDE9C3
:1038600010320122CDE90E53CDE91223CDE91433F4
:10387000002943D0F02300F1100508AEADF8063062
:10388000C02341F2883231462846089306F0C8F832
:1038900028B10123184684F85C3024B070BD41F291
:1038A00088320DF10601284606F024F90346002867
:1038B000EFD105224FF480711E93284616924FF0E7
:1038C00080721B9321931F9202AA9FED1F7BCDE96B
:1038D0001C13CDE922338DED027B9FED1D7B41F260
:1038E000883316A98DED047B9FED1B7B8DED067B48
:1038F00006F002FA0028CCD124B070BD00F110050A
:1039000008AE612341F2883231462846089306F01A
:1039100087F80028BDD141F288320DF10601284612
:1039200006F066F90028B4D1BDF80630204623F031
:10393000780343F04003ADF80630FFF73FFF00285F
:103940009ED0A6E7AFF30080000000000100000059
:103950001000000001000000000000000000400016
:103960002DE9F04F00234FF4807501264FF0807849
:1039700004462DED028BABB08DF8073013932193E5
:10398000299314950E96CDF85C80CDE91533CDE9D9
:103990001863CDE91A33CDE92253CDE92433CDE9BB
:1039A000273306231C9300F0A3FF072808D004F157
:1039B000100741F288321CA9384606F031F840B1B0
:1039C0000123184684F85C302BB0BDEC028BBDE8B7
:1039D000F08F4FF0020A4FF0020B4FF0050941F251
:1039E000883308AA1CA93846CDF89480CDF8709089
:1039F0009FED2D8BCDE908AB4FF0000A4FF4800B03
:103A00008DED0A8BCDE90CAB06F076F90028D7D105
:103A100041F2883238460EA906F002F80028CFD1CC
:103A2000402341F288320DF1070138468DF8073006
:103A300006F060F80028C3D141F288330EA902AA2B
:103A40003846CDF83890CDF85C809FED197B8DED30
:103A5000048BCDE906AB8DED027B06F04DF90346F4
:103A60000028ADD1CDF870904FF00109CDF89480C9
:103A70004FF00008219308AA29931CA938462295E3
:103A8000CDE92333CDE9273341F288338DED0A8B1D
:103A9000CDE90CABCDE9088906F02EF9002893D0CA
:103AA000304684F85C608FE71000000001000000E1
:103AB00040000000400000002DE9F043624CA3B03C
:103AC0000D46046000F014FF072800F0A980286864
:103AD00023466968AA6807C31E46AB8926F8043BDB
:103AE0003046257B677B05F07DFFE0B9574B012D04
:103AF0004FF00108E061236114BF4FF480134FF4CD
:103B00000003C4E9058893FAA3F3B3FA83F34FF4EF
:103B10008079013BC4F82490C4E90B00304623624D
:103B200005F0F4FE38B10122134684F85C201846F3
:103B300023B0BDE8F08366230B90139041F28832E6
:103B400006A90693CDE90C90CDE90E00CDE9110050
:103B5000304605F065FF0028E5D1992341F288320F
:103B600006A93046069305F05BFF0028DBD105234C
:103B70001C9019906A4614934FF08073219014A9F9
:103B80001D9341F288339FED2A7BCDE91A90CDE950
:103B90001F008DED007B9FED287B30468DED027B75
:103BA0009FED277B8DED047B06F0A6F80028BAD1A7
:103BB00029462046FFF748FE0028B4D12046FFF7EB
:103BC000CFFE03460028AED1002FB0D11893304667
:103BD0000027002606AA14A9CDF86890CDE91F3366
:103BE000EB2314934FF440631B934FF4005317934C
:103BF0004FF440431C93A0231693062319934FF0D0
:103C0000805321934FF04073CDE906671D9306F072
:103C1000EBF8034600288AD0434684F85C8086E7A8
:103C200001230322184684F85C2023B0BDE8F0830A
:103C30000000000001000000100000000100000072
:103C40000000000000004000DC170024005000527B
:103C50002DE9F04F8FB0414B0024026800AF9A422B
:103C60007C63C7E90944C7E90B4403D03C37BD4630
:103C7000BDE8F08F3A4B40F609213A48EB46D3F8BD
:103C8000D42007F11C0607F1220A4FF0020942F482
:103C900080424FF00308C3F8D420D3F8D42002F4B4
:103CA0008042BA60BA68D3F8E02042F04002C3F81C
:103CB000E020D3F8E02002F04002FA60FA68D3F87E
:103CC000E02042F02002C3F8E020D3F8E02002F028
:103CD00020023A613A69D3F8E02042F01002C3F8BA
:103CE000E020D3F8E02002F010027A617A69D3F87C
:103CF000E02042F00202C3F8E020D3F8E030F8619F
:103D000003F002033984BB61174B7B60BB697B689E
:103D100053F8040F7B6001F007FB7B6805461868C9
:103D200001F00AFB16F8013B786207F124012846EE
:103D3000C7F830807B63C7E90A9403F083FD5645DA
:103D4000E5D100225C20114602F01AFA5C2002F054
:103D500055FA3C37DD46BD46BDE8F08F00500052B5
:103D6000004402580A0A090938180024114B026855
:103D70009A4200D07047104A70B5D2F8D4300F4C38
:103D800023F4804304F11806C2F8D43054F8040F29
:103D900001F0CAFA0546206801F0CEFA014628462D
:103DA00003F090FEB442F1D15C20BDE8704002F017
:103DB00033BA00BF005000520044025838180024A3
:103DC000014806F09DB800BFEC170024084B1A1DEF
:103DD000981D03F1080110B49C1C9A6603F10A02B5
:103DE000C3E91834C3E91B015DF8044B5A677047F7
:103DF000DC17002438B5036871B9026A00F12805A0
:103E000000F5AC74012A0CBF002140218BBB1D4B77
:103E10005722C0F858310DE0426A00F1C00500F5A4
:103E2000E874012A0CBF00214021EBB1164B5A2245
:103E3000C0F8D03100232046C4E901214FF480525C
:103E40004FF48061636262614FF48042C4E90331E0
:103E50004FF48073C4E906234FF40033236202F069
:103E600019FD58B1FFBEFEE7084B5822C0F8D0310B
:103E7000E0E7074B5922C0F85831DBE7C5E9204499
:103E8000A56338BD100002407000024028000240C7
:103E9000580002402DE9F043821D05468BB0031DFA
:103EA00005F10A010830CDE9052305F10C02AB69E3
:103EB000CDE907010992002B3DD0EB69B3FA83F8F5
:103EC0004FEA58180123022205AE0AAF4FF0060947
:103ED0000393CDE9012356F8044B2B7922789342C2
:103EE00016D02B68F3B1012B02D1F2B10A2304934F
:103EF000204601F021FA03462046009301F014FA0F
:103F0000694603F09FFCBE42E5D10BB0BDE8F083EB
:103F1000697963789942E4D1B8F1000FF3D02B6846
:103F2000002BE0D1CDF81090E2E76378022B14BFAC
:103F30000A230823DBE74FF00108C3E7534A03686D
:103F4000934230B505468BB055D02032934252D0C3
:103F50004F4A934204D02032934201D00BB030BD7F
:103F60004C4C4D48D4F8E03043F00103C4F8E03045
:103F7000D4F8E03003F001030593059BD4F8E0305A
:103F800043F00803C4F8E030D4F8E03003F008034D
:103F90000693069BD4F8E03043F04003C4F8E030C9
:103FA000D4F8E03003F040030793079BD4F8F030D7
:103FB00043F40003C4F8F030D4F8F03003F4000305
:103FC0000893089BFFF766FFD4F8D830296843F0C0
:103FD00001032F4A3048C4F8D830891AD4F8D830B1
:103FE00018BF012103F001030993099B0BB0BDE841
:103FF0003040FFF7FFBE274C2848D4F8E03043F0AC
:104000000103C4F8E030D4F8E03003F0010300937A
:10401000009BD4F8E03043F01003C4F8E030D4F84B
:10402000E03003F010030193019BD4F8E03043F03B
:104030004003C4F8E030D4F8E03003F040030293CA
:10404000029BD4F8F03043F48003C4F8F030D4F885
:10405000F03003F480030393039BFFF71BFFD4F8B6
:10406000D830296843F00103084A0C48C4F8D83016
:10407000891AD4F8D83018BF012103F00103049342
:10408000049B0BB0BDE83040FFF7B4BE04580140BC
:10409000045C014000440258B01A00245418002463
:1040A000014803F07DB800BFAC190024014803F0BB
:1040B00077B800BF241A0024014803F071B800BF8C
:1040C000081C0024014803F06BB800BF801C0024CA
:1040D0001A4A0368934210B40BD02032934208D09E
:1040E000174A934216D02032934213D05DF8044B06
:1040F0007047144B0022D3F85442C3F85822002CC6
:10410000F4D0D3F84802D3E9931223465DF8044B68
:10411000520818470B4B0022D3F8B044C3F8B4241C
:10412000002CE3D0D3F8AC24D3F8A814D3F8A4041B
:10413000520823465DF8044B184700BF045801405D
:10414000045C014054180024184A0368934210B4D8
:104150000BD02032934208D0154A934217D0203218
:10416000934214D05DF8044B7047124BD3E994246A
:104170005208C3F85822002CF4D0D3E99201234608
:1041800001EB820100EB82005DF8044B1847094BFC
:10419000D3F8AC24D3F8B0445208C3F8B424002CAC
:1041A000E0D0D3F8A814D3F8A404E8E704580140F9
:1041B000045C0140541800242DE9F04F0C684FF4C2
:1041C0001776754F87B004FB06F6012C07EB060A3D
:1041D000C0F800A000F3A0800D468E464FF0000806
:1041E000D44669A3D3E9002369A1D1E90001CDE94F
:1041F000022306ABCAF8508203EB8403CDE9040125
:1042000053F810BC53F8083CCAE992880193BEE801
:104210000F00ACE80F00BEE80F00ACE80F00019BF8
:104220009EE80300CAF828B0CAF8C0308CE8030042
:104230002B69042B0CD8DFE803F0737D8791030012
:104240004FF41773554A03FB04739A64C3F8E020D4
:10425000AA692B6A002A43D0002B4FF4177308BFBA
:10426000022203FB047318BF0322DA6201221A63DD
:10427000EA696B6A002A40D1191E4FF4177318BF00
:10428000012103FB0473C3E931126B69022B05D8CA
:10429000434A12F80380434A52F823904FF41773AD
:1042A00006F128004246494603FB047400233844C3
:1042B00063646363E365C4F8DC30C4F8CC30C4F8ED
:1042C000F430C4E90F33C4E91533C4E93533C4E924
:1042D0003B33022307F0B6FE002849D0FFBEFEE7BD
:1042E000191E4FF4177318BF012103FB0473C3E9B0
:1042F0000B12EA696B6A002ABED0002B4FF41773C9
:1043000008BF022203FB047318BF0322C3F8C420B2
:104310000122C3F8C820B8E7012007B0BDE8F08F3C
:104320004FF417734FF4FA5203FB04739A64C3F803
:10433000E0208DE74FF417734FF47A5203FB0473B8
:104340009A64C3F8E02083E74FF417734FF4FA42FE
:1043500003FB04739A64C3F8E02079E74FF4177302
:104360004BF6803203FB04739A64C3F8E0206FE7D6
:1043700006F1C000022342464946384407F062FE77
:104380000028CAD0FFBEFEE704580140045C01408B
:1043900024580140245C0140541800240077010097
:1043A000005E0108045E01080068704770B504688B
:1043B00082B015460E46C4F85032C4E99212069AED
:1043C000C4F85422A269012A26D0626A012A9AB24C
:1043D00011D0294604F1C000019207F0EFFE236AD4
:1043E000019A012B10D0294604F1280007F0E6FEBF
:1043F000002002B070BD04F1C000019207F070FF10
:10440000236A019A012BEED1314604F1280007F00E
:1044100067FF002002B070BD226A012A9AB211D053
:10442000294604F12800019207F0C8FE636A019A48
:10443000012B10D0294604F1C00007F0BFFE002078
:1044400002B070BD04F12800019207F049FF636AD1
:10445000019A012BEED1314604F1C00007F040FF74
:10446000002002B070BD00BF03681B69042B05D893
:10447000044A02EB830393ED000A70479FED020AA2
:10448000704700BF105E010800803B470368D3F807
:1044900058027047704700BF08B501F055F8BDE8F5
:1044A000084001F035BF00BF064808B503680BB1EE
:1044B00003F0DAFB044803681BB1BDE8084004F0D0
:1044C00041BC08BD2847002420410024064808B507
:1044D00003680BB103F0C8FB044803681BB1BDE8D7
:1044E000084004F02FBC08BD2847002420410024C8
:1044F000064808B503680BB103F0B6FB044803682F
:104500001BB1BDE8084004F01DBC08BD28470024CD
:1045100020410024364BDA6A520062D59A6A9A6AC0
:104520009A6A9B6A180600D500BE314B9B6A9906B1
:1045300000D500BE2E4B9B6ADA0600D500BE2C4B80
:104540009B6A1B0700D500BE294B9B6A980700D5C4
:1045500000BE274B9B6AD90700D500BE244B9B6A3F
:104560001A0400D500BE224B9B6A9B0400D500BEF6
:104570001F4B9B6AD80400D500BE1D4B9B6A1905D2
:1045800000D500BE1A4B9B6A5A0500D500BE184BD9
:104590009B6A9B0500D500BE154B9B6AD80500D5CC
:1045A00000BE134B9B6A990100D500BE104B9B6A5D
:1045B000DA0100D500BE0E4B9B6A1B0300D500BE7E
:1045C0000B4B9B6A580300D500BE094B9B6A9903AD
:1045D00000D500BE064B9B6ADA0306D400BE00BEBF
:1045E000FEE7DB6A9B07FAD5F8E700BEF6E700BFF7
:1045F00000ED00E000F0B4BF01480BF0FBB900BFD4
:104600000C1D002400F0B2BF2DE9F041CEB00446ED
:104610004C2200210AA80EF06FFC2022002102A8E3
:104620000EF06AFCBC2200211EA80EF065FC0220E0
:1046300005F084F82368012B4FF0000354D0534A4F
:1046400002250193C820D16A514B21F00101D162AA
:10465000D26A02F0010201929A6942F440429A61E0
:104660009B6903F440430193019B494A93699B046E
:10467000FCD548490224002201268B6A04274FF00A
:10468000080823F0030323438B62052316900AA82E
:1046900018934FF480331096179419941597CDF80A
:1046A0006880CDE91B222122CDE91344CDE90A23FC
:1046B00005F02EFD00B1FEE73F220323294602A8A4
:1046C000CDE9022300220823CDE904234022402320
:1046D000CDE9062340234FF48062CDE9082306F09C
:1046E00045F80346B8B1FEE7294A04250093F020B7
:1046F0009169264B41F440419161926902F4404234
:104700000092DA6A42F00102DA62DB6A03F0010326
:104710000093009BA9E720224FF4805125934FF48A
:1047200040152B9280222D931EA83093269135910F
:104730004FF48071249234920C223394439140F2CE
:10474000271120921022CDF884802A971F96CDE958
:104750002E34CDE93B334FF48033CDE922463193FB
:10476000002446930623CDE93E4527934FF480630A
:10477000094C2C931E94CDE9281206F053FA00B18F
:10478000FEE705F001F84EB0BDE8F08100040058E6
:1047900000480258004402580F130F032DE9F0415E
:1047A0000D46044684B0D1E9000184E8030000F01E
:1047B0009BFEAE79002E37D06F460BF0BDFFFEF7A3
:1047C000A7FE0AF07DFC0BF04BFD2B79002B54D19A
:1047D0006B799BB1BFF34F8FBFF36F8F3C4B0022C0
:1047E000C3F85022BFF34F8FBFF36F8F5A6942F463
:1047F00000325A61BFF34F8FBFF36F8F4FF0FF321C
:104800000023002400253946324802928DF80C30EE
:10481000CDE900450BF074F82E480BF0D9F80AF0FA
:104820007FF804B0BDE8F08120466F46FFF7ECFE4C
:10483000012401F01BFD4FF040534FF480783846BF
:104840000193254BADF80040CDE9023801F02CFD75
:1048500019224FF0404338468DF80F40ADF80D80D7
:104860008DF801408DF80A608DF80820019301F061
:104870001BFD042001F008FD9FE7154C0023C4F840
:104880008430BFF34F8FD4F8803043F6E07EC3F31B
:10489000C906C3F34E334FEA431C0CEA0E003346FD
:1048A00040EA8372013BC4F860225A1CF8D1ACF193
:1048B000200C1CF1200FF0D1BFF34F8F636943F43C
:1048C00080336361BFF34F8FBFF36F8F80E700BF0B
:1048D00000ED00E00C1D00240E00010306F076B888
:1048E00008B506F073F8400008BD00BF06F08AB8AE
:1048F0001C4B9B6803F17842B2F5003F25D3B3F51A
:10490000803F20D303F16042B2F5003F1FD303F193
:104910005C42B2F5002F1CD303F17042B2F5902F28
:1049200019D303F14842B2F5803F16D303F1804218
:10493000B2F1806F13D303F1E043B3F5000F2CBF46
:104940000820072070470120704700207047022090
:1049500070470320704704207047052070470620E9
:10496000704700BF00ED00E003480023034A0449FC
:1049700003600EF05DBA00BF0C1D0024000000248F
:104980009544000810B4204C0022204B83B0D4F88A
:1049900088101F4841F47001C4F8881019681D4C34
:1049A00041F0010119601A61196808401A4918603C
:1049B0009A61DA611A629A62DA621A635A639A63D6
:1049C000DA631A645A64186820F4802018601A6642
:1049D000D3F8DC2042F06042C3F8DC20D3F8DC30AE
:1049E0000193019B23681940B1F1005F03D20B4B87
:1049F0000122C3F80821044B4FF000629A6003B013
:104A00005DF8044B704700BF00ED00E00044025821
:104A10007FEDF6EA0010005C0000FFFF008000510F
:104A2000704700BF0020704770B50446074E0D4622
:104A30003046214609F08AFA304609F0A9FA044BBB
:104A4000204629461B689847002070BD8C0B002427
:104A5000103D002470B50446074E0D4630462146F1
:104A600009F074FA304609F093FA044B20462946BF
:104A70001B689847002070BD280E0024143D0024B8
:104A800000220949094808B509F056FA08490748BB
:104A900009F05CFA074B1A680AB1002008BD064A03
:104AA00000201A6008BD00BF102D00248C0B0024CC
:104AB000101D0024103D0024214A0008002209494D
:104AC000094808B509F038FA0849074809F03EFADC
:104AD000074B1A680AB1002008BD064A00201A6078
:104AE00008BD00BF10350024280E00241025002426
:104AF000143D0024214A000820280AD0212806D18C
:104B0000094B18689A889B7908608A808B7100200D
:104B10007047054B0868B1F804C08A791860002016
:104B2000A3F804C09A7170477400002420280AD0AA
:104B3000212806D1094B18689A889B7908608A80D9
:104B40008B7100207047054B0868B1F804C08A7962
:104B500018600020A3F804C09A7170477C000024FC
:104B60000020704710B5094CD4F89032D3F81432B5
:104B70000BB1012010BD0A460146204609F0DCF9C0
:104B80002046BDE8104009F0E9B900BF8C0B0024B5
:104B90004B4A036830B593428BB04FF00004CDE927
:104BA0000444CDE90644089404D0464A934249D0CF
:104BB0000BB030BD444D4FF4C0524448D5F8E030FE
:104BC00043F00103C5F8E030D5F8E03003F001030D
:104BD00000930223009904A9CDE904230A23089332
:104BE00002F030FE4FF40072002304A93748069407
:104BF000CDE9042302F026FED5F8D830224621461E
:104C000043F000636220C5F8D830D5F8D83003F0FF
:104C100000630193019B01F0B3FA622001F0EEFA08
:104C200022462146632001F0ABFA632001F0E6FA48
:104C300022462146652001F0A3FA652001F0DEFA44
:104C40000BB030BD204D4FF4404204A9D5F8E03000
:104C500043F00203C5F8E030D5F8E03003F002037A
:104C60000293022302981A48CDE904230C230893E7
:104C700002F0E8FDD5F8D830224621464A2043F01C
:104C80000073C5F8D830D5F8D83003F0007303931B
:104C9000039B01F075FA4A2001F0B0FA2246214642
:104CA0004B2001F06DFA4B2001F0A8FA2246214674
:104CB0004D2001F065FA4D2001F0A0FA0BB030BD97
:104CC0000000084000000440004402580000025860
:104CD0000004025800F57171D0F8040409F0C4B959
:104CE000C1EBC10300EB8303D0F80404D3F808221E
:104CF00009F0E8B9C1EBC10300EB8303D0F8040469
:104D00009A6C09F01DBA00BFD0F8040409F0BCBACF
:104D1000C16810B5044619B1022900D0FEE701218F
:104D2000D4F8040409F09AFAD4F80404BDE8104059
:104D300009F06CBA10B50446D0F8040409F092FAF0
:104D40002268D2F8003E43F00103C2F8003E236A15
:104D500023B1034A136943F00603136110BD00BF7A
:104D600000ED00E0D0F8040409F086BAD0F804049D
:104D700009F09ABAD0F8040409F094BAD0F80404FF
:104D800009F094BAD0F8040409F092BA70B5067824
:104D900004461EB1012E30D0002070BD304D0923D5
:104DA000304AC5F80404C0F8985228462E612E6394
:104DB000C5E9002302230222EB600023C5E9062394
:104DC00000220023C5E9082301220123C5E90A23A3
:104DD00003F000FF00B1FEE78021284604F08EFCBE
:104DE00031464022284604F05FFC802201212846FB
:104DF00004F05AFC2678012ECED11B4D09221B4B04
:104E000000216A6002222B600223C5F80444284670
:104E1000EB600023C4F898522961C5E906230022FB
:104E20000023C5E90823C5E90C2301220023C5E9B5
:104E30000A2303F0CFFE044600B1FEE74FF40071F1
:104E4000284604F05BFC21468022284604F02CFC16
:104E50004FF4BA723146284604F026FC9CE700BFA6
:104E6000183D0024000008402041002400000440B8
:104E7000D0F8980208B503F043FF032802D8024B8C
:104E8000185C08BD022008BD345E01089446D0F8C5
:104E900098021A4608B5634604F0B8FA032802D807
:104EA000024B185C08BD022008BD00BF345E01083B
:104EB000D0F8980208B504F0E7FA032802D8024BAC
:104EC000185C08BD022008BD345E0108D0F89802C5
:104ED00008B504F069FB032802D8024B185C08BD32
:104EE000022008BD345E0108D0F8980208B504F02D
:104EF0009FFB032802D8024B185C08BD022008BDA6
:104F0000345E01080A06D0F8983206D4C1EBC1011C
:104F100003EB810191F8FE01704701F07F01C1EBC5
:104F2000C10103EB810191F83E007047D0F898026F
:104F300008B504F055FA032802D8024B185C08BDE6
:104F4000022008BD345E0108D0F8980208B504F0CC
:104F500003FB032802D8024B185C08BD022008BDE1
:104F6000345E0108D0F8980208B504F0C3FA0328AB
:104F700002D8024B185C08BD022008BD345E01084F
:104F8000D0F8980204F0DEBA122301480B80704773
:104F9000D0000024122301480B807047BC0000247D
:104FA000042301480B807047E400002410B5044C32
:104FB0000A460448214609F0FBFB204610BD00BF0D
:104FC00028450024385E010810B5044C0A46044800
:104FD000214609F0EDFB204610BD00BF2845002406
:104FE000485E010810B5044C0A460448214609F001
:104FF000DFFB204610BD00BF284500245C5E010891
:1050000010B5044C0A460448214609F0D1FB20465D
:1050100010BD00BF28450024685E010810B5044C8F
:105020000A460448214609F0C3FB204610BD00BFD4
:1050300028450024785E0108042301480B8070474E
:10504000E400002410B5044C0A460448214609F047
:10505000AFFB204610BD00BF28450024385E010884
:10506000464A4FF01A0CD2F80008D2F80838A1F8D6
:1050700000C0C31801D142487047180FB3F1204F48
:10508000D2F804184FF0000C3D4A2CBF37303030B6
:1050900082F803C04FF0000C9070C3F3036082F8F5
:1050A00005C04FF0000C092882F807C04FF0000C33
:1050B0008CBF3730303082F809C04FF0000C1071CF
:1050C000C3F3035082F80BC04FF0000C092882F89C
:1050D0000DC08CBF373030309071C3F303400928C6
:1050E0008CBF373030301072C3F3033009288CBFC7
:1050F000373030309072C3F3032009288CBF37302B
:1051000030301073C3F3031003F00F0309288CBF72
:1051100037303030092B90734FF0000094BF30339C
:105120003733B1F1204FD07313744FEA11734FF03E
:1051300000002CBF37333033507400209374C1F318
:105140000363D0740020092B50754FF000008CBF12
:1051500037333033D0751375C1F303530848092B27
:105160008CBF373330339375C1F30343092B94BF9E
:1051700030333733137600235376704700E0F11F46
:10518000E8000024464A4FF01A0CD2F80008D2F882
:105190000838A1F800C0C31801D142487047180F61
:1051A000B3F1204FD2F804184FF0000C3D4A2CBF49
:1051B0003730303082F803C04FF0000C9070C3F3EA
:1051C000036082F805C04FF0000C092882F807C080
:1051D0004FF0000C8CBF3730303082F809C04FF0F0
:1051E000000C1071C3F3035082F80BC04FF0000C99
:1051F000092882F80DC08CBF373030309071C3F36E
:10520000034009288CBF373030301072C3F30330AD
:1052100009288CBF373030309072C3F3032009283F
:105220008CBF373030301073C3F3031003F00F031B
:1052300009288CBF37303030092B90734FF00000B5
:1052400094BF30333733B1F1204FD07313744FEA2A
:1052500011734FF000002CBF3733303350740020EF
:105260009374C1F30363D0740020092B50754FF081
:1052700000008CBF37333033D0751375C1F303533F
:105280000848092B8CBF373330339375C1F3034380
:10529000092B94BF3033373313760023537670478E
:1052A00000E0F11FE800002410B5044C0A46044851
:1052B000214609F07DFA204610BD00BF2845002494
:1052C000685E010810B5044C0A460448214609F0FE
:1052D0006FFA204610BD00BF284500245C5E01081F
:1052E000D0F8C00209F0D6BAD0F8C00209F0EABA84
:1052F000D0F8C00209F0F2BA704700BFD0F8C0027F
:1053000009F0D8BAD0F8C00209F0D8BAD0F8D00362
:1053100008B503F069F8032802D8024B185C08BDF1
:10532000022008BD8C5E0108024B027853F822006F
:10533000704700BFB05E0108024B427833F812009C
:10534000704700BF905E01088CB00A2814D8DFE8CF
:1053500000F01523313F4D5B6977859306004D4B77
:10536000D3F8E02042F48062C3F8E020D3F8E030C4
:1053700003F480630B930B9B0CB07047454BD3F841
:10538000E02042F00102C3F8E020D3F8E03003F05F
:1053900001030193019BEFE73E4BD3F8E02042F07D
:1053A0000202C3F8E020D3F8E03003F002030293D6
:1053B000029BE1E7374BD3F8E02042F00402C3F848
:1053C000E020D3F8E03003F004030393039BD3E71A
:1053D000304BD3F8E02042F00802C3F8E020D3F8C5
:1053E000E03003F008030493049BC5E7294BD3F88E
:1053F000E02042F01002C3F8E020D3F8E03003F0E0
:1054000010030593059BB7E7224BD3F8E02042F049
:105410002002C3F8E020D3F8E03003F02003069325
:10542000069BA9E71B4BD3F8E02042F04002C3F8EB
:10543000E020D3F8E03003F040030793079B9BE79D
:10544000144BD3F8E02042F08002C3F8E020D3F8F8
:10545000E03003F080030893089B8DE70D4BD3F8F1
:10546000E02042F48072C3F8E020D3F8E03003F487
:1054700080730993099B7FE7064BD3F8E02042F441
:105480000072C3F8E020D3F8E03003F400730A930D
:105490000A9B71E700440258704700BF0F4B1B780E
:1054A0000BB90120704710B504464FF47A700C4ACE
:1054B000B0FBF3F31068B0FBF3F000F0C1FE0F2C6B
:1054C00000D808B1012010BD002221464FF0FF3066
:1054D00000F056FE034B00201C6010BD02010024AA
:1054E0004C0000240401002438B50320124D00F0C4
:1054F00035FE124C05F09AF8114A12499369C3F32C
:105500000323CB5C03F01F0320FA03F30E202B6070
:10551000926902F00F028A5C02F01F02D3402360FE
:10552000FFF7BCFF10B10124204638BD0446FFF749
:10553000B3FF204638BD00BF4C00002450000024BB
:1055400000440258245E0108034A044B11681B788A
:105550000B441360704700BFEC4900240201002493
:10556000014B1868704700BFEC49002438B5044669
:10557000FFF7F6FF0546631C02D0044B1B781C4462
:10558000FFF7EEFF431BA342FAD338BD020100240C
:10559000014B1868000C70470010005C704700BF9A
:1055A000806B08B5FFF7FAFF08BD00BF836B5A6D2B
:1055B00012F0500F5A6D10B51DD1196842F40072E7
:1055C0005A650A6812F0080FCA681BD012F4406FBF
:1055D0000DD1CA6894040AD45A6D22F480725A65B7
:1055E0005A6DD10403D45A6D42F001025A6518462F
:1055F000FDF7DAF910BDD2060AD4DB6CBDE8104025
:10560000DB6C18479007E7D01846FDF7CDF9F1E7B6
:105610001846FDF76DFA10BD806B08B5436D43F079
:1056200040034365836D43F004038365FDF760FA2F
:1056300008BD00BFF0B5002283B0019290F8502061
:10564000012A00F01C81034601201A6883F85000EB
:105650009468640700F18A800C68C4F31305002D78
:1056600040F08F80C4F38464A0404D684FF01F0E5B
:10567000D6694FEA951C30430CF00C0CD06105F054
:105680001F0002F1300584400EFA00FE5CF80500B0
:1056900020EA0E0004434CF80540906840076ED4A1
:1056A000956815F0080547D10C68072002F114062B
:1056B000B94F4FEAD45CC4F304540CF0040C00FA64
:1056C00004FE886800FA04F45CF8060020EA0E0084
:1056D00020434CF80600386800F07040B0F1805F5D
:1056E00000F0C580D068D668C70600F1E880C6F330
:1056F00082064869760000FA06F60F69042F00F06A
:10570000C18002F16004086854F827C000F0F84036
:105710000CF0004C40EA0C00304344F82700487E6F
:105720000E69012854F8260008BF4FF0004520F00C
:105730000040054344F826509068C40714D4CE684E
:10574000086806F01807954CD2F8C050FC40C0F32A
:105750001307044025EA07052C43C2F8C040904CCB
:10576000A64246D0002816DB002003E05A6D42F026
:1057700020025A65002283F8502003B0F0BD9068E3
:10578000DAE794FAA4F5B5FA85F5C4F3846405F074
:105790001F05A84069E783498A4200F0B68001F5F9
:1057A00080718A4200F0B1807F4D804CA968A46866
:1057B00001F0E076E44304F00104002C00F0B48032
:1057C0007B4CA04200F0FC807A4CA04200F01A8191
:1057D000794CA042C8D14902C6D474498A42C3D187
:1057E000AA68002022F0E072324342F48002AA60EC
:1057F000C0E7002F6AD090FAA0F4B4FA84F4013420
:1058000004F01F04092C00F2A48090FAA0F4B4FA6A
:1058100084F490FAA0F5B5FA85F501340126013536
:10582000A40605F01F0504F0F84406FA05F52C431C
:1058300090FAA0F0B0FA80F0304400F01F0000EBC6
:10584000400000052043C60D02F11405C0F30450CA
:10585000072406F0040604FA00F7745924EA070442
:105860008F6807FA00F02043705108687AE7D6681D
:105870004869C6F38206760000FA06F63DE7022084
:1058800003B0F0BD106E0C6800F0F840A506B0EB58
:10589000846F30D0506E00F0F840854226D0906E74
:1058A00000F0F84085422BD0D06E00F0F8408542E1
:1058B0007FF442AFD06E20F00040D0663CE776081F
:1058C000486906F0080600FA06F616E7800E441C42
:1058D00004F01F06092E2DD8A406012004F0F84478
:1058E000B040044306EB46000005ABE7506E20F0E5
:1058F00000405066D3E7106E20F000401066C9E704
:10590000906E20F000409066CEE7264C2B4D04F5BB
:105910008074A96854F8F86CA468344301F0E07608
:10592000E44304F0010448E75A6D012042F02002EC
:105930005A651FE706EB4600A50601241E3805F050
:10594000F84504FA06F60005354340F00070284398
:1059500079E790FAA0F5B5FA85F590FAA0F4B4FAD3
:1059600084F4013501260134AD0604F01F0405F06E
:10597000F84506FA04F4254390FAA0F4B4FA84F446
:10598000344404F01F0404EB4404A4F11E00000599
:1059900040F00070DBE700BF0010005CFFFF0F006D
:1059A0000000FF47002002400063025800600258D8
:1059B000000084CB000052C70000B8CF0023024093
:1059C00008023FF5D1AE17498A427FF4CDAE164AA0
:1059D000A9681268154821F0E07192093143A0FBD3
:1059E000020241F400019209A96052000192019A59
:1059F000002A3FF4B9AE019A013A0192019A002AB5
:105A0000F9D1B1E611F080707FF4AEAE05498A425B
:105A10007FF4AAAEAA6822F0E072324342F08072AC
:105A2000AA60A7E6006002584C000024632D3E05E2
:105A300003689A68D20701D5002070479968214A07
:105A4000114270B5044608D0636D012043F0100385
:105A50006365A36D0343A36570BD99681A4A0A4044
:105A600042F001029A60FFF77BFD2368174A054662
:105A700093421ED002F5807293421AD0144A926863
:105A8000114E0AE09A68324042F001029A60FFF734
:105A900067FD401B0228D7D823681A68D2070FD4A5
:105AA0009A68D107EED5FFF75BFD401B0228F3D9BA
:105AB000CAE7084A9268D006E2D0074A9342DFD18B
:105AC000002070BD3F000080C0FFFF7F002002402B
:105AD0000063025800230240002102402DE9F041FA
