:020000040800F2
:1000000000000220E1050008DD0500089D520008FF
:10001000DD050008DD050008DD0500080000000022
:10002000000000000000000000000000DD050008E6
:10003000DD05000800000000DD0500082152000871
:10004000DD050008DD050008DD050008DD05000808
:10005000DD050008DD050008DD050008DD050008F8
:10006000DD050008DD050008DD050008B93F0008D2
:10007000C53F0008992A0008D13F0008DD3F00086D
:100080000D0101089D340008DD050008DD050008AC
:10009000DD050008DD050008DD050008DD050008B8
:1000A000DD050008DD050008DD050008DD050008A8
:1000B000CDF40008D9F40008E5F40008D1340008B4
:1000C000DD050008DD340008DD050008914B00085F
:1000D0009D4B000841FF000871FF0008A5FF0008C4
:1000E000DD050008DD05000800000000DD05000852
:1000F000DD050008DD050008DD050008DD05000858
:10010000DD050008DD050008F1F40008A94B000832
:10011000D9FF00080D000108652D0008DD05000865
:100120004D2D0008592D0008CD4B0008014C00084A
:1001300041010108DD050008DD050008DD050008B6
:1001400000000000000000000000000000000000AF
:10015000DD050008DD050008DD0500084100010897
:10016000E9340008DD050008315200085552000846
:10017000DD05000879520008DD050008DD050008EE
:10018000DD050008DD05000875000108A50001086F
:10019000B54B0008C14B0008DD050008DD0500086F
:1001A000DD050008DD050008DD050008DD050008A7
:1001B000D93C0008DD050008DD050008DD05000864
:1001C000DD050008DD050008DD050008DD05000887
:1001D000DD050008DD050008DD050008DD05000877
:1001E000DD050008DD050008DD050008DD05000867
:1001F000DD050008DD050008DD050008DD05000857
:10020000DD050008DD050008DD050008DD05000846
:10021000DD050008DD050008DD050008DD05000836
:10022000DD050008DD050008DD0500080000000010
:10023000DD050008DD05000800000000DD05000800
:10024000DD050008DD050008DD050008DD05000806
:10025000DD050008DD050008DD050008DD050008F6
:10026000DD050008DD050008DD050008DD050008E6
:10027000DD050008DD050008D900010800000000C8
:10028000DD050008DD050008DD05000800000000B0
:0802900000000000DD0500087C
:1002980010B5054C237833B9044B13B10448AFF3B8
:1002A80000800123237010BD80030024000000009B
:1002B8001422010808B5034B1BB103490348AFF3E7
:1002C800008008BD000000008403002414220108F7
:1002D80053B94AB9002908BF00281CBF4FF0FF31A5
:1002E8004FF0FF3000F074B9ADF1080C6DE904CEA1
:1002F80000F006F8DDF804E0DDE9022304B07047F9
:100308002DE9F047089D04468E46002B4DD18A42C0
:10031800944669D9B2FA82F252B101FA02F3C2F1F3
:10032800200120FA01F10CFA02FC41EA030E944084
:100338004FEA1C48210CBEFBF8F61FFA8CF708FBA5
:1003480016E341EA034306FB07F199420AD91CEB7D
:10035800030306F1FF3080F01F81994240F21C81AF
:10036800023E63445B1AA4B2B3FBF8F008FB1033F7
:1003780044EA034400FB07F7A7420AD91CEB04042C
:1003880000F1FF3380F00A81A74240F207816444FC
:10039800023840EA0640E41B00261DB1D440002381
:1003A800C5E900433146BDE8F0878B4209D9002DE5
:1003B80000F0EF800026C5E9000130463146BDE86F
:1003C800F087B3FA83F6002E4AD18B4202D38242D9
:1003D80000F2F980841A61EB030301209E46002D88
:1003E800E0D0C5E9004EDDE702B9FFDEB2FA82F2DD
:1003F800002A40F09280A1EB0C014FEA1C471FFA3B
:100408008CFE0126200CB1FBF7F307FB131140EA21
:1004180001410EFB03F0884208D91CEB010103F1EE
:10042800FF3802D2884200F2CB804346091AA4B2B0
:10043800B1FBF7F007FB101144EA01440EFB00FE84
:10044800A64508D91CEB040400F1FF3102D2A645E9
:1004580000F2BB800846A4EB0E0440EA03409CE788
:10046800C6F12007B34022FA07FC4CEA030C20FA35
:1004780007F401FA06F31C43F9404FEA1C4900FA55
:1004880006F3B1FBF9F8200C1FFA8CFE09FB1811D2
:1004980040EA014108FB0EF0884202FA06F20BD945
:1004A8001CEB010108F1FF3A80F08880884240F295
:1004B8008580A8F102086144091AA4B2B1FBF9F0D9
:1004C80009FB101144EA014100FB0EFE8E4508D9D4
:1004D8001CEB010100F1FF346CD28E456AD9023859
:1004E800614440EA0840A0FB0294A1EB0E01A1423E
:1004F800C846A64656D353D05DB1B3EB080261EBAC
:100508000E0101FA07F722FA06F3F1401F43C5E985
:10051800007100263146BDE8F087C2F12003D840BB
:100528000CFA02FC21FA03F3914001434FEA1C47FD
:100538001FFA8CFEB3FBF7F007FB10360B0C43EAEF
:10054800064300FB0EF69E4204FA02F408D91CEB9F
:10055800030300F1FF382FD29E422DD9023863449D
:100568009B1B89B2B3FBF7F607FB163341EA03413D
:1005780006FB0EF38B4208D91CEB010106F1FF388C
:1005880016D28B4214D9023E6144C91A46EA004683
:1005980038E72E46284605E70646E3E61846F8E615
:1005A8004B45A9D2B9EB020864EB0C0E0138A3E75E
:1005B8004646EAE7204694E74046D1E7D0467BE73F
:1005C800023B614432E7304609E76444023842E7B7
:1005D800704700BFFEE700BF0B480C4A904203D0AB
:1005E800121A0B4911F0B2FC0A480B4A904203D088
:1005F800121A002111F0B8FC05F078F811F082FC0D
:1006080000F036FBFEE700BF000000247C03002456
:100618004822010880030024643F0024704700BF7B
:10062800F8B5154607460C480E4600F045FE0A4840
:1006380000F04EFE7DB13B683468786803EB850CAA
:10064800716853F8042B44F8042B634550F8042BC5
:1006580041F8042BF5D1F8BD4C0400242DE9F041F4
:10066800264F8AB00125002608234FF002080446C9
:100678000A220321384605930495CDE90666CDE99B
:100688000256CDE9088600F025FE0922ADF80000E3
:100698000321384600F01EFE2A46ADF80400032167
:1006A800384600F017FE42463146ADF80600A575FB
:1006B800384600F00FFE234623F8140F184602F0C0
:1006C800B9FC314603223846A57400F003FE2346E0
:1006D80023F8100F184602F0ADFCBDF8063020468E
:1006E800A57620F8183F02F0A5FC694604F10C0035
:1006F80004F028FC0AB0BDE8F08100BF1C06002405
:100708002DE9F04FF74B8BB00822012400274FF05A
:10071800020B804600F1100A059203210A221846AE
:10072800049408F1240608F11C05DFF8C893CDE904
:100738000677CDE90247CDE908B700F0CBFDE94BD4
:10074800ADF8000009220321184600F0C3FDE54B6F
:100758002246ADF804000321184600F0BBFDE14B2A
:100768005A463946ADF80600184688F8264000F083
:10077800B1FDAAF81400304602F05CFCD94B032204
:100788003946184688F8224000F0A4FD2AF8100FD0
:10079800504602F04FFCBDF80630404688F82A4023
:1007A80020F8283F02F046FC6946284604F0CAFBB8
:1007B800CD4B39465046C8F88430282388F888300D
:1007C80002F014FD642004F0D7FD214650464FF096
:1007D800360A02F00BFD642004F0CEFD394630469F
:1007E8008DF8004002F002FD22466946642328463F
:1007F80004F02EFC642004F0BFFDCB2339463046BC
:100808008DF8003002F0F2FC22466423694628463F
:1008180004F01EFC99E8030009F110090090304625
:100828008DF80410214602F0E1FC05226946642394
:10083800284604F00DFCCF23394630468DF80030A9
:1008480002F0D4FC224669466423284604F000FCE2
:1008580059F8083C21463046ADF800301B0C8DF89D
:10086800023002F0C3FC032269466423284604F0E0
:10087800EFFBE823394630468DF8003002F0B6FC2D
:10088800224669466423284604F0E2FB59F8043CF2
:1008980021463046ADF800301B0C8DF8023002F0CE
:1008A800A5FC032269466423284604F0D1FBEA2309
:1008B800394630468DF8003002F098FC2246642311
:1008C8006946284604F0C4FB21463046ADF800705E
:1008D80002F08CFC5A4669466423284604F0B8FBAB
:1008E800ED23394630468DF8003002F07FFC224671
:1008F80069466423284604F0ABFB7C4B214630460E
:10090800009302F073FC042269466423284604F02D
:100918009FFBF723394630468DF8003002F066FC1D
:10092800224669466423284604F092FB2023214688
:1009380030468DF8003002F059FC2246694664239F
:10094800284604F085FBC023394630468DF8003030
:1009580002F04CFC224669466423284604F078FBE2
:100968002323214630468DF8003002F03FFC224612
:1009780069466423284604F06BFBC1233946304698
:100988008DF8003002F032FC22466946642328467E
:1009980004F05EFB1023214630468DF8003002F04B
:1009A80025FC224669466423284604F051FBC523EA
:1009B800394630468DF8003002F018FC2246694668
:1009C8006423284604F044FB42F63E0321463046A1
:1009D800ADF8003002F00AFC5A46694664232846FE
:1009E80004F036FBC723394630468DF8003002F054
:1009F800FDFB224669466423284604F029FB86232A
:100A0800214630468DF8003002F0F0FB2246642380
:100A18006946284604F01CFB394630468DF800A08C
:100A280002F0E4FB224669466423284604F010FBE2
:100A38004823214630468DF8003002F0D7FB224685
:100A480069466423284604F003FB3A2339463046B6
:100A58008DF8003002F0CAFB224669466423284616
:100A680004F0F6FA5523214630468DF8003002F09E
:100A7800BDFB224669466423284604F0E9FAB123FF
:100A8800394630468DF8003002F0B0FB2246694600
:100A98006423284604F0DCFA4FF4C053214630465C
:100AA800ADF8003002F0A2FB5A4669466423284696
:100AB80004F0CEFAB623394630468DF8003002F0FD
:100AC80095FB224669466423284604F0C1FA084B80
:100AD800214630461B68ADF800301B0C8DF80230FB
:100AE8000AE000BF1C0600244001F00064031281E4
:100AF800EC1F0108801F010802F078FB03226946F9
:100B08006423284604F0A4FAF223394630468DF8C7
:100B1800003002F06BFB224664236946284604F045
:100B280097FA214630468DF8007002F05FFB2246A6
:100B380069466423284604F08BFA26233946304652
:100B48008DF8003002F052FB22466423694628469D
:100B580004F07EFA214630468DF8004002F046FB4C
:100B6800224669466423284604F072FAE02339468F
:100B780030468DF8003002F039FB2246694664237E
:100B8800284604F065FA394BEC460FCBACE8070071
:100B98002CF8023B1B0C214630468CF8003002F042
:100BA80025FB0F2269466423284604F051FAE12305
:100BB800394630468DF8003002F018FB2246694667
:100BC8006423284604F044FAEC4699E80F00ACE8A0
:100BD80007002CF8023B1B0C214630468CF80030ED
:100BE80002F004FB0F2269466423284604F030FA19
:100BF8001123394630468DF8003002F0F7FA2246C4
:100C080069466423284604F023FA642004F0B4FB00
:100C18002923394630468DF8003002F0E7FA22469B
:100C280064236946284604F013FA394630468DF89D
:100C380000A002F0DBFA224669466423284604F045
:100C480007FA0A2004F098FB98F8883030462146C5
:100C58008DF8003002F0CAFA642322466946284615
:100C680004F0F6F90BB0BDE8F08F00BFF01F0108E3
:100C780080B58948894DFFF7F1FC1123884EAB6098
:100C880004F078FB00234FF6FF7241F6EB01686031
:100C9800EB6245F6FF23A9634FF49141284606F518
:100CA8001634C5E90C234FF6E07344F6E1122B64C1
:100CB8004FF6E1136A644FF4F072EB6443F6E7739E
:100CC800AA6542F66512C5E914134AF6755348F643
:100CD80071416A6644F66922AB6645F6EB23E9661C
:100CE8004FF6E0312B6647F2FD63A96443F2A61183
:100CF800EB6346F6ED73EB6543F6E713C5E91C2392
:100D080045F2AA2244F22823C5E91E12C5F880300C
:100D1800FFF7F6FC634800F055F90421614800F03C
:100D280093FA03215F4800F0ABFA5F495D4800F091
:100D380087FA00215D4802F059FA642004F01CFB90
:100D480001215A4802F052FA642004F015FBEA6ABD
:100D5800534BC2F30721D2B21970023303F8012CA6
:100D6800A342F9D1B5F88430042B7FD9B5F88600B1
:100D7800682840F287804FF0680CEA6C0CFB03F996
:100D8800C2F307285FFA82FE09F1040206EB42016A
:100D980006F8128081F801E006EBC30104225F0027
:100DA8004FEAC30A8C46042B05D9824203D28CF839
:100DB80008808CF809E00132BC44682AF3D1682B1A
:100DC80051D904284FD906EB0A024FEA830C82F85E
:100DD800D08082F8D1E006EB4C0C04220CF1010A19
:100DE800934205D9042803D90CF812800AF812E0B6
:100DF8000132682AF4D1682B0AD9682808D9D02288
:100E080003FB022206EB020C06F802808CF801E0D4
:100E180006EB490C04220CF10109934205D9682814
:100E280003D90CF8128009F812E00132682AF4D1CB
:100E3800682B0AD9682808D9D02203FB022206EBBE
:100E4800020C06F802808CF801E00422682B05D910
:100E5800904203D981F8D08081F8D1E00132394439
:100E6800682AF3D165E74FEA830CB4E7EA6C4FF0E0
:100E7800680CB5F886000CFB03F9C2F307285FFA83
:100E880082FE89E7EA6C4FF0680CC2F307280CFB76
:100E980003F95FFA82FE7FE79C030024B80300246D
:100EA800000000304C04002429060008AC0300248C
:100EB80010B514480024144A144904628462C0E935
:100EC800034411F00BF812480F4A10490462846277
:100ED800C0E9034411F002F80E4A4FF448410E4BA2
:100EE8001420147054601181D4600F221C801C746B
:100EF8005C611983DC6183F88900A3F88E4083F86C
:100F08008A2010BD1C0600240000002425060008C5
:100F18004C0400249C030024B803002400294ED06C
:100F2800274BF0B5D0E90024481E03F10C0E951CA0
:100F380003F1100C4E00AC4218BF052802EB410526
:100F48008CBF01200020624538BFAE452CBF012769
:100F58000027384227D02644644538BFB64522D3F7
:100F68009D890026D8894FEA510E65F30F06A446DD
:100F780002EB8E0E65F31F46002560F30F0560F344
:100F88001F45104640F8046B70454CF8045BF9D1D6
:100F980021F00100C90705D5998922F81010DB89CD
:100FA80024F81030F0BD023A023C023D998922F83B
:100FB800021FAA42D98924F8021FF7D1F0BD704751
:100FC800EC0700242DE9F04140F201138E4A012577
:100FD80006462DED028BD8B0C0F8CC21ADF8143000
:100FE800002304958DF8163004F036FB002840F0F5
:100FF800FA80304604A904F08BFA06F1080000F0E4
:101008009DFA82490DF19408814B06F10C00814A42
:10101800CDE92513012341462792ADF8A03002F00F
:10102800D3FC0322012300241AA902A806F1100503
:101038001A9414AF0294CDE91E2300220123CDE9AE
:10104800202301220023CDE92223734B1B9303F1B4
:10105800007303F540731C934FF44173ADF874307B
:1010680003F032F801230AA903A80D940A930C93FC
:10107800102303948DF83830684B0B9302F036FA3E
:10108800039906F1200000F057F94FF07E53302104
:10109800029A0893284609930323CDE9061306A963
:1010A80001F03CF9284601F083F92846B0EE408A61
:1010B80001F06CF9D0ED007ABC46DFF880E14546D6
:1010C800F8EE677ABEE80F0088EE277AACE80F00E2
:1010D8009EE803008CE8030086ED727A37F8141056
:1010E80001342846113501F075FA0C2CF6D106F1B9
:1010F8001407224604234146384606F130050024E9
:101108009FED478A01F074FA09E001F06BFC96ED57
:10111800720A01462846013401F0F8F92035072CF7
:10112800E1B23846F1D9E1B2013401F05BFC0023A9
:101138000146F0EE480A28461A4696ED720A01F072
:10114800B3F90C2CEAD1374B012430461B88F485BF
:1011580020F82C3F01F06EFF2246334906F5D8707F
:1011680001F02EFA2246314906F2B71001F028FAAA
:101178002F4B06F5DF70A6F8C0411B88A6F8BE31D4
:1011880001F058FF2B4B06F5E170A6F8C4411B8807
:10119800A6F8C23101F04EFF0223D6F8CC010FA900
:1011A80010930023103013934BF68033CDE911448C
:1011B8000F9301F06BFE384601F0FEFBD6F8CC41E8
:1011C800237D04F11005DBB928461B4D2368D4E9BB
:1011D8000112009501F0D8FE0123237558B0BDEC2B
:1011E800028BBDE8F081044604A930468DF81650FC
:1011F80004F08EF9072C7FF404AF0DF1940810E782
:10120800284601F0F7FEDFE7EC070024050805098A
:1012180005070506050A060604020404010A010B6F
:101228006F12033B102001080C2001080820010858
:101238000420010800200108250F0008A01F01084C
:10124800103001F0FDB800BF38B500F110050446B4
:101258002DED028B284601F09DF8284601F0A8F8EC
:101268002846B0EE408A01F091F8D0ED007AF8EE09
:10127800677A88EE277ABDEC028B84ED727A38BDE6
:1012880038B500F1100504462DED028B284601F013
:1012980093F8284601F08CF82846B0EE408A01F011
:1012A80075F8D0ED007AF8EE677A88EE277ABDEC0B
:1012B800028B84ED727A38BD38B500F1300400F540
:1012C800D8752046203401F057F9AC42F9D138BD21
:1012D800704700BF013A82B0092A0DD90B23ADF837
:1012E80004309DF8042000209DF8053062F30700C3
:1012F80063F30F2002B0704701EB8101034B02EB4F
:10130800410233F81230ADF80430EAE7142001083E
:1013180007490022074B01F1600010B430245960DE
:101328001A611C601A755DF8044BC3E90202704724
:1013380000580230EC070024F0B58C2387B0016018
:10134800002203710124FA26194605AB8DF81420F2
:1013580002964022009323460194054602F05CF968
:10136800002840F09B809DF814300DF117074022AB
:10137800284603F07F030097CDE901468DF8143025
:101388008DF817302346297902F06CF9002840F0CF
:101398008580042003F0F0FF05AB40222846009327
:1013A8002346CDE90146297902F036F9002875D19E
:1013B8009DF8143040220097284603F0BF03CDE97A
:1013C80001468DF814308DF817302346297902F03C
:1013D80049F9002862D1042003F0CEFF0DF115036E
:1013E8004322284600932346CDE90146297902F095
:1013F80013F9002852D10DF116034822284600930C
:101408002346CDE90146297902F006F9002845D19D
:101418009DF8153043220097284643F001038DF8C4
:1014280015308DF817309DF8163043F00103CDE9DB
:1014380001468DF816302346297902F013F968BB66
:101448009DF816304822009728468DF81730234615
:10145800CDE90146297902F005F9F8B905AB402232
:10146800284600932346CDE90146297902F0D4F8AD
:10147800A0B99DF8142023460194284602F0CF0411
:1014880002960097402229798DF814408DF817406C
:1014980002F0E8F8003818BF012000E0012007B08A
:1014A800F0BD00BFF0B5102387B0234C0122002502
:1014B8000126002702A920460195CDE902234FF411
:1014C8008052CDE904670BF01FFA642004F06AFB30
:1014D80002A94FF480522046CDE90467022610275E
:1014E800CDE902670BF010FA0322102302A9204667
:1014F800CDE9022300230422CDE904234FF48052CE
:101508000BF002FA40F23223042202A901931023BD
:101518002046CDE90223019A012305924FF4805217
:1015280004930BF0F1F940F6060120460BF00CFA93
:10153800284607B0F0BD00BF0C0800241C4B002251
:101548001C494FF0400C30B5054689B0022059605F
:1015580007219A601A620124DA620A224FF4006EA7
:10156800DC6006922022CDE9000104200821CDE9A3
:10157800020103201021CDE9040108206946C3E9CE
:1015880004024FF4C072181DC3E906C24FF480521A
:10159800C3E909E20BF08EF938B92846FFF782FF54
:1015A800003818BF012009B030BD204609B030BD51
:1015B8000808002440410052614A0021D0B5136850
:1015C8008EB00A91002B40F0B9805E4B01214FF696
:1015D80083700C2411600221D3F8D420002603273D
:1015E80042F48052C3F8D420D3F8D42002F48052B5
:1015F8000092009AD3F8E02042F01002C3F8E020ED
:10160800D3F8E02002F010020192019AD3F8E0200A
:1016180042F04002C3F8E020D3F8E02002F0400294
:101628000292029AD3F8E02042F00802C3F8E020C0
:10163800D3F8E02002F008020392039AD3F8E020DE
:1016480042F48072C3F8E020D3F8E02002F48072FC
:101658000492049AD3F8E02042F08002C3F8E02014
:10166800D3F8E02002F080020592059AD3F8E02032
:1016780042F02002C3F8E020D3F8E02002F0200274
:101688000692069AD3F8E02042F00402C3F8E0205C
:10169800D3F8E0300C9403F0040307930323079A6C
:1016A8000B93CDE9080108A9274806F0E7FB48F2A3
:1016B8003712022308A925480C94CDE90823CDE95F
:1016C8000A6706F0DBFB4CF20372022308A92048E4
:1016D8000C94CDE90823CDE90A6706F0CFFB40F268
:1016E800FF62022308A91B480C94CDE90823CDE921
:1016F8000A6706F0C3FB4FF60C72022308A91648C6
:101708000C94CDE90823CDE90A6706F0B7FB4FF63C
:101718003F02022308A911480C94CDE90823CDE91A
:101728000A6706F0ABFB2022022308A90A480C949A
:10173800CDE90A67CDE9082306F0A0FB0EB0D0BDBD
:1017480004080024004402580010025800180258E7
:10175800000C025800200258001C025800140258BD
:101768002DE9F04FDFF8108406460D46144608F1BF
:1017780018002DED028B89B000AF02F09DFDD8F85E
:10178800183073B3D8F81C30D8F80490002B43698C
:101798000BBF4FF0080A4FF0100A4FF0020B4FF042
:1017A800040BB9F1000F2AD0A200EA46012B02F17E
:1017B800070222F00702ADEB020D6846ADEB020D01
:1017C800694600F03F81022B00F0D680002B6FD0D5
:1017D8002246C847D5462437BD46BDEC028BBDE836
:1017E800F08FD8F81C30002BF5D0D8F804904FF0C3
:1017F800080A4FF0020B4369B9F1000FD4D1FB611D
:10180800D8F80030BB61002BE5D0D54802F0C6FD02
:101818006B46BBF1020F786108EE103AFB6900F0E5
:1018280083816A465146A2EBC40295466200EA46A5
:10183800B2FBFBF2AAEBC40085460AEB8200EE4637
:10184800F861ADEB010DF8690EEB820CC7F810C01A
:10185800EC46ADEB010D00EB8201CCF80400CCF8AE
:10186800081001EB82013869E946CCF80C1000EB4E
:101878008201CCF800A001EB8202C9E900E0C9E9C5
:101888000212012B00F06483022B00F06C82002B03
:1018980000F08081620849466046BB69984718EEA7
:1018A800103A24379D46BD46BDEC028BBDE8F08F4B
:1018B800002C8DD01A46D8ED0C6A9FEDB27A84467A
:1018C800331D36F922E00CF1080C07EE90EA33F9E3
:1018D80022E00232F8EEE77A944267EE877A67EE02
:1018E800A67A4CED027A07EE90EAF8EEE77A67EE10
:1018F800877A67EEA67A4CED017AE2D8F96122463A
:10190800C847984ED8ED0D6A0020F9692B1D9FED48
:101918009E7A9FED9E6ADFED9E5A22E0F4EEC67A2B
:10192800F1EE10FAC0F2C88447F6FE72D1ED017AE2
:1019380045F8202066EEA77AF4EEC77AF1EE10FAA1
:1019480040F2F080F4EEC67AF1EE10FAC0F2D584D7
:1019580047F6FE7243F820200230083184427FF6B1
:1019680039AFD1ED007A66EEA77AF4EEC77AF1EED8
:1019780010FAD3D83246D9E7002C3FF429AFD8ED76
:101988000C6A84469FED787A0022331D8E4656F8FD
:1019980022100CF1080C07EE901A53F822100232AC
:1019A800F8EEE77A944267EE877A67EEA67A4CED0E
:1019B800027A07EE901AF8EEE77A67EE877A67EE12
:1019C800A67A4CED017AE2D871462246C7F81CE0A7
:1019D800C847664ED8ED0D6A0020F9692B1D9FEDAA
:1019E8006A7A9FED6A6ADFF894C120E0F4EEC67A5D
:1019F800F1EE10FAC0F279843246D1ED017A45F859
:101A0800202066EEA77AF4EEC77AF1EE10FA40F2DB
:101A18008780F4EEC67AF1EE10FAC0F25E843246A0
:101A280043F820200230083184427FF6D3AED1ED4E
:101A3800007A66EEA77AF4EEC77AF1EE10FAD5D8F6
:101A48006246DAE7002C3FF4C3AED8ED0C6A86464E
:101A58009FED477A4FF0000C331D56F82C200EF1FD
:101A6800080E82F40002A2F5000207EE902A53F84D
:101A78002C200CF1020CF8EEE77A82F4000264459F
:101A8800A2F5000267EE877A67EEA67A4EED027A33
:101A980007EE902AF8EEE77A67EE877A67EEA67A7D
:101AA8004EED017AD9D8F9612246C847314ED8EDB2
:101AB8000D6A0020F9692B1D9FED337A9FED336A7B
:101AC800DFF8BCC01FE0F4EEC67AF1EE10FAC0F2FF
:101AD800FC833246D1ED017A45F8202066EEA77ADC
:101AE800F4EEC77AF1EE10FA18D9F4EEC67AF1EEF0
:101AF80010FAC0F2DA83324643F820200230083167
:101B080084427FF667AED1ED007A66EEA77AF4EEEE
:101B1800C77AF1EE10FAD6D86246DBE76246EBE701
:101B280062467DE7324615E7A100D64662080731CE
:101B380021F00701ADEB010DEA46ADEB010D694659
:101B4800ADEB0E0D0AEB8200EC46ADEB0E0D01EB92
:101B58008202F861E946CCE900A0C9E9001290E6E2
:101B68005C0800240280FFFF000000300082FF7F35
:101B78000000003482FF7F0040080024007E0080BF
:101B88007E0080FF0000003804FF7FBF04FF7F3F16
:101B980000FEFF46002C00F0C982BBF1020FD8F806
:101BA800242000F0FA827969C7F8049002EB810ECC
:101BB8005FED0C5A8A00DCF808100EF104007A6117
:101BC8001A46DCF80C303B61331DD7F810903D61A4
:101BD800FD69C7E902CB8C46834636F92210D8ED59
:101BE8000C7A06EE101A33F9221006EE901A3EF916
:101BF8002210B8EEC66A07EE101AF8EEE66A3BF94C
:101C08002210B8EEC77A26EE256A66EEA56A27EE98
:101C1800257A26EE276A66EEA76A27EE277A07EE68
:101C2800901A51080232F8EEE77A0AEB81009442E2
:101C380080ED006A05EB810067EEA57AC0ED006AC9
:101C48000CEB810009EB810180ED007A98ED0C7AAC
:101C580067EE877AC1ED007ABFD8D7F804903D695E
:101C6800D7E902CB60466208BB6949469847D8F86D
:101C78002C307A69D8ED0D6A1A441FED3D7A1FEDB4
:101C88003D6A2B1D904602F1040A5FED3F5A00227F
:101C9800A84ED9E900EC51E0F4EEC67AF1EE10FA5C
:101CA800C0F2C78247F6FE7045F822000CEB01002F
:101CB800D0ED007A66EEA77AF4EEC77AF1EE10FA64
:101CC8004BD9F4EEC67AF1EE10FAC0F2BA8247F6B2
:101CD800FE70BBF1020F43F822002BD0D9F80800A0
:101CE8000844D0ED007A66EEA77AF4EEC77AF1EEF2
:101CF80010FA36D9F4EEC67AF1EE10FAC0F2CD82B7
:101D080047F6FE7048F82200D9F80C000144D1EDDE
:101D1800007A66EEA77AF4EEC77AF1EE10FA1ED9C9
:101D2800F4EEC67AF1EE10FAC0F2AF8247F6FE7111
:101D38004AF82210023294427FF6B1AD51080EEBF8
:101D480081008900D0ED007A66EEA77AF4EEC77AB2
:101D5800F1EE10FAA0D83046A6E73046B9E731468A
:101D6800E6E73046CEE7002C00F0E081BBF1020F39
:101D7800D8F8243000F0E1817A69DCF8081003EB28
:101D8800820EC7F804909300DFED6B5A0EF1040041
:101D980000227B61DCF80C303B61331DD7F81090D2
:101DA8003D61FD69C7E902CB8C46834656F822108F
:101DB800D8ED0C7A07EE101A53F82210B8EEC76A5D
:101DC80007EE101A5EF82210F8EEC76A07EE101A2E
:101DD80026EE256A5BF82210B8EEC77A66EEA56A89
:101DE80026EE276A27EE257A66EEA76A27EE277A77
:101DF80007EE901A51080232F8EEE77A0AEB8100F2
:101E0800944280ED006A05EB810067EEA57AC0ED8B
:101E1800006A0CEB810009EB810180ED007A98EDF6
:101E28000C7A67EE877AC1ED007ABFD8D7F80490AC
:101E38003D69D7E902CB60466208BB6949469847C5
:101E4800D8F82C307A69D8ED0D6A1A449FED3E7A9D
:101E58009FED3E6A131D9246DFF8E4C00022FB6145
:101E68002B1D364ED9E9008E4EE0F4EEC67AF1EE1F
:101E780010FAC0F2FC81304645F822000EEB010052
:101E8800D0ED007A66EEA77AF4EEC77AF1EE10FA92
:101E980049D9F4EEC67AF1EE10FAC0F2EF81304675
:101EA800BBF1020F43F822002AD0D9F808000844F1
:101EB800D0ED007A66EEA77AF4EEC77AF1EE10FA62
:101EC80035D9F4EEC67AF1EE10FAC0F2C98130467F
:101ED8004AF82200D9F80C000144D1ED007A66EEE8
:101EE800A77AF4EEC77AF1EE10FA1ED9F4EEC67AA4
:101EF800F1EE10FAC0F2AD813146F86940F82210CF
:101F0800023294427FF6CBAC510808EB810089007D
:101F1800D0ED007A66EEA77AF4EEC77AF1EE10FA01
:101F2800A3D86046A8E76046BAE76146E5E7604699
:101F3800CEE700BF0280FFFF000000300082FF7F75
:101F4800007E00800000003404FF7FBF04FF7F3F55
:101F5800002C00F0EB807A690021D8F82430C7F80B
:101F6800109003EB820ED7F81C909300FD610EF1E0
:101F780004021FED0C6A7B61331D154656F82120BB
:101F88004808D8ED0C6ABBF1020F82F40002A2F5F2
:101F9800000207EE902A53F8212082F40002B8EEDE
:101FA800E77AA2F5000227EE067A07EE902A0AEBF6
:101FB8008002F8EEE77A27EE267A67EE867A82EDD7
:101FC800007A09EB80024FEA800067EEA67AC2ED3C
:101FD800007A27D05EF8212082F40002A2F50002E0
:101FE80007EE902A55F8212082F40002B8EEE77A2D
:101FF800A2F5000227EE067A07EE902ADCF8082000
:10200800F8EEE77A024427EE267A67EE867A82EDC2
:10201800007A98ED0C7ADCF80C2067EE877A024497
:10202800C2ED007A02318C42A8D8D7F810906046E9
:102038006208BB694946FD699847D8F82C307A6927
:10204800D8ED0D6A1A441FED407A1FED406A131D42
:102058009246DFF8C4C20022FB612B1DAB4ED9E9C2
:10206800008E4EE0F4EEC67AF1EE10FAC0F2C580AA
:10207800304645F822000EEB0100D0ED007A66EEFE
:10208800A77AF4EEC77AF1EE10FA49D9F4EEC67AD7
:10209800F1EE10FAC0F2BF803046BBF1020F43F8F0
:1020A80022002AD0D9F808000844D0ED007A66EE5C
:1020B800A77AF4EEC77AF1EE10FA35D9F4EEC67ABB
:1020C800F1EE10FAC0F2AE8030464AF82200D9F894
:1020D8000C000144D1ED007A66EEA77AF4EEC77AD7
:1020E800F1EE10FA1ED9F4EEC67AF1EE10FAC0F24B
:1020F8008B803146F86940F82210023294427FF60C
:10210800CEAB510808EB81008900D0ED007A66EE6D
:10211800A77AF4EEC77AF1EE10FAA3D86046A8E7DA
:102128006046BAE76146E5E76046CEE7224649469B
:102138006046BB699847FFF7B2BBC7F810B00022EA
:1021480098ED0C6A331DDFED726AD7F81CB0786918
:1021580056F8221007EE901A53F82210B8EEE77AD4
:1021680007EE901A51080232F8EEE77A27EE267A3F
:102178000AEB810E94420BEB810167EEA67A27EEFB
:10218800067A67EE867A8EED007AC1ED007ADFD89E
:102198008300D7F810B07B614DE61A46C7F810B037
:1021A80098ED0C6A331DDFED5B6AD7F81CB07869CF
:1021B80036F9221007EE101A33F9221007EE901A9A
:1021C800B8EEC77A51080232F8EEE77A27EE267A97
:1021D8000AEB810E94420BEB810167EEA67A27EE9B
:1021E800067A67EE867A8EED007AC1ED007ADFD83E
:1021F8008300D7F810B07B6134E5F0EE675AFEEE45
:10220800E45A15EE900A34E7F0EE675AFEEEE45A07
:1022180015EE901A6EE7F0EE675AFEEEE45A15EEE8
:10222800900A3AE7F0EE675AFEEEE45A15EE900A85
:102238004BE767EEA57AFDEEE77A17EE900A00B253
:1022480032E567EEA57AFDEEE77A17EE900A00B25E
:102258003FE5F0EE675AFEEEE05A15EE901A4CE6AE
:10226800F0EE675AFEEEE05A15EE900A30E6F0EE10
:10227800675AFEEEE05A15EE900AFDE5F0EE675A51
:10228800FEEEE05A15EE900A0AE667EEA57AFDEE34
:10229800E77A17EE901A09B24AE567EEA57AFDEEDD
:1022A800E77A17EE900A00B22CE5F0EE675AFEEED8
:1022B800E45A15EE902A1FE467EEA57AFDEEE77A58
:1022C80017EE902A12B2FFF731BBF0EE675AFEEE16
:1022D800E45A15EE902AFFF7FDBBF0EE675AFEEEC2
:1022E800E05A15EE902AFFF79BBBF0EE675AFEEE18
:1022F800E05A15EE902AFFF780BB67EEA57AFDEE4F
:10230800E77A17EE902A12B2FFF724BB82FF7F000C
:1023180000000030000000387E0080FF30B5184C07
:10232800154685B0046004F1080EEC460FC98EE826
:102338000F00D4ED047AF5EEC07A8CE80F00F1EEC8
:1023480010FA1ADDB7EE006A94ED057A27EE277ABF
:10235800C6EE276A84ED0D7AC4ED0C6A6DB120468D
:1023680040F8185F01F0A8FF064903690020064AF3
:102378002162A262E36005B030BD012005B030BD26
:1023880040080024C0780230C05802300068083085
:10239800704700BFB1F5807F03680A4628BF4FF435
:1023A8008072B1F5807F9A6094BF00200120704749
:1023B8000068183001F0E0BF70B504688AB0A369FE
:1023C800E160CBB104F11805284601F075FF844699
:1023D800EE46E668BCE80F00AEE80F00BCE80F0068
:1023E800AEE80F009CE803008EE803006946284623
:1023F800049601F069FEF8B9E069D8B104F11C054A
:10240800284601F059FF8446EE46E468BCE80F0010
:10241800AEE80F00BCE80F00AEE80F009CE8030030
:102428008EE8030069462846049401F04DFE003802
:1024380018BF01200AB070BD01200AB070BD00BFEE
:1024480030B5046883B00D46E3694BB1A36800203A
:10245800E26A616A9B00009004F11C0001F02EFF03
:10246800A3680748A26A9B00216A009004F118003B
:1024780001F024FF0020C4E9005003B030BD00BFC4
:102488006917000810B4074B4FF07E513024002222
:10249800032019619C60D8605DF8044B5961C3E959
:1024A8000622704740080024F6EE007A9FED166A6F
:1024B80020EE207A0160F7EE006A80ED036A80ED75
:1024C800020A27EE277AC6EE877AF4EEE67AF1EE6C
:1024D80010FA11DDF0EE667A4FF07E514FF0000CE5
:1024E80002760022C0ED017AC0F814C0016143767B
:1024F8008276C0ED070A7047F4EEC67AF1EE10FA5C
:10250800EAD5F0EE467AE7E700000000DFED187A3A
:10251800B6EE007AF7EE006A9FED166A60EE277A4B
:10252800016080ED036A80ED020A67EE877A86EE25
:10253800A77AB4EEE67AF1EE10FA10DDB0EE667A1C
:102548004FF0804C4FF07C514FF48072012380EDA6
:10255800017AC0F810C04161028383767047B4EEF7
:10256800C67AF1EE10FAEBD5B0EE467AE8E700BF8E
:102578006F12033B000000000268037E128807EE1A
:10258800902AFBEEC87A1BB1B7EE007A77EE677A2D
:10259800D0ED056A90ED047A77EEE67A437E67EE31
:1025A800877A0BB1F1EE677A90ED030A90ED017A24
:1025B80077EEC07AA7EE270A80ED030A704700BFBE
:1025C80009884FF0000C8271C0F802C0018000F049
:1025D80031BD00BF82B04FF0000C0323ADF80410EA
:1025E800BDF8042080F810C00280438002B0704714
:1025F8002DE9F04FBE4E00258FB0BE4C037006F19A
:102608004003426007460192884620222946304608
:10261800C4F85831C4F85461CDE90355CDE90555DE
:10262800CDE90755CDE90955CDE90B550FF09CFCCF
:102638002022294604F59970C4F82151C4F825517F
:10264800C4F82951C4F82D510FF08EFC019B84F871
:10265800385284F820317A68002A5FD02B464146E8
:10266800B64604F5907599464FF0010A03EB03103E
:10267800D1F800B0D1F804800133D1F808C022188D
:10268800CE6844F800B0C2F80480C2F808C0D6602A
:10269800087C2EF8029B10740A7C05F8012F002A8A
:1026A80069D07A68113184F838A29A42DED84FF49A
:1026B800802291489DF8043008214FF000084FF01F
:1026C8000009C4F874310023C4E957020122C4F890
:1026D800643184F87031C4E95A2194F83812C4E995
:1026E800608981B3C4F88821002284F8713184F8A4
:1026F80078313B78C4E96322A3B301220020012189
:10270800013B84F89421C4E96801082B2CD8DFE840
:1027180003F0ABB0B5BABFC4C9CFD6009DF804303A
:102728000121C4F86421C4F874314FF4802384F87B
:102738007021714AC4E9572308230022C4E95A13B7
:102748000023C4E960230123002284F871310023A7
:1027580084F878310323C4F888313B78C4E96322CC
:10276800002BCAD184F89431644803F053FE034621
:1027780038B1FFBEFEE77A6811319A423FF676AF6C
:1027880095E703A95D48039303F0A2FF05460028D7
:1027980068D1022240F2FF73CDE908230023042206
:1027A800CDE90A2394F82031002B00F0D5804FF0B2
:1027B800060921E0022B00F08980012B40F0C4803B
:1027C8009AF80130012B00F0C180002B4C4B18BF48
:1027D800002306A94948CDE9063903F047FA00283D
:1027E80040F0BF80013594F82031EDB2AB4240F2A1
:1027F800B380444B53F825902FB207EB071704EB2F
:10280800070A504600F016FC05EB051323441B7C11
:10281800042B7DDC022B00F3918000F08D8063197E
:10282800002283F81021E35D002BC3D19AF8013010
:10283800062B00F08580072B00F08A80022B00F021
:102848009680032B00F09580002B00F09680012BDA
:1028580000F09180042B00F09280052B2A4B18BFC2
:102868000023B6E7FFBEFEE703224023C4E9662340
:102878007AE707226023C4E9662375E70F228023DD
:10288800C4E9662370E71F22A023C4E966236BE727
:102898003F22C023C4E9662366E77F22E023C4E918
:1028A800662361E7FF224FF48073C4E966235BE780
:1028B80040F2FF124FF49073C4E9662354E740F2E4
:1028C800FF324FF4A073C4E966234DE79AF801304C
:1028D800042B37D0052B3DD0002B40D0012B42D004
:1028E800022B42D0032B094B18BF002371E700BF0E
:1028F800C09802307808002400200240D40900243F
:102908000002B025642001080000B84F002090366E
:1029180003233E1D04EB05084FF0000B264488F8FE
:10292800103130460BF1010B00F084FB98F81031A0
:1029380004365B45F5DC76E70123EAE70223E8E79E
:10294800104B46E7104B44E7002342E70F4B40E7A4
:102958000F4B3EE70F4B3CE70FB0BDE8F08F0E4B37
:1029680037E7FFBEFEE70D4B33E70D4B31E70D4B65
:102978002FE70D4B2DE70D4B2BE70D4B29E70D4BA3
:1029880027E700BF0800900C1000C0102000F014CA
:102998008000501D000180210004002A0008302E0C
:1029A800001060320040C03A0080F03E00005247FC
:1029B800000021430000844B38B5094C40F2FF72F7
:1029C8004FF0011104F5AE75284603F02FFE94F878
:1029D8002021D4F854112846BDE8384003F09ABBAA
:1029E80078080024034B0F29D3F8540198BF00EB53
:1029F8004100704778080024214B02689A4200D0B1
:102A08007047204A00232048D2F8D81030B51F4C10
:102A180041F0200183B0C4F8C001092004F5E07535
:102A2800C4E971034FF48060C2F8D810D2F8D820F6
:102A38004FF40061C4E9733094F8380202F02002C0
:102A4800C4F8D4114FF40051984201922846C4F8B2
:102A5800D811C4E97833019B14BF00234FF4807365
:102A6800C4F8DC3104F032FA08B1FFBEFEE704F521
:102A7800AE73C4F8A851C4F8F83103B030BD00BF34
:102A88000020024000440258400002407808002418
:102A9800014804F0A1BE00BF380A002402682DE9ED
:102AA800F84F4B4B9A4201D0BDE8F88F494D95F845
:102AB8003832002BF8D095F82031002B77D000243D
:102AC80005F10C0905F5997605F59077A04613E010
:102AD80003F0010117F811BCA9F1080000F086FB0A
:102AE800BBF1010F25D895F82031013409F11109FE
:102AF8000236A2B293422BD917F8012F002AF4D03C
:102B0800D5F854310021327833F81400D5F858310B
:102B180003EB041323F81200338801339BB233808C
:102B28005FFA83FA3A789A42D2D88A46A6F80080A1
:102B3800D0E7CAF34001A9F1040000F057FBBBF14C
:102B4800020FCAF38001CED0484600F04FFBCAE717
:102B5800002395F83802204909229842C5F8C8315F
:102B68004FF48060C5F8C011C5F8C4214FF4006166
:102B78004FF40052C5F8CC3108BF4FF48073C5F844
:102B8800D821C5E9740100221448C5E97732C5F88F
:102B9800E42104F09BF908B1FFBEFEE795F8202177
:102BA800D5F854110E48BDE8F84F03F0B3BA0A49F6
:102BB80009224FF48060C5F8C831C5E970124FF496
:102BC80000614FF40052C5E97330C5E97512DAE7C0
:102BD800002002407808002440000240380A0024FF
:102BE800D4090024704700BF4F4B02689A4200D0B6
:102BF80070474E4BD3F8E81030B541F000514C4CBB
:102C080085B0D4F84821C3F8E810D3F8E81001F0EB
:102C1800005101910199D3F8E01041F00101C3F886
:102C2800E010D3F8E03003F001030293029B32F086
:102C380002033DD0013A012A6BD9D4F84C31012B5B
:102C48000AD000223620114603F0B6FD362005B022
:102C5800BDE8304003F0EEBDD4F8483133F002024D
:102C680034D0013B012BECD8442240233149324D6A
:102C7800C4F88C1000212846C4F8B010C4E92423F5
:102C880000224FF48063C4E926234FF400624FF416
:102C98000053C4E928234FF480724FF48033C4E909
:102CA8002A2304F013F980B9E560C4F8C440C8E7E2
:102CB8004FF48062032303A8ADF80C208DF80E3082
:102CC80000F0B8F9D4F84821B4E7FEE71B4BA2633B
:102CD8004322636140231A4DC4E9062300224FF4BE
:102CE80080632846C4E908234FF400624FF4005378
:102CF800C4E90A234FF480724FF48033C4E90C23EB
:102D080004F0E4F820B9D4F84831A560E464A8E7F1
:102D1800FEE74FF4A062032303A8ADF80C208DF85A
:102D28000E3000F087F988E700740040004402582C
:102D3800B80A002428040240440B0024100402406E
:102D4800CC0A0024014804F047BD00BFCC0A002487
:102D5800014804F041BD00BF440B002410B5054CE8
:102D6800204603F0E3FE04F58270BDE810400AF047
:102D7800BBBE00BFB80A0024164BD3F84821D3F8CD
:102D88005811022A4FEA510130B583B00CD088B2ED
:102D9800D3F85C21D3F8644102EB400300930CB1F3
:102DA8006846A04703B030BDD3F86021002AF9D0A7
:102DB80088B2D3F85C41D3F8645104EB400402EBC9
:102DC8004002CDE90042002DECD06846A84703B088
:102DD80030BD00BFB80A0024134BD3F84821022A9B
:102DE80010B582B00CD0D3F85C11D3F864210091EF
:102DF80022B1D3F8581168464908904702B010BD6F
:102E0800D3F86021002AF9D0D3F85C11D3F86441D3
:102E1800CDE90012002CF1D0D3F8581168464908C2
:102E2800A04702B010BD00BFB80A0024094BD3F870
:102E38004821022A0DD000B5D3E9581283B0019178
:102E480022B1D3F8581101A84908904703B05DF89A
:102E580004FB7047B80A00240B4BD3F84821022A18
:102E680010D0D3F8581110B5D3E95824C1F34F0343
:102E780082B0490802EB430301930CB101A8A047B3
:102E880002B010BD704700BFB80A002430B58C46A8
:102E98003A4C3B4D8DB0046004F5A27EBCE80F00AF
:102EA800AEE80F00DCF8003020462560CEF8003090
:102EB80003F04EFD0023D4F84C510393C5B11622FC
:102EC800012D049217D00022D4F85411D4F84831B7
:102ED8009142CDE9062218BF0222059233F0020280
:102EE80035D0013B012B3CD9002528460DB030BD1B
:102EF80002230493E7E7234A0093C4F80C31C4F88B
:102F08001431C4F80421C4F81C31CDE9013302F0AE
:102F1800A1FBD4F844314BF68032C4F80851002B99
:102F280008BF1346B0FBF3F304F58270C4F8103100
:102F38000AF044FC0028D8D120230290694604F501
:102F4800827000930AF088FE0028BCD0CDE703A960
:102F58000A4803F01FFE78B9D4F84831013B012B29
:102F6800C2D8102203A9054803F014FE051E18BF95
:102F7800012528460DB030BD0125B6E7B80A002462
:102F8800007400400010004070B504681D4682B00F
:102F98001046D4F84C31012B03D0D4F84831022B19
:102FA80024D1D4F85031069A002BC4F85C11C4F827
:102FB80064212B460CBF08260026C4F860010A4687
:102FC800C4F8585100212046009603F0D7FCD4F8E5
:102FD80060212B4610212046009603F0CFFC04F513
:102FE80082700AF08BFC002002B070BD012002B094
:102FF80070BD00BF10B50468D4F84C31012B09D15D
:10300800D4F8483133F0020106D0013B012B0BD92B
:10301800002010BD012010BD204603F03BFDD4F870
:103028004831013B012BF3D81021204603F032FD33
:10303800002010BD8378022B30B504468FB037D0FE
:10304800032B33D0012B31D000230A93E378012BD3
:103058002AD0022B28D000230B93002320460C9360
:1030680002F07EFC0546204602F082FC2378099097
:10307800082B13D8DFE803F01F3245586B7E91A464
:103088000500594BD3F8E02042F48072C3F8E020E1
:10309800D3F8E03003F480730893089B09A9284605
:1030A80004F0ECFE0FB030BD0B93D6E70A93CDE7E2
:1030B80011230A93CAE74C4B09A92846D3F8E02004
:1030C80042F00102C3F8E020D3F8E03003F0010336
:1030D8000093009B04F0D2FE0FB030BD424B09A90B
:1030E8002846D3F8E02042F00202C3F8E020D3F8E3
:1030F800E03003F002030193019B04F0BFFE0FB020
:1031080030BD394B09A92846D3F8E02042F0040223
:10311800C3F8E020D3F8E03003F004030293029BE5
:1031280004F0ACFE0FB030BD2F4B09A92846D3F8E8
:10313800E02042F00802C3F8E020D3F8E03003F0C2
:1031480008030393039B04F099FE0FB030BD264B90
:1031580009A92846D3F8E02042F01002C3F8E0207D
:10316800D3F8E03003F010030493049B04F086FEC8
:103178000FB030BD1C4B09A92846D3F8E02042F017
:103188002002C3F8E020D3F8E03003F020030593D1
:10319800059B04F073FE0FB030BD134B09A92846F8
:1031A800D3F8E02042F04002C3F8E020D3F8E03042
:1031B80003F040030693069B04F060FE0FB030BD99
:1031C800094B09A92846D3F8E02042F08002C3F849
:1031D800E020D3F8E03003F080030793079B04F066
:1031E8004DFE0FB030BD00BF0044025870B5064612
:1031F8000D4602F0B5FB0446304602F0B9FB2A1E24
:103208000146204618BF0122BDE8704005F03EB8CF
:103218000023122270B586B0CDE902230493036817
:10322800032B01D804230593061D841D304602F0A4
:1032380097FB0546304602F09BFB034601A928464A
:10324800019304F01BFE204602F08AFB0346204649
:103258001C4602F08DFB01A903462046019304F0A9
:103268000DFE06B070BD00BF634A0368934210B5F7
:103278008CB028D0614A934258D0614A934200F0FA
:103288009480604A934201D00CB010BD5E4C5F48F8
:10329800D4F8E03043F00203C4F8E030D4F8E0306A
:1032A80003F002030A930A9BFFF7B2FFD4F8F43045
:1032B80043F08003C4F8F430D4F8F43003F080030A
:1032C8000B930B9BE0E7504C5148D4F8E03043F0A7
:1032D8000203C4F8E030D4F8E03003F002030193AD
:1032E800019BFFF795FFD4F8E83000221F2043F434
:1032F80000131146C4F8E830D4F8E83003F400139A
:103308000293029BD4F8D83043F00103C4F8D830B4
:10331800D4F8D83003F001030393039B03F04CFA6D
:103328001F200CB0BDE8104003F084BA364C394871
:10333800D4F8E03043F08003C4F8E030D4F8E0304B
:1033480003F080030493049BD4F8E03043F00203B5
:10335800C4F8E030D4F8E03003F002030593059B8D
:10336800FFF756FFD4F8E8300022212043F4800309
:103378001146C4F8E830D4F8E83003F48003069323
:10338800069BD4F8D83043F00103C4F8D830D4F8F9
:10339800D83003F001030793079B03F00DFA2120AF
:1033A8000CB0BDE8104003F045BA1B48FFF730FFEA
:1033B800154B00224820D3F8E840114644F4000495
:1033C800C3F8E840D3F8E84004F400040894089CE3
:1033D800D3F8D84044F00104C3F8D840D3F8D83023
:1033E80003F001030993099B03F0E6F948200CB0A8
:1033F800BDE8104003F01EBA0054004000580040D9
:10340800005C0040001C005800440258AC0E002428
:10341800240C0024FC0C0024D40D00242DE9F043D6
:103428001A4B87B000254FF010099E46EC46184B02
:10343800FF22E04667461A700EF118060EF13004B6
:10344800CDE90055CDE90255ADF80090BCE80F0074
:10345800CDE90455AEE80F009CE803000095ADF8EF
:1034680000908EE80300B8E80F000FC69CE8030040
:103478000095ADF8009086E803000FCF0FC49CE8D4
:10348800030084E8030007B0BDE8F08304000024CB
:10349800200C002410B5EFF3108472B6084B1A788C
:1034A800120602D504B962B610BD1B78D8220548A9
:1034B8005BB202FB0300143004F08EF9F2E700BFA0
:1034C800200C0024240C0024014805F037BE00BF5E
:1034D800B00C0024014805F031BE00BF880D00245F
:1034E800014805F02BBE00BF600E00242DE9F04313
:1034F8000F68D8243F4D85B007FB04F4032F05EB74
:103508000403036040DCCB680E46012B3CD84DD049
:103518004FF0D808B646DFF8FC9008FB0758BEE81D
:103528000F00C446ACE80F00DEF800300DF1100EB5
:10353800CCF80030D8F808C099E80F000EE90F0061
:103548000EEB8703BCF1010F53F8103CC8F88C3020
:1035580031D0BCF1020F42D0BCF1000F35D0317C24
:103568008C34D823002201202C4403FB0753490044
:10357800C3E92602C3F894102046C3E92822C3E908
:103588002A2205F00DFB18B1012005B0BDE8F08333
:103598000146204605F0DEFD0028F5D1014620460B
:1035A80005F002FE003818BF0120EEE70B7C103B47
:1035B800672BADD9E8E702F04BF80F4B98420CBFE8
:1035C8000E4B0F4BC8F89030C9E702F041F80A4B90
:1035D80098420CBF0B4B0C4BC8F89030BFE702F079
:1035E80037F8054B98420CBF084B094BC8F8903088
:1035F800B5E700BF240C0024000E27072D0FB030BC
:103608003211D0205F4390608A62E030200BA01016
:103618001A098010B81F01082DE9F041046884B028
:103628001E46E368BDF82C80C3B90D4617468C3496
:10363800204605F08BFD2028FAD120460C9C334605
:103648003A462946CDE901840A9C009405F028FCF5
:10365800003818BF012004B0BDE8F081012004B093
:10366800BDE8F0812DE9F041046884B01E46E368A6
:10367800BDF82C80C3B90D4617468C34204605F09A
:1036880065FD2028FAD120460C9C33463A46294647
:10369800CDE901840A9C009405F0D8FA003818BFD7
:1036A800012004B0BDE8F081012004B0BDE8F0813C
:1036B800044B10221A7483F8E82083F8C02183F899
:1036C80098227047240C002430B5002395B04FF49D
:1036D8008071062204460B9306921393CDE90C13CE
:1036E800CDE90E33CDE9113301F0B6FF07282BD011
:1036F80004F1100541F2883206A9284606F066FB57
:1037080028B10123184684F85C3015B030BD022278
:10371800022306A92846CDE9002310220123CDE97A
:10372800022300224FF48003CDE9042305224FF041
:10373800807306926A460F9341F2883306F0B2FC12
:103748000028DED115B030BD0323012084F85C3099
:1037580015B030BD0000000070B50023A4B04FF0D4
:1037680080724FF480750446ADF806300D93CDE9AC
:1037780010320122CDE90E53CDE91223CDE91433DD
:10378800002943D0F02300F1100508AEADF806304B
:10379800C02341F2883231462846089306F016FBCA
:1037A80028B10123184684F85C3024B070BD41F27A
:1037B80088320DF10601284606F072FB0346002800
:1037C800EFD105224FF480711E93284616924FF0D0
:1037D80080721B9321931F9202AA9FED1F7BCDE954
:1037E8001C13CDE922338DED027B9FED1D7B41F249
:1037F800883316A98DED047B9FED1B7B8DED067B31
:1038080006F050FC0028CCD124B070BD00F11005A2
:1038180008AE612341F2883231462846089306F003
:10382800D5FA0028BDD141F288320DF106012846AB
:1038380006F0B4FB0028B4D1BDF80630204623F0CA
:10384800780343F04003ADF80630FFF73DFF00284A
:103858009ED0A6E7AFF30080000000000100000042
:1038680010000000010000000000000000004000FF
:103878002DE9F04F00234FF4807501264FF0807832
:1038880004462DED028BABB08DF8073013932193CE
:10389800299314950E96CDF85C80CDE91533CDE9C2
:1038A8001863CDE91A33CDE92253CDE92433CDE9A4
:1038B800273306231C9301F0CFFE072808D004F114
:1038C800100741F288321CA9384606F07FFA40B149
:1038D8000123184684F85C302BB0BDEC028BBDE8A0
:1038E800F08F4FF0020A4FF0020B4FF0050941F23A
:1038F800883308AA1CA93846CDF89480CDF8709072
:103908009FED2D8BCDE908AB4FF0000A4FF4800BEB
:103918008DED0A8BCDE90CAB06F0C4FB0028D7D19E
:1039280041F2883238460EA906F050FA0028CFD165
:10393800402341F288320DF1070138468DF80730EF
:1039480006F0AEFA0028C3D141F288330EA902AAC4
:103958003846CDF83890CDF85C809FED197B8DED19
:10396800048BCDE906AB8DED027B06F09BFB03468D
:103978000028ADD1CDF870904FF00109CDF89480B2
:103988004FF00008219308AA29931CA938462295CC
:10399800CDE92333CDE9273341F288338DED0A8B06
:1039A800CDE90CABCDE9088906F07CFB002893D063
:1039B800304684F85C608FE71000000001000000CA
:1039C80040000000400000002DE9F043624CA3B025
:1039D8000D46046001F040FE072800F0A980286821
:1039E80023466968AA6807C31E46AB8926F8043BC4
:1039F8003046257B677B06F0CBF9E0B9574B012DA4
:103A08004FF00108E061236114BF4FF480134FF4B5
:103A18000003C4E9058893FAA3F3B3FA83F34FF4D8
:103A28008079013BC4F82490C4E90B003046236236
:103A380006F042F938B10122134684F85C20184692
:103A480023B0BDE8F08366230B90139041F28832CF
:103A580006A90693CDE90C90CDE90E00CDE9110039
:103A6800304606F0B3F90028E5D1992341F28832AF
:103A780006A93046069306F0A9F90028DBD10523EC
:103A88001C9019906A4614934FF08073219014A9E2
:103A98001D9341F288339FED2A7BCDE91A90CDE939
:103AA8001F008DED007B9FED287B30468DED027B5E
:103AB8009FED277B8DED047B06F0F4FA0028BAD140
:103AC80029462046FFF748FE0028B4D12046FFF7D4
:103AD800CFFE03460028AED1002FB0D11893304650
:103AE8000027002606AA14A9CDF86890CDE91F334F
:103AF800EB2314934FF440631B934FF40053179335
:103B08004FF440431C93A0231693062319934FF0B8
:103B1800805321934FF04073CDE906671D9306F05B
:103B280039FB034600288AD0434684F85C8086E740
:103B380001230322184684F85C2023B0BDE8F083F3
:103B4800000000000100000010000000010000005B
:103B58000000000000004000840F002400500052C4
:103B68002DE9F04F8FB0414B0024026800AF9A4214
:103B78007C63C7E90944C7E90B4403D03C37BD4619
:103B8800BDE8F08F3A4B40F609213A48EB46D3F8A6
:103B9800D42007F11C0607F1220A4FF0020942F46B
:103BA80080424FF00308C3F8D420D3F8D42002F49D
:103BB8008042BA60BA68D3F8E02042F04002C3F805
:103BC800E020D3F8E02002F04002FA60FA68D3F867
:103BD800E02042F02002C3F8E020D3F8E02002F011
:103BE80020023A613A69D3F8E02042F01002C3F8A3
:103BF800E020D3F8E02002F010027A617A69D3F865
:103C0800E02042F00202C3F8E020D3F8E030F86187
:103C180003F002033984BB61174B7B60BB697B6887
:103C280053F8040F7B6001F09BFE7B68054618681B
:103C380001F09EFE16F8013B786207F12401284640
:103C4800C7F830807B63C7E90A9404F017F9564532
:103C5800E5D100225C20114602F0AEFD5C2002F0A6
:103C6800E9FD3C37DD46BD46BDE8F08F0050005207
:103C7800004402580A0A0909E00F0024114B02689F
:103C88009A4200D07047104A70B5D2F8D4300F4C21
:103C980023F4804304F11806C2F8D43054F8040F12
:103CA80001F05EFE0546206801F062FE01462846E6
:103CB80004F024FAB442F1D15C20BDE8704002F06F
:103CC800C7BD00BF0050005200440258E00F002456
:103CD800014806F0EBBA00BF940F0024084B1A1DE8
:103CE800981D03F1080110B49C1C9A6603F10A029E
:103CF800C3E91834C3E91B015DF8044B5A677047E0
:103D0800840F002438B5036871B9026A00F12805E8
:103D180000F5AC74012A0CBF002140218BBB1D4B60
:103D28005722C0F858310DE0426A00F1C00500F58D
:103D3800E874012A0CBF00214021EBB1164B5A222E
:103D4800C0F8D03100232046C4E901214FF4805245
:103D58004FF48061636262614FF48042C4E90331C9
:103D68004FF48073C4E906234FF40033236203F051
:103D7800ADF858B1FFBEFEE7084B5822C0F8D03165
:103D8800E0E7074B5922C0F85831DBE7C5E9204482
:103D9800A56338BD100002407000024028000240B0
:103DA800580002402DE9F043821D05468BB0031DE3
:103DB80005F10A010830CDE9052305F10C02AB69CC
:103DC800CDE907010992002B3DD0EB69B3FA83F8DE
:103DD8004FEA58180123022205AE0AAF4FF0060930
:103DE8000393CDE9012356F8044B2B7922789342AB
:103DF80016D02B68F3B1012B02D1F2B10A23049338
:103E0800204601F0B5FD03462046009301F0A8FDC9
:103E1800694604F033F8BE42E5D10BB0BDE8F08343
:103E2800697963789942E4D1B8F1000FF3D02B682F
:103E3800002BE0D1CDF81090E2E76378022B14BF95
:103E48000A230823DBE74FF00108C3E7534A036856
:103E5800934230B505468BB055D02032934252D0AC
:103E68004F4A934204D02032934201D00BB030BD68
:103E78004C4C4D48D4F8E03043F00103C4F8E0302E
:103E8800D4F8E03003F001030593059BD4F8E03043
:103E980043F00803C4F8E030D4F8E03003F0080336
:103EA8000693069BD4F8E03043F04003C4F8E030B2
:103EB800D4F8E03003F040030793079BD4F8F030C0
:103EC80043F40003C4F8F030D4F8F03003F40003EE
:103ED8000893089BFFF766FFD4F8D830296843F0A9
:103EE80001032F4A3048C4F8D830891AD4F8D8309A
:103EF80018BF012103F001030993099B0BB0BDE82A
:103F08003040FFF7FFBE274C2848D4F8E03043F094
:103F18000103C4F8E030D4F8E03003F00103009363
:103F2800009BD4F8E03043F01003C4F8E030D4F834
:103F3800E03003F010030193019BD4F8E03043F024
:103F48004003C4F8E030D4F8E03003F040030293B3
:103F5800029BD4F8F03043F48003C4F8F030D4F86E
:103F6800F03003F480030393039BFFF71BFFD4F89F
:103F7800D830296843F00103084A0C48C4F8D830FF
:103F8800891AD4F8D83018BF012103F0010304932B
:103F9800049B0BB0BDE83040FFF7B4BE04580140A5
:103FA800045C01400044025858120024FC0F00240D
:103FB800014803F011BC00BF54110024014803F06C
:103FC8000BBC00BFCC110024014803F005BC00BFA6
:103FD800B0130024014803F0FFBB00BF28140024DD
:103FE8001A4A0368934210B40BD02032934208D087
:103FF800174A934216D02032934213D05DF8044BEF
:104008007047144B0022D3F85442C3F85822002CAE
:10401800F4D0D3F84802D3E9931223465DF8044B51
:10402800520818470B4B0022D3F8B044C3F8B42405
:10403800002CE3D0D3F8AC24D3F8A814D3F8A40404
:10404800520823465DF8044B184700BF0458014046
:10405800045C0140FC0F0024184A0368934210B422
:104068000BD02032934208D0154A934217D0203201
:10407800934214D05DF8044B7047124BD3E9942453
:104088005208C3F85822002CF4D0D3E992012346F1
:1040980001EB820100EB82005DF8044B1847094BE5
:1040A800D3F8AC24D3F8B0445208C3F8B424002C95
:1040B800E0D0D3F8A814D3F8A404E8E704580140E2
:1040C800045C0140FC0F00242DE9F04F0C684FF40C
:1040D8001776754F87B004FB06F6012C07EB060A26
:1040E800C0F800A000F3A0800D468E464FF00008EF
:1040F800D44669A3D3E9002369A1D1E90001CDE938
:10410800022306ABCAF8508203EB8403CDE904010D
:1041180053F810BC53F8083CCAE992880193BEE8EA
:104128000F00ACE80F00BEE80F00ACE80F00019BE1
:104138009EE80300CAF828B0CAF8C0308CE803002B
:104148002B69042B0CD8DFE803F0737D87910300FB
:104158004FF41773554A03FB04739A64C3F8E020BD
:10416800AA692B6A002A43D0002B4FF4177308BFA3
:10417800022203FB047318BF0322DA6201221A63C6
:10418800EA696B6A002A40D1191E4FF4177318BFE9
:10419800012103FB0473C3E931126B69022B05D8B3
:1041A800434A12F80380434A52F823904FF4177396
:1041B80006F128004246494603FB047400233844AC
:1041C80063646363E365C4F8DC30C4F8CC30C4F8D6
:1041D800F430C4E90F33C4E91533C4E93533C4E90D
:1041E8003B33022308F004F9002849D0FFBEFEE75C
:1041F800191E4FF4177318BF012103FB0473C3E999
:104208000B12EA696B6A002ABED0002B4FF41773B1
:1042180008BF022203FB047318BF0322C3F8C4209B
:104228000122C3F8C820B8E7012007B0BDE8F08F25
:104238004FF417734FF4FA5203FB04739A64C3F8EC
:10424800E0208DE74FF417734FF47A5203FB0473A1
:104258009A64C3F8E02083E74FF417734FF4FA42E7
:1042680003FB04739A64C3F8E02079E74FF41773EB
:104278004BF6803203FB04739A64C3F8E0206FE7BF
:1042880006F1C000022342464946384408F0B0F817
:104298000028CAD0FFBEFEE704580140045C014074
:1042A80024580140245C0140FC0F002400770100E1
:1042B800A4200108A82001080068704770B50468A8
:1042C80082B015460E46C4F85032C4E99212069AD6
:1042D800C4F85422A269012A26D0626A012A9AB235
:1042E80011D0294604F1C000019208F03DF9236A73
:1042F800019A012B10D0294604F1280008F034F95E
:10430800002002B070BD04F1C000019208F0BEF9AF
:10431800236A019A012BEED1314604F1280008F0F6
:10432800B5F9002002B070BD226A012A9AB211D0F4
:10433800294604F12800019208F016F9636A019AE7
:10434800012B10D0294604F1C00008F00DF9002017
:1043580002B070BD04F12800019208F097F9636A71
:10436800019A012BEED1314604F1C00008F08EF914
:10437800002002B070BD00BF03681B69042B05D87C
:10438800044A02EB830393ED000A70479FED020A8B
:10439800704700BFB420010800803B470368D3F88A
:1043A8005802704770B5002304464FF48062042118
:1043B8004FF440353448C4F83821C4F8D410C4F850
:1043C8003431C4F84C113149C4F8B000C4F828118C
:1043D800C4E92F32C4E93133C4E93335C4E937338A
:1043E800C4E94F33C4E95135C4E95533A2680323FE
:1043F800C4F8D830C4F85031042A0AD8DFE802F0EB
:104408001F262D34030055225623C4F8B420C4F8BF
:104418002C310022402304F1B005C4F8B820284606
:10442800C4F8303102F052FD08B1FFBEFEE704F5D2
:104438009476304602F04AFDE8B1FFBEFEE7252239
:104448002623C4F8B420C4F82C31E2E72722282315
:10445800C4F8B420C4F82C31DBE73D223E23C4F86D
:10446800B420C4F82C31D4E753225423C4F8B42020
:10447800C4F82C31CDE704F12803C4E92865C4F851
:10448800E830C4F8603170BD40040240580402406E
:104498002DE9F04F814683B00E4617461D4600F1C0
:1044A8002804204609F086F901288246F9D14846B1
:1044B800FFF778FF8046002835D1EFF3108301938A
:1044C80072B6DFF888B00C9B99F90820DFF880A055
:1044D800DFF88090CBF800300D9B89F80020CAF8EF
:1044E80000300DB11846A847BAB23146204608F048
:1044F800D7FC30B9019B03B962B6404603B0BDE8AA
:10450800F08F0023CBF80030CAF80030FF2389F879
:1045180000300C9B8BB101210D9888469847019B70
:10452800002BEAD1E8E70C9B53B1D0460D985146D1
:104538009847404603B0BDE8F08F4FF00108D9E72F
:10454800D046404603B0BDE8F08F00BFD41E00241B
:10455800DC1E0024D81E00242DE9F04F814683B0CC
:104568000E4617461D4600F12804204609F022F998
:1045780001288246F9D14846FFF714FF80460028F3
:1045880035D1EFF31083019372B6DFF888B00C9B36
:1045980099F90820DFF880A0DFF88090CBF8003088
:1045A8000D9B89F80020CAF800300DB11846A847BD
:1045B800BAB23146204608F037FE30B9019B03B93C
:1045C80062B6404603B0BDE8F08F0023CBF8003058
:1045D800CAF80030FF2389F800300C9B8BB1012109
:1045E8000D9888469847019B002BEAD1E8E70C9B79
:1045F80053B1D0460D9851469847404603B0BDE8A0
:10460800F08F4FF00108D9E7D046404603B0BDE827
:10461800F08F00BFD41E0024DC1E0024D81E002406
:104628002DE9F04F814683B00F461646984600F1B3
:104638002804204609F0BEF80128FAD182464846E7
:10464800FFF7B0FE0546002838D1EFF31083019339
:1046580072B699F90830DFF88890DFF888B089F8E1
:1046680000300D9BDFF880A0CBF800300E9BCAF815
:1046780000300C9B0BB10E9898471FFA88F33A4606
:104688003146204608F0C4FC30B9019B03B962B634
:10469800284603B0BDE8F08F0023CBF80030CAF8F5
:1046A8000030FF2389F800300D9B8BB101210E9853
:1046B8000D469847019B002BEAD1E8E70D9B4BB1CB
:1046C80055460E9851469847284603B0BDE8F08FE6
:1046D8000125DAE75546284603B0BDE8F08F00BF4C
:1046E800D81E0024D41E0024DC1E00242DE9F0432B
:1046F800002387B00222044605690493CDE902230A
:10470800D0E902128E00FAB1022D7AD02178B5FADA
:1047180085F54FF00108276A0B294FEA551521D175
:10472800A2780B2A02D0B8F1000F38D123790B2BCD
:1047380001D0002D6CD1A37917B10B2B40F09980D3
:10474800002007B0BDE8F08335F002032178276A1E
:104758000CBF4FF001084FF00008023D18BF0125BB
:104768000B29DDD07D4B94F801C053F82620107832
:104778000B2802D0884200F0AD80D378D01C994233
:1047880002D10B2B40F0BD809379901D8B4202D152
:104798000B2B40F0BC80012007B0BDE8F083711CF2
:1047A8006E4BE07853F8213019780B2902D08A42F1
:1047B80000F0B580D97803F1030C0B2902D08A42A6
:1047C80000F0BB80997903F1060C0B29E3D08A42EB
:1047D800E1D1DB798342DED1634604F102099B789B
:1047E8004846059301F0BCF88046484601F0C0F8F9
:1047F80001A90190404603F041FB23790B2B98D186
:1048080099E70178076A0B2940F0868001258DE732
:10481800B11C524A607952F8212011780B2902D034
:104828008B4200F08180D178D51C0B2902D08B42B5
:1048380000F08D809179951D8B42ACD10B29AAD0BF
:10484800D3798342A7D12A46251D93782846059314
:1048580001F086F8034628461D4601F089F801A9AB
:104868000190284603F00AFBA379002F7FF465AF77
:1048780066E7F11C394AE07952F8212011780B29B2
:1048880001D08B425FD0D178D51C0B2901D08B4247
:104898004FD09179951D8B427FF47DAF0B293FF462
:1048A8007AAFD37983427FF476AF2A46A51D9378F1
:1048B8002846059301F054F80446284601F058F8B4
:1048C800034601A92046019303F0D8FA002007B057
:1048D800BDE8F083537863457FF44FAF9378204663
:1048E800059301F03DF88146204601F041F801A901
:1048F8000190484603F0C2FAA2780B2A7FF413AF5E
:1049080014E7137963457FF43FAF0246E6E7D379AE
:1049180063457FF440AFF8E79846012522E75978C8
:1049280081427FF447AF58E7517881427FF47BAFEB
:104938008AE711798142ACD1B7E7197981427FF4CE
:1049480041AF634649E7517881429CD1AEE711797E
:1049580081427FF46FAF2A4676E700BFF020010856
:10496800654A0368934200F0B980A2F57842934201
:1049780000F0B68002F58062934200F0B38002F541
:104988007842934200F0B08002F5E052934200F082
:10499800AD805A4A934240F0AB8005234FF4D07162
:1049A800574A01FB03F310B5D418D05C86B000F069
:1049B800E7FFA07800F0E4FF207900F0E1FFA0799C
:1049C80000F0DEFFA368052B11D8DFE803F0192FEC
:1049D800455B71034B4BD3F8F42042F02002C3F837
:1049E800F420D3F8F43003F020030593059B204608
:1049F800FFF77CFE012801D006B010BDFFBEFEE720
:104A0800404B00222320D3F8F01041F48051C3F822
:104A1800F0101146D3F8F03003F480530093009B54
:104A280001F0CAFE232001F005FFE0E7354B002224
:104A38002420D3F8E81041F48041C3F8E810114667
:104A4800D3F8E83003F480430193019B01F0B4FEEE
:104A5800242001F0EFFECAE72A4B00223320D3F8C6
:104A6800E81041F40041C3F8E8101146D3F8E830E3
:104A780003F400430293029B01F09EFE332001F0F1
:104A8800D9FEB4E71F4B00225420D3F8F01041F4AC
:104A98000051C3F8F0101146D3F8F03003F4005376
:104AA8000393039B01F088FE542001F0C3FE9EE7A8
:104AB800144B00225520D3F8F01041F48011C3F8AC
:104AC800F0101146D3F8F03003F480130493049BDC
:104AD80001F072FE552001F0ADFE88E700235DE786
:104AE80001235BE7022359E7032357E7042355E72C
:104AF80000231B78FFDE00BF00300140001400587F
:104B0800B4140024004402582DE9F043002289B06F
:104B18001B4B01210DF1040C9E461A4B0791E146EF
:104B2800E04667460EF11C060EF138050EF15404F6
:104B3800CDE90122CDE90322CDE90522FF221A7031
:104B4800BCE80F00AEE80F009CE807008EE80700FD
:104B5800B9E80F000FC69CE8070086E80700B8E828
:104B68000F000FC59CE8070085E807000FCF0FC4AA
:104B78009CE8070084E8070009B0BDE8F08300BF9F
:104B88000C010024D81E0024014808F0E7BC00BF2F
:104B9800DC140024014808F0E1BC00BF7C160024A6
:104BA800014808F0DBBC00BF1C180024014808F0CD
:104BB800D5BC00BFBC190024014808F0CFBC00BF19
:104BC8005C1B002410B5EFF3108472B6084B1A78FA
:104BD800120602D504B962B610BD1B784FF4D07224
:104BE80004485BB202FB0300B03002F0F5FDF1E7C8
:104BF800D81E0024B414002410B5EFF3108472B644
:104C0800094B1A78120602D504B962B610BD1B7892
:104C18004FF4D07205485BB202FB030000F59470B4
:104C280002F0DAFDF0E700BFD81E0024B414002417
:104C38002DE9F04184B0EFF3108772B6284AFF21BE
:104C4800284C1368217023B100211160264A10688E
:104C5800984723781B061CD5DFF894800025234E3F
:104C68004446216879B162686AB1A369012B22D0F0
:104C7800A3B963693046019323690093E3682289E5
:104C8800FFF76AFC18B301351C3406F5D076042DFD
:104C9800E7D107B962B604B0BDE8F081D4E90430C1
:104CA800CDE90130E068238900903046FFF7B8FC71
:104CB8000028E8D10BE0D4E904301146CDE90030F2
:104CC8003046E3682289FFF7E3FB0028DBD1C5EB18
:104CD800C50508EB850348F825005860D9E700BFEB
:104CE800D41E0024D81E0024DC1E0024B414002482
:104CF8000C0100242DE9F04184B0EFF3108772B65F
:104D0800284AFF21284C1368217023B10021116023
:104D1800264A1068984723781B061CD5DFF894802C
:104D28000025234E4446216879B162686AB1A369B7
:104D3800012B22D0A3B963693046019323690093FC
:104D4800E3682289FFF708FC18B301351C3406F51F
:104D5800D076042DE7D107B962B604B0BDE8F0817A
:104D6800D4E90430CDE90130E06823890090304669
:104D7800FFF756FC0028E8D10BE0D4E904301146CF
:104D8800CDE900303046E3682289FFF781FB00282F
:104D9800DBD1C5EBC50508EB850348F8250058604D
:104DA800D9E700BFD41E0024D81E0024DC1E00242E
:104DB800B41400240C0100242DE9F04184B0EFF371
:104DC800108772B6284AFF21284C1368217023B136
:104DD80000211160264A1068984723781B061CD5C5
:104DE800DFF894800025234E4446216879B1626833
:104DF8006AB1A369012B22D0A3B963693046019334
:104E080023690093E3682289FFF7A6FB18B30135ED
:104E18001C3406F5D076042DE7D107B962B604B084
:104E2800BDE8F081D4E90430CDE90130E068238998
:104E380000903046FFF7F4FB0028E8D10BE0D4E9F6
:104E480004301146CDE900303046E3682289FFF787
:104E58001FFB0028DBD1C5EBC50508EB850348F827
:104E680025005860D9E700BFD41E0024D81E0024AE
:104E7800DC1E0024B41400240C0100242DE9F041A8
:104E880084B0EFF3108772B607F0D2FD284A294C98
:104E9800FF21136821702BB1002111600121264ADE
:104EA8001068984723781B061CD5DFF894800025E6
:104EB800224E4446216879B162686AB1A369012B20
:104EC80022D0A3B963693046019323690093E3684C
:104ED8002289FFF741FB18B301351C3406F5D0765B
:104EE800042DE7D107B962B604B0BDE8F081D4E972
:104EF8000430CDE90130E068238900903046FFF79F
:104F08008FFB0028E8D10BE0D4E904301146CDE945
:104F180000303046E3682289FFF7BAFA0028DBD16F
:104F2800C5EBC50508EB850348F825005860D9E7A7
:104F3800D41E0024D81E0024DC1E0024B41400242F
:104F48000C0100242DE9F0418F684FF4D0743D4ED8
:104F58008C4607FB04F4052F06EB04050560AE46F6
:104F6800BCE80F00AEE80F00BCE80F00AEE80F0089
:104F78009CE803008EE8030004D8EB68002B5ED0A1
:104F8800012B02D00120BDE8F08100214FF4D0733D
:104F980003FB07631A69032AF4D8D3F814C0ACF1E9
:104FA80004001C28EED89B691BB1012BEAD14FF0F5
:104FB80000734FF4D07000FB0760C06918B1012876
:104FC800E0D14FF080704FF4D07505FB0765D5F838
:104FD80020E0BEF1020FD5D8D5F82480B8F1070F2C
:104FE800D0D85204E962C5E90E300CF1FF332A63C8
:104FF80004F128006B634FEA087330446B640023A4
:10500800C5E91233C5E91433C5E91833C5E91A33BC
:10501800C5E91C33C5E91E33C5F880300A4B53F87F
:105028002E200A4B2A6453F82730AB624FF0804396
:10503800EB6507F0FDFC0028A5D0FFBEFEE74FF4A6
:105048008001A3E7B4140024E0200108C820010867
:10505800006892B208B5283007F098FD003818BFEC
:10506800012008BD30B4544B002108220220534CC3
:10507800D9615862C3F8BC11C3F8C401C3F85C1302
:10508800C3F86403C3F8F424C3F8F814C3F8FC1491
:10509800C3F80405C3F89426C3F89816C3F89C16F9
:1050A800C3F8A406C3F83428C3F83818C3F83C1862
:1050B800C3F84408424D4348C3E90521C3E96D21BB
:1050C800C3E9D5212288A3783F49EA80CA800B72B8
:1050D8003E492B72CA800B722168A0F803204371E5
:1050E800C28003723A4C3B48E2802372A0F8032046
:1050F800394C4371C28003723848E2802372A0F8A9
:105108000320374C4371C2800372080C2180A070C1
:10511800A4F803206371E2802372324C324D21805F
:10512800A070A4F803206371E28023722F4CEA80F8
:1051380021802B72A070A4F803206371E28023728F
:105148002B4C2180A070A4F803206371E2802372A5
:10515800284C2180A070A4F803206371E280237298
:10516800254C2180A070A4F803206371E28023728B
:10517800224C2180A070A4F803206371E28023727E
:105188001F4C21801F49A070A4F803201E4863719A
:10519800E2802372A1F803201C4C4B71CA800B7269
:1051A8001B49E2802372C2800372A1F803204B716D
:1051B800CA800B7230BC7047B4140024EC2001087C
:1051C80094000024B8000024880000244C00002427
:1051D800A0000024DC000024C40000246400002493
:1051E800A41E00248C1E0024D0000024981E002435
:1051F800741E0024C81E0024B01E0024BC1E0024F7
:10520800801E002400010024F4000024E80000248B
:1052180070000024704700BF08B500F0B1FCBDE87D
:10522800084001F091BB00BF064808B503680BB100
:1052380003F030F8044803681BB1BDE8084003F0E8
:10524800DFBF08BDF0220024E81E0024064808B588
:1052580003680BB103F01EF8044803681BB1BDE8EE
:10526800084003F0CDBF08BDF0220024E81E00244A
:10527800064808B503680BB103F00CF80448036846
:105288001BB1BDE8084003F0BBBF08BDF0220024F5
:10529800E81E0024364BDA6A520062D59A6A9A6A86
:1052A8009A6A9B6A180600D500BE314B9B6A99061C
:1052B80000D500BE2E4B9B6ADA0600D500BE2C4BEB
:1052C8009B6A1B0700D500BE294B9B6A980700D52F
:1052D80000BE274B9B6AD90700D500BE244B9B6AAA
:1052E8001A0400D500BE224B9B6A9B0400D500BE61
:1052F8001F4B9B6AD80400D500BE1D4B9B6A19053D
:1053080000D500BE1A4B9B6A5A0500D500BE184B43
:105318009B6A9B0500D500BE154B9B6AD80500D536
:1053280000BE134B9B6A990100D500BE104B9B6AC7
:10533800DA0100D500BE0E4B9B6A1B0300D500BEE8
:105348000B4B9B6A580300D500BE094B9B6A990317
:1053580000D500BE064B9B6ADA0306D400BE00BE29
:10536800FEE7DB6A9B07FAD5F8E700BEF6E700BF61
:1053780000ED00E000F010BC00F014BC2DE9F04195
:10538800CEB004464C2200210AA80CF0EDFD2022E4
:10539800002102A80CF0E8FDBC2200211EA80CF098
:1053A800E3FD022004F0A0FB2368012B4FF000036B
:1053B80054D0534A02250193C820D16A514B21F099
:1053C8000101D162D26A02F0010201929A6942F4A3
:1053D80040429A619B6903F440430193019B494A07
:1053E80093699B04FCD548490224002201268B6A54
:1053F80004274FF0080823F0030323438B62052397
:1054080016900AA818934FF480331096179419949D
:105418001597CDF86880CDE91B222122CDE91344E8
:10542800CDE90A2305F04AF800B1FEE73F2203233D
:10543800294602A8CDE9022300220823CDE9042346
:1054480040224023CDE9062340234FF48062CDE972
:10545800082305F061FB0346B8B1FEE7294A042595
:105468000093F0209169264B41F440419161926983
:1054780002F440420092DA6A42F00102DA62DB6A20
:1054880003F001030093009BA9E720224FF4805109
:1054980025934FF440152B9280222D931EA830930C
:1054A800269135914FF48071249234920C223394D2
:1054B800439140F2271120921022CDF884802A9738
:1054C8001F96CDE92E34CDE93B334FF48033CDE937
:1054D80022463193002446930623CDE93E4527937F
:1054E8004FF48063094C2C931E94CDE9281205F0E3
:1054F8006FFD00B1FEE704F01DFB4EB0BDE8F08182
:105508000004005800480258004402580F130F03C3
:105518002DE9F0410D46044684B0D1E9000184E844
:10552800030000F0FDFAAE79002E37D06F460AF07E
:10553800F1FEFDF773FFFFF7E7FA0AF075FC2B7928
:10554800002B54D16B799BB1BFF34F8FBFF36F8F93
:105558003C4B0022C3F85022BFF34F8FBFF36F8F2D
:105568005A6942F400325A61BFF34F8FBFF36F8F0D
:105578004FF0FF32002300240025394632480292BA
:105588008DF80C30CDE9004509F0B4FF2E480AF03B
:1055980019F809F067FE04B0BDE8F08120466F46AF
:1055A800FFF7ECFE012401F07DF94FF040534FF472
:1055B800807838460193254BADF80040CDE9023894
:1055C80001F08EF919224FF0404338468DF80F400C
:1055D800ADF80D808DF801408DF80A608DF808202F
:1055E800019301F07DF9042001F06AF99FE7154C59
:1055F8000023C4F88430BFF34F8FD4F8803043F6CB
:10560800E07EC3F3C906C3F34E334FEA431C0CEAEA
:105618000E00334640EA8372013BC4F860225A1CEC
:10562800F8D1ACF1200C1CF1200FF0D1BFF34F8F53
:10563800636943F480336361BFF34F8FBFF36F8FA8
:1056480080E700BF00ED00E0E01E00240E0001032B
:1056580005F092BB05F0ACBB1C4B9B6803F178428C
:10566800B2F5003F25D3B3F5803F20D303F1604264
:10567800B2F5003F1FD303F15C42B2F5002F1CD3F3
:1056880003F17042B2F5902F19D303F14842B2F5F5
:10569800803F16D303F18042B2F1806F13D303F138
:1056A800E043B3F5000F2CBF082007207047012006
:1056B800704700207047022070470320704704207D
:1056C8007047052070470620704700BF00ED00E0D6
:1056D80003480023034A044903600CF0FFBB00BFE2
:1056E800E01E0024000000241D52000810B4204CC5
:1056F8000022204B83B0D4F888101F4841F4700171
:10570800C4F8881019681D4C41F0010119601A612C
:10571800196808401A4918609A61DA611A629A622F
:10572800DA621A635A639A63DA631A645A64186805
:1057380020F4802018601A66D3F8DC2042F060421A
:10574800C3F8DC20D3F8DC300193019B23681940AF
:10575800B1F1005F03D20B4B0122C3F80821044BBF
:105768004FF000629A6003B05DF8044B704700BFC9
:1057780000ED00E0004402587FEDF6EA0010005CFE
:105788000000FFFF0080005100F57171D0F804049B
:1057980009F050B9C1EBC10300EB8303D0F804044E
:1057A800D3F8082209F074B9C1EBC10300EB8303F5
:1057B800D0F804049A6C09F0A9B900BFD0F8040421
:1057C80009F048BAC16810B5044619B1022900D0D9
:1057D800FEE70121D4F8040409F026FAD4F80404F9
:1057E800BDE8104009F0F8B910B50446D0F8040433
:1057F80009F01EFA2268D2F8003E43F00103C2F80D
:10580800003E236A23B1034A136943F00603136178
:1058180010BD00BF00ED00E0D0F8040409F012BA92
:10582800D0F8040409F026BAD0F8040409F020BA24
:10583800D0F8040409F020BAD0F8040409F01EBA1C
:105848009446D0F898021A4608B5634604F03CF826
:10585800032802D8024B185C08BD022008BD00BF0F
:1058680060210108D0F8980208B504F0BBF80328B5
:1058780002D8024B185C08BD022008BD602101084F
:10588800D0F8980208B504F0F1F8032802D8024BC2
:10589800185C08BD022008BD602101080A06D0F87E
:1058A800983206D4C1EBC10103EB810191F8FE01E6
:1058B800704701F07F01C1EBC10103EB810191F851
:1058C8003E007047D0F8980208B503F0E7FF0328B8
:1058D80002D8024B185C08BD022008BD60210108EF
:1058E800D0F8980208B504F055F8032802D8024BFE
:1058F800185C08BD022008BD60210108D0F8980294
:1059080008B504F01FF8032802D8024B185C08BD3C
:10591800022008BD60210108D0F8C00209F05CBC73
:10592800D0F8C00209F070BCD0F8C00209F078BC09
:10593800704700BFD0F8C00209F05EBCD0F8C002C2
:1059480009F05EBCD0F8D00308B503F063F803286B
:1059580002D8024B185C08BD022008BD642101086A
:10596800024B027853F82200704700BF88210108D3
:10597800024B427833F81200704700BF68210108D3
:105988008CB00A2814D8DFE800F01523313F4D5BAE
:105998006977859306004D4BD3F8E02042F4806286
:1059A800C3F8E020D3F8E03003F480630B930B9B3B
:1059B8000CB07047454BD3F8E02042F00102C3F821
:1059C800E020D3F8E03003F001030193019BEFE7F7
:1059D8003E4BD3F8E02042F00202C3F8E020D3F8AF
:1059E800E03003F002030293029BE1E7374BD3F860
:1059F800E02042F00402C3F8E020D3F8E03003F0DE
:105A080004030393039BD3E7304BD3F8E02042F021
:105A18000802C3F8E020D3F8E03003F00803049349
:105A2800049BC5E7294BD3F8E02042F01002C3F8E5
:105A3800E020D3F8E03003F010030593059BB7E7A7
:105A4800224BD3F8E02042F02002C3F8E020D3F83C
:105A5800E03003F020030693069BA9E71B4BD3F81D
:105A6800E02042F04002C3F8E020D3F8E03003F031
:105A780040030793079B9BE7144BD3F8E02042F0C1
:105A88008002C3F8E020D3F8E03003F080030893E5
:105A9800089B8DE70D4BD3F8E02042F48072C3F8E1
:105AA800E020D3F8E03003F480730993099B7FE783
:105AB800064BD3F8E02042F40072C3F8E020D3F894
:105AC800E03003F400730A930A9B71E7004402581C
