:020000040800F2
:1000000000000220010A0008FD09000875BB000875
:10001000FD090008FD090008FD09000800000000B6
:10002000000000000000000000000000FD090008C2
:10003000FD09000800000000FD090008F9BA0008E9
:10004000FD090008FD090008FD090008FD09000878
:10005000FD090008FD090008FD090008FD09000868
:10006000FD090008FD090008FD09000891A8000825
:100070009DA8000859930008A9A80008B5A8000881
:10008000F1690108799D0008FD090008FD090008D3
:10009000FD090008FD090008FD090008FD09000828
:1000A000FD090008FD090008FD090008FD09000818
:1000B000B15D0108BD5D0108C95D0108AD9D000885
:1000C000FD090008B99D0008FD09000869B4000891
:1000D00075B4000825680108556801088968010899
:1000E000FD090008FD09000800000000FD090008E6
:1000F000FD090008FD090008FD090008FD090008C8
:10010000FD090008FD090008D55D010881B400085B
:10011000BD680108F168010825960008FD0900087E
:100120000D96000819960008A5B40008D9B4000877
:10013000256A0108FD090008FD090008FD090008FD
:1001400000000000000000000000000000000000AF
:10015000FD090008FD090008FD09000825690108DE
:10016000C59D0008FD09000809BB00082DBB00085B
:10017000FD09000851BB0008FD090008FD09000841
:10018000FD090008FD09000859690108896901088D
:100190008DB4000899B40008FD090008FD090008A5
:1001A000FD090008FD090008FD090008FD09000817
:1001B000B1A50008FD090008FD090008FD090008B7
:1001C000FD090008FD090008FD090008FD090008F7
:1001D000FD090008FD090008FD090008FD090008E7
:1001E000FD090008FD090008FD090008FD090008D7
:1001F000FD090008FD090008FD090008FD090008C7
:10020000FD090008FD090008FD090008FD090008B6
:10021000FD090008FD090008FD090008FD090008A6
:10022000FD090008FD090008FD09000800000000A4
:10023000FD090008FD09000800000000FD09000894
:10024000FD090008FD090008FD090008FD09000876
:10025000FD090008FD090008FD090008FD09000866
:10026000FD090008FD090008FD090008FD09000856
:10027000FD090008FD090008BD6901080000000033
:10028000FD090008FD090008FD0900080000000044
:0802900000000000FD09000858
:1002A00010B5054C237833B9044B13B10448AFF3B0
:1002B00000800123237010BDE8030024000000002B
:1002C00008B8010808B5034B1BB103490348AFF355
:1002D000008008BD00000000EC03002408B80108FD
:1002E00001F0FF01102A2BDB10F0070F08D010F8E7
:1002F000013B013A8B422DD010F0070F42B3F6D1EB
:10030000F0B441EA012141EA014122F007047FF003
:1003100000070023F0E80256083C85EA010586EA5A
:10032000010685FA47F5A3FA87F586FA47F6A5FA96
:1003300087F68EB9EED1F0BC01F0FF0102F00702A2
:1003400032B110F8013B013A83EA010313B1F8D14D
:100350000020704701387047002D06BF354603382E
:10036000073815F0010F07D1013015F4807F02BF67
:10037000013015F4C03F0130F0BC0138704700BFB8
:1003800081F0004102E000BF83F0004330B54FEA46
:1003900041044FEA430594EA050F08BF90EA020FB3
:1003A0001FBF54EA000C55EA020C7FEA645C7FEA46
:1003B000655C00F0E2804FEA5454D4EB5555B8BF69
:1003C0006D420CDD2C4480EA020281EA030382EADA
:1003D000000083EA010180EA020281EA0303362D6C
:1003E00088BF30BD11F0004F4FEA01314FF4801C3F
:1003F0004CEA113102D0404261EB410113F0004F51
:100400004FEA03334CEA133302D0524263EB430307
:1004100094EA050F00F0A780A4F10104D5F1200EA5
:100420000DDB02FA0EFC22FA05F2801841F1000100
:1004300003FA0EF2801843FA05F359410EE0A5F1D4
:1004400020050EF1200E012A03FA0EFC28BF4CF005
:10045000020C43FA05F3C01851EBE37101F00045BB
:1004600007D54FF0000EDCF1000C7EEB00006EEBC8
:100470000101B1F5801F1BD3B1F5001F0CD3490852
:100480005FEA30004FEA3C0C04F101044FEA4452A9
:1004900012F5800F80F09A80BCF1004F08BF5FEA30
:1004A000500C50F1000041EB045141EA050130BD10
:1004B0005FEA4C0C404141EB0101013C28BFB1F522
:1004C000801FE9D291F0000F04BF01460020B1FA6D
:1004D00081F308BF2033A3F10B03B3F120020CDA40
:1004E0000C3208DD02F1140CC2F10C0201FA0CF01E
:1004F00021FA02F10CE002F11402D8BFC2F1200C83
:1005000001FA02F120FA0CFCDCBF41EA0C01904038
:10051000E41AA2BF01EB0451294330BD6FEA040481
:100520001F3C1CDA0C340EDC04F11404C4F120026C
:1005300020FA04F001FA02F340EA030021FA04F37E
:1005400045EA030130BDC4F10C04C4F1200220FAD5
:1005500002F001FA04F340EA0300294630BD21FA13
:1005600004F0294630BD94F0000F83F4801306BFD9
:1005700081F480110134013D4EE77FEA645C18BFCD
:100580007FEA655C29D094EA050F08BF90EA020F64
:1005900005D054EA000C04BF1946104630BD91EA5C
:1005A000030F1EBF0021002030BD5FEA545C05D15F
:1005B0004000494128BF41F0004130BD14F580049E
:1005C0003CBF01F5801130BD01F0004545F0FE4112
:1005D00041F470014FF0000030BD7FEA645C1ABF47
:1005E000194610467FEA655C1CBF0B46024650EA7E
:1005F000013406BF52EA033591EA030F41F40021AA
:1006000030BD00BF90F0000F04BF0021704730B52F
:100610004FF4806404F132044FF000054FF0000104
:1006200050E700BF90F0000F04BF0021704730B5C5
:100630004FF4806404F1320410F0004548BF40429A
:100640004FF000013EE700BF42004FEAE2014FEAEF
:1006500031014FEA02701FBF12F07F4393F07F4FCA
:1006600081F06051704732F07F4208BF704793F0CD
:100670007F4F04BF41F40021704730B54FF46074E0
:1006800001F0004521F000411CE700BF50EA0102E3
:1006900008BF704730B54FF000050AE050EA01028C
:1006A00008BF704730B511F0004502D5404261EBFC
:1006B00041014FF4806404F132045FEA915C3FF43D
:1006C000D8AE4FF003025FEADC0C18BF03325FEADA
:1006D000DC0C18BF033202EBDC02C2F1200300FA8B
:1006E00003FC20FA02F001FA03FE40EA0E0021FAB0
:1006F00002F11444BDE600BF53B94AB9002908BF4E
:1007000000281CBF4FF0FF314FF0FF3000F074B9EC
:10071000ADF1080C6DE904CE00F006F8DDF804E058
:10072000DDE9022304B070472DE9F047089D044637
:100730008E46002B4DD18A42944669D9B2FA82F294
:1007400052B101FA02F3C2F1200120FA01F10CFAD0
:1007500002FC41EA030E94404FEA1C48210CBEFB08
:10076000F8F61FFA8CF708FB16E341EA034306FB91
:1007700007F199420AD91CEB030306F1FF3080F020
:100780001F81994240F21C81023E63445B1AA4B26D
:10079000B3FBF8F008FB103344EA034400FB07F70F
:1007A000A7420AD91CEB040400F1FF3380F00A8150
:1007B000A74240F207816444023840EA0640E41B45
:1007C00000261DB1D4400023C5E900433146BDE8F1
:1007D000F0878B4209D9002D00F0EF800026C5E993
:1007E000000130463146BDE8F087B3FA83F6002EAB
:1007F0004AD18B4202D3824200F2F980841A61EB23
:10080000030301209E46002DE0D0C5E9004EDDE740
:1008100002B9FFDEB2FA82F2002A40F09280A1EB28
:100820000C014FEA1C471FFA8CFE0126200CB1FB7D
:10083000F7F307FB131140EA01410EFB03F0884276
:1008400008D91CEB010103F1FF3802D2884200F203
:10085000CB804346091AA4B2B1FBF7F007FB101195
:1008600044EA01440EFB00FEA64508D91CEB040433
:1008700000F1FF3102D2A64500F2BB800846A4EB8E
:100880000E0440EA03409CE7C6F12007B34022FA79
:1008900007FC4CEA030C20FA07F401FA06F31C43A8
:1008A000F9404FEA1C4900FA06F3B1FBF9F8200CB5
:1008B0001FFA8CFE09FB181140EA014108FB0EF0FB
:1008C000884202FA06F20BD91CEB010108F1FF3A4B
:1008D00080F08880884240F28580A8F10208614457
:1008E000091AA4B2B1FBF9F009FB101144EA014165
:1008F00000FB0EFE8E4508D91CEB010100F1FF3410
:100900006CD28E456AD90238614440EA0840A0FBA7
:100910000294A1EB0E01A142C846A64656D353D07D
:100920005DB1B3EB080261EB0E0101FA07F722FAA1
:1009300006F3F1401F43C5E9007100263146BDE8CA
:10094000F087C2F12003D8400CFA02FC21FA03F32D
:10095000914001434FEA1C471FFA8CFEB3FBF7F0AE
:1009600007FB10360B0C43EA064300FB0EF69E42D3
:1009700004FA02F408D91CEB030300F1FF382FD26C
:100980009E422DD9023863449B1B89B2B3FBF7F614
:1009900007FB163341EA034106FB0EF38B4208D9ED
:1009A0001CEB010106F1FF3816D28B4214D9023E2E
:1009B0006144C91A46EA004638E72E46284605E74C
:1009C0000646E3E61846F8E64B45A9D2B9EB02081D
:1009D00064EB0C0E0138A3E74646EAE7204694E7AD
:1009E0004046D1E7D0467BE7023B614432E73046E0
:1009F00009E76444023842E7704700BFFEE70000A1
:100A000009480A4A0A49121A18F080FD09480A4A98
:100A10000021121A18F0A2FD0BF0D8FA18F042FDCE
:100A200000F044FCFEE700BF00000024E8030024BF
:100A30003CB80108E803002478DB032470477047C2
:100A4000704700F1140300F214404A4203F8012BEE
:100A50008342FAD17047704770474020704780202A
:100A6000704710B5044640F2144117F0E4FF2046E9
:100A700010BD08B5837943B109F01CF8B0FA80F0D5
:100A80004009003818BF012008BD09F013F8F8E745
:100A9000036870B50E46DB68044615469847B042B9
:100AA00005D823682046DB689847013886B223685A
:100AB0002046A6809B689847A84205D82368204610
:100AC0009B689847013885B2E58070BD13B5044630
:100AD0008DF807100830002108F0FAFF6423012286
:100AE0000DF1070120460AF023FF02B010BD836814
:100AF0001944092391FBF3F202EBC202891A19444B
:100B0000B1FBF3F303EBC303C91A81607047000024
:100B100010B52B4C2B49204618F060FE2A4904F1F1
:100B2000110018F05BFE294904F1220018F056FE6E
:100B3000274904F1330018F051FE264904F144001E
:100B400018F04CFE244904F1550018F047FE2349E3
:100B500004F1660018F042FE214904F1770018F014
:100B60003DFE04F188001F4C1F4918F037FE1F4955
:100B7000204618F033FE1E4904F1110018F02EFE35
:100B80001C4904F1220018F029FE04F133001A4C2C
:100B90001A4918F023FE1A49204618F01FFE194979
:100BA00004F1110018F01AFE174904F1220018F0A0
:100BB00015FE04F133001549BDE8104018F00EBED3
:100BC000E0D9022442A601084BA6010850A601085C
:100BD00056A601085EA6010866A601086EA60108D1
:100BE0007CA6010884DA022485A601088CA60108E7
:100BF00095A601089DA601080CFD0224ABA60108DC
:100C0000B4A60108C2A60108CEA60108DFA6010805
:100C10002DE9F843A54C0025A548A0462DED028BF3
:100C200006F026FFA24806F02FFFA24808F090F831
:100C3000206808F039F8D4ED037A9FED9F7A70EEC2
:100C4000677A84ED030AF0EEE77AF4EEC77AF1EE04
:100C500010FA0CDDA368082B09D8DFE803F0057E45
:100C6000829DA1A5A9ADB100636883ED000A01359D
:100C70001034042DDCD18F4C9FED908AA37C904FD3
:100C8000FF2B12D10AF0E6FF07EE900A94ED057AE9
:100C9000F8EE677A77EEC77AF4EEC87AF1EE10FADA
:100CA00003DD3B78002B00F08F800023854E3268F7
:100CB0009B1803F0010348BF5B423360A37CFF2B0A
:100CC00040F084800AF0C6FF07EE900A94ED057AA2
:100CD000F8EE677A77EEC77AF4EEC87AA07C7A49A4
:100CE000F1EE10FA0A78CCBF01230023FF2814BFCD
:100CF000002303F001033B7083F001031340227BC8
:100D000012B17F384242424183EA020093420870A6
:100D100000F0AA803268002A5BD1237903B1626AAD
:100D20006A490B6813440B606948FFF7A2FE08B9D3
:100D3000684B1878684C256885F82400674808F0E7
:100D40004FF885F8250065482468FFF792FEBDEC52
:100D5000028B84F82600BDE8F883636883ED010AFE
:100D600085E7B6EE007ADFED5E6A636870EE477A7B
:100D7000B4EEC70ABFEE007A67EEA67AF1EE10FA7B
:100D8000F7EE006A67EEA77A58BFB0EE667A67EEB4
:100D9000277AC3ED027A6AE7636883ED030A66E7A0
:100DA000636883ED040A62E7636883ED050A5EE722
:100DB000636883ED060A5AE7636883ED070A56E71E
:100DC000636883ED080A52E701236FE7DFED457A98
:100DD00082E7454B1B68012B10D0022B21D0002B42
:100DE000A2D1227902B1636A3A49002B0A78B8BFCE
:100DF0005B42D31A18BF01230B7095E7237903B127
:100E0000636A3A490A6813445A4203F0030302F042
:100E1000030258BF5342364A03F003030B601370BA
:100E200082E7237903B1636A32490A6813445A425C
:100E300003F0030302F0030258BF534203F0030020
:100E400003F001030860C3F1020329498A7C1AB93F
:100E50004A68D21A18BF01224B6043080AB90A7ABD
:100E60005A408A740B725FE7DFF860901E4FD9F822
:100E7000001039B1386808EB0010FFF738FE002386
:100E8000C9F80030237903B1636A3A6813443268C1
:100E9000002A18BF032593FBF5F205FB12332B4400
:100EA000B3FBF5F205FB12333B603DE7A0D902240A
:100EB000A0D7022478D902246F12833A00007A4422
:100EC0009DD7022474D9022450FD022470D9022433
:100ED00050D902249CD702247CDA022457D9022458
:100EE0009CC41C410000000084D3022480DA022448
:100EF000C8DA022408FD02242DE9F04100AF1446AF
:100F00000D468046FFF784FE6B46A3EBC4039D4667
:100F1000A3EBC40369469D4600236A468E461646E7
:100F200094469C420EF1080E0CF1080C1CD0D8F827
:100F30000000F6EE006A00EB830090ED007AD8F82E
:100F4000040027EE267A00EB830001330EED027ACF
:100F5000D0ED007A002067EEA67A4CF8040C4CF82D
:100F6000080C4EED017ADCE723460C4803F0FAFF4B
:100F700000239C4206F108060DD02A6856F8081C8A
:100F800002EB830211606A6856F8041C02EB8302CC
:100F900001331160EDE7BD46BDE8F081C8DA0224F7
:100FA00084B0F8B507AE012704468772254686E867
:100FB0000E00BDF8443020F8083F08F09FFCBDF853
:100FC0004630A77125F8043F284608F097FC3146C3
:100FD00020460AF027FC0021284608F079FD0A2067
:100FE0000AF03AFE3946284608F072FD0A200AF057
:100FF00033FE2046AE21FFF769FD2046D521FFF7DD
:1010000065FD20468021FFF761FD2046A821FFF7FE
:101010005DFD20463F21FFF759FD2046DA21FFF70D
:1010200055FD20461221FFF751FD2046D321FFF741
:101030004DFD20460021FFF749FD20464021FFF7E6
:1010400045FD2046A621FFF741FD2046A421FFF7DC
:101050003DFD20468D21FFF739FD20461421FFF785
:1010600035FD2046A121FFF731FD2046C821FFF7BD
:101070002DFD20468121FFF729FD20468F21FFF716
:1010800025FD2046D921FFF721FD20462521FFF728
:101090001DFD2046DB21FFF719FD20463421FFF717
:1010A00015FD2046AF21FFF711FDBDE8F84004B063
:1010B000704770B5044600F10C06B025294620465D
:1010C000FFF704FD013500212046FFF7FFFC10214A
:1010D0002046EDB2FFF7FAFC012104F1080008F008
:1010E000F7FC314664238022204680360AF020FC3B
:1010F000B82DE3D170BD083008B5FFF7DAFF08BDA1
:101100007F2910B510D83F2A0ED8D40802F0070264
:1011100001EBC4110124084404FA02F290F90C1006
:1011200052B213B11143017310BD21EA0201FAE773
:10113000083008B5FFF7E4FF08BD2DE9F04F1F4662
:1011400085B014460830DDF838A0A7EB01089DF8FB
:101150003C300D46AAEB0209B8F1000F0393B8BF6B
:10116000C8F10008B9F1000F0290B8BFC9F1000939
:1011700092458CBF01224FF0FF328F428CBF4FF05F
:10118000010B4FF0FF3B394601925246FFF7B8FF83
:10119000A8EB0906DDE90203BD4201D1544516D092
:1011A0002946224603930290FFF7AAFFC9F10001E6
:1011B0007200B1EB460FBCBFA6EB09065D4490453B
:1011C000DDE90203E8DD019A46441444E4E705B092
:1011D000BDE8F08F2DE9F04F0E4685B0044604A916
:1011E000A6F120059DF838B001E90C00EBB25E2BAA
:1011F00004D90026304605B0BDE8F08F03689DF89D
:101200000870DB689DF809A09847A3883B44984282
:10121000EFDB236820469B689847E3885344984255
:10122000E7DB0AFB05F54FF000096D00CA451DD943
:10123000039B4FF000085B5B01934745A188E28860
:1012400010D9019B41444A4404F1080003FA08F311
:1012500008F101081B044CBF5B468BF00103FFF74C
:101260004FFFEAE709F101090235DFE7A1882046CF
:10127000E288394489B2FFF70BFCBBE7F0B585B0D3
:1012800006464C1E02AD9DF8287085E80C0014F847
:10129000011F41B10097304695E80C00FFF79AFF17
:1012A00021788842F3D0084605B0F0BD2DE9F04F13
:1012B000BA480026BA4F2DED028B9FB006F072FAA5
:1012C0002021B64806F0B0FBB44806F0C9FBB54A89
:1012D000B549B0EE408AB54855784C7813780A780D
:1012E000017843EA0523407842EA04229FEDB00AE0
:1012F00008AD41EA0021AF4807F0FAFC0A220321B9
:10130000A64806F0C3FB09220321ADF82000A3483C
:1013100013AC06F0BBFB01220321ADF824009F486B
:1013200006F0B4FB02220021ADF826009B4806F02F
:10133000ADFB03220021ADF84800984806F0A6FB5B
:101340004FF60B73ADF84A00ADF8223001230F962B
:101350000C93CDE90A360823CDE90D360223CDE9F9
:1013600010330FCD0FC40FCD0FC495E8070016AD95
:1013700084E807000FCD6C460FC495E80F0084E8A1
:101380000F0013AB8C480ECBFFF70AFEB0EE480AF5
:1013900006F066F84FF680738849B0EE480A4FF4BD
:1013A000E83287480093874B01F0E0F9864B3B60B9
:1013B000FFF7AEFB3968854B854D0024596010332B
:1013C000AA19203643F8084C43F8102C802E4FF011
:1013D000000243F8042CEFD101217E48FFF787FB80
:1013E00003217D48FFF783FB05217C48FFF77FFB46
:1013F0007B4BDFF83082A5F130001C70794BDFF8B1
:1014000028921C70DFF824B2774BC8F8004089F8A6
:101410000040CBF800401C6006F026FB7349A5F1A4
:10142000300006F0FDFA4FF0010A65480A2604F084
:10143000EDF94FF4806200216D4818F08FF8802399
:10144000324600216B486C4DCDE9006AFFF775FE0E
:10145000D8F8002000216748524402EB420302EB17
:10146000830292B2FFF714FB99F800406348644985
:10147000CDF800A0002C08BF01465E4895E80C009E
:10148000FFF7FCFEDBF800402CB1544545D04A483C
:10149000FFF70FFEC7E7224621465648FFF7F8FA46
:1014A0004A4ECDF800A05749524895E80C000D254A
:1014B000FFF7E4FE2A460A214E48FFF7E9FAD8F87A
:1014C0000030A3420ABF484A00211168B2681144A3
:1014D000092291FBF2F000EBC000091A1144B1FBA4
:1014E000F2F202EBC202891A474A01EB01111144E0
:1014F00099F800207AB11B1B18BF01233E4A013422
:1015000000930D353B481036ADB20CCAFFF7B6FE5E
:10151000042CCFD1BBE70123F0E700223548114668
:10152000FFF7B6FA00943949324895E80C00FFF706
:10153000A5FE31460D222F48FFF7AAFA3B68344931
:1015400093F824302B4883F00103009395E80C00B6
:10155000FFF794FE31461A222648FFF799FA2D4BE1
:101560002D481968009401EB011195E80C00014425
:101570002048FFF783FE314627221E48FFF788FAEE
:10158000264B27481968009401EB011195E80C00DF
:1015900001441848FFF772FE79E700BFA0D7022484
:1015A0007CDA022468A901085CA9010870A9010875
:1015B0000000000078D9022490D30224840301247F
:1015C000C8DA022404040024A4F50224A0D90224C9
:1015D000D0D70224B0D90224C0D90224D0D9022401
:1015E0009DD702249CD7022470D90224F90E00084A
:1015F0009CD3022488D3022484010024C0A60108BD
:10160000EFA60108F1A60108E0D90224FAA6010814
:1016100002A7010880DA022484DA022408FD0224E9
:101620000CFD022484D3022450FD022474D9022428
:101630002DE9F043914685B00446984608464B464E
:10164000DDE90C52A3EB090C13F8011B0029F9D1B9
:1016500098F8006098F8011016FB0CF60F4636B2A9
:1016600026EAE676082A76D8DFE802F06B05270B33
:1016700035453C536100B5F90020B5F902302280B0
:1016800053E02B88A988B5F902200B4462809B1B8C
:101690002380A680E780628821880390FFF7F8F90D
:1016A0009DF8383049460398009398E80C00FFF7FE
:1016B000E5FD204605B0BDE8F083B5F90430B5F985
:1016C000021003EBD3722B88618003EB6203A3EB60
:1016D00066032380DDE76B88B5F90020ED882B4495
:1016E0005B1ACCE76B88EA8813445B1A2A88A988BE
:1016F0000A44921BC3E76B88EA8813445B1AB5F966
:10170000042002EBD2712A8802EB6102A2EB66028E
:10171000B5E7B5F90630B5F9001003EBD3726B8865
:10172000218003EB6203A3EB57036380B1E7B5F9B4
:10173000063003EBD3726B8803EB6203A3EB510318
:10174000D4E7B5F9063003EBD3726B8803EB620381
:10175000A3EB5103D3E7002323806380A380E380BE
:1017600099E70000000000002DE9F04F2DED068BF9
:1017700087B01C4603929DF86030DDE916289FED86
:10178000B64BB8F1000F0493BCBF4244C8F1000847
:1017900007EE902A02EB0803B8EEE76B07EE103A6B
:1017A0009FEDAF5B26EE046BB8EEC77BCDE9010180
:1017B00086EE050B27EE047BF7EEC08B87EE050B5C
:1017C000F7EEC09BB0EE680A17F03AF907EE904AC0
:1017D000B8EE67AA2AEE008AB0EE680A17F0F4FBAA
:1017E00060EE4A8AB0EE690A17F02AF92AEE009AEA
:1017F000B0EE690A17F0E8FB20EE4AAA39EE487A03
:10180000049B7AEE687A67EEA77AE7EE077AB0EE85
:10181000007AF4EEC77AF1EE10FA08D5B8F1B40FF9
:1018200000F3CA8007B0BDEC068BBDE8F08F002244
:1018300001276542C4F101040026BB46BA46640094
:10184000B9460492049A002A6ED107EE906A724259
:10185000B8F1B40FF8EEE76A07EE905AB8EEE77AFF
:1018600007EE902AC5F1000266EE884AF8EEE77AA4
:1018700006EE102A27EE285A66EE896AB8EEC66A86
:1018800067EE885A27EE0A7A66EE283A67EE897A7A
:1018900026EE0A6A34EEE34A74EEC54A35EEC55ABE
:1018A000B5EEC04A75EEE35A40F39180F1EE10FABE
:1018B00000F1848036EEC64AB5EEC04AF1EE10FA69
:1018C000CCBF4FF001094FF00009F5EEC04AF1EE30
:1018D00010FA76D476EEC76AF5EEC06AF1EE10FA29
:1018E000CCBF4FF0010A4FF0000AB5EEC05AF1EE3E
:1018F00010FA69D437EEC77AB5EEC07AF1EE10FA75
:10190000CCBF4FF0010B4FF0000BF5EEC05AF1EEDB
:1019100010FA00F19B8077EEC67AF5EEC07AF1EE10
:1019200010FACCBF01270027B9F1000F09D0039AA4
:1019300002990198B218491B05930830FFF7E0FBA4
:10194000059BBAF1000F09D0039A02990198B218C9
:10195000691805930830FFF7D3FB059BBBF1000F17
:1019600009D0039A02990198921B691805930830CF
:10197000FFF7C6FB059B4FB1039A02990198921B92
:10198000491B05930830FFF7BBFB059BA6425FDBB5
:10199000013604EB4602EE4202F1010202D1A542F9
:1019A00002DB0024A54255DA013502EB4502541C46
:1019B000002D7FF747AF35E7012239E74FF00109E6
:1019C00083E74FF0010A90E74FF0010B9DE7F1EE3E
:1019D00010FA32D536EEC64AB5EEC04AF1EE10FA2C
:1019E000CCBF4FF001094FF00009F5EEC04AF1EE0F
:1019F00010FA25D576EEC76AF5EEC06AF1EE10FA58
:101A0000CCBF4FF0010A4FF0000AB5EEC05AF1EE1C
:101A100010FA18D537EEC77AB5EEC07AF1EE10FAA3
:101A2000CCBF4FF0010B4FF0000BF5EEC05AF1EEBA
:101A300010FA3FF570AF002776E7DDF81090D4E795
:101A40004FF0000AE1E74FF0000BEEE701276BE7EC
:101A50002246A7E71446ABE77A008BFCFA2109403F
:101A600000000000008066402DE9F3479DF830C07B
:101A700005460C4616461F46DDF828809DF82C903A
:101A8000BCF1000F10D0A7422AD3B246D04509D3EB
:101A900052464B46214605F108000AF1010AFFF7BC
:101AA0002FFBF3E70134EEE7CDE90029FFF745FB13
:101AB0003B46324639462846CDE90089FFF73DFBD3
:101AC0002346424639462846CDE90089FFF735FBD3
:101AD0002346424621462846CDE90069FFF72DFB03
:101AE00002B0BDE8F08700001A4800231A4900F64A
:101AF000F87210B5136000F58052002413609360F3
:101B000013615362D3625363D3639366136793671E
:101B1000C2F88030114A16F089FF11480F4A114966
:101B200004628462C0E9034416F080FF0E480F4B44
:101B30000A4A0F490360846016F078FF074A0D498E
:101B40000D4816F073FF2046044A0C49BDE81040CA
:101B500016F06CBFC8DA02243F0A00080000002417
:101B6000A0D70224410A000888D3022414A7010840
:101B7000590A00083D0A000878D90224570A0008CB
:101B800000238360C3610123C0E9001280F8243080
:101B9000704790F824102DE9F041002943D14468A2
:101BA0000668D0E90452043E531102F01F0C6F1175
:101BB00004EB830404EB8707BC4227D0D4F800E091
:101BC000CCF1200854F8043F0EFA0CFE23FA08F377
:101BD00043EA0E0356F804EF83EA0E03DB434FEAB1
:101BE000530E0EF0553EA3EB0E0303F0333E9B085D
:101BF00003F0333373444FF0013E03EB131303F050
:101C00000F330EFB03F301EB1361D5E783698B42BE
:101C100038BFC0E90612013295424261CCBF0022B2
:101C2000012280F82420BDE8F081C0E902230023CE
:101C3000C0E90633C0E9041380F82430704700007F
:101C400003698B42D8BFC91A43685A5C034B33F906
:101C5000123000EE103ABAEEE80A70475C610324D5
:101C6000BDEEC07ADFED186AD0E9041317EE102A32
:101C7000F8EEC77A1A4470EE677A134602F50062EE
:101C800003F60103C2F30B02C3F30B0331F9122075
:101C900031F9133007EE102A00EE103AB8EEC77A89
:101CA000B8EEC00A20EE260AA7EE660A27EE800AE2
:101CB000D0ED007AA7EE260AE0EE207A80ED010A48
:101CC000C0ED007A704700BF00000038BDEEC07A5A
:101CD000DFED166AD0E9042317EE101AF8EEC77A82
:101CE000194470EE677A0B46C1F30B01013332F9E8
:101CF0001110C3F30B0307EE101A32F91330B8EECC
:101D0000C77A00EE103AB8EEC00A20EE260AA7EE17
:101D1000660A27EE800AD0ED007AA7EE260AE0EEEA
:101D2000207A80ED010AC0ED007A7047000000388B
:101D3000D0ED027A90ED037A77EE877AB7EE007AEB
:101D400010B5F4EEC77A0446F1EE10FAA8BF77EEAC
:101D5000C77AC0ED027A90ED020A16F071FE84EDAA
:101D6000000A10BD00F30F00704760EE200AFDEE80
:101D7000E07A17EE903AF8EEE77A00EB830070EE27
:101D8000E70A90ED000A90ED017A37EE407AA7EE6F
:101D9000200A7047DFED0E7A0E4A30EE270AFDEE7C
:101DA000C07AB8EEE77A17EE901A30EE470ABEEE28
:101DB000CC0A10EE103A02EB8302074B03EB8103CF
:101DC00092ED000AD3ED007A20EE270A704700BF9B
:101DD000000000435809032458050324F0EE407A1C
:101DE00008B5FEEECA7A17EE900AFFF7BBFF80B285
:101DF00008BD00002DE9F0410646904601F10807B4
:101E0000B8F1000F00F0D78033685A1E4ABF03F2C2
:101E1000FF7332603360D6E90045E30607D106F16F
:101E20000800FFF785FF06F11800FFF781FF04F1B6
:101E30007D0317ED026A9FED615AB6EE047AC3F393
:101E40000A03FEEE047A36EE056A08F1FF3805EB68
:101E500083030837D3ED006AC4F30A03A6EE876A4A
:101E600005EB830383ED006A04F59973E6EE276AB8
:101E7000C3F30A0305EB830393ED006A04F17F03C8
:101E8000E6EE076AC3F30A0305EB8303C3ED006ABA
:101E900004F51073A6EEA76AC3F30A0305EB8303E8
:101EA000D3ED006A04F59A73A6EE876AC3F30A03BA
:101EB00005EB830383ED006A04F2FD33E6EE276A47
:101EC000C3F30A0305EB8303D3ED005A04F2422364
:101ED000E5EE876AC3F30A0305EB8303E6EEA75A30
:101EE000C3ED006A57ED046A04F29543D6ED0A4A41
:101EF000C3F30A0305EB830335EEE66AE4EE866A74
:101F000017ED036AA5EE856A47ED046AD3ED006A12
:101F100004F2FF33A6EE876AC3F30A0305EB8303DB
:101F200083ED006A04F26353E6EE276AC3F30A0303
:101F300005EB830393ED006A04F29743E6EE076A2C
:101F4000C3F30A0305EB8303C3ED006A04F259638C
:101F5000A6EEA76AC3F30A0305EB8303D3ED006A79
:101F600004F26553A6EE876AC3F30A0305EB830305
:101F700083ED006A04F2EF73E6EE276A04F25B6415
:101F8000C3F30A03C4F30A0405EB830305EB8404DB
:101F900093ED006AE6EE076AA6EEA76AC4ED006A52
:101FA00057ED037A96ED0A7A36EE676AE7EE067A1F
:101FB00047ED037A24E7BDE8F08100BF0000000090
:101FC00003685A1E48BF03F6FF7330B52DED088B2A
:101FD00048BF036087B04368044658BF02600D469F
:101FE000049303689FED59BA0593DB068DED00BAA3
:101FF0008DED01BA40F0A4800830FFF799FE04F19E
:1020000018008DED020AFFF793FE8DED030AB7EE7F
:10201000008AD4ED0B6A94ED0C7A95ED00AA78EE67
:10202000666AC6EE877AD4ED0A6A77EEA67AF4EE8F
:10203000C87AF1EE10FAA8BF77EEC87AC4ED0A7A32
:10204000D4ED0A7AF5EEC07AF1EE10FA9CBF77EE85
:10205000887AC4ED0A7AF6EE007A94ED0A0A67EE01
:10206000008AB4EEE70AF0EE68AAF1EE10FAE7EEA5
:1020700027AADDED007AA8BF38EE409A3AEE27AAEB
:10208000B8BFB0EE409AF0EE4A7A8DED00AAB4EEF9
:10209000EA7A39EE099AFEEEE87AF1EE10FA2AEEC3
:1020A0000BAA17EE900A98BF7AEEC7AAFFF75AFE5E
:1020B000059BF0EE490A049AB0EE680AC3F30B03DD
:1020C00022F8130068468DED00AAFFF7FFFD38EEF9
:1020D000498AB0EE6A0AF0EE480AFFF7F7FDDDED37
:1020E000007AD5ED019AC5ED007AE7EE8B9AF0EE15
:1020F000697ACDED009A69EE8B9AFEEEE87A17EEDA
:10210000900AFFF72FFE059B049AF0EE490A03F5AB
:102110000063B0EE680AC3F30B0322F813006846AD
:10212000CDED009AFFF79CFDF0EE480AB0EE6A0A8A
:10213000FFF796FD009B6B6007B0BDEC088B30BDD0
:10214000836802938369039361E700BF0000000086
:102150002DE9F8430646904601F108072DED108B56
:1021600090ED0D9A90ED0EAAD0ED0CAAD0ED0A9A42
:1021700090ED0BBA90ED0FDAD0ED10CAB8F1000F68
:1021800000F0AC8133685A1E49BF03F57F533260BB
:102190003F333360D6E90045E30640F09A8106F10B
:1021A0000800FFF7C5FD06F11800B0EE408AFFF702
:1021B000BFFDB0EE40FAF2EE048ADFEDCC7ADFED3F
:1021C000CCBAB1EE49CA42F6525908F1FF38E8EEEE
:1021D000278A9FEDC88A0837BDEEE87A17EE103AD5
:1021E000F8EEC77A234478EEE77AC3F30D020133A1
:1021F000C3F30D0335F9122035F9133007EE102A19
:1022000008EE903AB8EEC77AF8EEE88A68EE888A67
:10221000E7EE488A67EEA88AE7EE088A78EEAB8A8E
:10222000B0EE680AFFF7DAFD04F1640357ED04EA43
:1022300017ED03EAC3F30D037EEE8EDA25F81300E3
:1022400004F17003C3F30D036DEE8BDA35F913302F
:10225000E8EEABDA08EE903AF8EEE88A68EE88BA73
:10226000E9EE2BDAB0EE6D0AFFF7B8FDC4F30D030B
:10227000ECEE2DBA25F8130004F21313C3F30D038B
:1022800035F9133008EE903AF8EEE88A68EE88DA0D
:10229000E9EE2DBAB0EE6B0AFFF7A0FD04F1720370
:1022A000ECEE2BDAC3F30D0325F8130004F205233B
:1022B000C3F30D0335F9133008EE903AF8EEE88ACF
:1022C00068EE88BAE9EE2BDAB0EE6D0AFFF786FD0C
:1022D00004F21513ECEE2DBAC3F30D0325F8130029
:1022E00004F29533C3F30D0335F9133008EE903A39
:1022F000F8EEE88A68EE888AE9EE28BAB0EE6B0A52
:10230000FFF76CFDDFED7C7A9FED7C7A04F207230A
:10231000ECEE2B8AAFEE277AC3F30D0325F81300FA
:10232000FDEEC77A17EE903AF8EEE76A234477EEAF
:10233000666A03EB090203F535531333C2F30D024A
:10234000C3F30D0335F9122035F9133007EE902A47
:1023500007EE103AF8EEE77A04F60B23B8EEC77AE8
:10236000C3F30D0327EE087A35F913300BEE903ADC
:10237000A7EEC87AF8EEEBBA6BEE88BA26EE877A4B
:10238000A7EE887AF0EE687AEAEE877A77EECD7A71
:10239000AAEE27DAF0EE4DDAECEE2BDAB0EE6D0AAB
:1023A000FFF71CFD04F29733E9EE2DBAC3F30D03DA
:1023B00025F8130004F590530233C3F30D0335F9E8
:1023C00013300DEE903AF8EEEDDA6DEE88DAE9EEC4
:1023D0002DBAECEE2BDAB0EE6B0AFFF7FFFC04F639
:1023E0000D23F0EE00BAC3F30D03B0EE6D0A25F82D
:1023F0001300FFF7F3FC04F59053F0EE6E7A04330C
:10240000C3F30D03DDEEAB7A25F8130004F5FA53A0
:102410001633C3F30D03E7EEA9EA35F9133007EEDF
:10242000903A04F51B53F8EEE77A103347ED04EACF
:10243000C3F30D0367EE887A35F91330EAEEA78A05
:1024400078EEEC8AEAEE28CA08EE903AF8EEE88ACE
:1024500068EE888AF0EE6CDAE9EE28DAB0EE6D0A02
:10246000FFF7BCFC04F5FA53ECEE2D8A1833C3F3E6
:102470000D0325F8130004F535531033C3F30D0392
:1024800035F9133000EE103AB8EEC00A20EE088A93
:10249000ECEE088AB0EE680AFFF7A0FCA9EE288AE5
:1024A00004F51B534C441233C4F30D04C3F30D0362
:1024B000B0EE480A25F81300FFF790FCF0EE4E7AD4
:1024C00025F81400D8EE2B7AA7EEA9EA07ED03EA67
:1024D00054E696ED028A96ED06FA6CE686ED0FDA82
:1024E000C6ED10CABDEC108BBDE8F8830000704249
:1024F00000000000000080390000C8420040924502
:10250000002330B51A4605689D420CDD302100F1EC
:1025100048045943615C21B900EB82010132C1F8E2
:102520001C3C0133F0E7104630BD00002DE9F041BE
:102530002DED0A8BD2ED028A0546DFED6C0A1646B8
:1025400092ED010A98466A480C4692ED00AAF6EE12
:10255000009A92ED0BBAFFF708FCB0EE409A109F7C
:10256000B0EE680AFFF716FCB0EE408AB1EE680ADA
:10257000FFF710FCD6ED06AAB0EE40CA17F09CF8A3
:1025800007EE900ADFED5B6AAB68F0EE698AB8EEA1
:10259000E77AFEEE007A012BF7EE00BAE7EE267A34
:1025A000EAEEA78A40F09180B0EE680ADFED4F0AAC
:1025B0005148FFF7DAFBDFED4D0AF0EE40AA4F4835
:1025C000B0EE680AFFF7D1FBF0EE408AB4EEEB8A7A
:1025D00007EE907AF8EEE77AF1EE10FA0BDDF5EE01
:1025E000006A67EEA66A26EE8C7AB4EEC79AF1EE20
:1025F00010FA37FE099A9FED427AFDEEC96AB4EEF1
:10260000E9BA119B77EE877A84ED077A16EE902A65
:10261000B0EE006AF1EE10FA9FED3A0AE8EE497A60
:1026200022F00102C4ED09AAB4BF84ED057A7BEE65
:10263000699AC4ED0A8AC4F81080A8BF79EEA99AF5
:10264000626077EEC97AA8BFC4ED059A67EE8A7A10
:10265000E8EE097A28EE008ABCEEC88AFDEEE77A39
:1026600084ED038A17EE901A07EE902AF8EEE77AC7
:10267000A3EB01033B44C6EE276ABCBFDFED227A21
:102680007BEE277A93FBF7F1B8BF89EEA77AD5EDF9
:10269000057A07FB11332360002339EE670AA36034
:1026A0000123C4ED086A84F82C309DF84830BDEC55
:1026B0000A8B84F82D3084ED067A9FED147AE0EED3
:1026C000077AC5ED057ABDE8F081F4EEE98AF1EE0E
:1026D00010FA53BF7BEEE88A78EEA88AF0EE6BAA78
:1026E00078EEA8AA58BFF0EE6B8A6FE7000080432F
:1026F0005401032400000030580D03245811032412
:1027000000000000000080470AD7233CCDCCCC3D20
:1027100010B590ED030A044600F58450143016F00D
:1027200053F804F58E5094ED030A043016F04CF87B
:1027300004F5895094ED030A0C3016F045F894ED39
:10274000030A04F5875016F03FF804F5905094ED15
:10275000030A103016F038F804F58B5094ED030A94
:102760001830BDE8104016F02FB8000070B5C0E971
:102770000713049B044642628362022304F5F55268
:1027800080ED030A4360002308320372437400F5AE
:10279000D95004F5DE530430183300255D6043F84A
:1027A000085B9342F9D1B422134916F0AFFE04F549
:1027B00080562C2304F5F55004F50852C6F8A83EBF
:1027C0000C3004F5FB5330325D6043F8085B9A42ED
:1027D000FAD1B422084916F099FE06F580562C234A
:1027E0002046C6F83032FFF793FF0423A5616370DB
:1027F0000123A37470BD00BFA8A8010810B54FF451
:10280000005204460021406816F0A8FE0023236011
:1028100010BD00002DE9F04116469DF81820044631
:102820000D46002A63D09F00013EC0F09680E36908
:1028300095ED007AB3B1013BA269F0EE476A9FEDD6
:10284000486AC3F58071E36132F9112007EE902ADE
:10285000F8EEE77AD7EE866A07EE903AFAEECC7A8F
:10286000A6EEA77AF0EE477AFEEEE87A17EE900A27
:10287000FFF778FA40F38D0341F6DF70002BBABF03
:102880005B427F22FF22834252B2A8BF034621331C
:102890009BB23F2B4AD97F2B19B250D9FF2950DD6B
:1028A000B1F5007F4FDBB1F5806F4EDBB1F5006F06
:1028B0004DDBB1F5805F4CDBB1F5005F4BD182F0B1
:1028C0007F036269DBB261688B546269072A04DCAA
:1028D0006368216998561344585463693D442269DA
:1028E000013393426361A4BF002363619CE7C26923
:1028F000FF2A32DC9F00013E2FD3D4F81C80B8F1B0
:10290000FF0FF8DCD5ED007A3D449FED167A67EEB7
:10291000877AFDEEE77A17EE900AFFF723FAA369AC
:1029200008F10102E26123F81800E4E70021481CE5
:10293000034103F00F0343EA01135340C1E70121B0
:10294000F5E70221F3E70321F1E70421EFE7052191
:10295000EDE70621EBE70721E9E7BDE8F08100BFDD
:102960000000003800FEFF462DE9F0410E469DF8BC
:10297000181015460446C269E9B9FF2A74DC9F00A5
:10298000013D71D3D4F81C80B8F1FF0FF8DCD6ED0F
:10299000007A3E449FED357A67EE877AFDEEE77A5E
:1029A00017EE900AFFF7DEF9A36908F10102E26170
:1029B00023F81800E4E79F00E2B94269072A19DD0D
:1029C00003695B1B9A4215DA013D4DD3D6ED007ABF
:1029D0003E449FED267A67EE877AFDEEE77A17EEA2
:1029E000900AFFF7BFF96369226822F813000133E8
:1029F0006361E9E7013D37D3E36996ED007AB3B14E
:102A0000013BA269F0EE476A9FED196AC3F5807138
:102A1000E36132F9112007EE902AF8EEE77AD7EE5B
:102A2000866A07EE903AFAEECC7AA6EEA77AF0EE36
:102A3000477A3E44FEEEE87A17EE900AFFF792F9E5
:102A40006369226900B2072B2168D8BF03EB020C2F
:102A500021F8130003F10103D8BF21F81C009342B1
:102A6000A8BF00236361C5E7BDE8F08100FEFF4613
:102A7000000000382DE9F04100F1B40C06460F4685
:102A8000D0F884430832B3B34FF0000E0CEBC4050A
:102A900007EBCE0105F5B47803C985E8030088E8A3
:102AA0000300611E4CBF2C340C46BEF1000F1FD03A
:102AB000601CDFED137A1037023B0CEBC000B0EE68
:102AC000677A354600F1080100F5B87011ED026A29
:102AD0000831F5EC016AA6EE267A11ED036A884208
:102AE000E6EE267AF2D102ED027A42ED017AC9E7EA
:102AF0004FF0010ECAE7C6F88443BDE8F08100BF7D
:102B0000000000002DE9F0474FF0000C06468E460D
:102B1000D0F8844300F1B408634530D1C6F884434B
:102B2000BDE8F087083F02F108010025DFED1E7ABD
:102B300007F110002C46B0EE677A404406EB840A99
:102B400010ED026A02340830DAED006A2C2CA6EE91
:102B5000267A10ED036AE6EE267AEFDD37EE077A85
:102B6000083177EEA77A01ED047A41ED037A25B1B9
:102B700010320CF1010C4C46CEE70125D6E708EBEC
:102B8000C4050EEBCC0105F5B479E70003C985E86F
:102B9000030089E80300B4F10109C3D504F12C094D
:102BA00007F5B077BFE700BF000000002DE9F04156
:102BB00004460F460168F0EE006AD4ED137ACB6844
:102BC0009FED4E7AC8691B1167EE877A8968434387
:102BD000666B3D69FCEEE77A01EB23380021A8EB38
:102BE000660384F850102B442DED048BC2ED037A5C
:102BF00007EE906A94ED108AB7EE009AB8EEE77A85
:102C0000916011759175C6EE877ABFEE007AF2EE8B
:102C1000086A93FBF5F005FB10335360C2ED047AAC
:102C2000D4ED0F7A77EEC87AF5EEC07AF1EE10FAAD
:102C300058BFB0EE497A67EE277AF4EE667AF1EE85
:102C400010FA66FEA77AA7EE878AB0EE480A84EDEE
:102C5000108AFFF79FF8F0EE408AB1EE480AFFF7BE
:102C600099F8D4ED127AB0EE408A9FED250A77EEFE
:102C7000C97AC4ED138A27EE800AFFF78BF8BEEEFF
:102C8000CA0A10EE103A9B1B83EAE372A2EBE372CE
:102C9000402A0ADD06EB6316724206F0030302F0D7
:102CA000030258BF5342F61A6663626B94ED117AC1
:102CB00007EE902AF8EEE77A77EEA77A67EE887A41
:102CC000BDEC048BFDEEE77A17EE903AED1AA5EB1A
:102CD000420525EAE57307EE903A7B69C4F8548013
:102CE000F8EEE77A67EE877AFDEEE77A17EE901A4C
:102CF0005B1A9B1AA365BDE8F08100BF0000804706
:102D0000000070422DE9F04104460F460168F0EEE4
:102D1000006AD4ED137ACB689FED4E7AC8691B1117
:102D200067EE877A89684343666B3D69FCEEE77A14
:102D300001EB23380021A8EB660384F850102B44E4
:102D40002DED048BC2ED037A07EE906A94ED108AA4
:102D5000B7EE009AB8EEE77A916011759175C6EEFC
:102D6000877ABFEE007AF2EE086A93FBF5F005FB76
:102D700010335360C2ED047AD4ED0F7A77EEC87A3F
:102D8000F5EEC07AF1EE10FA58BFB0EE497A67EE70
:102D9000277AF4EE667AF1EE10FA66FEA77AA7EECD
:102DA000878AB0EE480A84ED108AFEF7F3FFF0EE52
:102DB000408AB1EE480AFEF7EDFFD4ED127AB0EE8C
:102DC000408A9FED250A77EEC97AC4ED138A27EE73
:102DD000800AFEF7DFFFBEEECA0A10EE103A9B1B18
:102DE00083EAE372A2EBE372402A0ADD06EB631684
:102DF000724206F0030302F0030258BF5342F61A70
:102E00006663626B94ED117A07EE902AF8EEE77A2A
:102E100077EEA77A67EE887ABDEC048BFDEEE77A51
:102E200017EE903AED1AA5EB420525EAE57307EE99
:102E3000903A7B69C4F85480F8EEE77A67EE877AB7
:102E4000FDEEE77A17EE901A5B1A9B1AA365BDE8B0
:102E5000F08100BF0000804700007042036906EE69
:102E6000902A4068B6EE005A8B42FBEEC86AD8BF83
:102E7000C91A1E4B421810B55478415C33F91440FE
:102E800033F9111000EE104A947806EE101AD27839
:102E900033F91440B8EEC00AB8EEC66A33F91230FE
:102EA00007EE904A05EE903AF8EEE77AF8EEE55A2A
:102EB00037EEC66A70EE677A75EEC05AB0EE677A82
:102EC000A6EE057A77EE877AE5EE857A37EE877A91
:102ED00097EEA67ADFED067A26EE877AA6EE057AD9
:102EE000A6EE870A20EE270A10BD00BF5C6103240E
:102EF000000000382DE9F0419846037D04460F4656
:102F000015462DED028B82B0002B3ED18668B7EEC0
:102F1000007AD0ED047A33144168B2B208EE103A68
:102F200001EB2641B8EEC88ACDE9001228EE278AC7
:102F3000F0EE007AB4EEE78AF1EE10FAB4EEC78A4A
:102F4000ACBF01230023F1EE10FA0375AABF0123E1
:102F5000002337EEC88A43753846FFF77FFFB8F184
:102F6000010F60EE088ADDE9001213D1D5ED007A79
:102F700095ED010A77EEA87A70EE288AC5ED007A01
:102F8000C5ED018AE3683344A36002B0BDEC028B57
:102F9000BDE8F081B8F1020FF4D107F12000FFF78E
:102FA0005DFFD5ED007A77EEA88AD5ED017AE0EEE7
:102FB000087AC5ED008AC5ED017AE3E72DE9F0470F
:102FC000D1F810901D46C36A174607EE909A044642
:102FD0000E46F8EEE77A2DED088B9FEDC8AA82B079
:102FE00077EECA7ADDF848804344BDEEE78AC362D3
:102FF00018EE102A9342C2BF0023C0E90A330377B8
:1030000097F8253063B1C36A0022802B8362C262C5
:10301000D4BF002301230377036883610023036087
:1030200097F82430002B51D1B8F1010847D3237F02
:10303000D7ED007A8BBBB8EEC87A27EE277AD4EDAD
:10304000017A6FF00300DFEDAE6A37EE677A7269DE
:10305000A0EB0800E7EE267A10444844C4ED017A5C
:10306000FEEECA7A17EE903AC3EB0030011300016E
:1030700082B23046CDE90012FFF7F0FE236AF0EE8F
:10308000408A012BDDE900120CD12B4685ED000AA8
:1030900085ED010A08331D46C6E7D4ED0A7AB8EE7D
:1030A000E77ACCE7022BBFD106F12000FFF7D6FE6E
:1030B0002B46C5ED008A083385ED010AEBE70023B6
:1030C000236002B0BDEC088BBDE8F087F8EEC87A4B
:1030D00097ED007AF2EE0E6A237FF0EE4AAA27EE11
:1030E000877A27EE267ADFED876AE7EE26AAD7ED04
:1030F000016A002B40F0A7809FED837ADFED838A81
:1031000026EE877A27EE267AE7EE268A67EEA88AE9
:1031100038EEAA7AF4EEC77AF1EE10FA98BF77EE9D
:10312000E8AA002B40F0948097ED020AFEF732FEE9
:10313000B0EE40BAB8F1010805F10805C1D394ED2D
:10314000007AD4ED037AB4EEE77AF1EE10FA80F269
:103150008280B5EE407AF1EE10FA7ED0D4ED007A9E
:10316000B7EE009A3BEE277AD4ED057AF5EE407A79
:1031700084ED007AF1EE10FA00F0968087EE278A4F
:10318000B5EEC08AF1EE10FA00F19180B4EE498AF2
:10319000F1EE10FA39FE088AD4ED037A30467269EE
:1031A00077EEC77A94ED027A043A77EE877A4A444A
:1031B0001703FEEECA7A17EE903AC3EB02321113F0
:1031C000120192B2CDE90012FFF748FED4F820A018
:1031D000F0EE409ABAF1010FDDE900126AD168EE13
:1031E000009A45ED029A45ED019AB4EE498AF1EE56
:1031F00010FA9FD094ED007A3046D4ED047A39EE7F
:10320000488A77EEC77AFEEECA7A17EE903AFF1A2E
:1032100039133F01BAB2CDE90012FFF71FFEBAF130
:10322000010FB0EE409ADDE9001253D155ED027A5C
:10323000E8EE007A45ED027A55ED017AE8EE007A83
:1032400045ED017A76E794ED0A7AF8EEC78A5FE7F2
:10325000B7EE00BA6EE7C4ED067A94ED067A002365
:10326000C4ED038AF4EEC77A2360F1EE10FA98BF3A
:10327000C4ED067A94ED067A77EEC77A94ED027A79
:10328000C4ED02AA77EE877A9FED1C7AC4ED047A2A
:103290006BEE0A7AF4EECA7AF1EE10FA58BFF0EE4D
:1032A000477AC4ED057A59E7B0EE498A74E79FED95
:1032B000188A71E7BAF1020F97D106F1200068EE83
:1032C000299AFFF7CBFD28EE000A45ED029A05ED9D
:1032D000010A8AE7BAF1020F7FF42CAF06F1200051
:1032E000FFF7BCFD55ED027AE8EE097A45ED027A6A
:1032F00055ED017AE8EE007AA2E700BF00008042B7
:1033000017B751380000803DA4707D3F0AD7233C99
:1033100000000000036906EE902A0268B6EE005A2B
:103320008B42FBEEC86AD8BFC91A02EB410332F9DF
:103330001120B3F9020006EE102A00EE100AB3F9CC
:103340000400B8EEC66AB3F9063007EE900AB8EE8C
:10335000C00A05EE903AF8EEE77AF8EEE55A37EE55
:10336000C66A70EE677A75EEC05AB0EE677AA6EE5E
:10337000057A77EE877AE5EE857A37EE277A96EE4C
:10338000A77ADFED057A26EE877AA6EE057AA6EE15
:10339000870A20EE270A7047000000382DE9F04127
:1033A0009846037D04460F4615462DED028B82B0EC
:1033B000002B3ED18668B7EE007AD0ED047A331444
:1033C0004168B2B208EE103A01EB2641B8EEC88A65
:1033D000CDE9001228EE278AF0EE007AB4EEE78AF3
:1033E000F1EE10FAB4EEC78AACBF01230023F1EE70
:1033F00010FA0375AABF0123002337EEC88A43756C
:103400003846FFF787FFB8F1010F60EE088ADDE963
:10341000001213D1D5ED007A95ED010A77EEA87A66
:1034200070EE288AC5ED007AC5ED018AE368334461
:10343000A36002B0BDEC028BBDE8F081B8F1020FD1
:10344000F4D107F12000FFF765FFD5ED007A77EEA4
:10345000A88AD5ED017AE0EE087AC5ED008AC5EDBF
:10346000017AE3E72DE9F047D1F810901D46C36AD1
:10347000174607EE909A04460E46F8EEE77A2DEDD1
:10348000088B9FEDC8AA82B077EECA7ADDF8488033
:103490004344BDEEE78AC36218EE102A9342C2BFCE
:1034A0000023C0E90A33037797F8253063B1C36A74
:1034B0000022802B8362C262D4BF002301230377E2
:1034C000036883610023036097F82430002B51D1F7
:1034D000B8F1010847D3237FD7ED007A8BBBB8EE54
:1034E000C87A27EE277AD4ED017A6FF00300DFED7A
:1034F000AE6A37EE677A7269A0EB0800E7EE267ACB
:1035000010444844C4ED017AFEEECA7A17EE903AB0
:10351000C3EB00300113000182B23046CDE9001246
:10352000FFF7F8FE236AF0EE408A012BDDE9001276
:103530000CD12B4685ED000A85ED010A08331D46A6
:10354000C6E7D4ED0A7AB8EEE77ACCE7022BBFD112
:1035500006F12000FFF7DEFE2B46C5ED008A08339A
:1035600085ED010AEBE70023236002B0BDEC088B78
:10357000BDE8F087F8EEC87A97ED007AF2EE0E6AB1
:10358000237FF0EE4AAA27EE877A27EE267ADFED30
:10359000876AE7EE26AAD7ED016A002B40F0A780E4
:1035A0009FED837ADFED838A26EE877A27EE267AEF
:1035B000E7EE268A67EEA88A38EEAA7AF4EEC77A92
:1035C000F1EE10FA98BF77EEE8AA002B40F0948055
:1035D00097ED020AFEF7DEFBB0EE40BAB8F1010843
:1035E00005F10805C1D394ED007AD4ED037AB4EE69
:1035F000E77AF1EE10FA80F28280B5EE407AF1EED1
:1036000010FA7ED0D4ED007AB7EE009A3BEE277A1E
:10361000D4ED057AF5EE407A84ED007AF1EE10FAF9
:1036200000F0968087EE278AB5EEC08AF1EE10FA98
:1036300000F19180B4EE498AF1EE10FA39FE088A61
:10364000D4ED037A3046726977EEC77A94ED027A48
:10365000043A77EE877A4A441703FEEECA7A17EEE9
:10366000903AC3EB02321113120192B2CDE900126B
:10367000FFF750FED4F820A0F0EE409ABAF1010F07
:10368000DDE900126AD168EE009A45ED029A45ED37
:10369000019AB4EE498AF1EE10FA9FD094ED007AC7
:1036A0003046D4ED047A39EE488A77EEC77AFEEEDA
:1036B000CA7A17EE903AFF1A39133F01BAB2CDE930
:1036C0000012FFF727FEBAF1010FB0EE409ADDE9D4
:1036D000001253D155ED027AE8EE007A45ED027AF8
:1036E00055ED017AE8EE007A45ED017A76E794ED42
:1036F0000A7AF8EEC78A5FE7B7EE00BA6EE7C4ED64
:10370000067A94ED067A0023C4ED038AF4EEC77AB4
:103710002360F1EE10FA98BFC4ED067A94ED067AB4
:1037200077EEC77A94ED027AC4ED02AA77EE877A33
:103730009FED1C7AC4ED047A6BEE0A7AF4EECA7A35
:10374000F1EE10FA58BFF0EE477AC4ED057A59E76A
:10375000B0EE498A74E79FED188A71E7BAF1020F5B
:1037600097D106F1200068EE299AFFF7D3FD28EEE5
:10377000000A45ED029A05ED010A8AE7BAF1020F47
:103780007FF42CAF06F12000FFF7C4FD55ED027A5F
:10379000E8EE097A45ED027A55ED017AE8EE007A15
:1037A000A2E700BF0000804217B751380000803DFB
:1037B000A4707D3F0AD7233C00000000D0ED085ADA
:1037C00090ED065AD0ED077A02B3B7EE006A013ADF
:1037D000F0EE006AF4EEC67AF1EE10FAACBF36EE07
:1037E000E77AB0EE677A77EEA57A27EE057AB4EE3F
:1037F000467AB7EE006AF1EE10FAF4EEE67A26FEAB
:10380000077AF1EE10FA04DB034B0B60C0ED077A88
:103810007047A1EC017AD7E7000080BF70B504467D
:103820000D4616462DED068BD0ED089A90ED05AAB3
:1038300090ED078A0EB3F7EE007ADFED140AB0EED2
:10384000009A1348013EB4EEE78AF1EE10FAACBFDD
:1038500079EE488AF0EE488A38EE298AB0EE680A96
:10386000FEF783FAB4EEC98A30EE680AF1EE10FA78
:10387000E0EE0A8A06DB074B2B6084ED078ABDEC7D
:10388000068B70BDE5EC018AD4E700BF00008045DF
:103890005C630324000080BFD0ED085A90ED065A07
:1038A000D0ED077A02B3B7EE006A013AF0EE006A93
:1038B000F4EEC67AF1EE10FAACBF36EEE77AB0EE6F
:1038C000677A77EEA57A27EE057AB4EE467AB7EEF8
:1038D000006AF1EE10FAF4EEE67A26FE077AF1EECF
:1038E00010FA04DB034B0B60C0ED077A7047A1ECC4
:1038F000017AD7E7000080BF90ED086AD0ED077A23
:10390000B2B1B7EE007A013AF0EE006AF4EEC77A8F
:10391000F1EE10FAACBF36EEE77AB0EE677A77EEEA
:10392000867AF4EEE67AF1EE10FA04DB034B0B60D4
:10393000C0ED077A7047A1EC017AE1E7000080BF93
:1039400090ED086AD0ED077AB2B1B7EE007A013A8D
:10395000F0EE006AF4EEC77AF1EE10FAACBF36EE84
:10396000E77AB0EE677A77EE867AF4EEE67AF1EEF1
:1039700010FA04DB034B0B60C0ED077A7047A1EC33
:10398000017AE1E7000080BF90ED086AD0ED077A88
:10399000B2B1B7EE007A013AF0EE006AF4EEC77AFF
:1039A000F1EE10FAACBF36EEE77AB0EE677A77EE5A
:1039B000867AF4EEE67AF1EE10FA04DB034B0B6044
:1039C000C0ED077A7047A1EC017AE1E7000080BF03
:1039D000036907EE102A0F4A8B42BBEEC87AD8BFA4
:1039E000C91A4368585C19444B7832F9100032F90F
:1039F000133000EE100A07EE903AB8EEC00AF8EE67
:103A0000E77A77EEC07AA7EE270ADFED037A20EE99
:103A1000270A70475C6103240000003892ED0A7A9F
:103A2000D0ED006A67EE077A2DE9F04F67EE877AEE
:103A300005460F462DED048BB8EEE68A8FB0059350
:103A400028EE278A92F83430D0ED057A089287EE76
:103A5000889AB3BBC84B8361C8EE278A28460024E6
:103A6000FEF74EFD089B069093F825601C9B9C4238
:103A70002AD0B7EE007AD5ED067A77EE877AC5EDD3
:103A8000067A15F019FE07EE900AFAEEE07AF4EEE7
:103A9000E87AF1EE10FA07D5D5ED037AF4EEC87A9C
:103AA000F1EE10FA00F10783D5ED067AB4EEE79A4D
:103AB000F1EE10FA40F2FF82002E40F0FC82013459
:103AC000D4E7FFEE008AC9E7059B0021059805F6BB
:103AD0001C5607932C461C9BDA0015F03FFD002373
:103AE00009932868099B984240F36A8294F8491028
:103AF00004F11C00AA68022994F8483040F0CC80F8
:103B0000012A5DD1002B3BD0DDF87090DDF81480E8
:103B1000E36A4BB1B9F1000F06D0013B08F1080888
:103B200009F1FF39E362F3E7D4ED0C7A4A463146F6
:103B3000F5EE407AF1EE10FA27D1FFF73FFEA36AC7
:103B4000B34694ED109A0A93D4ED118AE369D4F840
:103B500024A0B9F1000F11D0FFEE007ABBEC018A6E
:103B600003EB2A4109F1FF3908F10808B4EE678A2E
:103B7000F1EE10FA0CD1002384F84830C4F824A0E8
:103B8000099B303401330993ABE7FFF747FED6E7D3
:103B90001FFA8AF238460B93FFF760F928EE000A05
:103BA00058ED027A0A9BE9EE007A9A440B9B48EDA5
:103BB000027A58ED017AE8EE807A48ED017AC8E79A
:103BC000002BDDD0DDF87090DDF81480E36A4BB196
:103BD000B9F1000F06D0013B08F1080809F1FF39DF
:103BE000E362F3E7D4ED0C7A4A463146F5EE407ACB
:103BF000F1EE10FA4DD1FFF7E1FDA36AB346D4ED23
:103C0000109A0A9394ED119AE369D4F824A0B9F1BB
:103C1000000FB3D0FFEE007ABBEC018A03EB2A4120
:103C200009F1FF3908F10808B4EE678AF1EE10FADD
:103C3000A1D01FFA8AF238460D93CDE90B12FFF797
:103C40000DF907F1200068EE008ADDE90B12FFF79D
:103C500005F9F7EE007A28EE008A58ED026A0A9B11
:103C600037EEC97A77EEE97A9A440D9B27EE087A07
:103C700067EEA87AA9EEA87AE9EE087A36EE877A96
:103C800008ED027A18ED017A77EE277A48ED017A8D
:103C9000BDE7FFF7C3FDB0E7012940F0CF80012A5F
:103CA00056D1002B3FF46CAFDDF87090DDF8148036
:103CB000E36A4BB1B9F1000F06D0013B08F10808E7
:103CC00009F1FF39E362F3E7D4ED0C7A4A46314655
:103CD000F5EE407AF1EE10FA37D1FFF7DDFDA36A79
:103CE000B34694ED109A0A93D4ED118AE369D4F89F
:103CF00024A0B9F1000F3FF441AFFFEE007ABBEC16
:103D0000018A03EB2A4109F1FF3908F10808B4EEF2
:103D1000678AF1EE10FA3FF42EAF1FFA8AF23846A6
:103D20000B93FFF755FE28EE000A58ED027A0A9B26
:103D3000E9EE007A9A440B9B48ED027A58ED017A3D
:103D4000E8EE807A48ED017AD3E7FFF7D5FDC6E7C4
:103D5000002B3FF415AFDDF87090DDF81480E36AB6
:103D600083B1B9F1000F0DD0013B08F1080809F14A
:103D7000FF39E362F3E700BF00007AC4CDCC4C3ECC
:103D80006666663FD4ED0C7A4A463146F5EE407AD7
:103D9000F1EE10FA4FD1FFF77FFDA36AB346D4EDE1
:103DA000109A0A9394ED119AE369D4F824A0B9F11A
:103DB000000F3FF4E3AEFFEE007ABBEC018A03EBA9
:103DC0002A4109F1FF3908F10808B4EE678AF1EEDB
:103DD00010FA3FF4D0AE1FFA8AF238460D93CDE9BF
:103DE0000B12FFF7F5FD07F1200068EE008ADDE910
:103DF0000B12FFF7EDFDF7EE007A28EE008A58ED82
:103E0000026A0A9B37EEC97A77EEE97A9A440D9BEB
:103E100027EE087A67EEA87AA9EEA87AE9EE087A82
:103E200036EE877A08ED027A18ED017A77EE277A76
:103E300048ED017ABBE7FFF75FFDAEE7012A54D1F9
:103E4000002B3FF49DAEDDF87090DDF81480E36A3E
:103E50004BB1B9F1000F06D0013B08F1080809F198
:103E6000FF39E362F3E7D4ED0C7A4A463146F5EECA
:103E7000407AF1EE10FA35D1FFF762FDA26AB3463F
:103E8000E369D4ED106A94ED117AD4F824A0B9F165
:103E9000000F3FF473AEBFEE006AFBEC017A03EB58
:103EA0002A4109F1FF3908F10808F4EE467AF1EEEB
:103EB00010FA3FF460AE3846CDE90A23FDF7C0FEA4
:103EC00027EE800A58ED027A0A9AE6EE807A0B9B7A
:103ED000924448ED027A58ED017AE7EE007A48ED17
:103EE000017AD4E7FFF750FDC8E7002B3FF448AE56
:103EF000DDF87090DDF81480E36A4BB1B9F1000F82
:103F000006D0013B08F1080809F1FF39E362F3E745
:103F1000D4ED0C7A4A463146F5EE407AF1EE10FACD
:103F20004BD1FFF70DFDA26AB346E369D4ED104A09
:103F300094ED115AD4F824A0B9F1000F3FF41EAE4D
:103F4000FFEE007ABBEC017A03EB2A4109F1FF395D
:103F500008F10808B4EE677AF1EE10FA3FF40BAE00
:103F6000F7EE007A38460A91CDE90B23FDF768FE9B
:103F70000A9907F1200027EE006A77EEC56AFDF77F
:103F80005FFE77EEE47A58ED025A27EE007A0B9A3C
:103F90000C9B67EE867A924466EE876AE5EE077AB6
:103FA00018ED017AE4EE866A77EE277A75EEA66A56
:103FB00048ED017A48ED026ABEE7FFF7E5FCB2E79B
:103FC000069BD5ED037AC31A1FED946A5FED946AE0
:103FD00007EE103AB8EEC77A37EE677AB5EEC07AD8
:103FE000F1EE10FA76FE866AE6EE877AB0EE006AA7
:103FF000F7EE006AF4EEC67AC5ED037AF1EE10FA38
:1040000053DD77EEE67A414BF6EE005A17EE902A32
:1040100067EEA57AA3EB5203F7EE085A07EE103AC3
:1040200067EE877AE7EE675A27EE257A089BF0EE6F
:10403000667AD3ED0B5AE5EE867AF4EEE67AF1EE87
:1040400010FA35D4F4EE467AB0EE006AF1EE10FACA
:1040500076FE277A089B77EEE67A93ED0A6A0023CC
:10406000E6EE276A27EE267A079A083207921C9A0C
:10407000934246D0D5ED047A0133DFED256A37EE61
:10408000676A079AE6EE267AC5ED047A52ED026A6F
:1040900066EEA77A42ED027A52ED017AD5ED046A16
:1040A00067EEA67A42ED017ADEE7B0EE667ABDE70A
:1040B000F7EE007ACEE7069B002B3FF400AD069B9F
:1040C00028460026013B069305EB8303069AD3F8A6
:1040D0001C1C6B689342CCBF012302233022029345
:1040E00002FB01517B691C9A1C319B1A089A2344DC
:1040F00001933B6900932346FEF718FA0023AB6156
:10410000DDE40FB0BDEC048BBDE8F08FDF59375F05
:104110000AD7233C2DE9F04F171E4FF000059B46B0
:104120008146B8BF03698A462C462E46B8BFFF18A1
:10413000A8462DED028B85B004F01F03BBEB284F82
:104140004FEA2841039326DD1FFA88F23944484696
:10415000D044CDE90112FFF73BFCB0EE408A09F1F3
:104160002000DDE90112FFF733FC38EE000A039B63
:10417000B5EEC00AF1EE10FAC8BF46F001061F2BDB
:1041800002BF6309109A203504F1010408BF42F808
:1041900023607600D0E714F01F030BD01F2B02BF63
:1041A0006309109A203504F1010408BF42F8236026
:1041B0007600F0E7284605B0BDEC028BBDE8F08F35
:1041C0002DE9F74F171E4FF000059A468346B8BFFA
:1041D000036989462C462E46B8BFFF18A84604F04E
:1041E0001F03BAEB284F4FEA284101931ADD1FFA4B
:1041F00088F239445846C844FFF7EAFBB5EEC00AD6
:10420000019BF1EE10FAC8BF46F001061F2B02BF5A
:1042100063090C9A203504F1010408BF42F82360B9
:104220007600DCE714F01F030BD01F2B02BF6309DD
:104230000C9A203504F1010408BF42F8236076008F
:10424000F0E7284603B0BDE8F08F000090F850304A
:10425000F7B504460F46002B4DD1436BB7EE007AFD
:1042600007EE903AFAEEEA7AF4EEC77AF1EE10FA37
:1042700043D4B0EE007AF4EE477AF1EE10FA77FE0E
:10428000277A9FED277AF7EE046AA06B67EE877AAC
:1042900094ED137A2168B4EE667A626D0968F1EEE6
:1042A00010FA009148BFB0EE667A0128384667EEF2
:1042B000277AFDEEE77A17EE905A17EE901A1FD183
:1042C000FFF77EFF2368626B0646A16D38465B6888
:1042D000009353008A1A2946FFF772FF616BA36DA2
:1042E00020685A1A2B4602EB61023146FDF79DFC0D
:1042F000012384F8503003B0F0BDF0EE477AC0E7F8
:10430000FFF708FF2368626B0646A16D38465B68BD
:10431000009353008A1A2946FFF7FCFEDEE700BF30
:1043200000008047036907EE102A8B42BBEEC87A73
:10433000D8BFC91A036833F9112003EB4101B1F961
:10434000023000EE102A07EE903AB8EEC00AF8EEFE
:10435000E77A77EEC07AA7EE270ADFED027A20EE41
:10436000270A70470000003892ED0A7AD0ED006A03
:1043700067EE077A2DE9F04F67EE877A05460F461C
:104380002DED048BB8EEE68A8FB0059328EE278AD0
:1043900092F83430D0ED057A089287EE889AB3BB54
:1043A000C84B8361C8EE278A28460024FEF7A8F888
:1043B000089B069093F825601C9B9C422AD0B7EE80
:1043C000007AD5ED067A77EE877AC5ED067A15F094
:1043D00073F907EE900AFAEEE07AF4EEE87AF1EE7D
:1043E00010FA07D5D5ED037AF4EEC87AF1EE10FA9B
:1043F00000F12783D5ED067AB4EEE79AF1EE10FAD4
:1044000040F21F83002E40F01C830134D4E7FFEEFE
:10441000008AC9E7059B0021059805F61C560793FD
:104420002C461C9BDA0015F099F8002309932868A4
:10443000099B984240F38A8294F8491004F11C00C9
:10444000AA68022994F8483040F0CC80012A5DD156
:10445000002B3BD0DDF87090DDF81480E36A4BB19F
:10446000B9F1000F06D0013B08F1080809F1FF3946
:10447000E362F3E7D4ED0C7A4A463146F5EE407A32
:10448000F1EE10FA27D1FFF799F9A36AB34694ED3C
:10449000109A0A93D4ED118AE369D4F824A0B9F1F3
:1044A000000F11D0FFEE007ABBEC018A03EB2A412A
:1044B00009F1FF3908F10808B4EE678AF1EE10FA45
:1044C0000CD1002384F84830C4F824A0099B303470
:1044D00001330993ABE7FFF7A1F9D6E71FFA8AF298
:1044E00038460B93FEF716FF28EE000A58ED027AC5
:1044F0000A9BE9EE007A9A440B9B48ED027A58ED4C
:10450000017AE8EE807A48ED017AC8E7002BDDD029
:10451000DDF87090DDF81480E36A4BB1B9F1000F5B
:1045200006D0013B08F1080809F1FF39E362F3E71F
:10453000D4ED0C7A4A463146F5EE407AF1EE10FAA7
:104540004DD1FFF73BF9A36AB346D4ED109A0A9315
:1045500094ED119AE369D4F824A0B9F1000FB3D017
:10456000FFEE007ABBEC018A03EB2A4109F1FF3927
:1045700008F10808B4EE678AF1EE10FAA1D01FFA2C
:104580008AF238460D93CDE90B12FEF7C3FE07F110
:10459000200068EE008ADDE90B12FEF7BBFEF7EEA5
:1045A000007A28EE008A58ED026A0A9B37EEC97A33
:1045B00077EEE97A9A440D9B27EE087A67EEA87A9F
:1045C000A9EEA87AE9EE087A36EE877A08ED027A43
:1045D00018ED017A77EE277A48ED017ABDE7FFF70B
:1045E0001DF9B0E7012940F0D180012A56D1002BF6
:1045F0003FF46CAFDDF87090DDF81480E36A4BB1E6
:10460000B9F1000F06D0013B08F1080809F1FF39A4
:10461000E362F3E7D4ED0C7A4A463146F5EE407A90
:10462000F1EE10FA37D1FFF737F9A36AB34694EDEC
:10463000109A0A93D4ED118AE369D4F824A0B9F151
:10464000000F3FF441AFFFEE007ABBEC018A03EBB1
:104650002A4109F1FF3908F10808B4EE678AF1EE42
:1046600010FA3FF42EAF1FFA8AF238460B93FFF789
:1046700059FE28EE000A58ED027A0A9BE9EE007A0C
:104680009A440B9B48ED027A58ED017AE8EE807A65
:1046900048ED017AD3E7FFF72FF9C6E7002B3FF487
:1046A00015AFDDF87090DDF81480E36A93B1B9F1CD
:1046B000000F0FD0013B08F1080809F1FF39E36250
:1046C000F3E700BF00007AC400000038CDCC4C3EB8
:1046D0006666663FD4ED0C7A4A463146F5EE407A7E
:1046E000F1EE10FA4FD1FFF7D7F8A36AB346D4ED35
:1046F000109A0A9394ED119AE369D4F824A0B9F1C1
:10470000000F3FF4E1AEFFEE007ABBEC018A03EB51
:104710002A4109F1FF3908F10808B4EE678AF1EE81
:1047200010FA3FF4CEAE1FFA8AF238460D93CDE967
:104730000B12FFF7F7FD07F1200068EE008ADDE9B4
:104740000B12FFF7EFFDF7EE007A28EE008A58ED26
:10475000026A0A9B37EEC97A77EEE97A9A440D9B92
:1047600027EE087A67EEA87AA9EEA87AE9EE087A29
:1047700036EE877A08ED027A18ED017A77EE277A1D
:1047800048ED017ABBE7FFF7B7F8AEE7012A5CD145
:10479000002B3FF49BAEDDF87080059BE26A03F1CD
:1047A000080942B1B8F1000F05D0013A4B4608F1B3
:1047B000FF38E262F2E7D4ED0C7A42463146F5EE7C
:1047C000407AF1EE10FA1FD1FFF7BAF84B46D4F851
:1047D00028C0D4F81CE0B14694ED106AD4ED116AFB
:1047E000616AB8F1000F0DD0FFEE007AB9EC017AE2
:1047F0000EEB2140B4EE677AF1EE10FA07D10023F8
:1048000084F84830616261E6FFF7BEF8DEE73A6996
:10481000614408F1FF3808339042A8BF801A3A6813
:1048200032F9102007EE902AFAEEE87A67EE877ADE
:1048300013ED047AA6EE277A03ED047A13ED037ADA
:10484000A6EEA77A03ED037ACBE7002B3FF43EAE4A
:10485000DDF870800599E36A01F1080943B1B8F108
:10486000000F05D0013B494608F1FF38E362F2E74B
:10487000D4ED0C7A42463146F5EE407AF1EE10FA6C
:104880001FD1FFF75DF8D4F828A04946D4F81CC022
:10489000B646D4ED104A94ED115A606AB8F1000F93
:1048A0000DD0FFEE007ABEEC016A0CEB2043B4EEB3
:1048B000676AF1EE10FA07D1002384F8483060628D
:1048C00004E6FFF761F8DEE73A6950445FED825A8B
:1048D00008F1FF38934201F10801ACBFA3EB0209D4
:1048E00099463A6832F9192007EE902A3A6B9342BA
:1048F000F8EEE77AA8BF9B1A3A6A67EEA57A32F912
:10490000133007EE103A67EE866AF7EE007AB8EEDB
:10491000C77A27EE257A51ED045A27EE067A37EE4C
:10492000C56A77EEE47A26EE076A67EEA67AA4EE09
:10493000A66AE5EE077A11ED037A35EE866A77EE20
:10494000277A01ED046A41ED037AA7E7069BD5EDCE
:10495000037AC31A1FEDA36A5FEDA36A07EE103A4C
:10496000B8EEC77A37EE677AB5EEC07AF1EE10FA94
:1049700076FE866AE6EE877AB0EE006AF7EE006AA7
:10498000F4EEC67AC5ED037AF1EE10FA53DD77EE58
:10499000E67A414BF6EE005A17EE902A67EEA57ABA
:1049A000A3EB5203F7EE085A07EE103A67EE877A48
:1049B000E7EE675A27EE257A089BF0EE667AD3ED8C
:1049C0000B5AE5EE867AF4EEE67AF1EE10FA35D47B
:1049D000F4EE467AB0EE006AF1EE10FA76FE277A2F
:1049E000089B77EEE67A93ED0A6A0023E6EE276AE3
:1049F00027EE267A079A083207921C9A934246D0ED
:104A0000D5ED047A0133DFED256A37EE676A079A40
:104A1000E6EE267AC5ED047A52ED026A66EEA77AD2
:104A200042ED027A52ED017AD5ED046A67EEA67A7C
:104A300042ED017ADEE7B0EE667ABDE7F7EE007A86
:104A4000CEE7069B002B3FF4E0AC069B28460026F1
:104A5000013B069305EB8303069AD3F81C1C6B6895
:104A60009342CCBF012302233022029302FB015167
:104A70007B691C9A1C319B1A089A234401933B6959
:104A800000932346FDF752FD0023AB61BDE40FB058
:104A9000BDEC048BBDE8F08FDF59375F0AD7233CAC
:104AA0002DE9F74F1F46037804468946032B154628
:104AB00000F0F38100F592564FF0000A1C36B04624
:104AC0006368534519DD04F58053227A09EB8A01A6
:104AD00093F8003B83F00103009302233AB13A4676
:104AE0003046FDF797FE0AF1010A2036E8E73A461C
:104AF00006F14000FDF738FFF5E72378032B4AD88D
:104B0000DFE813F004006400A001CB0104F580533A
:104B1000B6EE007A03F6E822D2ED007AF4EEC77A18
:104B20009FEDD07AF1EE10FAF4EEC77A4CBF012275
:104B30000022F1EE10FA83F8102B03F604322DDB7D
:104B400077EEC77A9FEDC87A67EE877AC2ED007A72
:104B500003F6EC22B6EE087A03F6083304F15400AB
:104B6000D2ED007A04F5D652F4EEC77A1C32F1EE9B
:104B700010FA4ABF9FEDBD7AF7EE007A67EE877AAA
:104B8000C3ED007A237A0097DBB904F594512B46E4
:104B90001C31FFF7E9FB03B0BDE8F08F9FEDB47A5D
:104BA000F4EEC77AF1EE10FA9BBF37EE677ADFEDCD
:104BB000AE7A002127EE277A8CBF116082ED007A51
:104BC000C6E72B464146FEF729FFE4E7D4F8542E0A
:104BD00004F5805394F808C0F7EE007A04F55F6698
:104BE000013293F8010B94F8081EBCF1000F40F05D
:104BF000968004F59458C4F8542E08F11C0898B116
:104C000007EE102A0020B8EEC77AF065C7EE876A73
:104C10009FED987AF4EEC76AF1EE10FA76D500228D
:104C200086ED187AC4F8542E96ED177A03F6DC2335
:104C3000D6ED186A9A6837EE267AD3ED006A5B687B
:104C4000F263B4EEE77AB364F1EE10FA27FE877AE6
:104C500086ED177A37EEC77A77EEE67AE7EE276ABF
:104C6000C6ED116A59B194F8203E43B1012304F610
:104C7000F4524146304684F8223EFEF743F8002FB6
:104C800089D00023A94604F6F45A04F60C6B49F8BF
:104C9000083B2A464146504649F8043CD4F8283E91
:104CA000FEF77CFBD4F8283E2A4641465846FEF7DC
:104CB00075FB94F8093E8BB194F80A3E73B9012351
:104CC0005A464146304684F80A3EFEF71BF8D4F8AF
:104CD000283E2A4641465846FEF760FB94F8213E9E
:104CE0008BB194F8223E73B90123524641463046B7
:104CF00084F8223EFEF706F8D4F8283E2A464146BC
:104D00005046FEF74BFB013F4D46B8E79FED5A7A00
:104D1000F4EEC76AF1EE10FA37FE267A7FE7C4F8A0
:104D2000542E98B107EE102A0020B8EEC77AF0652D
:104D3000C7EE876A9FED4F7AF4EEC76AF1EE10FA7C
:104D400077D5002286ED187AC4F8542E96ED177A9E
:104D500003F6DC23D6ED186A9A6837EE267AD3ED8F
:104D6000006A5B68F263B4EEE77AB364F1EE10FABE
:104D700027FE877A86ED177A37EEC77A77EEE67ADE
:104D8000E7EE276AC6ED116A59B194F8203E43B1A7
:104D9000012304F6F4524146304684F8223EFDF7E2
:104DA00005FF002F3FF4F7AE0023A94604F6F45A9E
:104DB00004F60C6B49F8083B2A464146504649F830
:104DC000043CD4F8283EFEF795F8D4F8283E2A464D
:104DD00041465846FEF78EF894F8093E8BB194F898
:104DE0000A3E73B901235A464146304684F80A3ECA
:104DF000FDF7DCFED4F8283E2A4641465846FEF729
:104E000079F894F8213E8BB194F8223E73B90123CE
:104E100052464146304684F8223EFDF7C7FED4F89C
:104E2000283E2A4641465046FEF764F8013F4D466B
:104E3000B7E79FED117AF4EEC76AF1EE10FA37FE8C
:104E4000267A7EE704F5D652237A04F65860009756
:104E50001C32EBB904F594512B461C31FEF702FBD2
:104E600099E600BF14AE073F14AE0740BE9FAA3FAD
:104E7000D7A3F03E17B7D138CDCCCC3DA4707D3F41
:104E80000AD7233C66668640CDCC4CBD00000000AE
:104E90002B464146FEF792F87DE604F580535FED20
:104EA000096A5FED097AB6EE006A03F6EC2103F6B3
:104EB00014320968F0EE465A116003F6E82292EDCA
:104EC000007A03F61832E7EE267AF1EE006A37EE42
:104ED000467AC2ED007A04F5D752D2ED007A04F595
:104EE000D95277EEC67A67EEA66A66EEA76AE6EE54
:104EF000A75A5FED1C6A5FED1C7A67EE266AE6EE44
:104F0000877AC2ED005AF5EEC07AF1EE10FA25D498
:104F1000B7EE007AF4EE477AF1EE10FA77FE277AD0
:104F200003F61C3304F5D6514A4604F68860C3EDF7
:104F3000007A1C312B46009701F028FB6368012B97
:104F40007FF429AE0023BB4205F108053FF423AEF0
:104F500055F8082C013345F8042CF4E75FED357A59
:104F6000DEE700BF2DE9F04F04469946637C4FEA27
:104F7000C9072DED088B0BEE102A87B063B1002F07
:104F800000F024833A461BEE100A07B0BDEC088BF4
:104F9000BDE8F04F14F0C8BA237CE3B9A37CD3B9C1
:104FA000627823789A4216D10B4604F59656019101
:104FB0001C363B44324602930B4631460298083277
:104FC000834213D01868083342F8080C53F8040CD5
:104FD00042F8040CF2E73A4600211BEE100A07B033
:104FE000BDEC088BBDE8F04F14F0B8BA6368012B34
:104FF00016D107F597530433E2183346083393422A
:105000000ED013ED017A53ED027A77EE877AB6EE81
:10501000007A67EE877A43ED027A43ED017AEDE795
:1050200004F58055F7EE008A94ED057AB3EE048A14
:1050300095F8003B04F5845BDFEDEA7A04F58758C8
:10504000002BDFEDE96A05F6F8230BF1140B47FEA0
:10505000A87A77EEC77A93ED009A5846039104F543
:10506000AE5AA7EEA67ADFEDE17A0AF11C0A69EEE4
:10507000277A0BEE90AAA7EE898A84ED057AB0EE26
:10508000480A13F029FCB0EE680A584613F088FC71
:10509000B0EE480A404613F01FFCB0EE680A4046E6
:1050A00013F07EFC07F5AF530399043323440AF150
:1050B000080A04939A4515D01AED020A584603913E
:1050C00013F0A6FBD5F8C82040461AED010A4AF8AD
:1050D000082C13F09DFBD5F81421DDE903134AF8E1
:1050E000042CE4E7B7EE00AAD4ED057A07F5975350
:1050F0007AEE677A0433234467EE897A08369E4253
:105100003ED056ED026AF2EE025A9FEDB95AB0EE69
:10511000666A96EDBE7A27EE855AA5EE076AB3EE6B
:105120000B7AF0EE474AB0EE474A66EE253AE6EED5
:10513000064AA6EE234A66EE244A84EE846AD6ED39
:10514000BF4A36EE666AE6EE276A46ED026A56ED1B
:10515000016AB0EE666AA5EE246AB0EE475A66EEC2
:10516000255AA6EE065AA6EE257A26EE055A85EEB3
:10517000076A36EE667AE7EE276A46ED016ABDE712
:1051800004F5A656237A1C36002B00F01F8104F587
:105190009E5B04F5A25804F5D9504FEA590A0BF169
:1051A0001C0B08F11C084B4604305A46FDF762FC04
:1051B0005346424659462046CDF80CA0FFF770FCF6
:1051C00004F5F550039B324641460C30FDF79AFC3E
:1051D0002378032B00F0598105F6EC22D2ED007AFA
:1051E000002B40F0F980B6EE087AF4EEC77AF1EEC3
:1051F00010FA40F3118177EEC77AB1EE007A67EECC
:10520000877A04F57F604A463146C0ED0A7AFCF79A
:10521000F1FD2378022B40F0338195F8003B002B01
:1052200000F0FD8094F8743E002B40F0F88005F605
:10523000EC23F6EE009AD3ED008AF4EEE98AF1EE63
:1052400010FA00F1B5819FED670ADFED6AAA20EE42
:105250002A0AFCF79FFDF4EEE98A20EE298AF1EE96
:1052600010FA54BF38EECA0ABEEE000A20EE2A0A2F
:10527000FCF790FDB5EEC08AF5EE006AF1EE10FA8B
:1052800060EE268A00F19781DFED5B7AB4EE678AE3
:10529000F1EE10FA37FE888AF5EEC08AF1EE10FAC8
:1052A00000F18C81DFED547AF4EE678AF1EE10FAAA
:1052B00077FEA88AF0EE087A04F58E533AEE497A22
:1052C00094ED030A79EEC89A043328EE000A04F537
:1052D000895B27EE277A1846F0EE4A7A03930BF1A2
:1052E0000C0B04F58B5AB046E7EE297A0AF1180A3E
:1052F00067EEA69A13F0F0FA039BB0EE690A18461F
:1053000013F04EFB04F5905394ED030A103328EE8E
:10531000000A0AEE903A184613F0DEFAB0EE690A77
:105320001AEE900A13F03CFB94ED030A584628EE5F
:10533000800A13F0D1FAB0EE690A584613F030FB38
:1053400094ED030A504628EE800A13F0C5FAB0EE39
:10535000690A504613F024FB07F5A752039B043259
:10536000224408F108080592424500F08E80184654
:1053700018ED020A049313F04BFA04F5805118ED6E
:10538000010AD1F8F401039148F8080C1AEE900ACA
:1053900013F03EFA039918ED020AD1F8400248F8DA
:1053A000040C584613F034FA039918ED010AD1F8A9
:1053B000600148F8080C504613F02AFA0399D1F816
:1053C000AC11DDE9043248F8041CCAE74B4632460A
:1053D0002046FFF765FBFBE605F6E823D3ED007AF0
:1053E0000FE700BF000000006F12033A0000C84240
:1053F0003333B33F00005843EE7CFF3E0000000013
:1054000000E0EF4400000043CDCC4C3D3333733F0C
:10541000713D0A3FAE47213F5FED087AF1E605F6A0
:10542000E42307F5A65804F5835BB24693ED000A22
:1054300008F11C08FCF7AEFC04F5D7531FED107AF9
:10544000A044D3ED006A5FED117A26EE877A85EDF0
:10545000230A27EE267AE6EE877A95ED247A5FED29
:10546000166A77EEC77AA7EEA67A85ED247AC2454A
:1054700006D0514658460AF1080AFCF7A1FDF6E7A6
:105480002378013B012B7FF6D2AE07F5A6571C37D8
:105490002744B74205D0BA1B31461BEE900A14F0E0
:1054A00043F8F0EE007A94ED057A04F5D75377EEE1
:1054B000C97AD3ED076A67EE897A67EE877A1FEDBE
:1054C0002D7AE6EE877AF5EEC07AF1EE10FA78D40E
:1054D000F4EE4A7AB7EE007AF1EE10FA77FE277A08
:1054E0001FED357A04F580505FED366A4A4627EEA7
:1054F000877A394B31461C302B6585ED117A9FED4B
:10550000377A374BA7EEA67ADFED367AAB6485EDB6
:10551000137A9FED357AE9EE077AC5ED157A05F530
:105520002F65FCF715FE07EE909A94ED068A1BEEA8
:10553000109A95ED007AF8EEE77A37EE487A87EE22
:10554000279A083609F10809DDE9013293423BD078
:1055500038EE098A2548F3EE000AB0EE480AFCF757
:1055600004FCF3EE000AF0EE408A2148B0EE480A4F
:10557000FCF7FBFB56ED026ADFED1E7A019B66EE3F
:10558000A76A93ED007A083366EEA86AE7EE006A30
:1055900016ED017A27EE277A67EE287A13ED017A65
:1055A00049ED026A0193E7EE007A49ED017AC8E716
:1055B00038EEE90A49E69FED108A6DE6DFED0E8AC6
:1055C00078E6DFED0D7A8BE784ED068A07B0BDEC57
:1055D000088BBDE8F08F00BF3333333F3333B33E26
:1055E000CDCC4C3E9A99193FA470BD3E60A30324D4
:1055F000A4A303249A99993F000000002DE9F04FDD
:10560000171E4FF000059B468146B8BF03698A46C6
:105610002C462E46B8BFFF18A8462DED028B85B04C
:1056200004F01F03BBEB284F4FEA2841039326DD0C
:105630001FFA88F239444846D044CDE90112FEF7FA
:1056400071FEB0EE408A09F12000DDE90112FEF79B
:1056500069FE38EE000A039BB5EEC00AF1EE10FABF
:10566000C8BF46F001061F2B02BF6309109A203500
:1056700004F1010408BF42F823607600D0E714F07B
:105680001F030BD01F2B02BF6309109A203504F1B2
:10569000010408BF42F823607600F0E7284605B011
:1056A000BDEC028BBDE8F08F2DE9F74F171E4FF0D0
:1056B00000059A468346B8BF036989462C462E46A4
:1056C000B8BFFF18A84604F01F03BAEB284F4FEAF3
:1056D000284101931ADD1FFA88F239445846C8441C
:1056E000FEF720FEB5EEC00A019BF1EE10FAC8BF2E
:1056F00046F001061F2B02BF63090C9A203504F106
:10570000010408BF42F823607600DCE714F01F03B1
:105710000BD01F2B02BF63090C9A203504F1010442
:1057200008BF42F823607600F0E7284603B0BDE8E2
:10573000F08F000090F85030F7B504460F46002B6C
:105740004DD1436BB7EE007A07EE903AFAEEEA7A63
:10575000F4EEC77AF1EE10FA43D4B0EE007AF4EE2C
:10576000477AF1EE10FA77FE277A9FED277AF7EE67
:10577000046AA06B67EE877A94ED137A2168B4EE21
:10578000667A626D0968F1EE10FA009148BFB0EEDA
:10579000667A0128384667EE277AFDEEE77A17EE3B
:1057A000905A17EE901A1FD1FFF77EFF2368626BA5
:1057B0000646A16D38465B68009353008A1A294655
:1057C000FFF772FF616BA36D20685A1A2B4602EB3C
:1057D00061023146FCF729FA012384F8503003B006
:1057E000F0BDF0EE477AC0E7FFF708FF2368626B71
:1057F0000646A16D38465B68009353008A1A294615
:10580000FFF7FCFEDEE700BF000080472DE9F04710
:10581000467804460578F31E012B2DED028B88B0E7
:1058200040F2A880EF1E18BF0127A37C2BB9AE421F
:1058300000F0AF80002F40F09F80002304F58058D7
:1058400088F8003BA37C2BB9AE4200F0A280002F69
:1058500040F09F806168A66A0129626AD4E9073531
:1058600040F0A48004930023069205930793237AC3
:10587000F7EE007AB0EE008A4FF40052002B4FF0A2
:105880000001D4ED038A4FF0000A07FE888AB6F5BE
:10589000005F04F12C0729BF28460020A6F500561A
:1058A00005F50055C4F8F40F13F058FEB6F5004F97
:1058B0004FF000004FF400424FF0000128BFA6F562
:1058C0000046C4F8F00F24BF284605F50045C8F887
:1058D000200013F043FE894BB6F5C36F3846C8F875
:1058E00030304FF00006864B38BF5546C8F81CA034
:1058F000C8F8403005F50272824B2946C8F854308A
:10590000814BC8F85030FCF73BF904F58350C8F8D8
:105910006450FCF773FF7D4BC8F88860C8F890307E
:105920002378032B49D004F5925504F5B6591C355C
:1059300009F11C096068217A504566DD04AB53F813
:105940002A0006AB53F82A2000294FD0A2F1080301
:105950007F21AE602B610023C5E900006B61EB6124
:1059600013F0FCFDC5F818900AF1010A203509F57D
:105970000079DFE7002758E72046FCF7C9FE04F569
:105980008350FCF73BFF23786370A37C002B7FF4EC
:1059900054AF2378032B40F08F8004F6886008B062
:1059A000BDEC028BBDE8F04700F00FBECDE9066606
:1059B000CDE904359D19961B59E7227A88EE880AAD
:1059C000636804A9002A04F6886014BF0822102224
:1059D000CDE901324FF4805306AA00934C4B00F0FE
:1059E00037FD0023A37423786370D2E75208AE64B6
:1059F000E965A2F108035200C5E91000C5E91431B8
:105A000013F0ACFDC5F85890AEE7012804F54065E9
:105A10000CBF2823202300294FF07E5114BF1722EA
:105A200010226166534322461B11636503EB430357
:105A30009B10A36500234FF0804C303282F86C300D
:105A4000C2F85CC09542F5D14FF089420125266627
:105A5000A26604F55F62E065C4F8F07DC4F8280E24
:105A6000D66356641664A4F8085EA4F8205E84F831
:105A70000A3E84F8223ED16484F8405E4FF400650B
:105A8000C4F8443EC4F8245E4FF07C55C4F8483E48
:105A9000D665156604F65862C4F8543EC4F8780E0C
:105AA000166056609660D660C4F8803EC4F8843EA6
:105AB00084F8743E516194E7012B19D1237A04F5DF
:105AC0005F607BB904F594511C31FFF733FE04F19C
:105AD0002C05E46BA410103454B12846013CFCF7AB
