:020000040800F2
:100000000000022059090008550900083958000865
:1000100055090008550900085509000800000000AE
:10002000000000000000000000000000550900086A
:10003000550900080000000055090008BD570008D8
:100040005509000855090008550900085509000818
:100050005509000855090008550900085509000808
:1000600055090008550900085509000839530008CA
:1000700045530008CD3D0008515300085D5300086A
:10008000F10C0108D147000855090008550900087E
:1000900055090008550900085509000855090008C8
:1000A00055090008550900085509000855090008B8
:1000B000C5000108D1000108DD000108054800085D
:1000C00055090008114800085509000835F90008CD
:1000D00041F90008250B0108550B0108890B01089F
:1000E00055090008550900080000000055090008DE
:1000F0005509000855090008550900085509000868
:1001000055090008AD570008E90001084DF900083D
:10011000BD0B0108F10B01089940000855090008C2
:10012000814000088D40000871F90008A5F9000819
:10013000250D010855090008550900085509000852
:1001400000000000000000000000000000000000AF
:10015000550900085509000855090008250C010833
:100160001D48000855090008CD570008F157000840
:1001700055090008155800085509000855090008D8
:100180005509000855090008590C0108890C010897
:1001900059F9000865F900085509000855090008D3
:1001A00055090008550900085509000855090008B7
:1001B000595000085509000855090008550900085C
:1001C0005509000855090008550900085509000897
:1001D0005509000855090008550900085509000887
:1001E0005509000855090008550900085509000877
:1001F0005509000855090008550900085509000867
:100200005509000855090008550900085509000856
:100210005509000855090008550900085509000846
:10022000550900085509000855090008000000009C
:10023000550900085509000800000000550900088C
:100240005509000855090008550900085509000816
:100250005509000855090008550900085509000806
:1002600055090008550900085509000855090008F6
:100270005509000855090008BD0C010800000000E0
:10028000550900085509000855090008000000003C
:08029000000000005509000800
:1002980010B5054C237833B9044B13B10448AFF3B8
:1002A80000800123237010BDE0030024000000003B
:1002B800583F010808B5034B1BB103490348AFF386
:1002C800008008BD00000000E4030024583F010836
:1002D80081F0004102E000BF83F0004330B54FEAEF
:1002E80041044FEA430594EA050F08BF90EA020F5C
:1002F8001FBF54EA000C55EA020C7FEA645C7FEAEF
:10030800655C00F0E2804FEA5454D4EB5555B8BF11
:100318006D420CDD2C4480EA020281EA030382EA82
:10032800000083EA010180EA020281EA0303362D14
:1003380088BF30BD11F0004F4FEA01314FF4801CE7
:100348004CEA113102D0404261EB410113F0004FF9
:100358004FEA03334CEA133302D0524263EB4303B0
:1003680094EA050F00F0A780A4F10104D5F1200E4E
:100378000DDB02FA0EFC22FA05F2801841F10001A9
:1003880003FA0EF2801843FA05F359410EE0A5F17D
:1003980020050EF1200E012A03FA0EFC28BF4CF0AE
:1003A800020C43FA05F3C01851EBE37101F0004564
:1003B80007D54FF0000EDCF1000C7EEB00006EEB71
:1003C8000101B1F5801F1BD3B1F5001F0CD34908FB
:1003D8005FEA30004FEA3C0C04F101044FEA445252
:1003E80012F5800F80F09A80BCF1004F08BF5FEAD9
:1003F800500C50F1000041EB045141EA050130BDB9
:100408005FEA4C0C404141EB0101013C28BFB1F5CA
:10041800801FE9D291F0000F04BF01460020B1FA15
:1004280081F308BF2033A3F10B03B3F120020CDAE8
:100438000C3208DD02F1140CC2F10C0201FA0CF0C6
:1004480021FA02F10CE002F11402D8BFC2F1200C2B
:1004580001FA02F120FA0CFCDCBF41EA0C019040E1
:10046800E41AA2BF01EB0451294330BD6FEA04042A
:100478001F3C1CDA0C340EDC04F11404C4F1200215
:1004880020FA04F001FA02F340EA030021FA04F327
:1004980045EA030130BDC4F10C04C4F1200220FA7E
:1004A80002F001FA04F340EA0300294630BD21FABC
:1004B80004F0294630BD94F0000F83F4801306BF82
:1004C80081F480110134013D4EE77FEA645C18BF76
:1004D8007FEA655C29D094EA050F08BF90EA020F0D
:1004E80005D054EA000C04BF1946104630BD91EA05
:1004F800030F1EBF0021002030BD5FEA545C05D108
:100508004000494128BF41F0004130BD14F5800446
:100518003CBF01F5801130BD01F0004545F0FE41BA
:1005280041F470014FF0000030BD7FEA645C1ABFEF
:10053800194610467FEA655C1CBF0B46024650EA26
:10054800013406BF52EA033591EA030F41F4002152
:1005580030BD00BF90F0000F04BF0021704730B5D8
:100568004FF4806404F132044FF000054FF00001AD
:1005780050E700BF90F0000F04BF0021704730B56E
:100588004FF4806404F1320410F0004548BF404243
:100598004FF000013EE700BF42004FEAE2014FEA98
:1005A80031014FEA02701FBF12F07F4393F07F4F73
:1005B80081F06051704732F07F4208BF704793F076
:1005C8007F4F04BF41F40021704730B54FF4607489
:1005D80001F0004521F000411CE700BF50EA01028C
:1005E80008BF704730B54FF000050AE050EA010235
:1005F80008BF704730B511F0004502D5404261EBA5
:1006080041014FF4806404F132045FEA915C3FF4E5
:10061800D8AE4FF003025FEADC0C18BF03325FEA82
:10062800DC0C18BF033202EBDC02C2F1200300FA33
:1006380003FC20FA02F001FA03FE40EA0E0021FA58
:1006480002F11444BDE600BF53B94AB9002908BFF6
:1006580000281CBF4FF0FF314FF0FF3000F074B995
:10066800ADF1080C6DE904CE00F006F8DDF804E001
:10067800DDE9022304B070472DE9F047089D0446E0
:100688008E46002B4DD18A42944669D9B2FA82F23D
:1006980052B101FA02F3C2F1200120FA01F10CFA79
:1006A80002FC41EA030E94404FEA1C48210CBEFBB1
:1006B800F8F61FFA8CF708FB16E341EA034306FB3A
:1006C80007F199420AD91CEB030306F1FF3080F0C9
:1006D8001F81994240F21C81023E63445B1AA4B216
:1006E800B3FBF8F008FB103344EA034400FB07F7B8
:1006F800A7420AD91CEB040400F1FF3380F00A81F9
:10070800A74240F207816444023840EA0640E41BED
:1007180000261DB1D4400023C5E900433146BDE899
:10072800F0878B4209D9002D00F0EF800026C5E93B
:10073800000130463146BDE8F087B3FA83F6002E53
:100748004AD18B4202D3824200F2F980841A61EBCB
:10075800030301209E46002DE0D0C5E9004EDDE7E9
:1007680002B9FFDEB2FA82F2002A40F09280A1EBD1
:100778000C014FEA1C471FFA8CFE0126200CB1FB26
:10078800F7F307FB131140EA01410EFB03F088421F
:1007980008D91CEB010103F1FF3802D2884200F2AC
:1007A800CB804346091AA4B2B1FBF7F007FB10113E
:1007B80044EA01440EFB00FEA64508D91CEB0404DC
:1007C80000F1FF3102D2A64500F2BB800846A4EB37
:1007D8000E0440EA03409CE7C6F12007B34022FA22
:1007E80007FC4CEA030C20FA07F401FA06F31C4351
:1007F800F9404FEA1C4900FA06F3B1FBF9F8200C5E
:100808001FFA8CFE09FB181140EA014108FB0EF0A3
:10081800884202FA06F20BD91CEB010108F1FF3AF3
:1008280080F08880884240F28580A8F102086144FF
:10083800091AA4B2B1FBF9F009FB101144EA01410D
:1008480000FB0EFE8E4508D91CEB010100F1FF34B8
:100858006CD28E456AD90238614440EA0840A0FB50
:100868000294A1EB0E01A142C846A64656D353D026
:100878005DB1B3EB080261EB0E0101FA07F722FA4A
:1008880006F3F1401F43C5E9007100263146BDE873
:10089800F087C2F12003D8400CFA02FC21FA03F3D6
:1008A800914001434FEA1C471FFA8CFEB3FBF7F057
:1008B80007FB10360B0C43EA064300FB0EF69E427C
:1008C80004FA02F408D91CEB030300F1FF382FD215
:1008D8009E422DD9023863449B1B89B2B3FBF7F6BD
:1008E80007FB163341EA034106FB0EF38B4208D996
:1008F8001CEB010106F1FF3816D28B4214D9023ED7
:100908006144C91A46EA004638E72E46284605E7F4
:100918000646E3E61846F8E64B45A9D2B9EB0208C5
:1009280064EB0C0E0138A3E74646EAE7204694E755
:100938004046D1E7D0467BE7023B614432E7304688
:1009480009E76444023842E7704700BFFEE700BF8A
:100958000B480C4A904203D0121A0B4913F096F830
:100968000A480B4A904203D0121A002113F09CF84F
:1009780005F08AF913F05EF801F0F0F9FEE700BF20
:1009880000000024E00300248C3F0108E003002459
:1009980080420024704700BF704700BF49424FF4AF
:1009A80080621030C9B213F07FB800BF4020704792
:1009B800704700BF8020704770B5144882B0144655
:1009C8000E4601F0B5FD114801F0BEFDE4B1A200EC
:1009D800D6E9000505EB8404A04202D281188D42B5
:1009E8000BD30021019213F05FF8019A00212846E9
:1009F80002B0BDE8704013F057B8002340F8043B3C
:100A0800884245F8043BF8D102B070BDFC030024CD
:100A180010B504464FF4826112F0EFFD204610BD78
:100A28002DE9F04F4FF0B00885B0054600F10807F2
:100A380000F18F0600F28F494FF47A7B4FF0000ADD
:100A4800297B022303AA3846CDF800B0A6F180041A
:100A58008DF80CA08DF80D8003F078FF297B022318
:100A680003AA3846CDF800B08DF80CA08DF80DA07B
:100A780003F06CFF4FF0100C297B022303AA3846C1
:100A8800CDF800B08DF80CA08DF80DC003F05EFF16
:100A98004FF47A7014F801CF4FF0400E297B0223EF
:100AA800009003AA38468DF80CE08DF80DC003F0CD
:100AB8004DFFB442ECD104F1800608F101084E451F
:100AC8005FFA88F8B8D105B0BDE8F08F2DE9F04F8E
:100AD80089B008AC9DF84870019104E90C000B78C6
:100AE800002B00F0AB801A469DF818809DF819304D
:100AF8000646454690460393079B0593A8F12004B4
:100B0800E3B25E2B00F29E8033685E4ADB68934254
:100B180040F09B808020B3882B44834200F392806E
:100B28003368594A9B68934240F092804020F1888C
:100B3800039A02918B18834200F38480002A00F004
:100B4800918002FB04F46FF00049059BA144144412
:100B5800B6F804B003EB4909023BCDF8108003EB6B
:100B680044030C469A4639F802CFA5B304F00703AC
:100B78004FF0010EE20859460EFA03FE0BF110037E
:100B88004FFA8EFE03EBC21200236FEA0E083244BE
:100B98000DE07F2906D83F2C04D8107897B14EEA8B
:100BA80000001070013301320131AB4213D00CFA4E
:100BB80003F00004EDD47F29F4D83F2CF2D8107844
:100BC800002FECD0013308EA000001320131AB42BA
:100BD80002F8010CEBD1D14504F10104C3D1DDF8D1
:100BE800108032680BEB05042649D368A4B28B4207
:100BF80034D18020844204D3D36822498B423AD12D
:100C08007F249368204AB480934224D14020029BD9
:100C1800834206D333681C4A9B68934225D13F23FD
:100C28000293029BF380019B1878404507D113F883
:100C3800018F0193B8F1000F7FF460AF002009B075
:100C4800BDE8F08F4FF00008EDE73046984762E7BF
:100C5800304698476BE730469847D8E7304698477C
:100C68003268C7E7B6F804B0BBE7304698470138A2
:100C780083B20293D5E7304698470138326884B288
:100C8800BFE700BFBD090008B50900082DE9F04F0E
:100C980085B0A1F1200504AC9DF83870009104E9F5
:100CA8000C00EBB25E2B00F29580036880465D4A2B
:100CB800DB689DF8084093429DF8096040F09480F5
:100CC8008020B8F804302344834200F38380D8F8A6
:100CD8000030554A9B68934240F088804020B8F81D
:100CE800062093190192834274DC002E00F089805B
:100CF80006FB05F56FF00040039B964628442E44FA
:100D0800B8F804A003EB4000023B03EB460B30F8B5
:100D1800026FBCB30EF007034FF0010C4FEADE027E
:100D280051460CFA03FC0AF110034FFA8CFC03EB52
:100D3800C21200236FEA0C0942440EE07F2907D84B
:100D4800BEF13F0F04D815789FB14CEA0505157020
:100D58000133013201319C4214D006FA03F52D0407
:100D6800ECD47F29F4D8BEF13F0FF1D81578002FC5
:100D7800EBD0013309EA0505013201319C4202F842
:100D8800015CEAD158450EF1010EC0D1D8F8003007
:100D980054442449DA68A4B28A422DD1802084427E
:100DA8001CD29B68204AA8F80440934221D14020D5
:100DB800019B834207D3D8F800301B4A9B689342B3
:100DC80029D13F230193DDE90003A8F8063005B0D7
:100DD800BDE8F08F002005B0BDE8F08FDA68114952
:100DE8008A4211D17F24DCE798476AE74046984752
:100DF80075E740469847DBE740469047D8F800300B
:100E0800CDE7B8F804A0C1E7404690470138D8F8C4
:100E1800003084B2C5E740469847013883B2019351
:100E2800D1E700BFBD090008B50900082DE9F04F5A
:100E380089B01D46884606901046129C10F8013B62
:100E480013999DF85060009233B1002210F8013BCD
:100E58000132002BFAD193B22A78687812FB03F397
:100E680002B21BB223EAE373082900F2A681DFE885
:100E780011F0010113011F01330141014F01660106
:100E88006F010900A18827880F44B4F90610FF1ADA
:100E98000029BFB2C0F2FE806488069804EB6104A2
:100EA800C280A4EB52028380078094B24480A64A91
:100EB800D8F8003011460192DA688A4240F08B81F6
:100EC8008020B84205D8DA6801998A4240F09881B2
:100ED8007F279E4A9B68A8F804709342039240F0CB
:100EE80087814020A04207D8D8F80030039A9B6831
:100EF800934240F080813F24009BA8F8064093F875
:100F080000B06B782C7804936B680793BBF1000FE3
:100F180000F0AC80ABF12005EBB25E2B00F22C8127
:100F2800D8F80030019ADB68934240F0288180208D
:100F3800B8F8043023449842C0F21E81D8F8003033
:100F4800039A9B68934240F01D814020B8F8061030
:100F5800049A02918B189842C0F20E81002A00F080
:100F68001C8102FB05F56FF0004E079BAE4415444B
:100F7800CDF814B003EB4E0E023BB8F804A003EB17
:100F880045030D469B463EF8027FA4B305F00703D0
:100F98004FF0010CEA0851460CFA03FC0AF1100361
:100FA8004FFA8CFC03EBC21200236FEA0C0942448F
:100FB8000DE07F2906D83F2D04D8107896B14CEA69
:100FC800000010700133013201319C4213D007FA3E
:100FD80003F00004EDD47F29F4D83F2DF2D810781F
:100FE800002EECD0013309EA0000013201319C42A5
:100FF80002F8010CEBD1F34505F10105C3D1DDF889
:1010080014B0D8F800200AEB04050199D368ADB2F2
:101018008B4240F0BD808020854205D3D36801997A
:101028008B4240F0C3807F259368039AA8F8045048
:10103800934240F0AA804020029B834208D3D8F80C
:101048000030039A9B68934240F0AA803F230293A2
:10105800029BA8F80630009A13785B4506D112F86F
:1010680001BF0092BBF1000F7FF454AF069809B09E
:10107800BDE8F08FB4F9041027880029B8BF013102
:1010880007EB6107B4F90610A7EB63070029BFB2A5
:10109800BFF602AF0131FFE6B4F900700699B4F962
:1010A80002400F80BFB24C80A4B28B80CA80FEE69B
:1010B800B4F9041027880029B4F90240B8BF0131F7
:1010C80007EB610706998B80A7EB63034C80A4B2FA
:1010D8009FB2CA800F80EAE6A1882788B4F9024047
:1010E8000F4406998B80FB1A4C80A4B29FB2CA8029
:1010F8000F80DCE6E78861883944B4F90070081A83
:10110800069984B20F808B80BFB2CA804C80CEE62D
:10111800B4F9041027880029B8BF013107EB61072B
:10112800A7EB6307B4F802C0BFB2E4880699644429
:101138008B80201ACA800F8084B24C80B7E627883B
:10114800A1880F44FF1AEDE7BD090008B50900089A
:10115800B4F90610B4F90070002964880698B8BF7D
:101168000131C28004EB610407808380BFB2A4EB25
:10117800520294B244809AE64FF0000B6BE7404667
:101188009847D5E640469847E0E64046984753E7F3
:1011980040469847D8F800203EE7B8F804A030E762
:1011A80040469847013883B2029351E74046984732
:1011B8000138D8F8002085B236E7D8F80030002486
:1011C800069A1349148054809480D480DA68019177
:1011D8008A4205D0274640469047D8F8003070E646
:1011E8009B680C4AA8F80440934203923FF484AEEB
:1011F8004046984776E640469847013884B27BE6F1
:10120800404690470138D8F8003087B261E600BF01
:10121800BD090008B50900087F291ED83F2A1CD837
:101228006BB1D3084FF0010C02F0070201EBC313B6
:101238000CFA02F2C1180B7C1A430A747047D308DF
:101248004FF0010C02F0070201EBC3130CFA02FC89
:10125800C1180A7C22EA0C020A7470472DE9F04F83
:1012680083B05C1A0C9E002C9DF83490A6EB020803
:10127800B8BF6442B8F1000FB8BFC8F100088B428C
:101288008CBF4FF0010A4FF0FF3A9642A4EB080CCE
:1012980051D84FF0FF357F2B019512D83F2E10D82B
:1012A800F50806F0070E012703EBC5150544B9F14B
:1012B800000F47D007FA0EF795F810E047EA0E0737
:1012C8002F74964201D18B4229D0C8F100077F299B
:1012D80014D83F2A12D8D50802F0070B4FF0010E98
:1012E80001EBC5150544B9F1000F1BD00EFA0BFE32
:1012F80095F810B04EEA0B0E85F810E0B7EB4C0FDE
:101308004FEA4C0502DAACEB080C5144AC4202DD62
:10131800019DA4442A449942D9D19642D7D103B019
:10132800BDE8F08F0EFA0BFB95F810E02EEA0B0ED5
:1013380085F810E0E2E701257F2B0195C5D83F2EFF
:10134800AED9C2E707FA0EFE2F7C964227EA0E07AF
:101358002F74B8D0B9E700BF2DE9F04F2DED068BFB
:1013680083B01F4680460D469DF8503016460193BF
:10137800139B002BC0F22182129A134406EE103AF6
:10138800DDED127AB8EEC66B9FEDCD4BB8EEE77B7C
:101398009FEDCD5B27EE047B26EE046B87EE050BF5
:1013A80086EE05ABF7EEC08BB0EE680A12F02CF9AA
:1013B80007EE907AB7EECAABF8EE679AB0EE408ABD
:1013C800B0EE680A12F01CFA60EE698AB0EE4A0ABA
:1013D80012F01AF9B0EE409AB0EE4A0A12F010FA7A
:1013E80020EE690A29EE888A29EE899A70EE687AD1
:1013F800F0EE006A39EE487A67EEA77AE7EE077AE8
:10140800F4EEE67AF1EE10FA06D5139BB42B40F30E
:1014180096804FF0010901E04FF00009012478425D
:101428004FF0000C0095E31B214627462246A340B7
:10143800B9F1000F6AD1424206EE90CACCF1000120
:1014480007EE102AB8EEE66A07EE901A06EE900A42
:10145800B8EEC77A139A66EE084AF8EEE77AB42A25
:1014680027EE284AF8EEE66A67EE885A74EEC43A20
:1014780026EEA85A26EE096A66EE806A67EE897A31
:1014880027EE007AF5EEC03A40F3F280F1EE10FA5A
:1014980000F17F8176EE473A74EEC54AF5EEC03A20
:1014A800F1EE10FAF5EEC04ACCBF01220022F1EEAF
:1014B80010FA00F1778136EE666A35EEC55AB5EE58
:1014C800C06AF1EE10FAB5EEC05ACCBF0121002176
:1014D800F1EE10FA00F16F8177EEE66AF5EEC06A78
:1014E800F1EE10FACCBF0127002775EEC45AF5EECD
:1014F800C05AF1EE10FA00F1478177EEC77AF5EE9F
:10150800C07AF1EE10FACCBF01240024002A40F082
:101518008A80002964D1BFB9C4BB9C4558DB0CF153
:10152800010C03EB4C0E1CEB000F0EF1010E00F04A
:10153800C08098424FDB734600287FF779AF03B02D
:10154800BDEC068BBDE8F08F009DA6EB0C0E00EB02
:10155800050ABAF17F0FDFD8BEF13F0FDCD84FEA9A
:10156800DE0B019D0AEBCB1A002D00F0B1800EF0C6
:10157800070BC2444FF0010E0EFA0BFE9AF810B09A
:101588004EEA0B0E8AF810E0002CC6D0009DA6EBA0
:101598000C0EA5EB000ABAF17F0FBED8BEF13F0FC3
:1015A800BBD84FEADE0B019D0AEBCB1A002D00F0E9
:1015B800AE800EF0070BC2444FF0010E9C450EFAA8
:1015C8000BFE9AF810B04EEA0B0E8AF810E0A6DA75
:1015D80098429E46AFDA01300EEB40030133ABE789
:1015E800009D0CEB060E00EB050ABAF17F0F92D8AE
:1015F800BEF13F0F8FD84FEADE0B019D0AEBCB1AE5
:10160800002D73D00EF0070BC2444FF0010E0EFAF6
:101618000BFE9AF810B04EEA0B0E8AF810E0002F75
:101628003FF47AAF90E7009D0CEB060EA5EB000A9D
:10163800BAF17F0F3FF66DAFBEF13F0F3FF669AFCE
:101648004FEADE0B019D0AEBCB1A002D6DD00EF090
:10165800070BC2444FF0010E0EFA0BFE9AF810B0B9
:101668004EEA0B0E8AF810E000293FF454AFB7E7B2
:10167800F1EE10FA7ED44A4674EEC54AF5EEC04A39
:10168800F1EE10FA6CD4002135EEC55AB5EEC05A09
:10169800F1EE10FA5AD4002775EEC45AF5EEC05A86
:1016A800F1EE10FA3FF529AF0024002A3FF431AFDC
:1016B800B9E798428FDB00233BE700BFAFF3008018
:1016C8007A008BFCFA210940000000000080664087
:1016D800C2444FF0010B0EF0070E0BFA0EFE9AF8FB
:1016E80010B02BEA0E0E8AF810E015E7C2444FF04E
:1016F800010B0EF0070E0BFA0EFE9AF810B02BEA4B
:101708000E0E8AF810E0002F3FF406AF1CE7C24423
:101718004FF0010B0EF0070E0BFA0EFE9AF810B000
:101728002BEA0E0E8AF810E0F7E6C2444FF0010BE0
:101738000EF0070E0BFA0EFE9AF810B02BEA0E0EFA
:101748008AF810E000293FF4E6AE49E777EEE66A4A
:10175800F5EEC06AF1EE10FACCBF012700279BE72F
:1017680036EE666AB5EEC06AF1EE10FACCBF01211A
:10177800002189E776EE473AF5EEC03AF1EE10FA25
:10178800CCBF0122002277E70124002A3FF4C1AE32
:1017980049E774EEC54A0122F5EEC04AF1EE10FAA7
:1017A8007FF589AE35EEC55A0121B5EEC05AF1EE86
:1017B80010FA7FF591AE012797E6DDE9122313446D
:1017C80006EE102A1293139B5B421393D8E500BFD1
:1017D8002DE9F04F87B09DF84850109C2E46019592
:1017E8009DF844509EB399422ED89946A24228D8D3
:1017F8007F29164694BF0023012308E09CF8108037
:101808004EEA080E8CF810E00136B44219D33F2E88
:10181800FAD8002BF8D14FEAD60C06F0070E4FF095
:10182800010801EBCC1C08FA0EFE8444002DE5D11A
:101838009CF810B001362BEA0E0AB4428CF810A0BE
:10184800E5D201318945D1D207B0BDE8F08FA3EBCD
:101858000108B8F1000FB8BFC8F100089942C0F0FC
:101868004E817F2B4FF0FF3A94BF002601263F2A76
:10187800009694BF002701270297A6B99FB9D608FA
:1018880002F0070C012703EBC6160644002D00F0F2
:10189800948107FA0CF796F810C047EA0C073774DA
:1018A800002602960096994200F097814646944693
:1018B8008E46BEF17F0F16D8BCF13F0F13D84FEA02
:1018C800DC070CF0070B4FF001090EEBC7170744B4
:1018D800002D00F0398109FA0BF997F810B049EAA0
:1018E8000B0987F81090770018BFD644B84502DD79
:1018F80046440CF1FF3C7345DBD16245D9D1002643
:101908000496A4EB0209009FB9F1000FB8BFC9F112
:1019180000093F2C94BF00260126A242C9F1000805
:101928000396C0F02381002F40F05081002E40F034
:101938004D814FF0FF360096E60803EBC6160644C5
:10194800002D00F01E814FF0010C04F007070CFA7F
:1019580007F796F810C047EA0C0737740026039675
:10196800A24200F03D81C44616461F4605927F2FCD
:1019780015D83F2E13D84FEAD60E06F0070B4FF0B6
:10198800010A07EBCE1E8644002D00F0E6800AFA15
:101998000BFA9EF810B04AEA0B0A8EF810A0B8EBC2
:1019A8004C0F4FEA4C0E02DAACEB090C013FBEF1CA
:1019B800000F01D0009A1644BB42D8D1B442D6D108
:1019C800059AA1EB030EBEF1000FB8BFCEF1000ED1
:1019D8007F2994BF4FF0000A4FF0010A99428CBF4B
:1019E8004FF001094FF0FF39BAF1000F13D1039EF0
:1019F8008EB9E60801EBC6160644002D00F0D38028
:101A08004FF0010C04F007070CFA07F796F810C01E
:101A180047EA0C073774049E26BB774626467F2B79
:101A280014D83F2E12D84FEAD60C06F0070B4FF009
:101A3800010803EBCC1C8444002D73D008FA0BF882
:101A48009CF810B048EA0B088CF810805FEA470C45
:101A580018BF4B44E64501DD7744013E9942DED18B
:101A6800B442DCD1A2EB040EBEF1000FB8BFCEF138
:101A7800000EA2428CBF4FF001084FF0FF38CEF1A4
:101A8800000CBAF1000F0ED1029B63B9D30802F023
:101A98000707012601EBC3130344002D7CD0BE4089
:101AA8001F7C3E431E74019B002B7FF4CDAE66461F
:101AB8000B467F2B12D83F2C10D8E70804F0070AF2
:101AC8004FF0010903EBC7170744A5B309FA0AF950
:101AD80097F810A049EA0A0987F81090BCEB460F5E
:101AE8004FEA460702DAA6EB0E06013B07B144446B
:101AF8009942DED1A242DCD107B0BDE8F08F3F2A7F
:101B08004FF0010A94BF002601267F2B029694BF4E
:101B1800002701270097002E7FF4C8AE002F3FF45E
:101B2800AEAEC3E608FA0BFB9CF8108028EA0B0857
:101B38008CF810808AE709FA0AFA97F8109029EACF
:101B48000A0987F81090C9E709FA0BFB97F8109073
:101B580029EA0B0987F81090C5E60AFA0BFB9EF8EC
:101B680010A02AEA0B0A8EF810A018E797BB8EBBC4
:101B780001260096E60803EBC6160644002D7FF4FE
:101B8800E2AE012704F0070C039507FA0CFC377C3A
:101B980027EA0C073774E3E606FA07F71E7C26EAFD
:101BA80007061E747FE7012704F0070C07FA0CFCF0
:101BB800377C27EA0C0737742DE707FA0CFC377CCB
:101BC800029527EA0C07009537746CE64FF0FF364C
:101BD8000096C5E601260096C5E60126049690E61D
:101BE80001260196EDE600BF2DE9F043524D85B080
:101BF800044603F08DFE2A68504B801A1B689842F1
:101C080002D805B0BDE8F083002603F081FE6142EA
:101C1800286037464A4DC9B24FF48062494811F0EE
:101C280043FF3946484800F091FCDFED487A20EE42
:101C3800270AFCEEC07A17EE902A5AB3C2F1400286
:101C480006F15909DFF80C8102F007030120D108D9
:101C580008EB060C984009EBC11340B20CEBC11C11
:101C68002B44C14306E040EA0E0E83F800E001333E
:101C78009C450CD03F2AFAD893F800E0002CF2D00B
:101C880001EA0E0E013303F801EC9C45F2D1013252
:101C9800402AD9D101372336042FC2D1DFF8B880C2
:101CA8004FF0B0094FF47A77002695F854100223C4
:101CB80003AA27480097A8F180048DF80C608DF8D6
:101CC8000D9002F043FE95F85410022303AA204811
:101CD80000978DF80C608DF80D6002F037FE10212A
:101CE8000097022303AA8DF80D10194895F854108F
:101CF8008DF80C6002F02AFE4FF47A7C14F8016F1C
:101D0800402795F85410022303AA1148CDF800C0C3
:101D18008DF80C708DF80D6002F018FEA045EBD11F
:101D280009F1010908F180085FFA89F9B9F1B80FDA
:101D3800B8D105B0BDE8F083780A00247C0A0024F5
:101D4800CC05002424060024FC0300240000804263
:101D58001C06002434060024A306002408B50B48FA
:101D680000F050FA0421094800F08EFB03210748CF
:101D780000F0B4FB064800F0B3F90649034800F048
:101D88007FFB0020FFF730FFFBE700BFFC030024C8
:101D9800CC050024C109000810B50A4800240A4AE5
:101DA8000A4904628462C0E9034411F021FC08482E
:101DB800084B0465044A08498364BDE8104011F0E3
:101DC80017BC00BFFC030024000000249D09000884
:101DD800CC050024C83B0108B9090008BE4BBF4A1E
:101DE8001B8812882DE9F04F97B0002502274FF085
:101DF8003C0BADF816301023044600F150060DEBED
:101E0800030A04958DF820300DF128098DF824B0C7
:101E18000DF1400CADF81420CE464FF47A78CDE998
:101E28000675BAE80F00A9E80F009AE8030089E8E8
:101E38000300BEE80F00ACE80F009EE803008CE842
:101E4800030010A9304684F854B002F0E9FCAE2330
:101E580003AACDF800808DF80D3030463B4694F843
:101E680054108DF80C5002F071FDD52303AACDF85B
:101E78000080304694F854108DF80D303B468DF8AC
:101E88000C5002F063FD802303AACDF80080304691
:101E980094F854108DF80D303B468DF80C5002F034
:101EA80055FDA82303AACDF80080304694F85410B5
:101EB8008DF80D303B468DF80C5002F047FD3F235E
:101EC80003AACDF80080304694F854108DF80D30F0
:101ED8003B468DF80C5002F039FDDA2303AACDF801
:101EE8000080304694F854108DF80D303B468DF83C
:101EF8000C5002F02BFD122303AACDF800803046C7
:101F080094F854108DF80D303B468DF80C5002F0C3
:101F18001DFDD32303AACDF80080304694F8541051
:101F28008DF80D303B468DF80C5002F00FFD3B4606
:101F380003AACDF80080304694F854108DF80C5060
:101F48008DF80D5002F002FD402303AACDF8008061
:101F5800304694F854108DF80D303B468DF80C50EF
:101F680002F0F4FCA62303AACDF80080304694F8CA
:101F780054108DF80D303B468DF80C5002F0E6FCFD
:101F8800A42303AACDF80080304694F854108DF8A5
:101F98000D303B468DF80C5002F0D8FC8D2303AA77
:101FA800CDF80080304694F854108DF80D303B463B
:101FB8008DF80C5002F0CAFC142303AACDF8008057
:101FC800304694F854108DF80D303B468DF80C507F
:101FD80002F0BCFCA12303AACDF80080304694F897
:101FE80054108DF80D303B468DF80C5002F0AEFCC5
:101FF800C82303AACDF80080304694F854108DF811
:102008000D303B468DF80C5002F0A0FC812303AA4A
:10201800CDF80080304694F854108DF80D303B46CA
:102028008DF80C5002F092FC8F2303AACDF80080A3
:10203800304694F854108DF80D303B468DF80C500E
:1020480002F084FCD92303AACDF80080304694F826
:1020580054108DF80D303B468DF80C5002F076FC8C
:10206800252303AACDF80080304694F854108DF843
:102078000D303B468DF80C5002F068FCDB2303AAB8
:10208800CDF80080304694F854108DF80D303B465A
:102098008DF80C5002F05AFC342303AACDF80080C6
:1020A800304694F854108DF80D303B468DF80C509E
:1020B80002F04CFCCDF800803B468DF80C5003AA8A
:1020C800AF2594F8541030468DF80D5002F03EFCC0
:1020D80017B0BDE8F08F00BF103C01080C3C0108A8
:1020E800194B9FED1A0A1A78597830B5044687B00B
:1020F80042EA012110308DED010A01F0EBFB204688
:102108000325FFF76BFE124A1249137852781248DA
:1021180043EA02230A7849789DED010A42EA01223E
:102128000178407841EA002104F1200001F098FB91
:102138000122002303A920468DF81430CDE903526B
:1021480003F0F0FA07B030BD203C010800000000A1
:10215800FC3B0108003C0108183C010800294ED04E
:10216800274BF0B5D0E90024481E03F10C0E951C4E
:1021780003F1100C4E00AC4218BF052802EB4105D4
:102188008CBF01200020624538BFAE452CBF012717
:102198000027384227D02644644538BFB64522D3A5
:1021A8009D890026D8894FEA510E65F30F06A4468B
:1021B80002EB8E0E65F31F46002560F30F0560F3F2
:1021C8001F45104640F8046B70454CF8045BF9D184
:1021D80021F00100C90705D5998922F81010DB897B
:1021E80024F81030F0BD023A023C023D998922F8E9
:1021F800021FAA42D98924F8021FF7D1F0BD7047FF
:10220800800A00242DE9F04140F201138E4A01258D
:1022180006462DED028BD8B0C0F8CC21ADF81430AD
:10222800002304958DF8163003F0E4FC002840F0F4
:10223800FA80304604A903F039FC06F1080000F0E2
:10224800A1FA82490DF19408814B06F10C00814AEC
:10225800CDE92513012341462792ADF8A03002F0BD
:1022680073FD0322012300241AA902A806F1100510
:102278001A9414AF0294CDE91E2300220123CDE95C
:10228800202301220023CDE92223734B1B9303F162
:10229800007303F540731C934FF44173ADF8743029
:1022A80003F0D2F801230AA903A80D940A930C930A
:1022B800102303948DF83830684B0B9302F0B0FA72
:1022C800039906F1200000F05BF94FF07E533021AE
:1022D800029A0893284609930323CDE9061306A911
:1022E80001F040F9284601F087F92846B0EE408A07
:1022F80001F070F9D0ED007ABC46DFF880E1454680
:10230800F8EE677ABEE80F0088EE277AACE80F008F
:102318009EE803008CE8030086ED727A37F8141003
:1023280001342846113501F0EFFA0C2CF6D106F1EC
:102338001407224604234146384606F13005002496
:102348009FED478A01F0EEFA09E001F0E5FC96ED11
:10235800720A01462846013401F0FCF92035072CA1
:10236800E1B23846F1D9E1B2013401F0D5FC0023DD
:102378000146F0EE480A28461A4696ED720A01F020
:10238800B7F90C2CEAD1374B012430461B88F48569
:1023980020F82C3F01F0E8FF2246334906F5D870B3
:1023A80001F08EFA2246314906F2B71001F088FA98
:1023B8002F4B06F5DF70A6F8C0411B88A6F8BE3182
:1023C80001F0D2FF2B4B06F5E170A6F8C4411B883B
:1023D800A6F8C23101F0C8FF0223D6F8CC010FA934
:1023E80010930023103013934BF68033CDE911443A
:1023F8000F9301F0E5FE384601F078FCD6F8CC41A1
:10240800237D04F11005DBB928461B4D2368D4E968
:102418000112009501F052FF0123237558B0BDEC5D
:10242800028BBDE8F081044604A930468DF81650A9
:1024380003F03CFB072C7FF404AF0DF1940810E780
:10244800284601F071FFDFE7800A00240508050926
:1024580005070506050A060604020404010A010B1D
:102468006F12033B243C01081C3C0108143C010882
:10247800083C0108043C010865210008743B010878
:10248800103001F001B900BFF8B500F1100705469A
:1024980000F1300400F5D87638462DED028B01F0B6
:1024A8009DF8384601F0A8F83846B0EE408A01F0A9
:1024B80091F8D0ED007AF8EE677A88EE270A85ED74
:1024C800720A01E095ED720A2046203401F09CF969
:1024D800B442F7D1BDEC028BF8BD00BFF8B500F1EE
:1024E8001007054600F1300400F5D87638462DED82
:1024F800028B01F085F8384601F07EF83846B0EED8
:10250800408A01F067F8D0ED007AF8EE677A88EE35
:10251800270A85ED720A01E095ED720A20462034FB
:1025280001F072F9B442F7D1BDEC028BF8BD00BFDF
:1025380038B500F1300400F5D8752046203401F094
:102548003FF9AC42F9D138BD704700BF00EB4111EB
:1025580091ED0F0A704700BF07490022074B01F1B0
:10256800600010B4302459601A611C601A755DF857
:10257800044BC3E90202704700000030800A0024BF
:10258800F0B58C2387B00160002203710124FA267C
:10259800194605AB8DF81420029640220093234675
:1025A8000194054602F0FAF9002840F09B809DF856
:1025B80014300DF117074022284603F07F030097D7
:1025C800CDE901468DF814308DF817302346297966
:1025D80002F00AFA002840F08580042003F09AF9F6
:1025E80005AB4022284600932346CDE901462979C8
:1025F80002F0D4F9002875D19DF8143040220097D4
:10260800284603F0BF03CDE901468DF814308DF854
:1026180017302346297902F0E7F9002862D104200F
:1026280003F078F90DF11503432228460093234659
:10263800CDE90146297902F0B1F9002852D10DF10E
:1026480016034822284600932346CDE901462979F6
:1026580002F0A4F9002845D19DF8153043220097CF
:10266800284643F001038DF815308DF817309DF892
:10267800163043F00103CDE901468DF816302346A4
:10268800297902F0B1F968BB9DF816304822009705
:1026980028468DF817302346CDE90146297902F0FE
:1026A800A3F9F8B905AB4022284600932346CDE9A3
:1026B8000146297902F072F9A0B99DF81420234641
:1026C8000194284602F0CF04029600974022297907
:1026D8008DF814408DF8174002F086F9003818BFBD
:1026E800012000E0012007B0F0BD00BFF0B51023C5
:1026F80087B0234C012200250126002702A9204685
:102708000195CDE902234FF48052CDE904670AF020
:10271800B3FE642003F014FD02A94FF48052204652
:10272800CDE9046702261027CDE902670AF0A4FE66
:102738000322102302A92046CDE902230023042204
:10274800CDE904234FF480520AF096FE40F232237A
:10275800042202A9019310232046CDE90223019AFD
:10276800012305924FF4805204930AF085FE40F647
:10277800060120460AF0A0FE284607B0F0BD00BFBB
:10278800A00A00241C4B00221C494FF0400C30B515
:10279800054689B00220596007219A601A6201240F
:1027A800DA620A224FF4006EDC6006922022CDE93C
:1027B800000104200821CDE9020103201021CDE900
:1027C800040108206946C3E904024FF4C072181DC9
:1027D800C3E906C24FF48052C3E909E20AF022FEB7
:1027E80038B92846FFF782FF003818BF012009B022
:1027F80030BD204609B030BD9C0A0024404100523B
:10280800614A0021D0B513688EB00A91002B40F0C0
:10281800B9805E4B01214FF683700C2411600221B0
:10282800D3F8D4200026032742F48052C3F8D420DA
:10283800D3F8D42002F480520092009AD3F8E02012
:1028480042F01002C3F8E020D3F8E02002F01002B2
:102858000192019AD3F8E02042F04002C3F8E02048
:10286800D3F8E02002F040020292029AD3F8E02066
:1028780042F00802C3F8E020D3F8E02002F0080292
:102888000392039AD3F8E02042F48072C3F8E02060
:10289800D3F8E02002F480720492049AD3F8E0207E
:1028A80042F08002C3F8E020D3F8E02002F0800272
:1028B8000592059AD3F8E02042F02002C3F8E02000
:1028C800D3F8E02002F020020692069AD3F8E0201E
:1028D80042F00402C3F8E020D3F8E0300C9403F08F
:1028E800040307930323079A0B93CDE9080108A96A
:1028F800274805F091FD48F23712022308A9254818
:102908000C94CDE90823CDE90A6705F085FD4CF262
:102918000372022308A920480C94CDE90823CDE9C5
:102928000A6705F079FD40F2FF62022308A91B48F7
:102938000C94CDE90823CDE90A6705F06DFD4FF643
:102948000C72022308A916480C94CDE90823CDE996
:102958000A6705F061FD4FF63F02022308A91148F6
:102968000C94CDE90823CDE90A6705F055FD20222E
:10297800022308A90A480C94CDE90A67CDE908237F
:1029880005F04AFD0EB0D0BD980A00240044025854
:102998000010025800180258000C02580020025873
:1029A800001C0258001402582DE9F04FDFF810847B
:1029B80006460D46144608F118002DED028B89B025
:1029C80000AF02F039FED8F8183073B3D8F81C30CD
:1029D800D8F80490002B43690BBF4FF0080A4FF05A
:1029E800100A4FF0020B4FF0040BB9F1000F2AD078
:1029F800A200EA46012B02F1070222F00702ADEB22
:102A0800020D6846ADEB020D694600F03F81022BCE
:102A180000F0D680002B6FD02246C847D546243711
:102A2800BD46BDEC028BBDE8F08FD8F81C30002BFA
:102A3800F5D0D8F804904FF0080A4FF0020B43691C
:102A4800B9F1000FD4D1FB61D8F80030BB61002B7D
:102A5800E5D0D54802F062FE6B46BBF1020F786103
:102A680008EE103AFB6900F083816A465146A2EBF2
:102A7800C40295466200EA46B2FBFBF2AAEBC40028
:102A880085460AEB8200EE46F861ADEB010DF86968
:102A98000EEB820CC7F810C0EC46ADEB010D00EB55
:102AA8008201CCF80400CCF8081001EB82013869E7
:102AB800E946CCF80C1000EB8201CCF800A001EB41
:102AC8008202C9E900E0C9E90212012B00F064831F
:102AD800022B00F06C82002B00F0808162084946CE
:102AE8006046BB69984718EE103A24379D46BD46A4
:102AF800BDEC028BBDE8F08F002C8DD01A46D8EDC6
:102B08000C6A9FEDB27A8446331D36F922E00CF147
:102B1800080C07EE90EA33F922E00232F8EEE77A81
:102B2800944267EE877A67EEA67A4CED027A07EE52
:102B380090EAF8EEE77A67EE877A67EEA67A4CEDC8
:102B4800017AE2D8F9612246C847984ED8ED0D6A55
:102B58000020F9692B1D9FED9E7A9FED9E6ADFED9F
:102B68009E5A22E0F4EEC67AF1EE10FAC0F2C8845A
:102B780047F6FE72D1ED017A45F8202066EEA77A75
:102B8800F4EEC77AF1EE10FA40F2F080F4EEC67A6D
:102B9800F1EE10FAC0F2D58447F6FE7243F8202011
:102BA8000230083184427FF639AFD1ED007A66EE03
:102BB800A77AF4EEC77AF1EE10FAD3D83246D9E7FD
:102BC800002C3FF429AFD8ED0C6A84469FED787A43
:102BD8000022331D8E4656F822100CF1080C07EE21
:102BE800901A53F822100232F8EEE77A944267EE10
:102BF800877A67EEA67A4CED027A07EE901AF8EE1D
:102C0800E77A67EE877A67EEA67A4CED017AE2D822
:102C180071462246C7F81CE0C847664ED8ED0D6AD3
:102C28000020F9692B1D9FED6A7A9FED6A6ADFF82B
:102C380094C120E0F4EEC67AF1EE10FAC0F279847D
:102C48003246D1ED017A45F8202066EEA77AF4EEF7
:102C5800C77AF1EE10FA40F28780F4EEC67AF1EE08
:102C680010FAC0F25E84324643F820200230083160
:102C780084427FF6D3AED1ED007A66EEA77AF4EE01
:102C8800C77AF1EE10FAD5D86246DAE7002C3FF49D
:102C9800C3AED8ED0C6A86469FED477A4FF0000C1C
:102CA800331D56F82C200EF1080E82F40002A2F50E
:102CB800000207EE902A53F82C200CF1020CF8EED3
:102CC800E77A82F400026445A2F5000267EE877A8B
:102CD80067EEA67A4EED027A07EE902AF8EEE77ACA
:102CE80067EE877A67EEA67A4EED017AD9D8F96150
:102CF8002246C847314ED8ED0D6A0020F9692B1DD0
:102D08009FED337A9FED336ADFF8BCC01FE0F4EE25
:102D1800C67AF1EE10FAC0F2FC833246D1ED017AA0
:102D280045F8202066EEA77AF4EEC77AF1EE10FA9D
:102D380018D9F4EEC67AF1EE10FAC0F2DA83324608
:102D480043F820200230083184427FF667AED1ED87
:102D5800007A66EEA77AF4EEC77AF1EE10FAD6D8C2
:102D68006246DBE76246EBE762467DE7324615E7F7
:102D7800A100D6466208073121F00701ADEB010D2D
:102D8800EA46ADEB010D6946ADEB0E0D0AEB82008C
:102D9800EC46ADEB0E0D01EB8202F861E946CCE999
:102DA80000A0C9E9001290E6F00A00240280FFFFA3
:102DB800000000300082FF7F0000003482FF7F00A7
:102DC800D40A0024007E00807E0080FF00000038C6
:102DD80004FF7FBF04FF7F3F00FEFF46002C00F08A
:102DE800C982BBF1020FD8F8242000F0FA82796971
:102DF800C7F8049002EB810E5FED0C5A8A00DCF8EC
:102E080008100EF104007A611A46DCF80C303B61B8
:102E1800331DD7F810903D61FD69C7E902CB8C4698
:102E2800834636F92210D8ED0C7A06EE101A33F9DB
:102E3800221006EE901A3EF92210B8EEC66A07EE86
:102E4800101AF8EEE66A3BF92210B8EEC77A26EEB9
:102E5800256A66EEA56A27EE257A26EE276A66EECB
:102E6800A76A27EE277A07EE901A51080232F8EE81
:102E7800E77A0AEB8100944280ED006A05EB810055
:102E880067EEA57AC0ED006A0CEB810009EB8101C1
:102E980080ED007A98ED0C7A67EE877AC1ED007ABA
:102EA800BFD8D7F804903D69D7E902CB60466208DD
:102EB800BB6949469847D8F82C307A69D8ED0D6A2D
:102EC8001A441FED3D7A1FED3D6A2B1D904602F115
:102ED800040A5FED3F5A0022A84ED9E900EC51E000
:102EE800F4EEC67AF1EE10FAC0F2C78247F6FE7029
:102EF80045F822000CEB0100D0ED007A66EEA77AC7
:102F0800F4EEC77AF1EE10FA4BD9F4EEC67AF1EE88
:102F180010FAC0F2BA8247F6FE70BBF1020F43F80E
:102F280022002BD0D9F808000844D0ED007A66EECC
:102F3800A77AF4EEC77AF1EE10FA36D9F4EEC67A2B
:102F4800F1EE10FAC0F2CD8247F6FE7048F8220082
:102F5800D9F80C000144D1ED007A66EEA77AF4EEB8
:102F6800C77AF1EE10FA1ED9F4EEC67AF1EE10FA2D
:102F7800C0F2AF8247F6FE714AF82210023294423C
:102F88007FF6B1AD51080EEB81008900D0ED007AD3
:102F980066EEA77AF4EEC77AF1EE10FAA0D83046BA
:102FA800A6E73046B9E73146E6E73046CEE7002CDB
:102FB80000F0E081BBF1020FD8F8243000F0E18185
:102FC8007A69DCF8081003EB820EC7F804909300C6
:102FD800DFED6B5A0EF1040000227B61DCF80C3047
:102FE8003B61331DD7F810903D61FD69C7E902CBFD
:102FF8008C46834656F82210D8ED0C7A07EE101A44
:1030080053F82210B8EEC76A07EE101A5EF82210BD
:10301800F8EEC76A07EE101A26EE256A5BF822104A
:10302800B8EEC77A66EEA56A26EE276A27EE257AF5
:1030380066EEA76A27EE277A07EE901A5108023241
:10304800F8EEE77A0AEB8100944280ED006A05EB1E
:10305800810067EEA57AC0ED006A0CEB810009EBF0
:10306800810180ED007A98ED0C7A67EE877AC1EDE0
:10307800007ABFD8D7F804903D69D7E902CB6046FB
:103088006208BB6949469847D8F82C307A69D8ED68
:103098000D6A1A449FED3E7A9FED3E6A131D9246D3
:1030A800DFF8E4C00022FB612B1D364ED9E9008E03
:1030B8004EE0F4EEC67AF1EE10FAC0F2FC8130462A
:1030C80045F822000EEB0100D0ED007A66EEA77AF3
:1030D800F4EEC77AF1EE10FA49D9F4EEC67AF1EEB9
:1030E80010FAC0F2EF813046BBF1020F43F822001C
:1030F8002AD0D9F808000844D0ED007A66EEA77AFD
:10310800F4EEC77AF1EE10FA35D9F4EEC67AF1EE9C
:1031180010FAC0F2C98130464AF82200D9F80C00EA
:103128000144D1ED007A66EEA77AF4EEC77AF1EEA3
:1031380010FA1ED9F4EEC67AF1EE10FAC0F2AD819B
:103148003146F86940F82210023294427FF6CBAC3F
:10315800510808EB81008900D0ED007A66EEA77A65
:10316800F4EEC77AF1EE10FAA3D86046A8E76046F5
:10317800BAE76146E5E76046CEE700BF0280FFFF99
:10318800000000300082FF7F007E008000000034D5
:1031980004FF7FBF04FF7F3F002C00F0EB807A69BB
:1031A8000021D8F82430C7F8109003EB820ED7F826
:1031B8001C909300FD610EF104021FED0C6A7B6107
:1031C800331D154656F821204808D8ED0C6ABBF186
:1031D800020F82F40002A2F5000207EE902A53F8CB
:1031E800212082F40002B8EEE77AA2F5000227EE69
:1031F800067A07EE902A0AEB8002F8EEE77A27EEC5
:10320800267A67EE867A82ED007A09EB80024FEA29
:10321800800067EEA67AC2ED007A27D05EF82120FA
:1032280082F40002A2F5000207EE902A55F8212048
:1032380082F40002B8EEE77AA2F5000227EE067AD9
:1032480007EE902ADCF80820F8EEE77A024427EE29
:10325800267A67EE867A82ED007A98ED0C7ADCF8A9
:103268000C2067EE877A0244C2ED007A02318C4264
:10327800A8D8D7F8109060466208BB694946FD692E
:103288009847D8F82C307A69D8ED0D6A1A441FEDA2
:10329800407A1FED406A131D9246DFF8C4C200222F
:1032A800FB612B1DAB4ED9E9008E4EE0F4EEC67AD9
:1032B800F1EE10FAC0F2C580304645F822000EEB58
:1032C8000100D0ED007A66EEA77AF4EEC77AF1EE47
:1032D80010FA49D9F4EEC67AF1EE10FAC0F2BF80BE
:1032E8003046BBF1020F43F822002AD0D9F8080073
:1032F8000844D0ED007A66EEA77AF4EEC77AF1EECC
:1033080010FA35D9F4EEC67AF1EE10FAC0F2AE80B2
:1033180030464AF82200D9F80C000144D1ED007A71
:1033280066EEA77AF4EEC77AF1EE10FA1ED9F4EE3B
:10333800C67AF1EE10FAC0F28B803146F86940F88F
:103348002210023294427FF6CEAB510808EB81007E
:103358008900D0ED007A66EEA77AF4EEC77AF1EE2E
:1033680010FAA3D86046A8E76046BAE76146E5E7E1
:103378006046CEE7224649466046BB699847FFF754
:10338800B2BBC7F810B0002298ED0C6A331DDFED10
:10339800726AD7F81CB0786956F8221007EE901AAE
:1033A80053F82210B8EEE77A07EE901A5108023265
:1033B800F8EEE77A27EE267A0AEB810E94420BEBB9
:1033C800810167EEA67A27EE067A67EE867A8EED99
:1033D800007AC1ED007ADFD88300D7F810B07B619E
:1033E8004DE61A46C7F810B098ED0C6A331DDFEDAC
:1033F8005B6AD7F81CB0786936F9221007EE101A04
:1034080033F9221007EE901AB8EEC77A5108023243
:10341800F8EEE77A27EE267A0AEB810E94420BEB58
:10342800810167EEA67A27EE067A67EE867A8EED38
:10343800007AC1ED007ADFD88300D7F810B07B613D
:1034480034E5F0EE675AFEEEE45A15EE900A34E7DA
:10345800F0EE675AFEEEE45A15EE901A6EE7F0EEBB
:10346800675AFEEEE45A15EE900A3AE7F0EE675A0C
:10347800FEEEE45A15EE900A4BE767EEA57AFDEEEC
:10348800E77A17EE900A00B232E567EEA57AFDEE0C
:10349800E77A17EE900A00B23FE5F0EE675AFEEEC3
:1034A800E05A15EE901A4CE6F0EE675AFEEEE05A36
:1034B80015EE900A30E6F0EE675AFEEEE05A15EE89
:1034C800900AFDE5F0EE675AFEEEE05A15EE900A16
:1034D8000AE667EEA57AFDEEE77A17EE901A09B2CA
:1034E8004AE567EEA57AFDEEE77A17EE900A00B294
:1034F8002CE5F0EE675AFEEEE45A15EE902A1FE42A
:1035080067EEA57AFDEEE77A17EE902A12B2FFF77A
:1035180031BBF0EE675AFEEEE45A15EE902AFFF73B
:10352800FDBBF0EE675AFEEEE05A15EE902AFFF763
:103538009BBBF0EE675AFEEEE05A15EE902AFFF7B5
:1035480080BB67EEA57AFDEEE77A17EE902A12B2F5
:10355800FFF724BB82FF7F00000000300000003826
:103568007E0080FF30B5184C154685B0046004F124
:10357800080EEC460FC98EE80F00D4ED047AF5EE7C
:10358800C07A8CE80F00F1EE10FA1ADDB7EE006A87
:1035980094ED057A27EE277AC6EE276A84ED0D7A30
:1035A800C4ED0C6A6DB1204640F8185F02F044F88B
:1035B800064903690020064A2162A262E36005B059
:1035C80030BD012005B030BDD40A0024C020003031
:1035D800C000003000680830704700BFB1F5807F38
:1035E80003680A4628BF4FF48072B1F5807F9A605D
:1035F80094BF0020012070470068183002F07CB8A2
:1036080070B504688AB0A369E160CBB104F118050C
:10361800284602F011F88446EE46E668BCE80F003A
:10362800AEE80F00BCE80F00AEE80F009CE803000E
:103638008EE8030069462846049601F005FFF8B9AC
:10364800E069D8B104F11C05284601F0F5FF84466D
:10365800EE46E468BCE80F00AEE80F00BCE80F00D7
:10366800AEE80F009CE803008EE803006946284690
:10367800049401F0E9FE003818BF01200AB070BDBB
:1036880001200AB070BD00BF30B5046883B00D4694
:10369800E3694BB1A3680020E26A616A9B0000906D
:1036A80004F11C0001F0CAFFA3680748A26A9B0046
:1036B800216A009004F1180001F0C0FF0020C4E95D
:1036C800005003B030BD00BFB129000810B4074B4B
:1036D8004FF07E5130240022032019619C60D8608D
:1036E8005DF8044B5961C3E906227047D40A0024E7
:1036F800F6EE007A9FED166A20EE207A0160F7EE6A
:10370800006A80ED036A80ED020A27EE277AC6EE8A
:10371800877AF4EEE67AF1EE10FA11DDF0EE667AC9
:103728004FF07E514FF0000C02760022C0ED017A76
:10373800C0F814C0016143768276C0ED070A70476D
:10374800F4EEC67AF1EE10FAEAD5F0EE467AE7E73B
:1037580000000000DFED187AB6EE007AF7EE006A96
:103768009FED166A60EE277A016080ED036A80EDAE
:10377800020A67EE877A86EEA77AB4EEE67AF1EE69
:1037880010FA10DDB0EE667A4FF0804C4FF07C51A5
:103798004FF48072012380ED017AC0F810C04161B6
:1037A800028383767047B4EEC67AF1EE10FAEBD551
:1037B800B0EE467AE8E700BF6F12033B0000000056
:1037C8000268037E128807EE902AFBEEC87A1BB1C6
:1037D800B7EE007A77EE677AD0ED056A90ED047A55
:1037E80077EEE67A437E67EE877A0BB1F1EE677A79
:1037F80090ED030A90ED017A77EEC07AA7EE270ADA
:1038080080ED030A704700BF837E80ED020AABB9E2
:10381800D0ED077A27EE800AF6EE007AB7EE007A46
:1038280020EE270AC7EE007AF4EEC77AF1EE10FA16
:1038380007DDF0EE477AC0ED017A7047DFED067AD2
:10384800E8E7F5EEC07AF1EE10FAF4D5DFED037A89
:10385800C0ED017A704700BF6F12033B0000000003
:1038680030B585B004460025ADF80C10ADF8082039
:10387800ADF8043002F04CF8BDF80C204FF480731A
:10388800206004F118002283BDF808206383E383D5
:10389800A283257100F068FD04F11C0000F064FDAE
:1038A8009FED060A019904F1080000F013F84FF69D
:1038B800FF736562238405B030BD00BF00000000BF
:1038C80009884FF0000C8271C0F802C0018000F036
:1038D8004BBD00BF70B5044682B0C1F30726CDB218
:1038E800ADF8041002F014F84FF480724FF0012381
:1038F8002060A01DA571A280E671A36002B0BDE89A
:10390800704000F031BD00BF82B04FF0000C0323BF
:10391800ADF80410BDF8042080F810C00280438080
:1039280002B070472DE9F04FBE4E00258FB0BE4C57
:10393800037006F140034260074601928846202240
:1039480029463046C4F85831C4F85461CDE90355C6
:10395800CDE90555CDE90755CDE90955CDE90B5513
:1039680010F0A2F82022294604F59970C4F82151D4
:10397800C4F82551C4F82951C4F82D5110F094F811
:10398800019B84F8385284F820317A68002A5FD085
:103998002B464146B64604F5907599464FF0010A04
:1039A80003EB0310D1F800B0D1F804800133D1F84B
:1039B80008C02218CE6844F800B0C2F80480C2F8E3
:1039C80008C0D660087C2EF8029B10740A7C05F8A3
:1039D800012F002A69D07A68113184F838A29A42F6
:1039E800DED84FF4802291489DF8043008214FF02A
:1039F80000084FF00009C4F874310023C4E95702E5
:103A08000122C4F8643184F87031C4E95A2194F869
:103A18003812C4E9608981B3C4F88821002284F887
:103A2800713184F878313B78C4E96322A3B3012269
:103A380000200121013B84F89421C4E96801082B86
:103A48002CD8DFE803F0ABB0B5BABFC4C9CFD600F5
:103A58009DF804300121C4F86421C4F874314FF48E
:103A6800802384F87021714AC4E95723082300226F
:103A7800C4E95A130023C4E960230123002284F80F
:103A88007131002384F878310323C4F888313B78F6
:103A9800C4E96322002BCAD184F89431644802F047
:103AA80087FF034638B1FFBEFEE77A6811319A42B4
:103AB8003FF676AF95E703A95D48039303F0D6F880
:103AC8000546002868D1022240F2FF73CDE9082399
:103AD80000230422CDE90A2394F82031002B00F0BA
:103AE800D5804FF0060921E0022B00F08980012BD8
:103AF80040F0C4809AF80130012B00F0C180002BFF
:103B08004C4B18BF002306A94948CDE9063902F0F5
:103B18007BFB002840F0BF80013594F82031EDB2DE
:103B2800AB4240F2B380444B53F825902FB207EBD9
:103B3800071704EB070A504600F016FC05EB0513BF
:103B480023441B7C042B7DDC022B00F3918000F0C6
:103B58008D806319002283F81021E35D002BC3D107
:103B68009AF80130062B00F08580072B00F08A8038
:103B7800022B00F09680032B00F09580002B00F0BC
:103B88009680012B00F09180042B00F09280052B89
:103B98002A4B18BF0023B6E7FFBEFEE703224023E7
:103BA800C4E966237AE707226023C4E9662375E738
:103BB8000F228023C4E9662370E71F22A023C4E9EB
:103BC80066236BE73F22C023C4E9662366E77F22AA
:103BD800E023C4E9662361E7FF224FF48073C4E958
:103BE80066235BE740F2FF124FF49073C4E9662343
:103BF80054E740F2FF324FF4A073C4E966234DE75F
:103C08009AF80130042B37D0052B3DD0002B40D03B
:103C1800012B42D0022B42D0032B094B18BF0023A3
:103C280071E700BFC0400030100B002400200240A4
:103C38006C0C00240002B025283C01080000B84F95
:103C48000020903603233E1D04EB05084FF0000BBF
:103C5800264488F8103130460BF1010B00F084FB44
:103C680098F8103104365B45F5DC76E70123EAE77E
:103C78000223E8E7104B46E7104B44E7002342E7EE
:103C88000F4B40E70F4B3EE70F4B3CE70FB0BDE84B
:103C9800F08F0E4B37E7FFBEFEE70D4B33E70D4BBA
:103CA80031E70D4B2FE70D4B2DE70D4B2BE70D4B58
:103CB80029E70D4B27E700BF0800900C1000C01043
:103CC8002000F0148000501D000180210004002A0B
:103CD8000008302E001060320040C03A0080F03EEC
:103CE80000005247000021430000844B38B5094CBE
:103CF80040F2FF724FF0011104F5AE75284602F04C
:103D080063FF94F82021D4F854112846BDE83840C0
:103D180002F0CEBC100B0024034B0F29D3F854013A
:103D280098BF00EB41007047100B0024214B02683C
:103D38009A4200D07047204A00232048D2F8D81071
:103D480030B51F4C41F0200183B0C4F8C0010920F0
:103D580004F5E075C4E971034FF48060C2F8D81027
:103D6800D2F8D8204FF40061C4E9733094F83802CF
:103D780002F02002C4F8D4114FF400519842019285
:103D88002846C4F8D811C4E97833019B14BF00232E
:103D98004FF48073C4F8DC3103F066FB08B1FFBE52
:103DA800FEE704F5AE73C4F8A851C4F8F83103B0BF
:103DB80030BD00BF002002400044025840000240CD
:103DC800100B0024014803F0D5BF00BFD00C00241D
:103DD80002682DE9F84F4B4B9A4201D0BDE8F88FA5
:103DE800494D95F83832002BF8D095F82031002B42
:103DF80077D0002405F10C0905F5997605F590773B
:103E0800A04613E003F0010117F811BCA9F108005E
:103E180000F086FBBBF1010F25D895F8203101345D
:103E280009F111090236A2B293422BD917F8012FD2
:103E3800002AF4D0D5F854310021327833F8140030
:103E4800D5F8583103EB041323F8120033880133F3
:103E58009BB233805FFA83FA3A789A42D2D88A467C
:103E6800A6F80080D0E7CAF34001A9F1040000F0E9
:103E780057FBBBF1020FCAF38001CED0484600F0D1
:103E88004FFBCAE7002395F83802204909229842D7
:103E9800C5F8C8314FF48060C5F8C011C5F8C42111
:103EA8004FF400614FF40052C5F8CC3108BF4FF40D
:103EB8008073C5F8D821C5E9740100221448C5E902
:103EC8007732C5F8E42103F0CFFA08B1FFBEFEE768
:103ED80095F82021D5F854110E48BDE8F84F02F0A6
:103EE800E7BB0A4909224FF48060C5F8C831C5E923
:103EF80070124FF400614FF40052C5E97330C5E900
:103F08007512DAE700200240100B0024400002403E
:103F1800D00C00246C0C0024704700BF4F4B026883
:103F28009A4200D070474E4BD3F8E81030B541F0B4
:103F380000514C4C85B0D4F84821C3F8E810D3F8A8
:103F4800E81001F0005101910199D3F8E01041F017
:103F58000101C3F8E010D3F8E03003F00103029345
:103F6800029B32F002033DD0013A012A6BD9D4F802
:103F78004C31012B0AD000223620114602F0EAFE0D
:103F8800362005B0BDE8304002F022BFD4F84831F1
:103F980033F0020234D0013B012BECD844224023F9
:103FA8003149324DC4F88C1000212846C4F8B010AD
:103FB800C4E9242300224FF48063C4E926234FF484
:103FC80000624FF40053C4E928234FF480724FF481
:103FD8008033C4E92A2303F047FA80B9E560C4F8BE
:103FE800C440C8E74FF48062032303A8ADF80C204F
:103FF8008DF80E3000F0B8F9D4F84821B4E7FEE7A0
:104008001B4BA2634322636140231A4DC4E9062374
:1040180000224FF480632846C4E908234FF4006265
:104028004FF40053C4E90A234FF480724FF48033ED
:10403800C4E90C2303F018FA20B9D4F84831A56074
:10404800E464A8E7FEE74FF4A062032303A8ADF8F1
:104058000C208DF80E3000F087F988E700740040D6
:1040680000440258500D002428040240DC0D0024AE
:1040780010040240640D0024014803F07BBE00BF19
:10408800640D0024014803F075BE00BFDC0D002458
:1040980010B5054C204603F017F804F58270BDE80A
:1040A800104009F0B7BB00BF500D0024164BD3F8E1
:1040B8004821D3F85811022A4FEA510130B583B08C
:1040C8000CD088B2D3F85C21D3F8644102EB4003EA
:1040D80000930CB16846A04703B030BDD3F8602107
:1040E800002AF9D088B2D3F85C41D3F8645104EBC4
:1040F800400402EB4002CDE90042002DECD06846B6
:10410800A84703B030BD00BF500D0024134BD3F8AF
:104118004821022A10B582B00CD0D3F85C11D3F82C
:104128006421009122B1D3F8581168464908904794
:1041380002B010BDD3F86021002AF9D0D3F85C1181
:10414800D3F86441CDE90012002CF1D0D3F858110E
:1041580068464908A04702B010BD00BF500D0024B2
:10416800094BD3F84821022A0DD000B5D3E95812DB
:1041780083B0019122B1D3F8581101A8490890479A
:1041880003B05DF804FB7047500D00240B4BD3F8C7
:104198004821022A10D0D3F8581110B5D3E9582471
:1041A800C1F34F0382B0490802EB430301930CB1FA
:1041B80001A8A04702B010BD704700BF500D0024F1
:1041C80030B58C463A4C3B4D8DB0046004F5A27E68
:1041D800BCE80F00AEE80F00DCF800302046256090
:1041E800CEF8003002F082FE0023D4F84C5103933D
:1041F800C5B11622012D049217D00022D4F854110B
:10420800D4F848319142CDE9062218BF022205921E
:1042180033F0020235D0013B012B3CD9002528465A
:104228000DB030BD02230493E7E7234A0093C4F896
:104238000C31C4F81431C4F80421C4F81C31CDE998
:10424800013301F0D5FCD4F844314BF68032C4F880
:104258000851002B08BF1346B0FBF3F304F5827036
:10426800C4F8103109F040F90028D8D12023029071
:10427800694604F58270009309F084FB0028BCD0DD
:10428800CDE703A90A4802F053FF78B9D4F84831BA
:10429800013B012BC2D8102203A9054802F048FFB0
:1042A800051E18BF012528460DB030BD0125B6E70B
:1042B800500D0024007400400010004070B50468E0
:1042C8001D4682B01046D4F84C31012B03D0D4F8E7
:1042D8004831022B24D1D4F85031069A002BC4F867
:1042E8005C11C4F864212B460CBF08260026C4F8CC
:1042F80060010A46C4F8585100212046009602F091
:104308000BFED4F860212B4610212046009602F0BF
:1043180003FE04F5827009F087F9002002B070BD31
:10432800012002B070BD00BF10B50468D4F84C314C
:10433800012B09D1D4F8483133F0020106D0013BF2
:10434800012B0BD9002010BD012010BD204602F022
:104358006FFED4F84831013B012BF3D810212046D9
:1043680002F066FE002010BD8378022B30B50446AB
:104378008FB037D0032B33D0012B31D000230A93D1
:10438800E378012B2AD0022B28D000230B9300239B
:1043980020460C9301F0B2FD0546204601F0B6FD1B
:1043A80023780990082B13D8DFE803F01F3245580B
:1043B8006B7E91A40500594BD3F8E02042F480723B
:1043C800C3F8E020D3F8E03003F480730893089B27
:1043D80009A9284604F020F80FB030BD0B93D6E7A2
:1043E8000A93CDE711230A93CAE74C4B09A928463B
:1043F800D3F8E02042F00102C3F8E020D3F8E0301F
:1044080003F001030093009B04F006F80FB030BDE1
:10441800424B09A92846D3F8E02042F00202C3F82B
:10442800E020D3F8E03003F002030193019B03F08E
:10443800F3FF0FB030BD394B09A92846D3F8E02067
:1044480042F00402C3F8E020D3F8E03003F004039C
:104458000293029B03F0E0FF0FB030BD2F4B09A978
:104468002846D3F8E02042F00802C3F8E020D3F849
:10447800E03003F008030393039B03F0CDFF0FB074
:1044880030BD264B09A92846D3F8E02042F0100297
:10449800C3F8E020D3F8E03003F010030493049B42
:1044A80003F0BAFF0FB030BD1C4B09A92846D3F85A
:1044B800E02042F02002C3F8E020D3F8E03003F017
:1044C80020030593059B03F0A7FF0FB030BD134BE6
:1044D80009A92846D3F8E02042F04002C3F8E020BA
:1044E800D3F8E03003F040030693069B03F094FFF3
:1044F8000FB030BD094B09A92846D3F8E02042F097
:104508008002C3F8E020D3F8E03003F0800307937B
:10451800079B03F081FF0FB030BD00BF0044025875
:1045280070B506460D4601F0E9FC0446304601F038
:10453800EDFC2A1E0146204618BF0122BDE8704046
:1045480004F072B90023122270B586B0CDE90223B7
:1045580004930368032B01D804230593061D841DC7
:10456800304601F0CBFC0546304601F0CFFC03464F
:1045780001A92846019303F04FFF204601F0BEFC35
:10458800034620461C4601F0C1FC01A9034620460B
:10459800019303F041FF06B070BD00BF634A036892
:1045A800934210B58CB028D0614A934258D0614AE2
:1045B800934200F09480604A934201D00CB010BD41
:1045C8005E4C5F48D4F8E03043F00203C4F8E030B2
:1045D800D4F8E03003F002030A930A9BFFF7B2FF16
:1045E800D4F8F43043F08003C4F8F430D4F8F4304D
:1045F80003F080030B930B9BE0E7504C5148D4F831
:10460800E03043F00203C4F8E030D4F8E03003F0BF
:1046180002030193019BFFF795FFD4F8E8300022CD
:104628001F2043F400131146C4F8E830D4F8E830EA
:1046380003F400130293029BD4F8D83043F001032B
:10464800C4F8D830D4F8D83003F001030393039B9F
:1046580002F080FB1F200CB0BDE8104002F0B8BB90
:10466800364C3948D4F8E03043F08003C4F8E030E1
:10467800D4F8E03003F080030493049BD4F8E030CE
:1046880043F00203C4F8E030D4F8E03003F002034A
:104698000593059BFFF756FFD4F8E8300022212048
:1046A80043F480031146C4F8E830D4F8E83003F442
:1046B80080030693069BD4F8D83043F00103C4F86E
:1046C800D830D4F8D83003F001030793079B02F0E1
:1046D80041FB21200CB0BDE8104002F079BB1B481B
:1046E800FFF730FF154B00224820D3F8E840114669
:1046F80044F40004C3F8E840D3F8E84004F40004A4
:104708000894089CD3F8D84044F00104C3F8D84072
:10471800D3F8D83003F001030993099B02F01AFB80
:1047280048200CB0BDE8104002F052BB00540040D5
:1047380000580040005C0040001C0058004402582B
:1047480044110024BC0E0024940F00246C10002493
:104758002DE9F0431A4B87B000254FF010099E460B
:10476800EC46184BFF22E04667461A700EF1180611
:104778000EF13004CDE90055CDE90255ADF80090B1
:10478800BCE80F00CDE90455AEE80F009CE8030033
:104798000095ADF800908EE80300B8E80F000FC64A
:1047A8009CE803000095ADF8009086E803000FCF61
:1047B8000FC49CE8030084E8030007B0BDE8F08359
:1047C80004000024B80E002410B5EFF3108472B66C
:1047D800084B1A78120602D504B962B610BD1B78C8
:1047E800D82205485BB202FB0300143003F0C2FA7A
:1047F800F2E700BFB80E0024BC0E0024014805F003
:1048080023B900BF480F0024014805F01DB900BFB7
:1048180020100024014805F017B900BFF810002443
:104828002DE9F0430F68D8243F4D85B007FB04F409
:10483800032F05EB0403036040DCCB680E46012B15
:104848003CD84DD04FF0D808B646DFF8FC9008FBAE
:104858000758BEE80F00C446ACE80F00DEF8003089
:104868000DF1100ECCF80030D8F808C099E80F0008
:104878000EE90F000EEB8703BCF1010F53F8103C53
:10488800C8F88C3031D0BCF1020F42D0BCF1000F17
:1048980035D0317C8C34D823002201202C4403FBF2
:1048A80007534900C3E92602C3F894102046C3E918
:1048B8002822C3E92A2204F041FC18B1012005B0DE
:1048C800BDE8F0830146204605F0CAF80028F5D176
:1048D8000146204605F0EEF8003818BF0120EEE743
:1048E8000B7C103B672BADD9E8E701F07FF90F4B44
:1048F80098420CBF0E4B0F4BC8F89030C9E701F037
:1049080075F90A4B98420CBF0B4B0C4BC8F890300A
:10491800BFE701F06BF9054B98420CBF084B094BF8
:10492800C8F89030B5E700BFBC0E0024000E27077A
:104938002D0FB0303211D0205F4390608A62E03092
:10494800200BA0101A0980108C3B01082DE9F041BA
:10495800D0F8008082B00D4617461E4608F18C0438
:10496800204605F079F82028FAD1D8F80C3073B928
:104978006D002046089C33463A46A9B2009404F0DC
:1049880033FC003818BF012002B0BDE8F081089B55
:1049980032463946204604F0FBFCF2E72DE9F041A7
:1049A800046884B01E46E368BDF82C80C3B90D4680
:1049B80017468C34204605F04FF82028FAD12046B7
:1049C8000C9C33463A462946CDE901840A9C00945A
:1049D80004F0ECFE003818BF012004B0BDE8F081F7
:1049E800012004B0BDE8F0812DE9F041046884B0ED
:1049F8001E46E368BDF82C80C3B90D4617468C34B3
:104A0800204605F029F82028FAD120460C9C334688
:104A18003A462946CDE901840A9C009404F09CFD9D
:104A2800003818BF012004B0BDE8F081012004B0AF
:104A3800BDE8F081044B10221A7483F8E82083F84B
:104A4800C02183F898227047BC0E002430B500239B
:104A580095B04FF48071062204460B930692139387
:104A6800CDE90C13CDE90E33CDE9113301F0C2F8CD
:104A780007282BD004F1100541F2883206A92846F0
:104A880005F02AFE28B10123184684F85C3015B0D9
:104A980030BD0222022306A92846CDE900231022B0
:104AA8000123CDE9022300224FF48003CDE904233A
:104AB80005224FF0807306926A460F9341F28833BD
:104AC80005F076FF0028DED115B030BD03230120A4
:104AD80084F85C3015B030BD70B50023A4B04FF039
:104AE80080724FF480750446ADF806300D93CDE919
:104AF80010320122CDE90E53CDE91223CDE914334A
:104B0800002943D0F02300F1100508AEADF80630B7
:104B1800C02341F2883231462846089305F0DCFD6F
:104B280028B10123184684F85C3024B070BD41F2E6
:104B380088320DF10601284605F038FE03460028A4
:104B4800EFD105224FF480711E93284616924FF03C
:104B580080721B9321931F9202AA9FED1F7BCDE9C0
:104B68001C13CDE922338DED027B9FED1D7B41F2B5
:104B7800883316A98DED047B9FED1B7B8DED067B9D
:104B880005F016FF0028CCD124B070BD00F1100547
:104B980008AE612341F2883231462846089305F071
:104BA8009BFD0028BDD141F288320DF1060128464F
:104BB80005F07AFE0028B4D1BDF80630204623F06F
:104BC800780343F04003ADF80630FFF73FFF0028B5
:104BD8009ED0A6E7AFF300800000000001000000AF
:104BE800100000000100000000000000000040006C
:104BF8002DE9F04F00234FF4807501264FF080789F
:104C080004462DED028BABB08DF80730139321933A
:104C1800299314950E96CDF85C80CDE91533CDE92E
:104C28001863CDE91A33CDE92253CDE92433CDE910
:104C3800273306231C9300F0DDFF072808D004F172
:104C4800100741F288321CA9384605F045FD40B1ED
:104C58000123184684F85C302BB0BDEC028BBDE80C
:104C6800F08F4FF0020A4FF0020B4FF0050941F2A6
:104C7800883308AA1CA93846CDF89480CDF87090DE
:104C88009FED2D8BCDE908AB4FF0000A4FF4800B58
:104C98008DED0A8BCDE90CAB05F08AFE0028D7D143
:104CA80041F2883238460EA905F016FD0028CFD10A
:104CB800402341F288320DF1070138468DF807305C
:104CC80005F074FD0028C3D141F288330EA902AA69
:104CD8003846CDF83890CDF85C809FED197B8DED86
:104CE800048BCDE906AB8DED027B05F061FE034632
:104CF8000028ADD1CDF870904FF00109CDF894801F
:104D08004FF00008219308AA29931CA93846229538
:104D1800CDE92333CDE9273341F288338DED0A8B72
:104D2800CDE90CABCDE9088905F042FE002893D007
:104D3800304684F85C608FE7100000000100000036
:104D480040000000400000002DE9F043624CA3B091
:104D58000D46046000F04EFF072800F0A98028687F
:104D680023466968AA6807C31E46AB8926F8043B30
:104D78003046257B677B05F091FCE0B9574B012D48
:104D88004FF00108E061236114BF4FF480134FF422
:104D98000003C4E9058893FAA3F3B3FA83F34FF445
:104DA8008079013BC4F82490C4E90B0030462362A3
:104DB80005F008FC38B10122134684F85C20184637
:104DC80023B0BDE8F08366230B90139041F288323C
:104DD80006A90693CDE90C90CDE90E00CDE91100A6
:104DE800304605F079FC0028E5D1992341F2883254
:104DF80006A93046069305F06FFC0028DBD1052391
:104E08001C9019906A4614934FF08073219014A94E
:104E18001D9341F288339FED2A7BCDE91A90CDE9A5
:104E28001F008DED007B9FED287B30468DED027BCA
:104E38009FED277B8DED047B05F0BAFD0028BAD1E4
:104E480029462046FFF748FE0028B4D12046FFF740
:104E5800CFFE03460028AED1002FB0D118933046BC
:104E68000027002606AA14A9CDF86890CDE91F33BB
:104E7800EB2314934FF440631B934FF400531793A1
:104E88004FF440431C93A0231693062319934FF025
:104E9800805321934FF04073CDE906671D9305F0C9
:104EA800FFFD034600288AD0434684F85C8086E7E5
:104EB80001230322184684F85C2023B0BDE8F08360
:104EC80000000000010000001000000001000000C8
:104ED80000000000000040001C1200240050005296
:104EE8002DE9F04F8FB0414B0024026800AF9A4281
:104EF8007C63C7E90944C7E90B4403D03C37BD4686
:104F0800BDE8F08F3A4B40F609213A48EB46D3F812
:104F1800D42007F11C0607F1220A4FF0020942F4D7
:104F280080424FF00308C3F8D420D3F8D42002F409
:104F38008042BA60BA68D3F8E02042F04002C3F871
:104F4800E020D3F8E02002F04002FA60FA68D3F8D3
:104F5800E02042F02002C3F8E020D3F8E02002F07D
:104F680020023A613A69D3F8E02042F01002C3F80F
:104F7800E020D3F8E02002F010027A617A69D3F8D1
:104F8800E02042F00202C3F8E020D3F8E030F861F4
:104F980003F002033984BB61174B7B60BB697B68F4
:104FA80053F8040F7B6000F0A9FF7B68054618687A
:104FB80000F0ACFF16F8013B786207F1240128469F
:104FC800C7F830807B63C7E90A9403F025FA564591
:104FD800E5D100225C20114601F0BCFE5C2001F006
:104FE800F7FE3C37DD46BD46BDE8F08F0050005265
:104FF800004402580A0A090978120024114B026871
:105008009A4200D07047104A70B5D2F8D4300F4C8D
:1050180023F4804304F11806C2F8D43054F8040F7E
:1050280000F06CFF0546206800F070FF0146284636
:1050380003F032FBB442F1D15C20BDE8704001F0CE
:10504800D5BE00BF00500052004402587812002418
:10505800014805F0B1BD00BF2C120024084B1A1DF1
:10506800981D03F1080110B49C1C9A6603F10A020A
:10507800C3E91834C3E91B015DF8044B5A6770474C
:105088001C12002438B5036871B9026A00F12805BA
:1050980000F5AC74012A0CBF002140218BBB1D4BCD
:1050A8005722C0F858310DE0426A00F1C00500F5FA
:1050B800E874012A0CBF00214021EBB1164B5A229B
:1050C800C0F8D03100232046C4E901214FF48052B2
:1050D8004FF48061636262614FF48042C4E9033136
:1050E8004FF48073C4E906234FF40033236202F0BF
:1050F800BBF958B1FFBEFEE7084B5822C0F8D031C3
:10510800E0E7074B5922C0F85831DBE7C5E92044EE
:10511800A56338BD1000024070000240280002401C
:10512800580002402DE9F043821D05468BB0031D4F
:1051380005F10A010830CDE9052305F10C02AB6938
:10514800CDE907010992002B3DD0EB69B3FA83F84A
:105158004FEA58180123022205AE0AAF4FF006099C
:105168000393CDE9012356F8044B2B792278934217
:1051780016D02B68F3B1012B02D1F2B10A230493A4
:10518800204600F0C3FE03462046009300F0B6FE1A
:10519800694603F041F9BE42E5D10BB0BDE8F083A2
:1051A800697963789942E4D1B8F1000FF3D02B689C
:1051B800002BE0D1CDF81090E2E76378022B14BF02
:1051C8000A230823DBE74FF00108C3E7534A0368C3
:1051D800934230B505468BB055D02032934252D019
:1051E8004F4A934204D02032934201D00BB030BDD5
:1051F8004C4C4D48D4F8E03043F00103C4F8E0309B
:10520800D4F8E03003F001030593059BD4F8E030AF
:1052180043F00803C4F8E030D4F8E03003F00803A2
:105228000693069BD4F8E03043F04003C4F8E0301E
:10523800D4F8E03003F040030793079BD4F8F0302C
:1052480043F40003C4F8F030D4F8F03003F400035A
:105258000893089BFFF766FFD4F8D830296843F015
:1052680001032F4A3048C4F8D830891AD4F8D83006
:1052780018BF012103F001030993099B0BB0BDE896
:105288003040FFF7FFBE274C2848D4F8E03043F001
:105298000103C4F8E030D4F8E03003F001030093D0
:1052A800009BD4F8E03043F01003C4F8E030D4F8A1
:1052B800E03003F010030193019BD4F8E03043F091
:1052C8004003C4F8E030D4F8E03003F04003029320
:1052D800029BD4F8F03043F48003C4F8F030D4F8DB
:1052E800F03003F480030393039BFFF71BFFD4F80C
:1052F800D830296843F00103084A0C48C4F8D8306C
:10530800891AD4F8D83018BF012103F00103049397
:10531800049B0BB0BDE83040FFF7B4BE0458014011
:10532800045C014000440258F01400249412002444
:10533800014802F01FBD00BFEC130024014802F031
:1053480019BD00BF64140024014802F013BD00BF5A
:1053580048160024014802F00DBD00BFC016002405
:105368001A4A0368934210B40BD02032934208D0F3
:10537800174A934216D02032934213D05DF8044B5B
:105388007047144B0022D3F85442C3F85822002C1B
:10539800F4D0D3F84802D3E9931223465DF8044BBE
:1053A800520818470B4B0022D3F8B044C3F8B42472
:1053B800002CE3D0D3F8AC24D3F8A814D3F8A40471
:1053C800520823465DF8044B184700BF04580140B3
:1053D800045C014094120024184A0368934210B4F4
:1053E8000BD02032934208D0154A934217D020326E
:1053F800934214D05DF8044B7047124BD3E99424C0
:105408005208C3F85822002CF4D0D3E9920123465D
:1054180001EB820100EB82005DF8044B1847094B51
:10542800D3F8AC24D3F8B0445208C3F8B424002C01
:10543800E0D0D3F8A814D3F8A404E8E7045801404E
:10544800045C0140941200242DE9F04F0C684FF4DD
:105458001776754F87B004FB06F6012C07EB060A92
:10546800C0F800A000F3A0800D468E464FF000085B
:10547800D44669A3D3E9002369A1D1E90001CDE9A4
:10548800022306ABCAF8508203EB8403CDE904017A
:1054980053F810BC53F8083CCAE992880193BEE857
:1054A8000F00ACE80F00BEE80F00ACE80F00019B4E
:1054B8009EE80300CAF828B0CAF8C0308CE8030098
:1054C8002B69042B0CD8DFE803F0737D8791030068
:1054D8004FF41773554A03FB04739A64C3F8E0202A
:1054E800AA692B6A002A43D0002B4FF4177308BF10
:1054F800022203FB047318BF0322DA6201221A6333
:10550800EA696B6A002A40D1191E4FF4177318BF55
:10551800012103FB0473C3E931126B69022B05D81F
:10552800434A12F80380434A52F823904FF4177302
:1055380006F128004246494603FB04740023384418
:1055480063646363E365C4F8DC30C4F8CC30C4F842
:10555800F430C4E90F33C4E91533C4E93533C4E979
:105568003B33022307F0CAFB002849D0FFBEFEE701
:10557800191E4FF4177318BF012103FB0473C3E905
:105588000B12EA696B6A002ABED0002B4FF417731E
:1055980008BF022203FB047318BF0322C3F8C42008
:1055A8000122C3F8C820B8E7012007B0BDE8F08F92
:1055B8004FF417734FF4FA5203FB04739A64C3F859
:1055C800E0208DE74FF417734FF47A5203FB04730E
:1055D8009A64C3F8E02083E74FF417734FF4FA4254
:1055E80003FB04739A64C3F8E02079E74FF4177358
:1055F8004BF6803203FB04739A64C3F8E0206FE72C
:1056080006F1C000022342464946384407F076FBBB
:105618000028CAD0FFBEFEE704580140045C0140E0
:1056280024580140245C01409412002400770100B2
:10563800683C01086C3C01080068704770B5046854
:1056480082B015460E46C4F85032C4E99212069A42
:10565800C4F85422A269012A26D0626A012A9AB2A1
:1056680011D0294604F1C000019207F003FC236A17
:10567800019A012B10D0294604F1280007F0FAFB03
:10568800002002B070BD04F1C000019207F084FC54
:10569800236A019A012BEED1314604F1280007F064
:1056A8007BFC002002B070BD226A012A9AB211D098
:1056B800294604F12800019207F0DCFB636A019A8D
:1056C800012B10D0294604F1C00007F0D3FB0020BD
:1056D80002B070BD04F12800019207F05DFC636A16
:1056E800019A012BEED1314604F1C00007F054FCB9
:1056F800002002B070BD00BF03681B69042B05D8E9
:10570800044A02EB830393ED000A70479FED020AF7
:10571800704700BF783C010800803B470368D3F816
:1057280058027047002091F808C01C4B1C4A844559
:1057380010B4C3E90020D1E90024186118BF4FF460
:105748008050002C0CBF00214FF48041C3E90201B6
:10575800042A06D8DFE802F0090F151B030001220E
:105768005A6100205DF8044B7047FA2200205DF86A
:10577800044B5A617047082200205DF8044B5A61B7
:105788007047042200205DF8044B5A6170470222DA
:1057980000205DF8044B5A61704700BF4C17002485
:1057A80000700052014807F019BD00BF4C170024D3
:1057B800704700BF08B500F0B1FCBDE8084001F033
:1057C80091BB00BF064808B503680BB103F030F879
:1057D800044803681BB1BDE8084004F097B908BD48
:1057E800D81B0024D0170024064808B503680BB15D
:1057F80003F01EF8044803681BB1BDE8084004F034
:1058080085B908BDD81B0024D0170024064808B560
:1058180003680BB103F00CF8044803681BB1BDE83A
:10582800084004F073B908BDD81B0024D017002421
:10583800364BDA6A520062D59A6A9A6A9A6A9B6A01
:10584800180600D500BE314B9B6A990600D500BEEC
:105858002E4B9B6ADA0600D500BE2C4B9B6A1B07B1
:1058680000D500BE294B9B6A980700D500BE274B80
:105878009B6AD90700D500BE244B9B6A1A0400D541
:1058880000BE224B9B6A9B0400D500BE1F4B9B6A3F
:10589800D80400D500BE1D4B9B6A190500D500BE73
:1058A8001A4B9B6A5A0500D500BE184B9B6A9B058C
:1058B80000D500BE154B9B6AD80500D500BE134B1A
:1058C8009B6A990100D500BE104B9B6ADA0100D58E
:1058D80000BE0E4B9B6A1B0300D500BE0B4B9B6A98
:1058E800580300D500BE094B9B6A990300D500BE3A
:1058F800064B9B6ADA0306D400BE00BEFEE7DB6AED
:105908009B07FAD5F8E700BEF6E700BF00ED00E018
:1059180000F010BC00F014BC2DE9F041CEB00446F4
:105928004C2200210AA80EF0BFF82022002102A86C
:105938000EF0BAF8BC2200211EA80EF0B5F802201D
:1059480004F058FD2368012B4FF0000354D0534A4C
:1059580002250193C820D16A514B21F00101D1627F
:10596800D26A02F0010201929A6942F440429A61B5
:105978009B6903F440430193019B494A93699B0443
:10598800FCD548490224002201268B6A04274FF0DF
:10599800080823F0030323438B62052316900AA803
:1059A80018934FF480331096179419941597CDF8DF
:1059B8006880CDE91B222122CDE91344CDE90A23D1
:1059C80005F002FA00B1FEE73F220323294602A8A8
:1059D800CDE9022300220823CDE9042340224023F5
:1059E800CDE9062340234FF48062CDE9082305F072
:1059F80019FD0346B8B1FEE7294A04250093F020B3
:105A08009169264B41F440419161926902F4404208
:105A18000092DA6A42F00102DA62DB6A03F00103FB
:105A28000093009BA9E720224FF4805125934FF45F
:105A380040152B9280222D931EA8309326913591E4
:105A48004FF48071249234920C223394439140F2A3
:105A5800271120921022CDF884802A971F96CDE92D
:105A68002E34CDE93B334FF48033CDE922463193D0
:105A7800002446930623CDE93E4527934FF48063DF
:105A8800094C2C931E94CDE9281205F027FF00B18C
:105A9800FEE704F0D5FC4EB0BDE8F08100040058E4
:105AA80000480258004402580F130F032DE9F04133
:105AB8000D46044684B0D1E9000184E8030000F0F3
:105AC800FDFAAE79002E37D06F460BF015FAFEF7C7
